{
  "_format": "hh-sol-artifact-1",
  "contractName": "Bittery",
  "sourceName": "contracts/Bittery.sol",
  "abi": [
    {
      "inputs": [
        {
          "internalType": "address",
          "name": "_coordinator",
          "type": "address"
        },
        {
          "internalType": "uint256",
          "name": "_subscriptionId",
          "type": "uint256"
        },
        {
          "internalType": "bytes32",
          "name": "_keyHash",
          "type": "bytes32"
        }
      ],
      "stateMutability": "nonpayable",
      "type": "constructor"
    },
    {
      "inputs": [
        {
          "internalType": "address",
          "name": "have",
          "type": "address"
        },
        {
          "internalType": "address",
          "name": "want",
          "type": "address"
        }
      ],
      "name": "OnlyCoordinatorCanFulfill",
      "type": "error"
    },
    {
      "inputs": [],
      "name": "ReentrancyGuardReentrantCall",
      "type": "error"
    },
    {
      "anonymous": false,
      "inputs": [
        {
          "indexed": true,
          "internalType": "address",
          "name": "winner",
          "type": "address"
        }
      ],
      "name": "WinnerPicked",
      "type": "event"
    },
    {
      "inputs": [],
      "name": "TICKET_PRICE",
      "outputs": [
        {
          "internalType": "uint256",
          "name": "",
          "type": "uint256"
        }
      ],
      "stateMutability": "view",
      "type": "function"
    },
    {
      "inputs": [],
      "name": "buyTicket",
      "outputs": [],
      "stateMutability": "payable",
      "type": "function"
    },
    {
      "inputs": [],
      "name": "drawing",
      "outputs": [
        {
          "internalType": "bool",
          "name": "",
          "type": "bool"
        }
      ],
      "stateMutability": "view",
      "type": "function"
    },
    {
      "inputs": [],
      "name": "getPlayers",
      "outputs": [
        {
          "internalType": "address[]",
          "name": "",
          "type": "address[]"
        }
      ],
      "stateMutability": "view",
      "type": "function"
    },
    {
      "inputs": [],
      "name": "owner",
      "outputs": [
        {
          "internalType": "address",
          "name": "",
          "type": "address"
        }
      ],
      "stateMutability": "view",
      "type": "function"
    },
    {
      "inputs": [
        {
          "internalType": "uint256",
          "name": "requestId",
          "type": "uint256"
        },
        {
          "internalType": "uint256[]",
          "name": "randomWords",
          "type": "uint256[]"
        }
      ],
      "name": "rawFulfillRandomWords",
      "outputs": [],
      "stateMutability": "nonpayable",
      "type": "function"
    },
    {
      "inputs": [],
      "name": "recentWinner",
      "outputs": [
        {
          "internalType": "address",
          "name": "",
          "type": "address"
        }
      ],
      "stateMutability": "view",
      "type": "function"
    },
    {
      "inputs": [],
      "name": "requestRandomWinner",
      "outputs": [],
      "stateMutability": "nonpayable",
      "type": "function"
    }
  ],
  "bytecode": "0x6101006040523480156200001257600080fd5b506040516200137a3803806200137a833981810160405281019062000038919062000202565b828073ffffffffffffffffffffffffffffffffffffffff1660808173ffffffffffffffffffffffffffffffffffffffff168152505050600160008190555033600360006101000a81548173ffffffffffffffffffffffffffffffffffffffff021916908373ffffffffffffffffffffffffffffffffffffffff1602179055508273ffffffffffffffffffffffffffffffffffffffff1660a08173ffffffffffffffffffffffffffffffffffffffff16815250508167ffffffffffffffff1660c08167ffffffffffffffff16815250508060e081815250505050506200025e565b600080fd5b600073ffffffffffffffffffffffffffffffffffffffff82169050919050565b60006200014a826200011d565b9050919050565b6200015c816200013d565b81146200016857600080fd5b50565b6000815190506200017c8162000151565b92915050565b600067ffffffffffffffff82169050919050565b620001a18162000182565b8114620001ad57600080fd5b50565b600081519050620001c18162000196565b92915050565b6000819050919050565b620001dc81620001c7565b8114620001e857600080fd5b50565b600081519050620001fc81620001d1565b92915050565b6000806000606084860312156200021e576200021d62000118565b5b60006200022e868287016200016b565b93505060206200024186828701620001b0565b92505060406200025486828701620001eb565b9150509250925092565b60805160a05160c05160e0516110db6200029f600039600061041301526000610434015260006103d70152600081816101ae015261020201526110db6000f3fe60806040526004361061007b5760003560e01c80638b5b9ccc1161004e5780638b5b9ccc146101165780638da5cb5b14610141578063b77200b11461016c578063edca914c146101975761007b565b80631a95f15f146100805780631fe543e3146100ab5780634f8c70cf146100d4578063522a1f0b146100ff575b600080fd5b34801561008c57600080fd5b506100956101a1565b6040516100a29190610958565b60405180910390f35b3480156100b757600080fd5b506100d260048036038101906100cd9190610b0c565b6101ac565b005b3480156100e057600080fd5b506100e961026c565b6040516100f69190610ba9565b60405180910390f35b34801561010b57600080fd5b50610114610292565b005b34801561012257600080fd5b5061012b6104c6565b6040516101389190610c82565b60405180910390f35b34801561014d57600080fd5b50610156610554565b6040516101639190610ba9565b60405180910390f35b34801561017857600080fd5b5061018161057a565b60405161018e9190610cbf565b60405180910390f35b61019f61058d565b005b662386f26fc1000081565b7f000000000000000000000000000000000000000000000000000000000000000073ffffffffffffffffffffffffffffffffffffffff163373ffffffffffffffffffffffffffffffffffffffff161461025e57337f00000000000000000000000000000000000000000000000000000000000000006040517f1cf993f4000000000000000000000000000000000000000000000000000000008152600401610255929190610cda565b60405180910390fd5b610268828261064b565b5050565b600260009054906101000a900473ffffffffffffffffffffffffffffffffffffffff1681565b600360009054906101000a900473ffffffffffffffffffffffffffffffffffffffff1673ffffffffffffffffffffffffffffffffffffffff163373ffffffffffffffffffffffffffffffffffffffff1614610322576040517f08c379a000000000000000000000000000000000000000000000000000000000815260040161031990610d60565b60405180910390fd5b60006001805490501161036a576040517f08c379a000000000000000000000000000000000000000000000000000000000815260040161036190610dcc565b60405180910390fd5b600560009054906101000a900460ff16156103ba576040517f08c379a00000000000000000000000000000000000000000000000000000000081526004016103b190610e38565b60405180910390fd5b6001600560006101000a81548160ff0219169083151502179055507f000000000000000000000000000000000000000000000000000000000000000073ffffffffffffffffffffffffffffffffffffffff16635d3b1d307f00000000000000000000000000000000000000000000000000000000000000007f00000000000000000000000000000000000000000000000000000000000000006003620186a060016040518663ffffffff1660e01b815260040161047b959493929190610f15565b6020604051808303816000875af115801561049a573d6000803e3d6000fd5b505050506040513d601f19601f820116820180604052508101906104be9190610f7d565b600481905550565b6060600180548060200260200160405190810160405280929190818152602001828054801561054a57602002820191906000526020600020905b8160009054906101000a900473ffffffffffffffffffffffffffffffffffffffff1673ffffffffffffffffffffffffffffffffffffffff1681526020019060010190808311610500575b5050505050905090565b600360009054906101000a900473ffffffffffffffffffffffffffffffffffffffff1681565b600560009054906101000a900460ff1681565b610595610848565b662386f26fc1000034146105de576040517f08c379a00000000000000000000000000000000000000000000000000000000081526004016105d590610ff6565b60405180910390fd5b6001339080600181540180825580915050600190039060005260206000200160009091909190916101000a81548173ffffffffffffffffffffffffffffffffffffffff021916908373ffffffffffffffffffffffffffffffffffffffff16021790555061064961088e565b565b60006001805490508260008151811061066757610666611016565b5b60200260200101516106799190611074565b90506001818154811061068f5761068e611016565b5b9060005260206000200160009054906101000a900473ffffffffffffffffffffffffffffffffffffffff16600260006101000a81548173ffffffffffffffffffffffffffffffffffffffff021916908373ffffffffffffffffffffffffffffffffffffffff160217905550600067ffffffffffffffff811115610715576107146109c9565b5b6040519080825280602002602001820160405280156107435781602001602082028036833780820191505090505b5060019080519060200190610759929190610898565b506000600560006101000a81548160ff021916908315150217905550600260009054906101000a900473ffffffffffffffffffffffffffffffffffffffff1673ffffffffffffffffffffffffffffffffffffffff166108fc479081150290604051600060405180830381858888f193505050501580156107dd573d6000803e3d6000fd5b50600260009054906101000a900473ffffffffffffffffffffffffffffffffffffffff1673ffffffffffffffffffffffffffffffffffffffff167f5b690ec4a06fe979403046eaeea5b3ce38524683c3001f662c8b5a829632f7df60405160405180910390a2505050565b600260005403610884576040517f3ee5aeb500000000000000000000000000000000000000000000000000000000815260040160405180910390fd5b6002600081905550565b6001600081905550565b828054828255906000526020600020908101928215610911579160200282015b828111156109105782518260006101000a81548173ffffffffffffffffffffffffffffffffffffffff021916908373ffffffffffffffffffffffffffffffffffffffff160217905550916020019190600101906108b8565b5b50905061091e9190610922565b5090565b5b8082111561093b576000816000905550600101610923565b5090565b6000819050919050565b6109528161093f565b82525050565b600060208201905061096d6000830184610949565b92915050565b6000604051905090565b600080fd5b600080fd5b6109908161093f565b811461099b57600080fd5b50565b6000813590506109ad81610987565b92915050565b600080fd5b6000601f19601f8301169050919050565b7f4e487b7100000000000000000000000000000000000000000000000000000000600052604160045260246000fd5b610a01826109b8565b810181811067ffffffffffffffff82111715610a2057610a1f6109c9565b5b80604052505050565b6000610a33610973565b9050610a3f82826109f8565b919050565b600067ffffffffffffffff821115610a5f57610a5e6109c9565b5b602082029050602081019050919050565b600080fd5b6000610a88610a8384610a44565b610a29565b90508083825260208201905060208402830185811115610aab57610aaa610a70565b5b835b81811015610ad45780610ac0888261099e565b845260208401935050602081019050610aad565b5050509392505050565b600082601f830112610af357610af26109b3565b5b8135610b03848260208601610a75565b91505092915050565b60008060408385031215610b2357610b2261097d565b5b6000610b318582860161099e565b925050602083013567ffffffffffffffff811115610b5257610b51610982565b5b610b5e85828601610ade565b9150509250929050565b600073ffffffffffffffffffffffffffffffffffffffff82169050919050565b6000610b9382610b68565b9050919050565b610ba381610b88565b82525050565b6000602082019050610bbe6000830184610b9a565b92915050565b600081519050919050565b600082825260208201905092915050565b6000819050602082019050919050565b610bf981610b88565b82525050565b6000610c0b8383610bf0565b60208301905092915050565b6000602082019050919050565b6000610c2f82610bc4565b610c398185610bcf565b9350610c4483610be0565b8060005b83811015610c75578151610c5c8882610bff565b9750610c6783610c17565b925050600181019050610c48565b5085935050505092915050565b60006020820190508181036000830152610c9c8184610c24565b905092915050565b60008115159050919050565b610cb981610ca4565b82525050565b6000602082019050610cd46000830184610cb0565b92915050565b6000604082019050610cef6000830185610b9a565b610cfc6020830184610b9a565b9392505050565b600082825260208201905092915050565b7f4e6f74206f776e65720000000000000000000000000000000000000000000000600082015250565b6000610d4a600983610d03565b9150610d5582610d14565b602082019050919050565b60006020820190508181036000830152610d7981610d3d565b9050919050565b7f4e6f20706c617965727300000000000000000000000000000000000000000000600082015250565b6000610db6600a83610d03565b9150610dc182610d80565b602082019050919050565b60006020820190508181036000830152610de581610da9565b9050919050565b7f416c72656164792064726177696e670000000000000000000000000000000000600082015250565b6000610e22600f83610d03565b9150610e2d82610dec565b602082019050919050565b60006020820190508181036000830152610e5181610e15565b9050919050565b6000819050919050565b610e6b81610e58565b82525050565b600067ffffffffffffffff82169050919050565b610e8e81610e71565b82525050565b600061ffff82169050919050565b610eab81610e94565b82525050565b600063ffffffff82169050919050565b610eca81610eb1565b82525050565b6000819050919050565b6000819050919050565b6000610eff610efa610ef584610ed0565b610eda565b610eb1565b9050919050565b610f0f81610ee4565b82525050565b600060a082019050610f2a6000830188610e62565b610f376020830187610e85565b610f446040830186610ea2565b610f516060830185610ec1565b610f5e6080830184610f06565b9695505050505050565b600081519050610f7781610987565b92915050565b600060208284031215610f9357610f9261097d565b5b6000610fa184828501610f68565b91505092915050565b7f496e636f7272656374204554482073656e740000000000000000000000000000600082015250565b6000610fe0601283610d03565b9150610feb82610faa565b602082019050919050565b6000602082019050818103600083015261100f81610fd3565b9050919050565b7f4e487b7100000000000000000000000000000000000000000000000000000000600052603260045260246000fd5b7f4e487b7100000000000000000000000000000000000000000000000000000000600052601260045260246000fd5b600061107f8261093f565b915061108a8361093f565b92508261109a57611099611045565b5b82820690509291505056fea26469706673582212207781907e898b8f9ff4d9d3706a13e0533ae301845b78722e44e9e4673a4db1d964736f6c63430008140033",
  "linkReferences": {},
  "deployedLinkReferences": {}
}