{
  "_format": "hh-sol-artifact-1",
  "contractName": "Bittery",
  "sourceName": "contracts/Bittery.sol",
  "abi": [
    {
      "inputs": [
        {
          "internalType": "address",
          "name": "_coordinator",
          "type": "address"
        },
        {
          "internalType": "uint256",
          "name": "_subscriptionId",
          "type": "uint256"
        },
        {
          "internalType": "bytes32",
          "name": "_keyHash",
          "type": "bytes32"
        }
      ],
      "stateMutability": "nonpayable",
      "type": "constructor"
    },
    {
      "inputs": [],
      "name": "EnforcedPause",
      "type": "error"
    },
    {
      "inputs": [],
      "name": "ExpectedPause",
      "type": "error"
    },
    {
      "inputs": [
        {
          "internalType": "address",
          "name": "have",
          "type": "address"
        },
        {
          "internalType": "address",
          "name": "want",
          "type": "address"
        }
      ],
      "name": "OnlyCoordinatorCanFulfill",
      "type": "error"
    },
    {
      "inputs": [
        {
          "internalType": "address",
          "name": "have",
          "type": "address"
        },
        {
          "internalType": "address",
          "name": "owner",
          "type": "address"
        },
        {
          "internalType": "address",
          "name": "coordinator",
          "type": "address"
        }
      ],
      "name": "OnlyOwnerOrCoordinator",
      "type": "error"
    },
    {
      "inputs": [],
      "name": "ReentrancyGuardReentrantCall",
      "type": "error"
    },
    {
      "inputs": [],
      "name": "ZeroAddress",
      "type": "error"
    },
    {
      "anonymous": false,
      "inputs": [
        {
          "indexed": false,
          "internalType": "address",
          "name": "vrfCoordinator",
          "type": "address"
        }
      ],
      "name": "CoordinatorSet",
      "type": "event"
    },
    {
      "anonymous": false,
      "inputs": [
        {
          "indexed": true,
          "internalType": "address",
          "name": "from",
          "type": "address"
        },
        {
          "indexed": true,
          "internalType": "address",
          "name": "to",
          "type": "address"
        }
      ],
      "name": "OwnershipTransferRequested",
      "type": "event"
    },
    {
      "anonymous": false,
      "inputs": [
        {
          "indexed": true,
          "internalType": "address",
          "name": "from",
          "type": "address"
        },
        {
          "indexed": true,
          "internalType": "address",
          "name": "to",
          "type": "address"
        }
      ],
      "name": "OwnershipTransferred",
      "type": "event"
    },
    {
      "anonymous": false,
      "inputs": [
        {
          "indexed": false,
          "internalType": "address",
          "name": "account",
          "type": "address"
        }
      ],
      "name": "Paused",
      "type": "event"
    },
    {
      "anonymous": false,
      "inputs": [
        {
          "indexed": false,
          "internalType": "address",
          "name": "account",
          "type": "address"
        }
      ],
      "name": "Unpaused",
      "type": "event"
    },
    {
      "anonymous": false,
      "inputs": [
        {
          "indexed": true,
          "internalType": "address",
          "name": "winner",
          "type": "address"
        }
      ],
      "name": "WinnerPicked",
      "type": "event"
    },
    {
      "inputs": [],
      "name": "TICKET_PRICE",
      "outputs": [
        {
          "internalType": "uint256",
          "name": "",
          "type": "uint256"
        }
      ],
      "stateMutability": "view",
      "type": "function"
    },
    {
      "inputs": [],
      "name": "acceptOwnership",
      "outputs": [],
      "stateMutability": "nonpayable",
      "type": "function"
    },
    {
      "inputs": [
        {
          "internalType": "address",
          "name": "referrer",
          "type": "address"
        }
      ],
      "name": "buyTicket",
      "outputs": [],
      "stateMutability": "payable",
      "type": "function"
    },
    {
      "inputs": [],
      "name": "currentRound",
      "outputs": [
        {
          "internalType": "uint256",
          "name": "",
          "type": "uint256"
        }
      ],
      "stateMutability": "view",
      "type": "function"
    },
    {
      "inputs": [],
      "name": "drawing",
      "outputs": [
        {
          "internalType": "bool",
          "name": "",
          "type": "bool"
        }
      ],
      "stateMutability": "view",
      "type": "function"
    },
    {
      "inputs": [],
      "name": "feePercent",
      "outputs": [
        {
          "internalType": "uint256",
          "name": "",
          "type": "uint256"
        }
      ],
      "stateMutability": "view",
      "type": "function"
    },
    {
      "inputs": [],
      "name": "feeRecipient",
      "outputs": [
        {
          "internalType": "address",
          "name": "",
          "type": "address"
        }
      ],
      "stateMutability": "view",
      "type": "function"
    },
    {
      "inputs": [],
      "name": "getPlayers",
      "outputs": [
        {
          "internalType": "address[]",
          "name": "",
          "type": "address[]"
        }
      ],
      "stateMutability": "view",
      "type": "function"
    },
    {
      "inputs": [],
      "name": "owner",
      "outputs": [
        {
          "internalType": "address",
          "name": "",
          "type": "address"
        }
      ],
      "stateMutability": "view",
      "type": "function"
    },
    {
      "inputs": [],
      "name": "pause",
      "outputs": [],
      "stateMutability": "nonpayable",
      "type": "function"
    },
    {
      "inputs": [],
      "name": "paused",
      "outputs": [
        {
          "internalType": "bool",
          "name": "",
          "type": "bool"
        }
      ],
      "stateMutability": "view",
      "type": "function"
    },
    {
      "inputs": [
        {
          "internalType": "uint256",
          "name": "requestId",
          "type": "uint256"
        },
        {
          "internalType": "uint256[]",
          "name": "randomWords",
          "type": "uint256[]"
        }
      ],
      "name": "rawFulfillRandomWords",
      "outputs": [],
      "stateMutability": "nonpayable",
      "type": "function"
    },
    {
      "inputs": [],
      "name": "recentWinner",
      "outputs": [
        {
          "internalType": "address",
          "name": "",
          "type": "address"
        }
      ],
      "stateMutability": "view",
      "type": "function"
    },
    {
      "inputs": [],
      "name": "referralPercent",
      "outputs": [
        {
          "internalType": "uint256",
          "name": "",
          "type": "uint256"
        }
      ],
      "stateMutability": "view",
      "type": "function"
    },
    {
      "inputs": [],
      "name": "requestRandomWinner",
      "outputs": [],
      "stateMutability": "nonpayable",
      "type": "function"
    },
    {
      "inputs": [],
      "name": "s_vrfCoordinator",
      "outputs": [
        {
          "internalType": "contract IVRFCoordinatorV2Plus",
          "name": "",
          "type": "address"
        }
      ],
      "stateMutability": "view",
      "type": "function"
    },
    {
      "inputs": [
        {
          "internalType": "address",
          "name": "_vrfCoordinator",
          "type": "address"
        }
      ],
      "name": "setCoordinator",
      "outputs": [],
      "stateMutability": "nonpayable",
      "type": "function"
    },
    {
      "inputs": [
        {
          "internalType": "uint256",
          "name": "_feePercent",
          "type": "uint256"
        }
      ],
      "name": "setFeePercent",
      "outputs": [],
      "stateMutability": "nonpayable",
      "type": "function"
    },
    {
      "inputs": [
        {
          "internalType": "address",
          "name": "_feeRecipient",
          "type": "address"
        }
      ],
      "name": "setFeeRecipient",
      "outputs": [],
      "stateMutability": "nonpayable",
      "type": "function"
    },
    {
      "inputs": [
        {
          "internalType": "uint256",
          "name": "_referralPercent",
          "type": "uint256"
        }
      ],
      "name": "setReferralPercent",
      "outputs": [],
      "stateMutability": "nonpayable",
      "type": "function"
    },
    {
      "inputs": [
        {
          "internalType": "address",
          "name": "to",
          "type": "address"
        }
      ],
      "name": "transferOwnership",
      "outputs": [],
      "stateMutability": "nonpayable",
      "type": "function"
    },
    {
      "inputs": [],
      "name": "unpause",
      "outputs": [],
      "stateMutability": "nonpayable",
      "type": "function"
    },
    {
      "inputs": [],
      "name": "withdraw",
      "outputs": [],
      "stateMutability": "nonpayable",
      "type": "function"
    }
  ],
  "bytecode": "0x60c060405260058055739ea7ebeb25192b6d7e8e240a852e7ec56d4fb865600660006101000a81548173ffffffffffffffffffffffffffffffffffffffff021916908373ffffffffffffffffffffffffffffffffffffffff16021790555060326007553480156200006f57600080fd5b5060405162002e1b38038062002e1b833981810160405281019062000095919062000476565b82338060008073ffffffffffffffffffffffffffffffffffffffff168273ffffffffffffffffffffffffffffffffffffffff16036200010b576040517f08c379a0000000000000000000000000000000000000000000000000000000008152600401620001029062000533565b60405180910390fd5b816000806101000a81548173ffffffffffffffffffffffffffffffffffffffff021916908373ffffffffffffffffffffffffffffffffffffffff160217905550600073ffffffffffffffffffffffffffffffffffffffff168173ffffffffffffffffffffffffffffffffffffffff1614620001925762000191816200026760201b60201c565b5b505050600073ffffffffffffffffffffffffffffffffffffffff168173ffffffffffffffffffffffffffffffffffffffff1603620001fc576040517fd92e233d00000000000000000000000000000000000000000000000000000000815260040160405180910390fd5b80600260006101000a81548173ffffffffffffffffffffffffffffffffffffffff021916908373ffffffffffffffffffffffffffffffffffffffff16021790555050600160038190555081608081815250508060a081815250506001600a81905550505050620005c7565b3373ffffffffffffffffffffffffffffffffffffffff168173ffffffffffffffffffffffffffffffffffffffff1603620002d8576040517f08c379a0000000000000000000000000000000000000000000000000000000008152600401620002cf90620005a5565b60405180910390fd5b80600160006101000a81548173ffffffffffffffffffffffffffffffffffffffff021916908373ffffffffffffffffffffffffffffffffffffffff1602179055508073ffffffffffffffffffffffffffffffffffffffff1660008054906101000a900473ffffffffffffffffffffffffffffffffffffffff1673ffffffffffffffffffffffffffffffffffffffff167fed8889f560326eb138920d842192f0eb3dd22b4f139c87a2c57538e05bae127860405160405180910390a350565b600080fd5b600073ffffffffffffffffffffffffffffffffffffffff82169050919050565b6000620003c8826200039b565b9050919050565b620003da81620003bb565b8114620003e657600080fd5b50565b600081519050620003fa81620003cf565b92915050565b6000819050919050565b620004158162000400565b81146200042157600080fd5b50565b60008151905062000435816200040a565b92915050565b6000819050919050565b62000450816200043b565b81146200045c57600080fd5b50565b600081519050620004708162000445565b92915050565b60008060006060848603121562000492576200049162000396565b5b6000620004a286828701620003e9565b9350506020620004b58682870162000424565b9250506040620004c8868287016200045f565b9150509250925092565b600082825260208201905092915050565b7f43616e6e6f7420736574206f776e657220746f207a65726f0000000000000000600082015250565b60006200051b601883620004d2565b91506200052882620004e3565b602082019050919050565b600060208201905081810360008301526200054e816200050c565b9050919050565b7f43616e6e6f74207472616e7366657220746f2073656c66000000000000000000600082015250565b60006200058d601783620004d2565b91506200059a8262000555565b602082019050919050565b60006020820190508181036000830152620005c0816200057e565b9050919050565b60805160a05161282e620005ed60003960006107fd01526000610823015261282e6000f3fe6080604052600436106101405760003560e01c80637ce3489b116100b65780638ea981171161006f5780638ea98117146103b65780639eccacf6146103df578063a5f8cdbb1461040a578063b77200b114610426578063e74b981b14610451578063f2fde38b1461047a57610140565b80637ce3489b146102ca5780637fd6f15c146102f35780638456cb591461031e5780638a19c8bc146103355780638b5b9ccc146103605780638da5cb5b1461038b57610140565b8063469048401161010857806346904840146101f25780634f8c70cf1461021d578063522a1f0b146102485780635c975abb1461025f5780636129f25f1461028a57806379ba5097146102b357610140565b80631a95f15f146101455780631fe543e314610170578063343dfb7e146101995780633ccfd60b146101c45780633f4ba83a146101db575b600080fd5b34801561015157600080fd5b5061015a6104a3565b6040516101679190611976565b60405180910390f35b34801561017c57600080fd5b5061019760048036038101906101929190611a2c565b6104ae565b005b3480156101a557600080fd5b506101ae610574565b6040516101bb9190611976565b60405180910390f35b3480156101d057600080fd5b506101d961057a565b005b3480156101e757600080fd5b506101f0610691565b005b3480156101fe57600080fd5b506102076106a3565b6040516102149190611acd565b60405180910390f35b34801561022957600080fd5b506102326106c9565b60405161023f9190611acd565b60405180910390f35b34801561025457600080fd5b5061025d6106ef565b005b34801561026b57600080fd5b506102746108f2565b6040516102819190611b03565b60405180910390f35b34801561029657600080fd5b506102b160048036038101906102ac9190611b1e565b610909565b005b3480156102bf57600080fd5b506102c861095f565b005b3480156102d657600080fd5b506102f160048036038101906102ec9190611b1e565b610af4565b005b3480156102ff57600080fd5b50610308610b4a565b6040516103159190611976565b60405180910390f35b34801561032a57600080fd5b50610333610b50565b005b34801561034157600080fd5b5061034a610b62565b6040516103579190611976565b60405180910390f35b34801561036c57600080fd5b50610375610b68565b6040516103829190611c09565b60405180910390f35b34801561039757600080fd5b506103a0610bf6565b6040516103ad9190611acd565b60405180910390f35b3480156103c257600080fd5b506103dd60048036038101906103d89190611c57565b610c1f565b005b3480156103eb57600080fd5b506103f4610e00565b6040516104019190611ce3565b60405180910390f35b610424600480360381019061041f9190611c57565b610e26565b005b34801561043257600080fd5b5061043b611164565b6040516104489190611b03565b60405180910390f35b34801561045d57600080fd5b5061047860048036038101906104739190611c57565b611177565b005b34801561048657600080fd5b506104a1600480360381019061049c9190611c57565b611232565b005b662386f26fc1000081565b600260009054906101000a900473ffffffffffffffffffffffffffffffffffffffff1673ffffffffffffffffffffffffffffffffffffffff163373ffffffffffffffffffffffffffffffffffffffff16146105645733600260009054906101000a900473ffffffffffffffffffffffffffffffffffffffff166040517f1cf993f400000000000000000000000000000000000000000000000000000000815260040161055b929190611cfe565b60405180910390fd5b61056f838383611246565b505050565b60075481565b6105826114c3565b61058a611553565b6000479050600081116105d2576040517f08c379a00000000000000000000000000000000000000000000000000000000081526004016105c990611d84565b60405180910390fd5b60006105dc610bf6565b73ffffffffffffffffffffffffffffffffffffffff16826040516105ff90611dd5565b60006040518083038185875af1925050503d806000811461063c576040519150601f19603f3d011682016040523d82523d6000602084013e610641565b606091505b5050905080610685576040517f08c379a000000000000000000000000000000000000000000000000000000000815260040161067c90611e36565b60405180910390fd5b505061068f611599565b565b6106996114c3565b6106a16115a3565b565b600660009054906101000a900473ffffffffffffffffffffffffffffffffffffffff1681565b600960009054906101000a900473ffffffffffffffffffffffffffffffffffffffff1681565b6106f76114c3565b6106ff611606565b600060088054905011610747576040517f08c379a000000000000000000000000000000000000000000000000000000000815260040161073e90611ea2565b60405180910390fd5b600c60009054906101000a900460ff1615610797576040517f08c379a000000000000000000000000000000000000000000000000000000000815260040161078e90611f0e565b60405180910390fd5b6001600c60006101000a81548160ff021916908315150217905550600260009054906101000a900473ffffffffffffffffffffffffffffffffffffffff1673ffffffffffffffffffffffffffffffffffffffff16639b1c385e6040518060c001604052807f000000000000000000000000000000000000000000000000000000000000000081526020017f00000000000000000000000000000000000000000000000000000000000000008152602001600361ffff168152602001620186a063ffffffff168152602001600163ffffffff168152602001610888604051806020016040528060001515815250611647565b8152506040518263ffffffff1660e01b81526004016108a791906120ab565b6020604051808303816000875af11580156108c6573d6000803e3d6000fd5b505050506040513d601f19601f820116820180604052508101906108ea91906120e2565b600b81905550565b6000600460009054906101000a900460ff16905090565b6109116114c3565b6064811115610955576040517f08c379a000000000000000000000000000000000000000000000000000000000815260040161094c9061215b565b60405180910390fd5b8060078190555050565b600160009054906101000a900473ffffffffffffffffffffffffffffffffffffffff1673ffffffffffffffffffffffffffffffffffffffff163373ffffffffffffffffffffffffffffffffffffffff16146109ef576040517f08c379a00000000000000000000000000000000000000000000000000000000081526004016109e6906121c7565b60405180910390fd5b60008060009054906101000a900473ffffffffffffffffffffffffffffffffffffffff169050336000806101000a81548173ffffffffffffffffffffffffffffffffffffffff021916908373ffffffffffffffffffffffffffffffffffffffff1602179055506000600160006101000a81548173ffffffffffffffffffffffffffffffffffffffff021916908373ffffffffffffffffffffffffffffffffffffffff1602179055503373ffffffffffffffffffffffffffffffffffffffff168173ffffffffffffffffffffffffffffffffffffffff167f8be0079c531659141344cd1fd0a4f28419497f9722a3daafe3b4186f6b6457e060405160405180910390a350565b610afc6114c3565b6064811115610b40576040517f08c379a0000000000000000000000000000000000000000000000000000000008152600401610b3790612233565b60405180910390fd5b8060058190555050565b60055481565b610b586114c3565b610b606116df565b565b600a5481565b60606008805480602002602001604051908101604052809291908181526020018280548015610bec57602002820191906000526020600020905b8160009054906101000a900473ffffffffffffffffffffffffffffffffffffffff1673ffffffffffffffffffffffffffffffffffffffff1681526020019060010190808311610ba2575b5050505050905090565b60008060009054906101000a900473ffffffffffffffffffffffffffffffffffffffff16905090565b610c27610bf6565b73ffffffffffffffffffffffffffffffffffffffff163373ffffffffffffffffffffffffffffffffffffffff1614158015610cb05750600260009054906101000a900473ffffffffffffffffffffffffffffffffffffffff1673ffffffffffffffffffffffffffffffffffffffff163373ffffffffffffffffffffffffffffffffffffffff1614155b15610d1f5733610cbe610bf6565b600260009054906101000a900473ffffffffffffffffffffffffffffffffffffffff166040517f061db9c1000000000000000000000000000000000000000000000000000000008152600401610d1693929190612253565b60405180910390fd5b600073ffffffffffffffffffffffffffffffffffffffff168173ffffffffffffffffffffffffffffffffffffffff1603610d85576040517fd92e233d00000000000000000000000000000000000000000000000000000000815260040160405180910390fd5b80600260006101000a81548173ffffffffffffffffffffffffffffffffffffffff021916908373ffffffffffffffffffffffffffffffffffffffff1602179055507fd1a6a14209a385a964d036e404cb5cfb71f4000cdb03c9366292430787261be681604051610df59190611acd565b60405180910390a150565b600260009054906101000a900473ffffffffffffffffffffffffffffffffffffffff1681565b610e2e611553565b610e36611606565b662386f26fc100003414610e7f576040517f08c379a0000000000000000000000000000000000000000000000000000000008152600401610e76906122d6565b60405180910390fd5b3373ffffffffffffffffffffffffffffffffffffffff168173ffffffffffffffffffffffffffffffffffffffff1603610eed576040517f08c379a0000000000000000000000000000000000000000000000000000000008152600401610ee490612342565b60405180910390fd5b6000606460055434610eff9190612391565b610f099190612402565b905060008073ffffffffffffffffffffffffffffffffffffffff168373ffffffffffffffffffffffffffffffffffffffff161461100a57606460075483610f509190612391565b610f5a9190612402565b905060008373ffffffffffffffffffffffffffffffffffffffff1682604051610f8290611dd5565b60006040518083038185875af1925050503d8060008114610fbf576040519150601f19603f3d011682016040523d82523d6000602084013e610fc4565b606091505b5050905080611008576040517f08c379a0000000000000000000000000000000000000000000000000000000008152600401610fff9061247f565b60405180910390fd5b505b60008183611018919061249f565b905060008111156110f3576000600660009054906101000a900473ffffffffffffffffffffffffffffffffffffffff1673ffffffffffffffffffffffffffffffffffffffff168260405161106b90611dd5565b60006040518083038185875af1925050503d80600081146110a8576040519150601f19603f3d011682016040523d82523d6000602084013e6110ad565b606091505b50509050806110f1576040517f08c379a00000000000000000000000000000000000000000000000000000000081526004016110e89061251f565b60405180910390fd5b505b6008339080600181540180825580915050600190039060005260206000200160009091909190916101000a81548173ffffffffffffffffffffffffffffffffffffffff021916908373ffffffffffffffffffffffffffffffffffffffff160217905550505050611161611599565b50565b600c60009054906101000a900460ff1681565b61117f6114c3565b600073ffffffffffffffffffffffffffffffffffffffff168173ffffffffffffffffffffffffffffffffffffffff16036111ee576040517f08c379a00000000000000000000000000000000000000000000000000000000081526004016111e59061258b565b60405180910390fd5b80600660006101000a81548173ffffffffffffffffffffffffffffffffffffffff021916908373ffffffffffffffffffffffffffffffffffffffff16021790555050565b61123a6114c3565b61124381611742565b50565b600060088054905083836000818110611262576112616125ab565b5b9050602002013561127391906125da565b905060088181548110611289576112886125ab565b5b9060005260206000200160009054906101000a900473ffffffffffffffffffffffffffffffffffffffff16600960006101000a81548173ffffffffffffffffffffffffffffffffffffffff021916908373ffffffffffffffffffffffffffffffffffffffff160217905550600067ffffffffffffffff81111561130f5761130e61260b565b5b60405190808252806020026020018201604052801561133d5781602001602082028036833780820191505090505b50600890805190602001906113539291906118b6565b506000600c60006101000a81548160ff0219169083151502179055506000600960009054906101000a900473ffffffffffffffffffffffffffffffffffffffff1673ffffffffffffffffffffffffffffffffffffffff16476040516113b790611dd5565b60006040518083038185875af1925050503d80600081146113f4576040519150601f19603f3d011682016040523d82523d6000602084013e6113f9565b606091505b505090508061143d576040517f08c379a000000000000000000000000000000000000000000000000000000000815260040161143490612686565b60405180910390fd5b600960009054906101000a900473ffffffffffffffffffffffffffffffffffffffff1673ffffffffffffffffffffffffffffffffffffffff167f5b690ec4a06fe979403046eaeea5b3ce38524683c3001f662c8b5a829632f7df60405160405180910390a26001600a60008282546114b591906126a6565b925050819055505050505050565b60008054906101000a900473ffffffffffffffffffffffffffffffffffffffff1673ffffffffffffffffffffffffffffffffffffffff163373ffffffffffffffffffffffffffffffffffffffff1614611551576040517f08c379a000000000000000000000000000000000000000000000000000000000815260040161154890612726565b60405180910390fd5b565b60026003540361158f576040517f3ee5aeb500000000000000000000000000000000000000000000000000000000815260040160405180910390fd5b6002600381905550565b6001600381905550565b6115ab61186e565b6000600460006101000a81548160ff0219169083151502179055507f5db9ee0a495bf2e6ff9c91a7834c1ba4fdd244a5e8aa4e537bd38aeae4b073aa6115ef6118ae565b6040516115fc9190611acd565b60405180910390a1565b61160e6108f2565b15611645576040517fd93c066500000000000000000000000000000000000000000000000000000000815260040160405180910390fd5b565b60607f92fd13387c7fe7befbc38d303d6468778fb9731bc4583f17d92989c6fcfdeaaa8260405160240161167b9190612771565b604051602081830303815290604052907bffffffffffffffffffffffffffffffffffffffffffffffffffffffff19166020820180517bffffffffffffffffffffffffffffffffffffffffffffffffffffffff83818316178352505050509050919050565b6116e7611606565b6001600460006101000a81548160ff0219169083151502179055507f62e78cea01bee320cd4e420270b5ea74000d11b0c9f74754ebdbfc544b05a25861172b6118ae565b6040516117389190611acd565b60405180910390a1565b3373ffffffffffffffffffffffffffffffffffffffff168173ffffffffffffffffffffffffffffffffffffffff16036117b0576040517f08c379a00000000000000000000000000000000000000000000000000000000081526004016117a7906127d8565b60405180910390fd5b80600160006101000a81548173ffffffffffffffffffffffffffffffffffffffff021916908373ffffffffffffffffffffffffffffffffffffffff1602179055508073ffffffffffffffffffffffffffffffffffffffff1660008054906101000a900473ffffffffffffffffffffffffffffffffffffffff1673ffffffffffffffffffffffffffffffffffffffff167fed8889f560326eb138920d842192f0eb3dd22b4f139c87a2c57538e05bae127860405160405180910390a350565b6118766108f2565b6118ac576040517f8dfc202b00000000000000000000000000000000000000000000000000000000815260040160405180910390fd5b565b600033905090565b82805482825590600052602060002090810192821561192f579160200282015b8281111561192e5782518260006101000a81548173ffffffffffffffffffffffffffffffffffffffff021916908373ffffffffffffffffffffffffffffffffffffffff160217905550916020019190600101906118d6565b5b50905061193c9190611940565b5090565b5b80821115611959576000816000905550600101611941565b5090565b6000819050919050565b6119708161195d565b82525050565b600060208201905061198b6000830184611967565b92915050565b600080fd5b600080fd5b6119a48161195d565b81146119af57600080fd5b50565b6000813590506119c18161199b565b92915050565b600080fd5b600080fd5b600080fd5b60008083601f8401126119ec576119eb6119c7565b5b8235905067ffffffffffffffff811115611a0957611a086119cc565b5b602083019150836020820283011115611a2557611a246119d1565b5b9250929050565b600080600060408486031215611a4557611a44611991565b5b6000611a53868287016119b2565b935050602084013567ffffffffffffffff811115611a7457611a73611996565b5b611a80868287016119d6565b92509250509250925092565b600073ffffffffffffffffffffffffffffffffffffffff82169050919050565b6000611ab782611a8c565b9050919050565b611ac781611aac565b82525050565b6000602082019050611ae26000830184611abe565b92915050565b60008115159050919050565b611afd81611ae8565b82525050565b6000602082019050611b186000830184611af4565b92915050565b600060208284031215611b3457611b33611991565b5b6000611b42848285016119b2565b91505092915050565b600081519050919050565b600082825260208201905092915050565b6000819050602082019050919050565b611b8081611aac565b82525050565b6000611b928383611b77565b60208301905092915050565b6000602082019050919050565b6000611bb682611b4b565b611bc08185611b56565b9350611bcb83611b67565b8060005b83811015611bfc578151611be38882611b86565b9750611bee83611b9e565b925050600181019050611bcf565b5085935050505092915050565b60006020820190508181036000830152611c238184611bab565b905092915050565b611c3481611aac565b8114611c3f57600080fd5b50565b600081359050611c5181611c2b565b92915050565b600060208284031215611c6d57611c6c611991565b5b6000611c7b84828501611c42565b91505092915050565b6000819050919050565b6000611ca9611ca4611c9f84611a8c565b611c84565b611a8c565b9050919050565b6000611cbb82611c8e565b9050919050565b6000611ccd82611cb0565b9050919050565b611cdd81611cc2565b82525050565b6000602082019050611cf86000830184611cd4565b92915050565b6000604082019050611d136000830185611abe565b611d206020830184611abe565b9392505050565b600082825260208201905092915050565b7f4e6f2066756e6473000000000000000000000000000000000000000000000000600082015250565b6000611d6e600883611d27565b9150611d7982611d38565b602082019050919050565b60006020820190508181036000830152611d9d81611d61565b9050919050565b600081905092915050565b50565b6000611dbf600083611da4565b9150611dca82611daf565b600082019050919050565b6000611de082611db2565b9150819050919050565b7f5769746864726177206661696c65640000000000000000000000000000000000600082015250565b6000611e20600f83611d27565b9150611e2b82611dea565b602082019050919050565b60006020820190508181036000830152611e4f81611e13565b9050919050565b7f4e6f20706c617965727300000000000000000000000000000000000000000000600082015250565b6000611e8c600a83611d27565b9150611e9782611e56565b602082019050919050565b60006020820190508181036000830152611ebb81611e7f565b9050919050565b7f416c72656164792064726177696e670000000000000000000000000000000000600082015250565b6000611ef8600f83611d27565b9150611f0382611ec2565b602082019050919050565b60006020820190508181036000830152611f2781611eeb565b9050919050565b6000819050919050565b611f4181611f2e565b82525050565b611f508161195d565b82525050565b600061ffff82169050919050565b611f6d81611f56565b82525050565b600063ffffffff82169050919050565b611f8c81611f73565b82525050565b600081519050919050565b600082825260208201905092915050565b60005b83811015611fcc578082015181840152602081019050611fb1565b60008484015250505050565b6000601f19601f8301169050919050565b6000611ff482611f92565b611ffe8185611f9d565b935061200e818560208601611fae565b61201781611fd8565b840191505092915050565b600060c08301600083015161203a6000860182611f38565b50602083015161204d6020860182611f47565b5060408301516120606040860182611f64565b5060608301516120736060860182611f83565b5060808301516120866080860182611f83565b5060a083015184820360a086015261209e8282611fe9565b9150508091505092915050565b600060208201905081810360008301526120c58184612022565b905092915050565b6000815190506120dc8161199b565b92915050565b6000602082840312156120f8576120f7611991565b5b6000612106848285016120cd565b91505092915050565b7f526566657272616c2070657263656e7420746f6f206869676800000000000000600082015250565b6000612145601983611d27565b91506121508261210f565b602082019050919050565b6000602082019050818103600083015261217481612138565b9050919050565b7f4d7573742062652070726f706f736564206f776e657200000000000000000000600082015250565b60006121b1601683611d27565b91506121bc8261217b565b602082019050919050565b600060208201905081810360008301526121e0816121a4565b9050919050565b7f50657263656e7420746f6f206869676800000000000000000000000000000000600082015250565b600061221d601083611d27565b9150612228826121e7565b602082019050919050565b6000602082019050818103600083015261224c81612210565b9050919050565b60006060820190506122686000830186611abe565b6122756020830185611abe565b6122826040830184611abe565b949350505050565b7f496e636f7272656374204554482073656e740000000000000000000000000000600082015250565b60006122c0601283611d27565b91506122cb8261228a565b602082019050919050565b600060208201905081810360008301526122ef816122b3565b9050919050565b7f43616e277420726566657220796f757273656c66000000000000000000000000600082015250565b600061232c601483611d27565b9150612337826122f6565b602082019050919050565b6000602082019050818103600083015261235b8161231f565b9050919050565b7f4e487b7100000000000000000000000000000000000000000000000000000000600052601160045260246000fd5b600061239c8261195d565b91506123a78361195d565b92508282026123b58161195d565b915082820484148315176123cc576123cb612362565b5b5092915050565b7f4e487b7100000000000000000000000000000000000000000000000000000000600052601260045260246000fd5b600061240d8261195d565b91506124188361195d565b925082612428576124276123d3565b5b828204905092915050565b7f526566657272616c207061796f7574206661696c656400000000000000000000600082015250565b6000612469601683611d27565b915061247482612433565b602082019050919050565b600060208201905081810360008301526124988161245c565b9050919050565b60006124aa8261195d565b91506124b58361195d565b92508282039050818111156124cd576124cc612362565b5b92915050565b7f466565207472616e73666572206661696c656400000000000000000000000000600082015250565b6000612509601383611d27565b9150612514826124d3565b602082019050919050565b60006020820190508181036000830152612538816124fc565b9050919050565b7f496e76616c696420726563697069656e74000000000000000000000000000000600082015250565b6000612575601183611d27565b91506125808261253f565b602082019050919050565b600060208201905081810360008301526125a481612568565b9050919050565b7f4e487b7100000000000000000000000000000000000000000000000000000000600052603260045260246000fd5b60006125e58261195d565b91506125f08361195d565b925082612600576125ff6123d3565b5b828206905092915050565b7f4e487b7100000000000000000000000000000000000000000000000000000000600052604160045260246000fd5b7f57696e6e6572207061796f7574206661696c6564000000000000000000000000600082015250565b6000612670601483611d27565b915061267b8261263a565b602082019050919050565b6000602082019050818103600083015261269f81612663565b9050919050565b60006126b18261195d565b91506126bc8361195d565b92508282019050808211156126d4576126d3612362565b5b92915050565b7f4f6e6c792063616c6c61626c65206279206f776e657200000000000000000000600082015250565b6000612710601683611d27565b915061271b826126da565b602082019050919050565b6000602082019050818103600083015261273f81612703565b9050919050565b61274f81611ae8565b82525050565b60208201600082015161276b6000850182612746565b50505050565b60006020820190506127866000830184612755565b92915050565b7f43616e6e6f74207472616e7366657220746f2073656c66000000000000000000600082015250565b60006127c2601783611d27565b91506127cd8261278c565b602082019050919050565b600060208201905081810360008301526127f1816127b5565b905091905056fea264697066735822122082d3152b2d74889ca819550ddce66ce1553081546aafc1fd672392027fa0e63364736f6c63430008140033",
  "linkReferences": {},
  "deployedLinkReferences": {}
}