{
  "_format": "hh-sol-artifact-1",
  "contractName": "Bittery",
  "sourceName": "contracts/Bittery.sol",
  "abi": [
    {
      "inputs": [
        {
          "internalType": "address",
          "name": "_coordinator",
          "type": "address"
        },
        {
          "internalType": "uint256",
          "name": "_subscriptionId",
          "type": "uint256"
        },
        {
          "internalType": "bytes32",
          "name": "_keyHash",
          "type": "bytes32"
        },
        {
          "internalType": "address",
          "name": "_feeRecipient",
          "type": "address"
        }
      ],
      "stateMutability": "nonpayable",
      "type": "constructor"
    },
    {
      "inputs": [],
      "name": "EnforcedPause",
      "type": "error"
    },
    {
      "inputs": [],
      "name": "ExpectedPause",
      "type": "error"
    },
    {
      "inputs": [
        {
          "internalType": "address",
          "name": "have",
          "type": "address"
        },
        {
          "internalType": "address",
          "name": "want",
          "type": "address"
        }
      ],
      "name": "OnlyCoordinatorCanFulfill",
      "type": "error"
    },
    {
      "inputs": [
        {
          "internalType": "address",
          "name": "have",
          "type": "address"
        },
        {
          "internalType": "address",
          "name": "owner",
          "type": "address"
        },
        {
          "internalType": "address",
          "name": "coordinator",
          "type": "address"
        }
      ],
      "name": "OnlyOwnerOrCoordinator",
      "type": "error"
    },
    {
      "inputs": [],
      "name": "ReentrancyGuardReentrantCall",
      "type": "error"
    },
    {
      "inputs": [],
      "name": "ZeroAddress",
      "type": "error"
    },
    {
      "anonymous": false,
      "inputs": [
        {
          "indexed": false,
          "internalType": "address",
          "name": "vrfCoordinator",
          "type": "address"
        }
      ],
      "name": "CoordinatorSet",
      "type": "event"
    },
    {
      "anonymous": false,
      "inputs": [
        {
          "indexed": true,
          "internalType": "address",
          "name": "from",
          "type": "address"
        },
        {
          "indexed": true,
          "internalType": "address",
          "name": "to",
          "type": "address"
        }
      ],
      "name": "OwnershipTransferRequested",
      "type": "event"
    },
    {
      "anonymous": false,
      "inputs": [
        {
          "indexed": true,
          "internalType": "address",
          "name": "from",
          "type": "address"
        },
        {
          "indexed": true,
          "internalType": "address",
          "name": "to",
          "type": "address"
        }
      ],
      "name": "OwnershipTransferred",
      "type": "event"
    },
    {
      "anonymous": false,
      "inputs": [
        {
          "indexed": false,
          "internalType": "address",
          "name": "account",
          "type": "address"
        }
      ],
      "name": "Paused",
      "type": "event"
    },
    {
      "anonymous": false,
      "inputs": [
        {
          "indexed": true,
          "internalType": "uint256",
          "name": "roomId",
          "type": "uint256"
        },
        {
          "indexed": false,
          "internalType": "uint256",
          "name": "price",
          "type": "uint256"
        },
        {
          "indexed": false,
          "internalType": "uint256",
          "name": "maxPlayers",
          "type": "uint256"
        }
      ],
      "name": "RoomCreated",
      "type": "event"
    },
    {
      "anonymous": false,
      "inputs": [
        {
          "indexed": true,
          "internalType": "uint256",
          "name": "roomId",
          "type": "uint256"
        },
        {
          "indexed": true,
          "internalType": "address",
          "name": "player",
          "type": "address"
        }
      ],
      "name": "TicketBought",
      "type": "event"
    },
    {
      "anonymous": false,
      "inputs": [
        {
          "indexed": false,
          "internalType": "address",
          "name": "account",
          "type": "address"
        }
      ],
      "name": "Unpaused",
      "type": "event"
    },
    {
      "anonymous": false,
      "inputs": [
        {
          "indexed": true,
          "internalType": "uint256",
          "name": "roomId",
          "type": "uint256"
        },
        {
          "indexed": true,
          "internalType": "address",
          "name": "winner",
          "type": "address"
        }
      ],
      "name": "WinnerPicked",
      "type": "event"
    },
    {
      "inputs": [],
      "name": "acceptOwnership",
      "outputs": [],
      "stateMutability": "nonpayable",
      "type": "function"
    },
    {
      "inputs": [
        {
          "internalType": "uint256",
          "name": "roomId",
          "type": "uint256"
        },
        {
          "internalType": "address",
          "name": "referrer",
          "type": "address"
        }
      ],
      "name": "buyTicket",
      "outputs": [],
      "stateMutability": "payable",
      "type": "function"
    },
    {
      "inputs": [
        {
          "internalType": "uint256",
          "name": "ticketPrice",
          "type": "uint256"
        },
        {
          "internalType": "uint256",
          "name": "maxPlayers",
          "type": "uint256"
        }
      ],
      "name": "createRoom",
      "outputs": [],
      "stateMutability": "nonpayable",
      "type": "function"
    },
    {
      "inputs": [],
      "name": "feePercent",
      "outputs": [
        {
          "internalType": "uint256",
          "name": "",
          "type": "uint256"
        }
      ],
      "stateMutability": "view",
      "type": "function"
    },
    {
      "inputs": [],
      "name": "feeRecipient",
      "outputs": [
        {
          "internalType": "address",
          "name": "",
          "type": "address"
        }
      ],
      "stateMutability": "view",
      "type": "function"
    },
    {
      "inputs": [
        {
          "internalType": "uint256",
          "name": "roomId",
          "type": "uint256"
        }
      ],
      "name": "getRoomPlayers",
      "outputs": [
        {
          "internalType": "address[]",
          "name": "",
          "type": "address[]"
        }
      ],
      "stateMutability": "view",
      "type": "function"
    },
    {
      "inputs": [],
      "name": "getWinners",
      "outputs": [
        {
          "internalType": "address[]",
          "name": "",
          "type": "address[]"
        }
      ],
      "stateMutability": "view",
      "type": "function"
    },
    {
      "inputs": [
        {
          "internalType": "uint256",
          "name": "",
          "type": "uint256"
        }
      ],
      "name": "globalWinners",
      "outputs": [
        {
          "internalType": "address",
          "name": "",
          "type": "address"
        }
      ],
      "stateMutability": "view",
      "type": "function"
    },
    {
      "inputs": [],
      "name": "nextRoomId",
      "outputs": [
        {
          "internalType": "uint256",
          "name": "",
          "type": "uint256"
        }
      ],
      "stateMutability": "view",
      "type": "function"
    },
    {
      "inputs": [],
      "name": "owner",
      "outputs": [
        {
          "internalType": "address",
          "name": "",
          "type": "address"
        }
      ],
      "stateMutability": "view",
      "type": "function"
    },
    {
      "inputs": [],
      "name": "pause",
      "outputs": [],
      "stateMutability": "nonpayable",
      "type": "function"
    },
    {
      "inputs": [],
      "name": "paused",
      "outputs": [
        {
          "internalType": "bool",
          "name": "",
          "type": "bool"
        }
      ],
      "stateMutability": "view",
      "type": "function"
    },
    {
      "inputs": [
        {
          "internalType": "uint256",
          "name": "requestId",
          "type": "uint256"
        },
        {
          "internalType": "uint256[]",
          "name": "randomWords",
          "type": "uint256[]"
        }
      ],
      "name": "rawFulfillRandomWords",
      "outputs": [],
      "stateMutability": "nonpayable",
      "type": "function"
    },
    {
      "inputs": [],
      "name": "referralPercent",
      "outputs": [
        {
          "internalType": "uint256",
          "name": "",
          "type": "uint256"
        }
      ],
      "stateMutability": "view",
      "type": "function"
    },
    {
      "inputs": [
        {
          "internalType": "uint256",
          "name": "",
          "type": "uint256"
        }
      ],
      "name": "requestToRoomId",
      "outputs": [
        {
          "internalType": "uint256",
          "name": "",
          "type": "uint256"
        }
      ],
      "stateMutability": "view",
      "type": "function"
    },
    {
      "inputs": [
        {
          "internalType": "uint256",
          "name": "",
          "type": "uint256"
        }
      ],
      "name": "rooms",
      "outputs": [
        {
          "internalType": "uint256",
          "name": "id",
          "type": "uint256"
        },
        {
          "internalType": "uint256",
          "name": "ticketPrice",
          "type": "uint256"
        },
        {
          "internalType": "uint256",
          "name": "maxPlayers",
          "type": "uint256"
        },
        {
          "internalType": "bool",
          "name": "drawing",
          "type": "bool"
        },
        {
          "internalType": "address",
          "name": "winner",
          "type": "address"
        }
      ],
      "stateMutability": "view",
      "type": "function"
    },
    {
      "inputs": [],
      "name": "s_vrfCoordinator",
      "outputs": [
        {
          "internalType": "contract IVRFCoordinatorV2Plus",
          "name": "",
          "type": "address"
        }
      ],
      "stateMutability": "view",
      "type": "function"
    },
    {
      "inputs": [
        {
          "internalType": "address",
          "name": "_vrfCoordinator",
          "type": "address"
        }
      ],
      "name": "setCoordinator",
      "outputs": [],
      "stateMutability": "nonpayable",
      "type": "function"
    },
    {
      "inputs": [
        {
          "internalType": "uint256",
          "name": "_feePercent",
          "type": "uint256"
        }
      ],
      "name": "setFeePercent",
      "outputs": [],
      "stateMutability": "nonpayable",
      "type": "function"
    },
    {
      "inputs": [
        {
          "internalType": "address",
          "name": "_feeRecipient",
          "type": "address"
        }
      ],
      "name": "setFeeRecipient",
      "outputs": [],
      "stateMutability": "nonpayable",
      "type": "function"
    },
    {
      "inputs": [
        {
          "internalType": "uint256",
          "name": "_referralPercent",
          "type": "uint256"
        }
      ],
      "name": "setReferralPercent",
      "outputs": [],
      "stateMutability": "nonpayable",
      "type": "function"
    },
    {
      "inputs": [
        {
          "internalType": "address",
          "name": "to",
          "type": "address"
        }
      ],
      "name": "transferOwnership",
      "outputs": [],
      "stateMutability": "nonpayable",
      "type": "function"
    },
    {
      "inputs": [],
      "name": "unpause",
      "outputs": [],
      "stateMutability": "nonpayable",
      "type": "function"
    }
  ],
  "bytecode": "0x60c06040526005805560326006553480156200001a57600080fd5b506040516200308c3803806200308c83398181016040528101906200004091906200045b565b83338060008073ffffffffffffffffffffffffffffffffffffffff168273ffffffffffffffffffffffffffffffffffffffff1603620000b6576040517f08c379a0000000000000000000000000000000000000000000000000000000008152600401620000ad906200052e565b60405180910390fd5b816000806101000a81548173ffffffffffffffffffffffffffffffffffffffff021916908373ffffffffffffffffffffffffffffffffffffffff160217905550600073ffffffffffffffffffffffffffffffffffffffff168173ffffffffffffffffffffffffffffffffffffffff16146200013d576200013c816200024c60201b60201c565b5b505050600073ffffffffffffffffffffffffffffffffffffffff168173ffffffffffffffffffffffffffffffffffffffff1603620001a7576040517fd92e233d00000000000000000000000000000000000000000000000000000000815260040160405180910390fd5b80600260006101000a81548173ffffffffffffffffffffffffffffffffffffffff021916908373ffffffffffffffffffffffffffffffffffffffff16021790555050600160038190555082608081815250508160a0818152505080600760006101000a81548173ffffffffffffffffffffffffffffffffffffffff021916908373ffffffffffffffffffffffffffffffffffffffff16021790555050505050620005c2565b3373ffffffffffffffffffffffffffffffffffffffff168173ffffffffffffffffffffffffffffffffffffffff1603620002bd576040517f08c379a0000000000000000000000000000000000000000000000000000000008152600401620002b490620005a0565b60405180910390fd5b80600160006101000a81548173ffffffffffffffffffffffffffffffffffffffff021916908373ffffffffffffffffffffffffffffffffffffffff1602179055508073ffffffffffffffffffffffffffffffffffffffff1660008054906101000a900473ffffffffffffffffffffffffffffffffffffffff1673ffffffffffffffffffffffffffffffffffffffff167fed8889f560326eb138920d842192f0eb3dd22b4f139c87a2c57538e05bae127860405160405180910390a350565b600080fd5b600073ffffffffffffffffffffffffffffffffffffffff82169050919050565b6000620003ad8262000380565b9050919050565b620003bf81620003a0565b8114620003cb57600080fd5b50565b600081519050620003df81620003b4565b92915050565b6000819050919050565b620003fa81620003e5565b81146200040657600080fd5b50565b6000815190506200041a81620003ef565b92915050565b6000819050919050565b620004358162000420565b81146200044157600080fd5b50565b60008151905062000455816200042a565b92915050565b600080600080608085870312156200047857620004776200037b565b5b60006200048887828801620003ce565b94505060206200049b8782880162000409565b9350506040620004ae8782880162000444565b9250506060620004c187828801620003ce565b91505092959194509250565b600082825260208201905092915050565b7f43616e6e6f7420736574206f776e657220746f207a65726f0000000000000000600082015250565b600062000516601883620004cd565b91506200052382620004de565b602082019050919050565b60006020820190508181036000830152620005498162000507565b9050919050565b7f43616e6e6f74207472616e7366657220746f2073656c66000000000000000000600082015250565b600062000588601783620004cd565b9150620005958262000550565b602082019050919050565b60006020820190508181036000830152620005bb8162000579565b9050919050565b60805160a051612aa4620005e8600039600061176d015260006117930152612aa46000f3fe6080604052600436106101405760003560e01c806379ba5097116100b65780639381e6391161006f5780639381e639146104075780639eccacf614610444578063ab196acd1461046f578063df15c37e14610498578063e74b981b146104c3578063f2fde38b146104ec57610140565b806379ba5097146103315780637ce3489b146103485780637fd6f15c146103715780638456cb591461039c5780638da5cb5b146103b35780638ea98117146103de57610140565b80633f4ba83a116101085780633f4ba83a1461024257806343925cc31461025957806346904840146102965780635c975abb146102c15780636129f25f146102ec57806362a845ec1461031557610140565b806307a52cab1461014557806308aa0cd3146101705780631bae0ac8146101ad5780631fe543e3146101ee578063343dfb7e14610217575b600080fd5b34801561015157600080fd5b5061015a610515565b6040516101679190611b0b565b60405180910390f35b34801561017c57600080fd5b5061019760048036038101906101929190611b5c565b61051b565b6040516101a49190611b0b565b60405180910390f35b3480156101b957600080fd5b506101d460048036038101906101cf9190611b5c565b610533565b6040516101e5959493929190611be5565b60405180910390f35b3480156101fa57600080fd5b5061021560048036038101906102109190611c9d565b610596565b005b34801561022357600080fd5b5061022c61065c565b6040516102399190611b0b565b60405180910390f35b34801561024e57600080fd5b50610257610662565b005b34801561026557600080fd5b50610280600480360381019061027b9190611b5c565b610674565b60405161028d9190611dbb565b60405180910390f35b3480156102a257600080fd5b506102ab610718565b6040516102b89190611ddd565b60405180910390f35b3480156102cd57600080fd5b506102d661073e565b6040516102e39190611df8565b60405180910390f35b3480156102f857600080fd5b50610313600480360381019061030e9190611b5c565b610755565b005b61032f600480360381019061032a9190611e3f565b6107ab565b005b34801561033d57600080fd5b50610346610bb3565b005b34801561035457600080fd5b5061036f600480360381019061036a9190611b5c565b610d48565b005b34801561037d57600080fd5b50610386610d9e565b6040516103939190611b0b565b60405180910390f35b3480156103a857600080fd5b506103b1610da4565b005b3480156103bf57600080fd5b506103c8610db6565b6040516103d59190611ddd565b60405180910390f35b3480156103ea57600080fd5b5061040560048036038101906104009190611e7f565b610ddf565b005b34801561041357600080fd5b5061042e60048036038101906104299190611b5c565b610fc0565b60405161043b9190611ddd565b60405180910390f35b34801561045057600080fd5b50610459610fff565b6040516104669190611f0b565b60405180910390f35b34801561047b57600080fd5b5061049660048036038101906104919190611f26565b611025565b005b3480156104a457600080fd5b506104ad611143565b6040516104ba9190611dbb565b60405180910390f35b3480156104cf57600080fd5b506104ea60048036038101906104e59190611e7f565b6111d1565b005b3480156104f857600080fd5b50610513600480360381019061050e9190611e7f565b61128c565b005b60085481565b600a6020528060005260406000206000915090505481565b60096020528060005260406000206000915090508060000154908060010154908060020154908060040160009054906101000a900460ff16908060040160019054906101000a900473ffffffffffffffffffffffffffffffffffffffff16905085565b600260009054906101000a900473ffffffffffffffffffffffffffffffffffffffff1673ffffffffffffffffffffffffffffffffffffffff163373ffffffffffffffffffffffffffffffffffffffff161461064c5733600260009054906101000a900473ffffffffffffffffffffffffffffffffffffffff166040517f1cf993f4000000000000000000000000000000000000000000000000000000008152600401610643929190611f66565b60405180910390fd5b6106578383836112a0565b505050565b60065481565b61066a611520565b6106726115b0565b565b60606009600083815260200190815260200160002060030180548060200260200160405190810160405280929190818152602001828054801561070c57602002820191906000526020600020905b8160009054906101000a900473ffffffffffffffffffffffffffffffffffffffff1673ffffffffffffffffffffffffffffffffffffffff16815260200190600101908083116106c2575b50505050509050919050565b600760009054906101000a900473ffffffffffffffffffffffffffffffffffffffff1681565b6000600460009054906101000a900460ff16905090565b61075d611520565b60648111156107a1576040517f08c379a000000000000000000000000000000000000000000000000000000000815260040161079890611fec565b60405180910390fd5b8060068190555050565b6107b3611613565b6107bb611659565b60006009600084815260200190815260200160002090508060040160009054906101000a900460ff1615610824576040517f08c379a000000000000000000000000000000000000000000000000000000000815260040161081b90612058565b60405180910390fd5b8060010154341461086a576040517f08c379a0000000000000000000000000000000000000000000000000000000008152600401610861906120c4565b60405180910390fd5b3373ffffffffffffffffffffffffffffffffffffffff168273ffffffffffffffffffffffffffffffffffffffff16036108d8576040517f08c379a00000000000000000000000000000000000000000000000000000000081526004016108cf90612130565b60405180910390fd5b60006064600554346108ea919061217f565b6108f491906121f0565b905060008073ffffffffffffffffffffffffffffffffffffffff168473ffffffffffffffffffffffffffffffffffffffff16146109f55760646006548361093b919061217f565b61094591906121f0565b905060008473ffffffffffffffffffffffffffffffffffffffff168260405161096d90612252565b60006040518083038185875af1925050503d80600081146109aa576040519150601f19603f3d011682016040523d82523d6000602084013e6109af565b606091505b50509050806109f3576040517f08c379a00000000000000000000000000000000000000000000000000000000081526004016109ea906122b3565b60405180910390fd5b505b60008183610a0391906122d3565b90506000811115610ade576000600760009054906101000a900473ffffffffffffffffffffffffffffffffffffffff1673ffffffffffffffffffffffffffffffffffffffff1682604051610a5690612252565b60006040518083038185875af1925050503d8060008114610a93576040519150601f19603f3d011682016040523d82523d6000602084013e610a98565b606091505b5050905080610adc576040517f08c379a0000000000000000000000000000000000000000000000000000000008152600401610ad390612353565b60405180910390fd5b505b83600301339080600181540180825580915050600190039060005260206000200160009091909190916101000a81548173ffffffffffffffffffffffffffffffffffffffff021916908373ffffffffffffffffffffffffffffffffffffffff1602179055503373ffffffffffffffffffffffffffffffffffffffff16867f6606e4c8a88792ed4fd5159f9be235ca78e87fc1cbdc6158ea92d3ed3be9bf7260405160405180910390a38360020154846003018054905003610ba357610ba28661169a565b5b50505050610baf611879565b5050565b600160009054906101000a900473ffffffffffffffffffffffffffffffffffffffff1673ffffffffffffffffffffffffffffffffffffffff163373ffffffffffffffffffffffffffffffffffffffff1614610c43576040517f08c379a0000000000000000000000000000000000000000000000000000000008152600401610c3a906123bf565b60405180910390fd5b60008060009054906101000a900473ffffffffffffffffffffffffffffffffffffffff169050336000806101000a81548173ffffffffffffffffffffffffffffffffffffffff021916908373ffffffffffffffffffffffffffffffffffffffff1602179055506000600160006101000a81548173ffffffffffffffffffffffffffffffffffffffff021916908373ffffffffffffffffffffffffffffffffffffffff1602179055503373ffffffffffffffffffffffffffffffffffffffff168173ffffffffffffffffffffffffffffffffffffffff167f8be0079c531659141344cd1fd0a4f28419497f9722a3daafe3b4186f6b6457e060405160405180910390a350565b610d50611520565b6064811115610d94576040517f08c379a0000000000000000000000000000000000000000000000000000000008152600401610d8b9061242b565b60405180910390fd5b8060058190555050565b60055481565b610dac611520565b610db4611883565b565b60008060009054906101000a900473ffffffffffffffffffffffffffffffffffffffff16905090565b610de7610db6565b73ffffffffffffffffffffffffffffffffffffffff163373ffffffffffffffffffffffffffffffffffffffff1614158015610e705750600260009054906101000a900473ffffffffffffffffffffffffffffffffffffffff1673ffffffffffffffffffffffffffffffffffffffff163373ffffffffffffffffffffffffffffffffffffffff1614155b15610edf5733610e7e610db6565b600260009054906101000a900473ffffffffffffffffffffffffffffffffffffffff166040517f061db9c1000000000000000000000000000000000000000000000000000000008152600401610ed69392919061244b565b60405180910390fd5b600073ffffffffffffffffffffffffffffffffffffffff168173ffffffffffffffffffffffffffffffffffffffff1603610f45576040517fd92e233d00000000000000000000000000000000000000000000000000000000815260040160405180910390fd5b80600260006101000a81548173ffffffffffffffffffffffffffffffffffffffff021916908373ffffffffffffffffffffffffffffffffffffffff1602179055507fd1a6a14209a385a964d036e404cb5cfb71f4000cdb03c9366292430787261be681604051610fb59190611ddd565b60405180910390a150565b600b8181548110610fd057600080fd5b906000526020600020016000915054906101000a900473ffffffffffffffffffffffffffffffffffffffff1681565b600260009054906101000a900473ffffffffffffffffffffffffffffffffffffffff1681565b61102d611520565b60008211611070576040517f08c379a0000000000000000000000000000000000000000000000000000000008152600401611067906124ce565b60405180910390fd5b60028110156110b4576040517f08c379a00000000000000000000000000000000000000000000000000000000081526004016110ab9061253a565b60405180910390fd5b6000600960006008548152602001908152602001600020905060085481600001819055508281600101819055508181600201819055506008547f2fc59e144dddfd59e85aa5c3f16b8ad0d5a8eb85887eaae5c63bc3b5898cebc2848460405161111e92919061255a565b60405180910390a26008600081548092919061113990612583565b9190505550505050565b6060600b8054806020026020016040519081016040528092919081815260200182805480156111c757602002820191906000526020600020905b8160009054906101000a900473ffffffffffffffffffffffffffffffffffffffff1673ffffffffffffffffffffffffffffffffffffffff168152602001906001019080831161117d575b5050505050905090565b6111d9611520565b600073ffffffffffffffffffffffffffffffffffffffff168173ffffffffffffffffffffffffffffffffffffffff1603611248576040517f08c379a000000000000000000000000000000000000000000000000000000000815260040161123f90612617565b60405180910390fd5b80600760006101000a81548173ffffffffffffffffffffffffffffffffffffffff021916908373ffffffffffffffffffffffffffffffffffffffff16021790555050565b611294611520565b61129d816118e6565b50565b6000600a6000858152602001908152602001600020549050600060096000838152602001908152602001600020905060008160030180549050858560008181106112ed576112ec612637565b5b905060200201356112fe9190612666565b9050600082600301828154811061131857611317612637565b5b9060005260206000200160009054906101000a900473ffffffffffffffffffffffffffffffffffffffff169050808360040160016101000a81548173ffffffffffffffffffffffffffffffffffffffff021916908373ffffffffffffffffffffffffffffffffffffffff16021790555060008173ffffffffffffffffffffffffffffffffffffffff16606460055460646113b291906122d3565b866003018054905087600101546113c9919061217f565b6113d3919061217f565b6113dd91906121f0565b6040516113e990612252565b60006040518083038185875af1925050503d8060008114611426576040519150601f19603f3d011682016040523d82523d6000602084013e61142b565b606091505b505090508061146f576040517f08c379a0000000000000000000000000000000000000000000000000000000008152600401611466906126e3565b60405180910390fd5b600b829080600181540180825580915050600190039060005260206000200160009091909190916101000a81548173ffffffffffffffffffffffffffffffffffffffff021916908373ffffffffffffffffffffffffffffffffffffffff1602179055508173ffffffffffffffffffffffffffffffffffffffff16857f7286599a58b2822d6e330944038c6d3424134069b04156404050720b942d87ee60405160405180910390a35050505050505050565b60008054906101000a900473ffffffffffffffffffffffffffffffffffffffff1673ffffffffffffffffffffffffffffffffffffffff163373ffffffffffffffffffffffffffffffffffffffff16146115ae576040517f08c379a00000000000000000000000000000000000000000000000000000000081526004016115a59061274f565b60405180910390fd5b565b6115b8611a12565b6000600460006101000a81548160ff0219169083151502179055507f5db9ee0a495bf2e6ff9c91a7834c1ba4fdd244a5e8aa4e537bd38aeae4b073aa6115fc611a52565b6040516116099190611ddd565b60405180910390a1565b60026003540361164f576040517f3ee5aeb500000000000000000000000000000000000000000000000000000000815260040160405180910390fd5b6002600381905550565b61166161073e565b15611698576040517fd93c066500000000000000000000000000000000000000000000000000000000815260040160405180910390fd5b565b60006009600083815260200190815260200160002090508060040160009054906101000a900460ff1615611703576040517f08c379a00000000000000000000000000000000000000000000000000000000081526004016116fa906127bb565b60405180910390fd5b60018160040160006101000a81548160ff0219169083151502179055506000600260009054906101000a900473ffffffffffffffffffffffffffffffffffffffff1673ffffffffffffffffffffffffffffffffffffffff16639b1c385e6040518060c001604052807f000000000000000000000000000000000000000000000000000000000000000081526020017f00000000000000000000000000000000000000000000000000000000000000008152602001600361ffff168152602001620186a063ffffffff168152602001600163ffffffff1681526020016117f8604051806020016040528060001515815250611a5a565b8152506040518263ffffffff1660e01b81526004016118179190612958565b6020604051808303816000875af1158015611836573d6000803e3d6000fd5b505050506040513d601f19601f8201168201806040525081019061185a919061298f565b905082600a600083815260200190815260200160002081905550505050565b6001600381905550565b61188b611659565b6001600460006101000a81548160ff0219169083151502179055507f62e78cea01bee320cd4e420270b5ea74000d11b0c9f74754ebdbfc544b05a2586118cf611a52565b6040516118dc9190611ddd565b60405180910390a1565b3373ffffffffffffffffffffffffffffffffffffffff168173ffffffffffffffffffffffffffffffffffffffff1603611954576040517f08c379a000000000000000000000000000000000000000000000000000000000815260040161194b90612a08565b60405180910390fd5b80600160006101000a81548173ffffffffffffffffffffffffffffffffffffffff021916908373ffffffffffffffffffffffffffffffffffffffff1602179055508073ffffffffffffffffffffffffffffffffffffffff1660008054906101000a900473ffffffffffffffffffffffffffffffffffffffff1673ffffffffffffffffffffffffffffffffffffffff167fed8889f560326eb138920d842192f0eb3dd22b4f139c87a2c57538e05bae127860405160405180910390a350565b611a1a61073e565b611a50576040517f8dfc202b00000000000000000000000000000000000000000000000000000000815260040160405180910390fd5b565b600033905090565b60607f92fd13387c7fe7befbc38d303d6468778fb9731bc4583f17d92989c6fcfdeaaa82604051602401611a8e9190612a53565b604051602081830303815290604052907bffffffffffffffffffffffffffffffffffffffffffffffffffffffff19166020820180517bffffffffffffffffffffffffffffffffffffffffffffffffffffffff83818316178352505050509050919050565b6000819050919050565b611b0581611af2565b82525050565b6000602082019050611b206000830184611afc565b92915050565b600080fd5b600080fd5b611b3981611af2565b8114611b4457600080fd5b50565b600081359050611b5681611b30565b92915050565b600060208284031215611b7257611b71611b26565b5b6000611b8084828501611b47565b91505092915050565b60008115159050919050565b611b9e81611b89565b82525050565b600073ffffffffffffffffffffffffffffffffffffffff82169050919050565b6000611bcf82611ba4565b9050919050565b611bdf81611bc4565b82525050565b600060a082019050611bfa6000830188611afc565b611c076020830187611afc565b611c146040830186611afc565b611c216060830185611b95565b611c2e6080830184611bd6565b9695505050505050565b600080fd5b600080fd5b600080fd5b60008083601f840112611c5d57611c5c611c38565b5b8235905067ffffffffffffffff811115611c7a57611c79611c3d565b5b602083019150836020820283011115611c9657611c95611c42565b5b9250929050565b600080600060408486031215611cb657611cb5611b26565b5b6000611cc486828701611b47565b935050602084013567ffffffffffffffff811115611ce557611ce4611b2b565b5b611cf186828701611c47565b92509250509250925092565b600081519050919050565b600082825260208201905092915050565b6000819050602082019050919050565b611d3281611bc4565b82525050565b6000611d448383611d29565b60208301905092915050565b6000602082019050919050565b6000611d6882611cfd565b611d728185611d08565b9350611d7d83611d19565b8060005b83811015611dae578151611d958882611d38565b9750611da083611d50565b925050600181019050611d81565b5085935050505092915050565b60006020820190508181036000830152611dd58184611d5d565b905092915050565b6000602082019050611df26000830184611bd6565b92915050565b6000602082019050611e0d6000830184611b95565b92915050565b611e1c81611bc4565b8114611e2757600080fd5b50565b600081359050611e3981611e13565b92915050565b60008060408385031215611e5657611e55611b26565b5b6000611e6485828601611b47565b9250506020611e7585828601611e2a565b9150509250929050565b600060208284031215611e9557611e94611b26565b5b6000611ea384828501611e2a565b91505092915050565b6000819050919050565b6000611ed1611ecc611ec784611ba4565b611eac565b611ba4565b9050919050565b6000611ee382611eb6565b9050919050565b6000611ef582611ed8565b9050919050565b611f0581611eea565b82525050565b6000602082019050611f206000830184611efc565b92915050565b60008060408385031215611f3d57611f3c611b26565b5b6000611f4b85828601611b47565b9250506020611f5c85828601611b47565b9150509250929050565b6000604082019050611f7b6000830185611bd6565b611f886020830184611bd6565b9392505050565b600082825260208201905092915050565b7f526566657272616c2070657263656e7420746f6f206869676800000000000000600082015250565b6000611fd6601983611f8f565b9150611fe182611fa0565b602082019050919050565b6000602082019050818103600083015261200581611fc9565b9050919050565b7f4472617720696e2070726f677265737300000000000000000000000000000000600082015250565b6000612042601083611f8f565b915061204d8261200c565b602082019050919050565b6000602082019050818103600083015261207181612035565b9050919050565b7f496e636f7272656374204554482073656e740000000000000000000000000000600082015250565b60006120ae601283611f8f565b91506120b982612078565b602082019050919050565b600060208201905081810360008301526120dd816120a1565b9050919050565b7f43616e277420726566657220796f757273656c66000000000000000000000000600082015250565b600061211a601483611f8f565b9150612125826120e4565b602082019050919050565b600060208201905081810360008301526121498161210d565b9050919050565b7f4e487b7100000000000000000000000000000000000000000000000000000000600052601160045260246000fd5b600061218a82611af2565b915061219583611af2565b92508282026121a381611af2565b915082820484148315176121ba576121b9612150565b5b5092915050565b7f4e487b7100000000000000000000000000000000000000000000000000000000600052601260045260246000fd5b60006121fb82611af2565b915061220683611af2565b925082612216576122156121c1565b5b828204905092915050565b600081905092915050565b50565b600061223c600083612221565b91506122478261222c565b600082019050919050565b600061225d8261222f565b9150819050919050565b7f526566657272616c207061796f7574206661696c656400000000000000000000600082015250565b600061229d601683611f8f565b91506122a882612267565b602082019050919050565b600060208201905081810360008301526122cc81612290565b9050919050565b60006122de82611af2565b91506122e983611af2565b925082820390508181111561230157612300612150565b5b92915050565b7f466565207472616e73666572206661696c656400000000000000000000000000600082015250565b600061233d601383611f8f565b915061234882612307565b602082019050919050565b6000602082019050818103600083015261236c81612330565b9050919050565b7f4d7573742062652070726f706f736564206f776e657200000000000000000000600082015250565b60006123a9601683611f8f565b91506123b482612373565b602082019050919050565b600060208201905081810360008301526123d88161239c565b9050919050565b7f50657263656e7420746f6f206869676800000000000000000000000000000000600082015250565b6000612415601083611f8f565b9150612420826123df565b602082019050919050565b6000602082019050818103600083015261244481612408565b9050919050565b60006060820190506124606000830186611bd6565b61246d6020830185611bd6565b61247a6040830184611bd6565b949350505050565b7f496e76616c696420707269636500000000000000000000000000000000000000600082015250565b60006124b8600d83611f8f565b91506124c382612482565b602082019050919050565b600060208201905081810360008301526124e7816124ab565b9050919050565b7f4d696e696d756d203220706c6179657273000000000000000000000000000000600082015250565b6000612524601183611f8f565b915061252f826124ee565b602082019050919050565b6000602082019050818103600083015261255381612517565b9050919050565b600060408201905061256f6000830185611afc565b61257c6020830184611afc565b9392505050565b600061258e82611af2565b91507fffffffffffffffffffffffffffffffffffffffffffffffffffffffffffffffff82036125c0576125bf612150565b5b600182019050919050565b7f496e76616c696420726563697069656e74000000000000000000000000000000600082015250565b6000612601601183611f8f565b915061260c826125cb565b602082019050919050565b60006020820190508181036000830152612630816125f4565b9050919050565b7f4e487b7100000000000000000000000000000000000000000000000000000000600052603260045260246000fd5b600061267182611af2565b915061267c83611af2565b92508261268c5761268b6121c1565b5b828206905092915050565b7f57696e6e6572207061796f7574206661696c6564000000000000000000000000600082015250565b60006126cd601483611f8f565b91506126d882612697565b602082019050919050565b600060208201905081810360008301526126fc816126c0565b9050919050565b7f4f6e6c792063616c6c61626c65206279206f776e657200000000000000000000600082015250565b6000612739601683611f8f565b915061274482612703565b602082019050919050565b600060208201905081810360008301526127688161272c565b9050919050565b7f416c72656164792064726177696e670000000000000000000000000000000000600082015250565b60006127a5600f83611f8f565b91506127b08261276f565b602082019050919050565b600060208201905081810360008301526127d481612798565b9050919050565b6000819050919050565b6127ee816127db565b82525050565b6127fd81611af2565b82525050565b600061ffff82169050919050565b61281a81612803565b82525050565b600063ffffffff82169050919050565b61283981612820565b82525050565b600081519050919050565b600082825260208201905092915050565b60005b8381101561287957808201518184015260208101905061285e565b60008484015250505050565b6000601f19601f8301169050919050565b60006128a18261283f565b6128ab818561284a565b93506128bb81856020860161285b565b6128c481612885565b840191505092915050565b600060c0830160008301516128e760008601826127e5565b5060208301516128fa60208601826127f4565b50604083015161290d6040860182612811565b5060608301516129206060860182612830565b5060808301516129336080860182612830565b5060a083015184820360a086015261294b8282612896565b9150508091505092915050565b6000602082019050818103600083015261297281846128cf565b905092915050565b60008151905061298981611b30565b92915050565b6000602082840312156129a5576129a4611b26565b5b60006129b38482850161297a565b91505092915050565b7f43616e6e6f74207472616e7366657220746f2073656c66000000000000000000600082015250565b60006129f2601783611f8f565b91506129fd826129bc565b602082019050919050565b60006020820190508181036000830152612a21816129e5565b9050919050565b612a3181611b89565b82525050565b602082016000820151612a4d6000850182612a28565b50505050565b6000602082019050612a686000830184612a37565b9291505056fea2646970667358221220531c6b168a7143deaf15dc39b4f1b342ddef200506819b8bd7421ac62cc7902264736f6c63430008140033",
  "linkReferences": {},
  "deployedLinkReferences": {}
}