{
  "_format": "hh-sol-artifact-1",
  "contractName": "Bittery",
  "sourceName": "contracts/Bittery.sol",
  "abi": [
    {
      "inputs": [
        {
          "internalType": "address",
          "name": "_coordinator",
          "type": "address"
        },
        {
          "internalType": "uint256",
          "name": "_subscriptionId",
          "type": "uint256"
        },
        {
          "internalType": "bytes32",
          "name": "_keyHash",
          "type": "bytes32"
        },
        {
          "internalType": "address",
          "name": "_feeRecipient",
          "type": "address"
        }
      ],
      "stateMutability": "nonpayable",
      "type": "constructor"
    },
    {
      "inputs": [],
      "name": "EnforcedPause",
      "type": "error"
    },
    {
      "inputs": [],
      "name": "ExpectedPause",
      "type": "error"
    },
    {
      "inputs": [
        {
          "internalType": "address",
          "name": "have",
          "type": "address"
        },
        {
          "internalType": "address",
          "name": "want",
          "type": "address"
        }
      ],
      "name": "OnlyCoordinatorCanFulfill",
      "type": "error"
    },
    {
      "inputs": [
        {
          "internalType": "address",
          "name": "have",
          "type": "address"
        },
        {
          "internalType": "address",
          "name": "owner",
          "type": "address"
        },
        {
          "internalType": "address",
          "name": "coordinator",
          "type": "address"
        }
      ],
      "name": "OnlyOwnerOrCoordinator",
      "type": "error"
    },
    {
      "inputs": [],
      "name": "ReentrancyGuardReentrantCall",
      "type": "error"
    },
    {
      "inputs": [],
      "name": "ZeroAddress",
      "type": "error"
    },
    {
      "anonymous": false,
      "inputs": [
        {
          "indexed": false,
          "internalType": "address",
          "name": "vrfCoordinator",
          "type": "address"
        }
      ],
      "name": "CoordinatorSet",
      "type": "event"
    },
    {
      "anonymous": false,
      "inputs": [
        {
          "indexed": true,
          "internalType": "address",
          "name": "from",
          "type": "address"
        },
        {
          "indexed": true,
          "internalType": "address",
          "name": "to",
          "type": "address"
        }
      ],
      "name": "OwnershipTransferRequested",
      "type": "event"
    },
    {
      "anonymous": false,
      "inputs": [
        {
          "indexed": true,
          "internalType": "address",
          "name": "from",
          "type": "address"
        },
        {
          "indexed": true,
          "internalType": "address",
          "name": "to",
          "type": "address"
        }
      ],
      "name": "OwnershipTransferred",
      "type": "event"
    },
    {
      "anonymous": false,
      "inputs": [
        {
          "indexed": false,
          "internalType": "address",
          "name": "account",
          "type": "address"
        }
      ],
      "name": "Paused",
      "type": "event"
    },
    {
      "anonymous": false,
      "inputs": [
        {
          "indexed": true,
          "internalType": "uint256",
          "name": "roomId",
          "type": "uint256"
        },
        {
          "indexed": false,
          "internalType": "uint256",
          "name": "price",
          "type": "uint256"
        },
        {
          "indexed": false,
          "internalType": "uint256",
          "name": "maxPlayers",
          "type": "uint256"
        },
        {
          "indexed": false,
          "internalType": "address",
          "name": "paymentToken",
          "type": "address"
        }
      ],
      "name": "RoomCreated",
      "type": "event"
    },
    {
      "anonymous": false,
      "inputs": [
        {
          "indexed": true,
          "internalType": "uint256",
          "name": "roomId",
          "type": "uint256"
        }
      ],
      "name": "RoomExpired",
      "type": "event"
    },
    {
      "anonymous": false,
      "inputs": [
        {
          "indexed": true,
          "internalType": "uint256",
          "name": "roomId",
          "type": "uint256"
        }
      ],
      "name": "RoomRefunded",
      "type": "event"
    },
    {
      "anonymous": false,
      "inputs": [
        {
          "indexed": true,
          "internalType": "uint256",
          "name": "roomId",
          "type": "uint256"
        },
        {
          "indexed": true,
          "internalType": "address",
          "name": "player",
          "type": "address"
        },
        {
          "indexed": false,
          "internalType": "address",
          "name": "referrer",
          "type": "address"
        }
      ],
      "name": "TicketBought",
      "type": "event"
    },
    {
      "anonymous": false,
      "inputs": [
        {
          "indexed": false,
          "internalType": "address",
          "name": "account",
          "type": "address"
        }
      ],
      "name": "Unpaused",
      "type": "event"
    },
    {
      "anonymous": false,
      "inputs": [
        {
          "indexed": true,
          "internalType": "uint256",
          "name": "roomId",
          "type": "uint256"
        },
        {
          "indexed": true,
          "internalType": "address",
          "name": "winner",
          "type": "address"
        }
      ],
      "name": "WinnerPicked",
      "type": "event"
    },
    {
      "anonymous": false,
      "inputs": [
        {
          "indexed": true,
          "internalType": "address",
          "name": "to",
          "type": "address"
        },
        {
          "indexed": false,
          "internalType": "uint256",
          "name": "amount",
          "type": "uint256"
        }
      ],
      "name": "Withdraw",
      "type": "event"
    },
    {
      "inputs": [],
      "name": "ROOM_EXPIRY",
      "outputs": [
        {
          "internalType": "uint256",
          "name": "",
          "type": "uint256"
        }
      ],
      "stateMutability": "view",
      "type": "function"
    },
    {
      "inputs": [],
      "name": "acceptOwnership",
      "outputs": [],
      "stateMutability": "nonpayable",
      "type": "function"
    },
    {
      "inputs": [
        {
          "internalType": "uint256",
          "name": "amount",
          "type": "uint256"
        }
      ],
      "name": "adminWithdraw",
      "outputs": [],
      "stateMutability": "nonpayable",
      "type": "function"
    },
    {
      "inputs": [
        {
          "internalType": "uint256",
          "name": "roomId",
          "type": "uint256"
        },
        {
          "internalType": "address",
          "name": "referrer",
          "type": "address"
        }
      ],
      "name": "buyTicket",
      "outputs": [],
      "stateMutability": "payable",
      "type": "function"
    },
    {
      "inputs": [
        {
          "internalType": "uint256",
          "name": "ticketPrice",
          "type": "uint256"
        },
        {
          "internalType": "uint256",
          "name": "maxPlayers",
          "type": "uint256"
        },
        {
          "internalType": "address",
          "name": "paymentToken",
          "type": "address"
        }
      ],
      "name": "createRoom",
      "outputs": [],
      "stateMutability": "nonpayable",
      "type": "function"
    },
    {
      "inputs": [],
      "name": "feePercent",
      "outputs": [
        {
          "internalType": "uint256",
          "name": "",
          "type": "uint256"
        }
      ],
      "stateMutability": "view",
      "type": "function"
    },
    {
      "inputs": [],
      "name": "feeRecipient",
      "outputs": [
        {
          "internalType": "address",
          "name": "",
          "type": "address"
        }
      ],
      "stateMutability": "view",
      "type": "function"
    },
    {
      "inputs": [],
      "name": "getFeeRecipient",
      "outputs": [
        {
          "internalType": "address",
          "name": "",
          "type": "address"
        }
      ],
      "stateMutability": "view",
      "type": "function"
    },
    {
      "inputs": [],
      "name": "getNextRoomId",
      "outputs": [
        {
          "internalType": "uint256",
          "name": "",
          "type": "uint256"
        }
      ],
      "stateMutability": "view",
      "type": "function"
    },
    {
      "inputs": [
        {
          "internalType": "uint256",
          "name": "roomId",
          "type": "uint256"
        }
      ],
      "name": "getRoom",
      "outputs": [
        {
          "components": [
            {
              "internalType": "uint256",
              "name": "id",
              "type": "uint256"
            },
            {
              "internalType": "uint256",
              "name": "ticketPrice",
              "type": "uint256"
            },
            {
              "internalType": "uint256",
              "name": "maxPlayers",
              "type": "uint256"
            },
            {
              "internalType": "address[]",
              "name": "players",
              "type": "address[]"
            },
            {
              "internalType": "bool",
              "name": "drawing",
              "type": "bool"
            },
            {
              "internalType": "address",
              "name": "winner",
              "type": "address"
            },
            {
              "internalType": "uint256",
              "name": "createdAt",
              "type": "uint256"
            },
            {
              "internalType": "bool",
              "name": "expired",
              "type": "bool"
            },
            {
              "internalType": "bool",
              "name": "refunded",
              "type": "bool"
            },
            {
              "internalType": "address",
              "name": "paymentToken",
              "type": "address"
            }
          ],
          "internalType": "struct Bittery.Room",
          "name": "",
          "type": "tuple"
        }
      ],
      "stateMutability": "view",
      "type": "function"
    },
    {
      "inputs": [
        {
          "internalType": "uint256",
          "name": "roomId",
          "type": "uint256"
        }
      ],
      "name": "getRoomPlayers",
      "outputs": [
        {
          "internalType": "address[]",
          "name": "",
          "type": "address[]"
        }
      ],
      "stateMutability": "view",
      "type": "function"
    },
    {
      "inputs": [],
      "name": "getWinners",
      "outputs": [
        {
          "internalType": "address[]",
          "name": "",
          "type": "address[]"
        }
      ],
      "stateMutability": "view",
      "type": "function"
    },
    {
      "inputs": [
        {
          "internalType": "uint256",
          "name": "",
          "type": "uint256"
        }
      ],
      "name": "globalWinners",
      "outputs": [
        {
          "internalType": "address",
          "name": "",
          "type": "address"
        }
      ],
      "stateMutability": "view",
      "type": "function"
    },
    {
      "inputs": [],
      "name": "nextRoomId",
      "outputs": [
        {
          "internalType": "uint256",
          "name": "",
          "type": "uint256"
        }
      ],
      "stateMutability": "view",
      "type": "function"
    },
    {
      "inputs": [],
      "name": "owner",
      "outputs": [
        {
          "internalType": "address",
          "name": "",
          "type": "address"
        }
      ],
      "stateMutability": "view",
      "type": "function"
    },
    {
      "inputs": [],
      "name": "pause",
      "outputs": [],
      "stateMutability": "nonpayable",
      "type": "function"
    },
    {
      "inputs": [],
      "name": "paused",
      "outputs": [
        {
          "internalType": "bool",
          "name": "",
          "type": "bool"
        }
      ],
      "stateMutability": "view",
      "type": "function"
    },
    {
      "inputs": [
        {
          "internalType": "address",
          "name": "dest",
          "type": "address"
        }
      ],
      "name": "payments",
      "outputs": [
        {
          "internalType": "uint256",
          "name": "",
          "type": "uint256"
        }
      ],
      "stateMutability": "view",
      "type": "function"
    },
    {
      "inputs": [
        {
          "internalType": "uint256",
          "name": "requestId",
          "type": "uint256"
        },
        {
          "internalType": "uint256[]",
          "name": "randomWords",
          "type": "uint256[]"
        }
      ],
      "name": "rawFulfillRandomWords",
      "outputs": [],
      "stateMutability": "nonpayable",
      "type": "function"
    },
    {
      "inputs": [],
      "name": "referralPercent",
      "outputs": [
        {
          "internalType": "uint256",
          "name": "",
          "type": "uint256"
        }
      ],
      "stateMutability": "view",
      "type": "function"
    },
    {
      "inputs": [
        {
          "internalType": "uint256",
          "name": "roomId",
          "type": "uint256"
        }
      ],
      "name": "refundExpiredRoom",
      "outputs": [],
      "stateMutability": "nonpayable",
      "type": "function"
    },
    {
      "inputs": [
        {
          "internalType": "uint256",
          "name": "",
          "type": "uint256"
        }
      ],
      "name": "requestToRoomId",
      "outputs": [
        {
          "internalType": "uint256",
          "name": "",
          "type": "uint256"
        }
      ],
      "stateMutability": "view",
      "type": "function"
    },
    {
      "inputs": [
        {
          "internalType": "uint256",
          "name": "",
          "type": "uint256"
        }
      ],
      "name": "rooms",
      "outputs": [
        {
          "internalType": "uint256",
          "name": "id",
          "type": "uint256"
        },
        {
          "internalType": "uint256",
          "name": "ticketPrice",
          "type": "uint256"
        },
        {
          "internalType": "uint256",
          "name": "maxPlayers",
          "type": "uint256"
        },
        {
          "internalType": "bool",
          "name": "drawing",
          "type": "bool"
        },
        {
          "internalType": "address",
          "name": "winner",
          "type": "address"
        },
        {
          "internalType": "uint256",
          "name": "createdAt",
          "type": "uint256"
        },
        {
          "internalType": "bool",
          "name": "expired",
          "type": "bool"
        },
        {
          "internalType": "bool",
          "name": "refunded",
          "type": "bool"
        },
        {
          "internalType": "address",
          "name": "paymentToken",
          "type": "address"
        }
      ],
      "stateMutability": "view",
      "type": "function"
    },
    {
      "inputs": [],
      "name": "s_vrfCoordinator",
      "outputs": [
        {
          "internalType": "contract IVRFCoordinatorV2Plus",
          "name": "",
          "type": "address"
        }
      ],
      "stateMutability": "view",
      "type": "function"
    },
    {
      "inputs": [
        {
          "internalType": "address",
          "name": "_vrfCoordinator",
          "type": "address"
        }
      ],
      "name": "setCoordinator",
      "outputs": [],
      "stateMutability": "nonpayable",
      "type": "function"
    },
    {
      "inputs": [
        {
          "internalType": "uint256",
          "name": "_feePercent",
          "type": "uint256"
        }
      ],
      "name": "setFeePercent",
      "outputs": [],
      "stateMutability": "nonpayable",
      "type": "function"
    },
    {
      "inputs": [
        {
          "internalType": "address",
          "name": "_feeRecipient",
          "type": "address"
        }
      ],
      "name": "setFeeRecipient",
      "outputs": [],
      "stateMutability": "nonpayable",
      "type": "function"
    },
    {
      "inputs": [
        {
          "internalType": "uint256",
          "name": "_referralPercent",
          "type": "uint256"
        }
      ],
      "name": "setReferralPercent",
      "outputs": [],
      "stateMutability": "nonpayable",
      "type": "function"
    },
    {
      "inputs": [
        {
          "internalType": "address",
          "name": "to",
          "type": "address"
        }
      ],
      "name": "transferOwnership",
      "outputs": [],
      "stateMutability": "nonpayable",
      "type": "function"
    },
    {
      "inputs": [
        {
          "internalType": "uint256",
          "name": "roomId",
          "type": "uint256"
        }
      ],
      "name": "triggerGlobalDraw",
      "outputs": [],
      "stateMutability": "nonpayable",
      "type": "function"
    },
    {
      "inputs": [],
      "name": "unpause",
      "outputs": [],
      "stateMutability": "nonpayable",
      "type": "function"
    },
    {
      "inputs": [
        {
          "internalType": "address payable",
          "name": "payee",
          "type": "address"
        }
      ],
      "name": "withdrawPayments",
      "outputs": [],
      "stateMutability": "nonpayable",
      "type": "function"
    }
  ],
  "bytecode": "60c06040526005805560326006553480156200001a57600080fd5b5060405162004ae738038062004ae7833981810160405281019062000040919062000463565b83338060008073ffffffffffffffffffffffffffffffffffffffff168273ffffffffffffffffffffffffffffffffffffffff1603620000b6576040517f08c379a0000000000000000000000000000000000000000000000000000000008152600401620000ad9062000536565b60405180910390fd5b816000806101000a81548173ffffffffffffffffffffffffffffffffffffffff021916908373ffffffffffffffffffffffffffffffffffffffff160217905550600073ffffffffffffffffffffffffffffffffffffffff168173ffffffffffffffffffffffffffffffffffffffff16146200013d576200013c816200025460201b60201c565b5b505050600073ffffffffffffffffffffffffffffffffffffffff168173ffffffffffffffffffffffffffffffffffffffff1603620001a7576040517fd92e233d00000000000000000000000000000000000000000000000000000000815260040160405180910390fd5b80600260006101000a81548173ffffffffffffffffffffffffffffffffffffffff021916908373ffffffffffffffffffffffffffffffffffffffff16021790555050600160038190555082608081815250508160a0818152505080600760006101000a81548173ffffffffffffffffffffffffffffffffffffffff021916908373ffffffffffffffffffffffffffffffffffffffff160217905550600060088190555050505050620005ca565b3373ffffffffffffffffffffffffffffffffffffffff168173ffffffffffffffffffffffffffffffffffffffff1603620002c5576040517f08c379a0000000000000000000000000000000000000000000000000000000008152600401620002bc90620005a8565b60405180910390fd5b80600160006101000a81548173ffffffffffffffffffffffffffffffffffffffff021916908373ffffffffffffffffffffffffffffffffffffffff1602179055508073ffffffffffffffffffffffffffffffffffffffff1660008054906101000a900473ffffffffffffffffffffffffffffffffffffffff1673ffffffffffffffffffffffffffffffffffffffff167fed8889f560326eb138920d842192f0eb3dd22b4f139c87a2c57538e05bae127860405160405180910390a350565b600080fd5b600073ffffffffffffffffffffffffffffffffffffffff82169050919050565b6000620003b58262000388565b9050919050565b620003c781620003a8565b8114620003d357600080fd5b50565b600081519050620003e781620003bc565b92915050565b6000819050919050565b6200040281620003ed565b81146200040e57600080fd5b50565b6000815190506200042281620003f7565b92915050565b6000819050919050565b6200043d8162000428565b81146200044957600080fd5b50565b6000815190506200045d8162000432565b92915050565b6000806000806080858703121562000480576200047f62000383565b5b60006200049087828801620003d6565b9450506020620004a38782880162000411565b9350506040620004b6878288016200044c565b9250506060620004c987828801620003d6565b91505092959194509250565b600082825260208201905092915050565b7f43616e6e6f7420736574206f776e657220746f207a65726f0000000000000000600082015250565b60006200051e601883620004d5565b91506200052b82620004e6565b602082019050919050565b6000602082019050818103600083015262000551816200050f565b9050919050565b7f43616e6e6f74207472616e7366657220746f2073656c66000000000000000000600082015250565b600062000590601783620004d5565b91506200059d8262000558565b602082019050919050565b60006020820190508181036000830152620005c38162000581565b9050919050565b60805160a0516144f7620005f0600039600061277e015260006127a401526144f76000f3fe6080604052600436106101e35760003560e01c806379ba5097116101025780638ea9811711610095578063df15c37e11610064578063df15c37e146106a1578063e2982c21146106cc578063e74b981b14610709578063f2fde38b14610732576101e3565b80638ea98117146105e55780639381e6391461060e5780639ce438e41461064b5780639eccacf614610676576101e3565b80637fd6f15c116100d15780637fd6f15c1461054f5780638456cb591461057a57806386d076ae146105915780638da5cb5b146105ba576101e3565b806379ba5097146104bd5780637c5b4a37146104d45780637ce3489b146104fd5780637e39498814610526576101e3565b80633f4ba83a1161017a5780635c975abb116101495780635c975abb146104105780636129f25f1461043b57806362a845ec146104645780636d8a74cb14610480576101e3565b80633f4ba83a1461036657806343925cc31461037d57806346904840146103ba5780634ccb20c0146103e5576101e3565b80632db54eb8116101b65780632db54eb8146102be57806330507fd1146102e757806331b3eb9414610312578063343dfb7e1461033b576101e3565b806307a52cab146101e857806308aa0cd3146102135780631bae0ac8146102505780631fe543e314610295575b600080fd5b3480156101f457600080fd5b506101fd61075b565b60405161020a9190612bf1565b60405180910390f35b34801561021f57600080fd5b5061023a60048036038101906102359190612c42565b610761565b6040516102479190612bf1565b60405180910390f35b34801561025c57600080fd5b5061027760048036038101906102729190612c42565b610779565b60405161028c99989796959493929190612ccb565b60405180910390f35b3480156102a157600080fd5b506102bc60048036038101906102b79190612dbd565b61082e565b005b3480156102ca57600080fd5b506102e560048036038101906102e09190612e49565b6108f4565b005b3480156102f357600080fd5b506102fc610ad9565b6040516103099190612bf1565b60405180910390f35b34801561031e57600080fd5b5061033960048036038101906103349190612eda565b610ae0565b005b34801561034757600080fd5b50610350610cbb565b60405161035d9190612bf1565b60405180910390f35b34801561037257600080fd5b5061037b610cc1565b005b34801561038957600080fd5b506103a4600480360381019061039f9190612c42565b610cd3565b6040516103b19190612fc5565b60405180910390f35b3480156103c657600080fd5b506103cf610d77565b6040516103dc9190612fe7565b60405180910390f35b3480156103f157600080fd5b506103fa610d9d565b6040516104079190612fe7565b60405180910390f35b34801561041c57600080fd5b50610425610dc7565b6040516104329190613002565b60405180910390f35b34801561044757600080fd5b50610462600480360381019061045d9190612c42565b610dde565b005b61047e6004803603810190610479919061301d565b610e34565b005b34801561048c57600080fd5b506104a760048036038101906104a29190612c42565b6114b2565b6040516104b491906131c4565b60405180910390f35b3480156104c957600080fd5b506104d2611693565b005b3480156104e057600080fd5b506104fb60048036038101906104f69190612c42565b611828565b005b34801561050957600080fd5b50610524600480360381019061051f9190612c42565b611981565b005b34801561053257600080fd5b5061054d60048036038101906105489190612c42565b6119d7565b005b34801561055b57600080fd5b50610564611b53565b6040516105719190612bf1565b60405180910390f35b34801561058657600080fd5b5061058f611b59565b005b34801561059d57600080fd5b506105b860048036038101906105b39190612c42565b611b6b565b005b3480156105c657600080fd5b506105cf611dd7565b6040516105dc9190612fe7565b60405180910390f35b3480156105f157600080fd5b5061060c600480360381019061060791906131e6565b611e00565b005b34801561061a57600080fd5b5061063560048036038101906106309190612c42565b611fe1565b6040516106429190612fe7565b60405180910390f35b34801561065757600080fd5b50610660612020565b60405161066d9190612bf1565b60405180910390f35b34801561068257600080fd5b5061068b61202a565b6040516106989190613272565b60405180910390f35b3480156106ad57600080fd5b506106b6612050565b6040516106c39190612fc5565b60405180910390f35b3480156106d857600080fd5b506106f360048036038101906106ee91906131e6565b6120de565b6040516107009190612bf1565b60405180910390f35b34801561071557600080fd5b50610730600480360381019061072b91906131e6565b612127565b005b34801561073e57600080fd5b50610759600480360381019061075491906131e6565b6121e2565b005b60085481565b600a6020528060005260406000206000915090505481565b60096020528060005260406000206000915090508060000154908060010154908060020154908060040160009054906101000a900460ff16908060040160019054906101000a900473ffffffffffffffffffffffffffffffffffffffff16908060050154908060060160009054906101000a900460ff16908060060160019054906101000a900460ff16908060060160029054906101000a900473ffffffffffffffffffffffffffffffffffffffff16905089565b600260009054906101000a900473ffffffffffffffffffffffffffffffffffffffff1673ffffffffffffffffffffffffffffffffffffffff163373ffffffffffffffffffffffffffffffffffffffff16146108e45733600260009054906101000a900473ffffffffffffffffffffffffffffffffffffffff166040517f1cf993f40000000000000000000000000000000000000000000000000000000081526004016108db92919061328d565b60405180910390fd5b6108ef8383836121f6565b505050565b6108fc611dd7565b73ffffffffffffffffffffffffffffffffffffffff163373ffffffffffffffffffffffffffffffffffffffff1614610969576040517f08c379a000000000000000000000000000000000000000000000000000000000815260040161096090613313565b60405180910390fd5b600083116109ac576040517f08c379a00000000000000000000000000000000000000000000000000000000081526004016109a39061337f565b60405180910390fd5b60008214806109bc575060028210155b6109fb576040517f08c379a00000000000000000000000000000000000000000000000000000000081526004016109f2906133eb565b60405180910390fd5b600060096000600854815260200190815260200160002090506008548160000181905550838160010181905550828160020181905550818160060160026101000a81548173ffffffffffffffffffffffffffffffffffffffff021916908373ffffffffffffffffffffffffffffffffffffffff1602179055504281600501819055506008547f04f628c9a49ceb1c4d7a9b98e302b3b8643606c856a4d469cb4279c80440a204858585604051610ab39392919061340b565b60405180910390a260086000815480929190610ace90613471565b919050555050505050565b62093a8081565b610ae86124dd565b6000600c60008373ffffffffffffffffffffffffffffffffffffffff1673ffffffffffffffffffffffffffffffffffffffff16815260200190815260200160002054905060008103610b6f576040517f08c379a0000000000000000000000000000000000000000000000000000000008152600401610b6690613505565b60405180910390fd5b6000600c60008473ffffffffffffffffffffffffffffffffffffffff1673ffffffffffffffffffffffffffffffffffffffff1681526020019081526020016000208190555060008273ffffffffffffffffffffffffffffffffffffffff1682604051610bda90613556565b60006040518083038185875af1925050503d8060008114610c17576040519150601f19603f3d011682016040523d82523d6000602084013e610c1c565b606091505b5050905080610c60576040517f08c379a0000000000000000000000000000000000000000000000000000000008152600401610c57906135b7565b60405180910390fd5b8273ffffffffffffffffffffffffffffffffffffffff167f884edad9ce6fa2440d8a54cc123490eb96d2768479d49ff9c7366125a942436483604051610ca69190612bf1565b60405180910390a25050610cb8612523565b50565b60065481565b610cc961252d565b610cd16125bd565b565b606060096000838152602001908152602001600020600301805480602002602001604051908101604052809291908181526020018280548015610d6b57602002820191906000526020600020905b8160009054906101000a900473ffffffffffffffffffffffffffffffffffffffff1673ffffffffffffffffffffffffffffffffffffffff1681526020019060010190808311610d21575b50505050509050919050565b600760009054906101000a900473ffffffffffffffffffffffffffffffffffffffff1681565b6000600760009054906101000a900473ffffffffffffffffffffffffffffffffffffffff16905090565b6000600460009054906101000a900460ff16905090565b610de661252d565b6064811115610e2a576040517f08c379a0000000000000000000000000000000000000000000000000000000008152600401610e2190613623565b60405180910390fd5b8060068190555050565b610e3c6124dd565b610e44612620565b60006009600084815260200190815260200160002090506000816001015411610ea2576040517f08c379a0000000000000000000000000000000000000000000000000000000008152600401610e999061368f565b60405180910390fd5b600073ffffffffffffffffffffffffffffffffffffffff168160060160029054906101000a900473ffffffffffffffffffffffffffffffffffffffff1673ffffffffffffffffffffffffffffffffffffffff1614610f35576040517f08c379a0000000000000000000000000000000000000000000000000000000008152600401610f2c906136fb565b60405180910390fd5b8060040160009054906101000a900460ff1615610f87576040517f08c379a0000000000000000000000000000000000000000000000000000000008152600401610f7e90613767565b60405180910390fd5b8060060160009054906101000a900460ff1615610fd9576040517f08c379a0000000000000000000000000000000000000000000000000000000008152600401610fd0906137d3565b60405180910390fd5b8060060160019054906101000a900460ff161561102b576040517f08c379a00000000000000000000000000000000000000000000000000000000081526004016110229061383f565b60405180910390fd5b600081600201541480611048575080600201548160030180549050105b611087576040517f08c379a000000000000000000000000000000000000000000000000000000000815260040161107e906138ab565b60405180910390fd5b806001015434146110cd576040517f08c379a00000000000000000000000000000000000000000000000000000000081526004016110c490613917565b60405180910390fd5b3373ffffffffffffffffffffffffffffffffffffffff168273ffffffffffffffffffffffffffffffffffffffff160361113b576040517f08c379a000000000000000000000000000000000000000000000000000000000815260040161113290613983565b60405180910390fd5b60008160020154118015611160575062093a80816005015461115d91906139a3565b42115b156111ea5760018160060160006101000a81548160ff021916908315150217905550827f83670f4ac13332750b2132bdc7fa621d7fd7aef650805839de1e84262216a3e160405160405180910390a26040517f08c379a00000000000000000000000000000000000000000000000000000000081526004016111e1906137d3565b60405180910390fd5b60006064600554346111fc91906139d7565b6112069190613a48565b905060008073ffffffffffffffffffffffffffffffffffffffff168473ffffffffffffffffffffffffffffffffffffffff16146112d85760646006548361124d91906139d7565b6112579190613a48565b905060008473ffffffffffffffffffffffffffffffffffffffff1682604051806020016040528060008152506040516112909190613adf565b60006040518083038185875af1925050503d80600081146112cd576040519150601f19603f3d011682016040523d82523d6000602084013e6112d2565b606091505b50509050505b600081836112e69190613af6565b905060008111156113c1576000600760009054906101000a900473ffffffffffffffffffffffffffffffffffffffff1673ffffffffffffffffffffffffffffffffffffffff168260405161133990613556565b60006040518083038185875af1925050503d8060008114611376576040519150601f19603f3d011682016040523d82523d6000602084013e61137b565b606091505b50509050806113bf576040517f08c379a00000000000000000000000000000000000000000000000000000000081526004016113b690613b76565b60405180910390fd5b505b83600301339080600181540180825580915050600190039060005260206000200160009091909190916101000a81548173ffffffffffffffffffffffffffffffffffffffff021916908373ffffffffffffffffffffffffffffffffffffffff1602179055503373ffffffffffffffffffffffffffffffffffffffff16867f5b58cf3bfce2101b6bac355684e4c9f42297d0f95987e29036c73c13f97da7278760405161146d9190612fe7565b60405180910390a360008460020154118015611493575083600201548460030180549050145b156114a2576114a186612661565b5b505050506114ae612523565b5050565b6114ba612b53565b60096000838152602001908152602001600020604051806101400160405290816000820154815260200160018201548152602001600282015481526020016003820180548060200260200160405190810160405280929190818152602001828054801561157c57602002820191906000526020600020905b8160009054906101000a900473ffffffffffffffffffffffffffffffffffffffff1673ffffffffffffffffffffffffffffffffffffffff1681526020019060010190808311611532575b505050505081526020016004820160009054906101000a900460ff161515151581526020016004820160019054906101000a900473ffffffffffffffffffffffffffffffffffffffff1673ffffffffffffffffffffffffffffffffffffffff1673ffffffffffffffffffffffffffffffffffffffff168152602001600582015481526020016006820160009054906101000a900460ff161515151581526020016006820160019054906101000a900460ff161515151581526020016006820160029054906101000a900473ffffffffffffffffffffffffffffffffffffffff1673ffffffffffffffffffffffffffffffffffffffff1673ffffffffffffffffffffffffffffffffffffffff16815250509050919050565b600160009054906101000a900473ffffffffffffffffffffffffffffffffffffffff1673ffffffffffffffffffffffffffffffffffffffff163373ffffffffffffffffffffffffffffffffffffffff1614611723576040517f08c379a000000000000000000000000000000000000000000000000000000000815260040161171a90613be2565b60405180910390fd5b60008060009054906101000a900473ffffffffffffffffffffffffffffffffffffffff169050336000806101000a81548173ffffffffffffffffffffffffffffffffffffffff021916908373ffffffffffffffffffffffffffffffffffffffff1602179055506000600160006101000a81548173ffffffffffffffffffffffffffffffffffffffff021916908373ffffffffffffffffffffffffffffffffffffffff1602179055503373ffffffffffffffffffffffffffffffffffffffff168173ffffffffffffffffffffffffffffffffffffffff167f8be0079c531659141344cd1fd0a4f28419497f9722a3daafe3b4186f6b6457e060405160405180910390a350565b61183061252d565b6118386124dd565b8047101561187b576040517f08c379a000000000000000000000000000000000000000000000000000000000815260040161187290613c4e565b60405180910390fd5b60003373ffffffffffffffffffffffffffffffffffffffff16826040516118a190613556565b60006040518083038185875af1925050503d80600081146118de576040519150601f19603f3d011682016040523d82523d6000602084013e6118e3565b606091505b5050905080611927576040517f08c379a000000000000000000000000000000000000000000000000000000000815260040161191e906135b7565b60405180910390fd5b3373ffffffffffffffffffffffffffffffffffffffff167f884edad9ce6fa2440d8a54cc123490eb96d2768479d49ff9c7366125a94243648360405161196d9190612bf1565b60405180910390a25061197e612523565b50565b61198961252d565b60648111156119cd576040517f08c379a00000000000000000000000000000000000000000000000000000000081526004016119c490613cba565b60405180910390fd5b8060058190555050565b60006009600083815260200190815260200160002090506119f6611dd7565b73ffffffffffffffffffffffffffffffffffffffff163373ffffffffffffffffffffffffffffffffffffffff1614611a63576040517f08c379a0000000000000000000000000000000000000000000000000000000008152600401611a5a90613d26565b60405180910390fd5b6000816002015414611aaa576040517f08c379a0000000000000000000000000000000000000000000000000000000008152600401611aa190613d92565b60405180910390fd5b8060040160009054906101000a900460ff1615611afc576040517f08c379a0000000000000000000000000000000000000000000000000000000008152600401611af390613767565b60405180910390fd5b6001816003018054905011611b46576040517f08c379a0000000000000000000000000000000000000000000000000000000008152600401611b3d90613dfe565b60405180910390fd5b611b4f82612661565b5050565b60055481565b611b6161252d565b611b6961288a565b565b611b7361252d565b611b7b6124dd565b60006009600083815260200190815260200160002090506000816002015411611bd9576040517f08c379a0000000000000000000000000000000000000000000000000000000008152600401611bd090613e6a565b60405180910390fd5b8060060160019054906101000a900460ff1615611c2b576040517f08c379a0000000000000000000000000000000000000000000000000000000008152600401611c2290613ed6565b60405180910390fd5b8060060160009054906101000a900460ff1680611c59575062093a808160050154611c5691906139a3565b42115b611c98576040517f08c379a0000000000000000000000000000000000000000000000000000000008152600401611c8f90613f42565b60405180910390fd5b6000816003018054905011611ce2576040517f08c379a0000000000000000000000000000000000000000000000000000000008152600401611cd990613fae565b60405180910390fd5b60018160060160016101000a81548160ff021916908315150217905550600060646005546064611d129190613af6565b8360010154611d2191906139d7565b611d2b9190613a48565b905060005b8260030180549050811015611d9c57611d89836003018281548110611d5857611d57613fce565b5b9060005260206000200160009054906101000a900473ffffffffffffffffffffffffffffffffffffffff16836128ed565b8080611d9490613471565b915050611d30565b50827f2266501136f5645e558b3e4750659d308e503e7fca2693e3ab049e7dcde4ec0b60405160405180910390a25050611dd4612523565b50565b60008060009054906101000a900473ffffffffffffffffffffffffffffffffffffffff16905090565b611e08611dd7565b73ffffffffffffffffffffffffffffffffffffffff163373ffffffffffffffffffffffffffffffffffffffff1614158015611e915750600260009054906101000a900473ffffffffffffffffffffffffffffffffffffffff1673ffffffffffffffffffffffffffffffffffffffff163373ffffffffffffffffffffffffffffffffffffffff1614155b15611f005733611e9f611dd7565b600260009054906101000a900473ffffffffffffffffffffffffffffffffffffffff166040517f061db9c1000000000000000000000000000000000000000000000000000000008152600401611ef793929190613ffd565b60405180910390fd5b600073ffffffffffffffffffffffffffffffffffffffff168173ffffffffffffffffffffffffffffffffffffffff1603611f66576040517fd92e233d00000000000000000000000000000000000000000000000000000000815260040160405180910390fd5b80600260006101000a81548173ffffffffffffffffffffffffffffffffffffffff021916908373ffffffffffffffffffffffffffffffffffffffff1602179055507fd1a6a14209a385a964d036e404cb5cfb71f4000cdb03c9366292430787261be681604051611fd69190612fe7565b60405180910390a150565b600b8181548110611ff157600080fd5b906000526020600020016000915054906101000a900473ffffffffffffffffffffffffffffffffffffffff1681565b6000600854905090565b600260009054906101000a900473ffffffffffffffffffffffffffffffffffffffff1681565b6060600b8054806020026020016040519081016040528092919081815260200182805480156120d457602002820191906000526020600020905b8160009054906101000a900473ffffffffffffffffffffffffffffffffffffffff1673ffffffffffffffffffffffffffffffffffffffff168152602001906001019080831161208a575b5050505050905090565b6000600c60008373ffffffffffffffffffffffffffffffffffffffff1673ffffffffffffffffffffffffffffffffffffffff168152602001908152602001600020549050919050565b61212f61252d565b600073ffffffffffffffffffffffffffffffffffffffff168173ffffffffffffffffffffffffffffffffffffffff160361219e576040517f08c379a000000000000000000000000000000000000000000000000000000000815260040161219590614080565b60405180910390fd5b80600760006101000a81548173ffffffffffffffffffffffffffffffffffffffff021916908373ffffffffffffffffffffffffffffffffffffffff16021790555050565b6121ea61252d565b6121f381612947565b50565b600260009054906101000a900473ffffffffffffffffffffffffffffffffffffffff1673ffffffffffffffffffffffffffffffffffffffff163373ffffffffffffffffffffffffffffffffffffffff1614612286576040517f08c379a000000000000000000000000000000000000000000000000000000000815260040161227d906140ec565b60405180910390fd5b6000600a600085815260200190815260200160002054905060006009600083815260200190815260200160002090508060040160009054906101000a900460ff16612306576040517f08c379a00000000000000000000000000000000000000000000000000000000081526004016122fd90614158565b60405180910390fd5b600081600301805490508585600081811061232457612323613fce565b5b905060200201356123359190614178565b9050600082600301828154811061234f5761234e613fce565b5b9060005260206000200160009054906101000a900473ffffffffffffffffffffffffffffffffffffffff169050808360040160016101000a81548173ffffffffffffffffffffffffffffffffffffffff021916908373ffffffffffffffffffffffffffffffffffffffff16021790555060008360040160006101000a81548160ff0219169083151502179055506000836003018054905084600101546123f591906139d7565b905060006064600554606461240a9190613af6565b8361241591906139d7565b61241f9190613a48565b905061242b83826128ed565b600b839080600181540180825580915050600190039060005260206000200160009091909190916101000a81548173ffffffffffffffffffffffffffffffffffffffff021916908373ffffffffffffffffffffffffffffffffffffffff1602179055508273ffffffffffffffffffffffffffffffffffffffff16867f7286599a58b2822d6e330944038c6d3424134069b04156404050720b942d87ee60405160405180910390a3505050505050505050565b600260035403612519576040517f3ee5aeb500000000000000000000000000000000000000000000000000000000815260040160405180910390fd5b6002600381905550565b6001600381905550565b60008054906101000a900473ffffffffffffffffffffffffffffffffffffffff1673ffffffffffffffffffffffffffffffffffffffff163373ffffffffffffffffffffffffffffffffffffffff16146125bb576040517f08c379a00000000000000000000000000000000000000000000000000000000081526004016125b2906141f5565b60405180910390fd5b565b6125c5612a73565b6000600460006101000a81548160ff0219169083151502179055507f5db9ee0a495bf2e6ff9c91a7834c1ba4fdd244a5e8aa4e537bd38aeae4b073aa612609612ab3565b6040516126169190612fe7565b60405180910390a1565b612628610dc7565b1561265f576040517fd93c066500000000000000000000000000000000000000000000000000000000815260040160405180910390fd5b565b60006009600083815260200190815260200160002090508060040160009054906101000a900460ff16156126ca576040517f08c379a00000000000000000000000000000000000000000000000000000000081526004016126c190614261565b60405180910390fd5b6001816003018054905011612714576040517f08c379a000000000000000000000000000000000000000000000000000000000815260040161270b90613dfe565b60405180910390fd5b60018160040160006101000a81548160ff0219169083151502179055506000600260009054906101000a900473ffffffffffffffffffffffffffffffffffffffff1673ffffffffffffffffffffffffffffffffffffffff16639b1c385e6040518060c001604052807f000000000000000000000000000000000000000000000000000000000000000081526020017f00000000000000000000000000000000000000000000000000000000000000008152602001600361ffff168152602001620186a063ffffffff168152602001600163ffffffff168152602001612809604051806020016040528060001515815250612abb565b8152506040518263ffffffff1660e01b815260040161282891906143ba565b6020604051808303816000875af1158015612847573d6000803e3d6000fd5b505050506040513d601f19601f8201168201806040525081019061286b91906143f1565b905082600a600083815260200190815260200160002081905550505050565b612892612620565b6001600460006101000a81548160ff0219169083151502179055507f62e78cea01bee320cd4e420270b5ea74000d11b0c9f74754ebdbfc544b05a2586128d6612ab3565b6040516128e39190612fe7565b60405180910390a1565b80600c60008473ffffffffffffffffffffffffffffffffffffffff1673ffffffffffffffffffffffffffffffffffffffff168152602001908152602001600020600082825461293c91906139a3565b925050819055505050565b3373ffffffffffffffffffffffffffffffffffffffff168173ffffffffffffffffffffffffffffffffffffffff16036129b5576040517f08c379a00000000000000000000000000000000000000000000000000000000081526004016129ac9061446a565b60405180910390fd5b80600160006101000a81548173ffffffffffffffffffffffffffffffffffffffff021916908373ffffffffffffffffffffffffffffffffffffffff1602179055508073ffffffffffffffffffffffffffffffffffffffff1660008054906101000a900473ffffffffffffffffffffffffffffffffffffffff1673ffffffffffffffffffffffffffffffffffffffff167fed8889f560326eb138920d842192f0eb3dd22b4f139c87a2c57538e05bae127860405160405180910390a350565b612a7b610dc7565b612ab1576040517f8dfc202b00000000000000000000000000000000000000000000000000000000815260040160405180910390fd5b565b600033905090565b60607f92fd13387c7fe7befbc38d303d6468778fb9731bc4583f17d92989c6fcfdeaaa82604051602401612aef91906144a6565b604051602081830303815290604052907bffffffffffffffffffffffffffffffffffffffffffffffffffffffff19166020820180517bffffffffffffffffffffffffffffffffffffffffffffffffffffffff83818316178352505050509050919050565b60405180610140016040528060008152602001600081526020016000815260200160608152602001600015158152602001600073ffffffffffffffffffffffffffffffffffffffff16815260200160008152602001600015158152602001600015158152602001600073ffffffffffffffffffffffffffffffffffffffff1681525090565b6000819050919050565b612beb81612bd8565b82525050565b6000602082019050612c066000830184612be2565b92915050565b600080fd5b600080fd5b612c1f81612bd8565b8114612c2a57600080fd5b50565b600081359050612c3c81612c16565b92915050565b600060208284031215612c5857612c57612c0c565b5b6000612c6684828501612c2d565b91505092915050565b60008115159050919050565b612c8481612c6f565b82525050565b600073ffffffffffffffffffffffffffffffffffffffff82169050919050565b6000612cb582612c8a565b9050919050565b612cc581612caa565b82525050565b600061012082019050612ce1600083018c612be2565b612cee602083018b612be2565b612cfb604083018a612be2565b612d086060830189612c7b565b612d156080830188612cbc565b612d2260a0830187612be2565b612d2f60c0830186612c7b565b612d3c60e0830185612c7b565b612d4a610100830184612cbc565b9a9950505050505050505050565b600080fd5b600080fd5b600080fd5b60008083601f840112612d7d57612d7c612d58565b5b8235905067ffffffffffffffff811115612d9a57612d99612d5d565b5b602083019150836020820283011115612db657612db5612d62565b5b9250929050565b600080600060408486031215612dd657612dd5612c0c565b5b6000612de486828701612c2d565b935050602084013567ffffffffffffffff811115612e0557612e04612c11565b5b612e1186828701612d67565b92509250509250925092565b612e2681612caa565b8114612e3157600080fd5b50565b600081359050612e4381612e1d565b92915050565b600080600060608486031215612e6257612e61612c0c565b5b6000612e7086828701612c2d565b9350506020612e8186828701612c2d565b9250506040612e9286828701612e34565b9150509250925092565b6000612ea782612c8a565b9050919050565b612eb781612e9c565b8114612ec257600080fd5b50565b600081359050612ed481612eae565b92915050565b600060208284031215612ef057612eef612c0c565b5b6000612efe84828501612ec5565b91505092915050565b600081519050919050565b600082825260208201905092915050565b6000819050602082019050919050565b612f3c81612caa565b82525050565b6000612f4e8383612f33565b60208301905092915050565b6000602082019050919050565b6000612f7282612f07565b612f7c8185612f12565b9350612f8783612f23565b8060005b83811015612fb8578151612f9f8882612f42565b9750612faa83612f5a565b925050600181019050612f8b565b5085935050505092915050565b60006020820190508181036000830152612fdf8184612f67565b905092915050565b6000602082019050612ffc6000830184612cbc565b92915050565b60006020820190506130176000830184612c7b565b92915050565b6000806040838503121561303457613033612c0c565b5b600061304285828601612c2d565b925050602061305385828601612e34565b9150509250929050565b61306681612bd8565b82525050565b600082825260208201905092915050565b600061308882612f07565b613092818561306c565b935061309d83612f23565b8060005b838110156130ce5781516130b58882612f42565b97506130c083612f5a565b9250506001810190506130a1565b5085935050505092915050565b6130e481612c6f565b82525050565b600061014083016000830151613103600086018261305d565b506020830151613116602086018261305d565b506040830151613129604086018261305d565b5060608301518482036060860152613141828261307d565b915050608083015161315660808601826130db565b5060a083015161316960a0860182612f33565b5060c083015161317c60c086018261305d565b5060e083015161318f60e08601826130db565b506101008301516131a46101008601826130db565b506101208301516131b9610120860182612f33565b508091505092915050565b600060208201905081810360008301526131de81846130ea565b905092915050565b6000602082840312156131fc576131fb612c0c565b5b600061320a84828501612e34565b91505092915050565b6000819050919050565b600061323861323361322e84612c8a565b613213565b612c8a565b9050919050565b600061324a8261321d565b9050919050565b600061325c8261323f565b9050919050565b61326c81613251565b82525050565b60006020820190506132876000830184613263565b92915050565b60006040820190506132a26000830185612cbc565b6132af6020830184612cbc565b9392505050565b600082825260208201905092915050565b7f4f6e6c79206f776e657200000000000000000000000000000000000000000000600082015250565b60006132fd600a836132b6565b9150613308826132c7565b602082019050919050565b6000602082019050818103600083015261332c816132f0565b9050919050565b7f496e76616c696420707269636500000000000000000000000000000000000000600082015250565b6000613369600d836132b6565b915061337482613333565b602082019050919050565b600060208201905081810360008301526133988161335c565b9050919050565b7f4d696e203220706c6179657273206f72203020666f7220676c6f62616c000000600082015250565b60006133d5601d836132b6565b91506133e08261339f565b602082019050919050565b60006020820190508181036000830152613404816133c8565b9050919050565b60006060820190506134206000830186612be2565b61342d6020830185612be2565b61343a6040830184612cbc565b949350505050565b7f4e487b7100000000000000000000000000000000000000000000000000000000600052601160045260246000fd5b600061347c82612bd8565b91507fffffffffffffffffffffffffffffffffffffffffffffffffffffffffffffffff82036134ae576134ad613442565b5b600182019050919050565b7f4e6f2066756e647320746f207769746864726177000000000000000000000000600082015250565b60006134ef6014836132b6565b91506134fa826134b9565b602082019050919050565b6000602082019050818103600083015261351e816134e2565b9050919050565b600081905092915050565b50565b6000613540600083613525565b915061354b82613530565b600082019050919050565b600061356182613533565b9150819050919050565b7f5769746864726177206661696c65640000000000000000000000000000000000600082015250565b60006135a1600f836132b6565b91506135ac8261356b565b602082019050919050565b600060208201905081810360008301526135d081613594565b9050919050565b7f526566657272616c2070657263656e7420746f6f206869676800000000000000600082015250565b600061360d6019836132b6565b9150613618826135d7565b602082019050919050565b6000602082019050818103600083015261363c81613600565b9050919050565b7f526f6f6d20646f6573206e6f7420657869737400000000000000000000000000600082015250565b60006136796013836132b6565b915061368482613643565b602082019050919050565b600060208201905081810360008301526136a88161366c565b9050919050565b7f4552433230206e6f7420737570706f7274656420796574000000000000000000600082015250565b60006136e56017836132b6565b91506136f0826136af565b602082019050919050565b60006020820190508181036000830152613714816136d8565b9050919050565b7f4472617720696e2070726f677265737300000000000000000000000000000000600082015250565b60006137516010836132b6565b915061375c8261371b565b602082019050919050565b6000602082019050818103600083015261378081613744565b9050919050565b7f526f6f6d20657870697265640000000000000000000000000000000000000000600082015250565b60006137bd600c836132b6565b91506137c882613787565b602082019050919050565b600060208201905081810360008301526137ec816137b0565b9050919050565b7f526f6f6d20616c726561647920726566756e6465640000000000000000000000600082015250565b60006138296015836132b6565b9150613834826137f3565b602082019050919050565b600060208201905081810360008301526138588161381c565b9050919050565b7f526f6f6d2066756c6c0000000000000000000000000000000000000000000000600082015250565b60006138956009836132b6565b91506138a08261385f565b602082019050919050565b600060208201905081810360008301526138c481613888565b9050919050565b7f496e636f7272656374204554482073656e740000000000000000000000000000600082015250565b60006139016012836132b6565b915061390c826138cb565b602082019050919050565b60006020820190508181036000830152613930816138f4565b9050919050565b7f43616e6e6f7420726566657220796f757273656c660000000000000000000000600082015250565b600061396d6015836132b6565b915061397882613937565b602082019050919050565b6000602082019050818103600083015261399c81613960565b9050919050565b60006139ae82612bd8565b91506139b983612bd8565b92508282019050808211156139d1576139d0613442565b5b92915050565b60006139e282612bd8565b91506139ed83612bd8565b92508282026139fb81612bd8565b91508282048414831517613a1257613a11613442565b5b5092915050565b7f4e487b7100000000000000000000000000000000000000000000000000000000600052601260045260246000fd5b6000613a5382612bd8565b9150613a5e83612bd8565b925082613a6e57613a6d613a19565b5b828204905092915050565b600081519050919050565b60005b83811015613aa2578082015181840152602081019050613a87565b60008484015250505050565b6000613ab982613a79565b613ac38185613525565b9350613ad3818560208601613a84565b80840191505092915050565b6000613aeb8284613aae565b915081905092915050565b6000613b0182612bd8565b9150613b0c83612bd8565b9250828203905081811115613b2457613b23613442565b5b92915050565b7f466565207472616e73666572206661696c656400000000000000000000000000600082015250565b6000613b606013836132b6565b9150613b6b82613b2a565b602082019050919050565b60006020820190508181036000830152613b8f81613b53565b9050919050565b7f4d7573742062652070726f706f736564206f776e657200000000000000000000600082015250565b6000613bcc6016836132b6565b9150613bd782613b96565b602082019050919050565b60006020820190508181036000830152613bfb81613bbf565b9050919050565b7f4e6f7420656e6f7567682062616c616e63650000000000000000000000000000600082015250565b6000613c386012836132b6565b9150613c4382613c02565b602082019050919050565b60006020820190508181036000830152613c6781613c2b565b9050919050565b7f50657263656e7420746f6f206869676800000000000000000000000000000000600082015250565b6000613ca46010836132b6565b9150613caf82613c6e565b602082019050919050565b60006020820190508181036000830152613cd381613c97565b9050919050565b7f4f6e6c79206f776e65722f63726f6e0000000000000000000000000000000000600082015250565b6000613d10600f836132b6565b9150613d1b82613cda565b602082019050919050565b60006020820190508181036000830152613d3f81613d03565b9050919050565b7f4e6f74206120676c6f62616c20726f6f6d000000000000000000000000000000600082015250565b6000613d7c6011836132b6565b9150613d8782613d46565b602082019050919050565b60006020820190508181036000830152613dab81613d6f565b9050919050565b7f4e6f7420656e6f75676820706c61796572730000000000000000000000000000600082015250565b6000613de86012836132b6565b9150613df382613db2565b602082019050919050565b60006020820190508181036000830152613e1781613ddb565b9050919050565b7f4e6f742061207374616e6461726420726f6f6d00000000000000000000000000600082015250565b6000613e546013836132b6565b9150613e5f82613e1e565b602082019050919050565b60006020820190508181036000830152613e8381613e47565b9050919050565b7f416c726561647920726566756e64656400000000000000000000000000000000600082015250565b6000613ec06010836132b6565b9150613ecb82613e8a565b602082019050919050565b60006020820190508181036000830152613eef81613eb3565b9050919050565b7f4e6f742065787069726564207965740000000000000000000000000000000000600082015250565b6000613f2c600f836132b6565b9150613f3782613ef6565b602082019050919050565b60006020820190508181036000830152613f5b81613f1f565b9050919050565b7f4e6f20706c617965727320746f20726566756e64000000000000000000000000600082015250565b6000613f986014836132b6565b9150613fa382613f62565b602082019050919050565b60006020820190508181036000830152613fc781613f8b565b9050919050565b7f4e487b7100000000000000000000000000000000000000000000000000000000600052603260045260246000fd5b60006060820190506140126000830186612cbc565b61401f6020830185612cbc565b61402c6040830184612cbc565b949350505050565b7f496e76616c696420726563697069656e74000000000000000000000000000000600082015250565b600061406a6011836132b6565b915061407582614034565b602082019050919050565b600060208201905081810360008301526140998161405d565b9050919050565b7f4f6e6c792056524620436f6f7264696e61746f72000000000000000000000000600082015250565b60006140d66014836132b6565b91506140e1826140a0565b602082019050919050565b60006020820190508181036000830152614105816140c9565b9050919050565b7f4e6f742064726177696e67000000000000000000000000000000000000000000600082015250565b6000614142600b836132b6565b915061414d8261410c565b602082019050919050565b6000602082019050818103600083015261417181614135565b9050919050565b600061418382612bd8565b915061418e83612bd8565b92508261419e5761419d613a19565b5b828206905092915050565b7f4f6e6c792063616c6c61626c65206279206f776e657200000000000000000000600082015250565b60006141df6016836132b6565b91506141ea826141a9565b602082019050919050565b6000602082019050818103600083015261420e816141d2565b9050919050565b7f416c72656164792064726177696e670000000000000000000000000000000000600082015250565b600061424b600f836132b6565b915061425682614215565b602082019050919050565b6000602082019050818103600083015261427a8161423e565b9050919050565b6000819050919050565b61429481614281565b82525050565b600061ffff82169050919050565b6142b18161429a565b82525050565b600063ffffffff82169050919050565b6142d0816142b7565b82525050565b600082825260208201905092915050565b6000601f19601f8301169050919050565b600061430382613a79565b61430d81856142d6565b935061431d818560208601613a84565b614326816142e7565b840191505092915050565b600060c083016000830151614349600086018261428b565b50602083015161435c602086018261305d565b50604083015161436f60408601826142a8565b50606083015161438260608601826142c7565b50608083015161439560808601826142c7565b5060a083015184820360a08601526143ad82826142f8565b9150508091505092915050565b600060208201905081810360008301526143d48184614331565b905092915050565b6000815190506143eb81612c16565b92915050565b60006020828403121561440757614406612c0c565b5b6000614415848285016143dc565b91505092915050565b7f43616e6e6f74207472616e7366657220746f2073656c66000000000000000000600082015250565b60006144546017836132b6565b915061445f8261441e565b602082019050919050565b6000602082019050818103600083015261448381614447565b9050919050565b6020820160008201516144a060008501826130db565b50505050565b60006020820190506144bb600083018461448a565b9291505056fea26469706673582212208c269de0045503816848e4af24a95c6a676efe4a0d592145f4dab291b4705c0464736f6c63430008140033000000000000000000000000ec0ed46f36576541c75739e915adbcb3de24bd7754827d48d7559f12034aa3d9fdf14af39d4afe514eb8769d44932553cda575be0ffbbd0c1c18c0263dd778dadd1d64240d7bc338d95fec1cf0473928ca7eaf9e0000000000000000000000009ea7ebeb25192b6d7e8e240a852e7ec56d4fb865",
  "deployedBytecode": "0x6080604052600436106101e35760003560e01c806379ba5097116101025780638ea9811711610095578063df15c37e11610064578063df15c37e146106a1578063e2982c21146106cc578063e74b981b14610709578063f2fde38b14610732576101e3565b80638ea98117146105e55780639381e6391461060e5780639ce438e41461064b5780639eccacf614610676576101e3565b80637fd6f15c116100d15780637fd6f15c1461054f5780638456cb591461057a57806386d076ae146105915780638da5cb5b146105ba576101e3565b806379ba5097146104bd5780637c5b4a37146104d45780637ce3489b146104fd5780637e39498814610526576101e3565b80633f4ba83a1161017a5780635c975abb116101495780635c975abb146104105780636129f25f1461043b57806362a845ec146104645780636d8a74cb14610480576101e3565b80633f4ba83a1461036657806343925cc31461037d57806346904840146103ba5780634ccb20c0146103e5576101e3565b80632db54eb8116101b65780632db54eb8146102be57806330507fd1146102e757806331b3eb9414610312578063343dfb7e1461033b576101e3565b806307a52cab146101e857806308aa0cd3146102135780631bae0ac8146102505780631fe543e314610295575b600080fd5b3480156101f457600080fd5b506101fd61075b565b60405161020a9190612bf1565b60405180910390f35b34801561021f57600080fd5b5061023a60048036038101906102359190612c42565b610761565b6040516102479190612bf1565b60405180910390f35b34801561025c57600080fd5b5061027760048036038101906102729190612c42565b610779565b60405161028c99989796959493929190612ccb565b60405180910390f35b3480156102a157600080fd5b506102bc60048036038101906102b79190612dbd565b61082e565b005b3480156102ca57600080fd5b506102e560048036038101906102e09190612e49565b6108f4565b005b3480156102f357600080fd5b506102fc610ad9565b6040516103099190612bf1565b60405180910390f35b34801561031e57600080fd5b5061033960048036038101906103349190612eda565b610ae0565b005b34801561034757600080fd5b50610350610cbb565b60405161035d9190612bf1565b60405180910390f35b34801561037257600080fd5b5061037b610cc1565b005b34801561038957600080fd5b506103a4600480360381019061039f9190612c42565b610cd3565b6040516103b19190612fc5565b60405180910390f35b3480156103c657600080fd5b506103cf610d77565b6040516103dc9190612fe7565b60405180910390f35b3480156103f157600080fd5b506103fa610d9d565b6040516104079190612fe7565b60405180910390f35b34801561041c57600080fd5b50610425610dc7565b6040516104329190613002565b60405180910390f35b34801561044757600080fd5b50610462600480360381019061045d9190612c42565b610dde565b005b61047e6004803603810190610479919061301d565b610e34565b005b34801561048c57600080fd5b506104a760048036038101906104a29190612c42565b6114b2565b6040516104b491906131c4565b60405180910390f35b3480156104c957600080fd5b506104d2611693565b005b3480156104e057600080fd5b506104fb60048036038101906104f69190612c42565b611828565b005b34801561050957600080fd5b50610524600480360381019061051f9190612c42565b611981565b005b34801561053257600080fd5b5061054d60048036038101906105489190612c42565b6119d7565b005b34801561055b57600080fd5b50610564611b53565b6040516105719190612bf1565b60405180910390f35b34801561058657600080fd5b5061058f611b59565b005b34801561059d57600080fd5b506105b860048036038101906105b39190612c42565b611b6b565b005b3480156105c657600080fd5b506105cf611dd7565b6040516105dc9190612fe7565b60405180910390f35b3480156105f157600080fd5b5061060c600480360381019061060791906131e6565b611e00565b005b34801561061a57600080fd5b5061063560048036038101906106309190612c42565b611fe1565b6040516106429190612fe7565b60405180910390f35b34801561065757600080fd5b50610660612020565b60405161066d9190612bf1565b60405180910390f35b34801561068257600080fd5b5061068b61202a565b6040516106989190613272565b60405180910390f35b3480156106ad57600080fd5b506106b6612050565b6040516106c39190612fc5565b60405180910390f35b3480156106d857600080fd5b506106f360048036038101906106ee91906131e6565b6120de565b6040516107009190612bf1565b60405180910390f35b34801561071557600080fd5b50610730600480360381019061072b91906131e6565b612127565b005b34801561073e57600080fd5b50610759600480360381019061075491906131e6565b6121e2565b005b60085481565b600a6020528060005260406000206000915090505481565b60096020528060005260406000206000915090508060000154908060010154908060020154908060040160009054906101000a900460ff16908060040160019054906101000a900473ffffffffffffffffffffffffffffffffffffffff16908060050154908060060160009054906101000a900460ff16908060060160019054906101000a900460ff16908060060160029054906101000a900473ffffffffffffffffffffffffffffffffffffffff16905089565b600260009054906101000a900473ffffffffffffffffffffffffffffffffffffffff1673ffffffffffffffffffffffffffffffffffffffff163373ffffffffffffffffffffffffffffffffffffffff16146108e45733600260009054906101000a900473ffffffffffffffffffffffffffffffffffffffff166040517f1cf993f40000000000000000000000000000000000000000000000000000000081526004016108db92919061328d565b60405180910390fd5b6108ef8383836121f6565b505050565b6108fc611dd7565b73ffffffffffffffffffffffffffffffffffffffff163373ffffffffffffffffffffffffffffffffffffffff1614610969576040517f08c379a000000000000000000000000000000000000000000000000000000000815260040161096090613313565b60405180910390fd5b600083116109ac576040517f08c379a00000000000000000000000000000000000000000000000000000000081526004016109a39061337f565b60405180910390fd5b60008214806109bc575060028210155b6109fb576040517f08c379a00000000000000000000000000000000000000000000000000000000081526004016109f2906133eb565b60405180910390fd5b600060096000600854815260200190815260200160002090506008548160000181905550838160010181905550828160020181905550818160060160026101000a81548173ffffffffffffffffffffffffffffffffffffffff021916908373ffffffffffffffffffffffffffffffffffffffff1602179055504281600501819055506008547f04f628c9a49ceb1c4d7a9b98e302b3b8643606c856a4d469cb4279c80440a204858585604051610ab39392919061340b565b60405180910390a260086000815480929190610ace90613471565b919050555050505050565b62093a8081565b610ae86124dd565b6000600c60008373ffffffffffffffffffffffffffffffffffffffff1673ffffffffffffffffffffffffffffffffffffffff16815260200190815260200160002054905060008103610b6f576040517f08c379a0000000000000000000000000000000000000000000000000000000008152600401610b6690613505565b60405180910390fd5b6000600c60008473ffffffffffffffffffffffffffffffffffffffff1673ffffffffffffffffffffffffffffffffffffffff1681526020019081526020016000208190555060008273ffffffffffffffffffffffffffffffffffffffff1682604051610bda90613556565b60006040518083038185875af1925050503d8060008114610c17576040519150601f19603f3d011682016040523d82523d6000602084013e610c1c565b606091505b5050905080610c60576040517f08c379a0000000000000000000000000000000000000000000000000000000008152600401610c57906135b7565b60405180910390fd5b8273ffffffffffffffffffffffffffffffffffffffff167f884edad9ce6fa2440d8a54cc123490eb96d2768479d49ff9c7366125a942436483604051610ca69190612bf1565b60405180910390a25050610cb8612523565b50565b60065481565b610cc961252d565b610cd16125bd565b565b606060096000838152602001908152602001600020600301805480602002602001604051908101604052809291908181526020018280548015610d6b57602002820191906000526020600020905b8160009054906101000a900473ffffffffffffffffffffffffffffffffffffffff1673ffffffffffffffffffffffffffffffffffffffff1681526020019060010190808311610d21575b50505050509050919050565b600760009054906101000a900473ffffffffffffffffffffffffffffffffffffffff1681565b6000600760009054906101000a900473ffffffffffffffffffffffffffffffffffffffff16905090565b6000600460009054906101000a900460ff16905090565b610de661252d565b6064811115610e2a576040517f08c379a0000000000000000000000000000000000000000000000000000000008152600401610e2190613623565b60405180910390fd5b8060068190555050565b610e3c6124dd565b610e44612620565b60006009600084815260200190815260200160002090506000816001015411610ea2576040517f08c379a0000000000000000000000000000000000000000000000000000000008152600401610e999061368f565b60405180910390fd5b600073ffffffffffffffffffffffffffffffffffffffff168160060160029054906101000a900473ffffffffffffffffffffffffffffffffffffffff1673ffffffffffffffffffffffffffffffffffffffff1614610f35576040517f08c379a0000000000000000000000000000000000000000000000000000000008152600401610f2c906136fb565b60405180910390fd5b8060040160009054906101000a900460ff1615610f87576040517f08c379a0000000000000000000000000000000000000000000000000000000008152600401610f7e90613767565b60405180910390fd5b8060060160009054906101000a900460ff1615610fd9576040517f08c379a0000000000000000000000000000000000000000000000000000000008152600401610fd0906137d3565b60405180910390fd5b8060060160019054906101000a900460ff161561102b576040517f08c379a00000000000000000000000000000000000000000000000000000000081526004016110229061383f565b60405180910390fd5b600081600201541480611048575080600201548160030180549050105b611087576040517f08c379a000000000000000000000000000000000000000000000000000000000815260040161107e906138ab565b60405180910390fd5b806001015434146110cd576040517f08c379a00000000000000000000000000000000000000000000000000000000081526004016110c490613917565b60405180910390fd5b3373ffffffffffffffffffffffffffffffffffffffff168273ffffffffffffffffffffffffffffffffffffffff160361113b576040517f08c379a000000000000000000000000000000000000000000000000000000000815260040161113290613983565b60405180910390fd5b60008160020154118015611160575062093a80816005015461115d91906139a3565b42115b156111ea5760018160060160006101000a81548160ff021916908315150217905550827f83670f4ac13332750b2132bdc7fa621d7fd7aef650805839de1e84262216a3e160405160405180910390a26040517f08c379a00000000000000000000000000000000000000000000000000000000081526004016111e1906137d3565b60405180910390fd5b60006064600554346111fc91906139d7565b6112069190613a48565b905060008073ffffffffffffffffffffffffffffffffffffffff168473ffffffffffffffffffffffffffffffffffffffff16146112d85760646006548361124d91906139d7565b6112579190613a48565b905060008473ffffffffffffffffffffffffffffffffffffffff1682604051806020016040528060008152506040516112909190613adf565b60006040518083038185875af1925050503d80600081146112cd576040519150601f19603f3d011682016040523d82523d6000602084013e6112d2565b606091505b50509050505b600081836112e69190613af6565b905060008111156113c1576000600760009054906101000a900473ffffffffffffffffffffffffffffffffffffffff1673ffffffffffffffffffffffffffffffffffffffff168260405161133990613556565b60006040518083038185875af1925050503d8060008114611376576040519150601f19603f3d011682016040523d82523d6000602084013e61137b565b606091505b50509050806113bf576040517f08c379a00000000000000000000000000000000000000000000000000000000081526004016113b690613b76565b60405180910390fd5b505b83600301339080600181540180825580915050600190039060005260206000200160009091909190916101000a81548173ffffffffffffffffffffffffffffffffffffffff021916908373ffffffffffffffffffffffffffffffffffffffff1602179055503373ffffffffffffffffffffffffffffffffffffffff16867f5b58cf3bfce2101b6bac355684e4c9f42297d0f95987e29036c73c13f97da7278760405161146d9190612fe7565b60405180910390a360008460020154118015611493575083600201548460030180549050145b156114a2576114a186612661565b5b505050506114ae612523565b5050565b6114ba612b53565b60096000838152602001908152602001600020604051806101400160405290816000820154815260200160018201548152602001600282015481526020016003820180548060200260200160405190810160405280929190818152602001828054801561157c57602002820191906000526020600020905b8160009054906101000a900473ffffffffffffffffffffffffffffffffffffffff1673ffffffffffffffffffffffffffffffffffffffff1681526020019060010190808311611532575b505050505081526020016004820160009054906101000a900460ff161515151581526020016004820160019054906101000a900473ffffffffffffffffffffffffffffffffffffffff1673ffffffffffffffffffffffffffffffffffffffff1673ffffffffffffffffffffffffffffffffffffffff168152602001600582015481526020016006820160009054906101000a900460ff161515151581526020016006820160019054906101000a900460ff161515151581526020016006820160029054906101000a900473ffffffffffffffffffffffffffffffffffffffff1673ffffffffffffffffffffffffffffffffffffffff1673ffffffffffffffffffffffffffffffffffffffff16815250509050919050565b600160009054906101000a900473ffffffffffffffffffffffffffffffffffffffff1673ffffffffffffffffffffffffffffffffffffffff163373ffffffffffffffffffffffffffffffffffffffff1614611723576040517f08c379a000000000000000000000000000000000000000000000000000000000815260040161171a90613be2565b60405180910390fd5b60008060009054906101000a900473ffffffffffffffffffffffffffffffffffffffff169050336000806101000a81548173ffffffffffffffffffffffffffffffffffffffff021916908373ffffffffffffffffffffffffffffffffffffffff1602179055506000600160006101000a81548173ffffffffffffffffffffffffffffffffffffffff021916908373ffffffffffffffffffffffffffffffffffffffff1602179055503373ffffffffffffffffffffffffffffffffffffffff168173ffffffffffffffffffffffffffffffffffffffff167f8be0079c531659141344cd1fd0a4f28419497f9722a3daafe3b4186f6b6457e060405160405180910390a350565b61183061252d565b6118386124dd565b8047101561187b576040517f08c379a000000000000000000000000000000000000000000000000000000000815260040161187290613c4e565b60405180910390fd5b60003373ffffffffffffffffffffffffffffffffffffffff16826040516118a190613556565b60006040518083038185875af1925050503d80600081146118de576040519150601f19603f3d011682016040523d82523d6000602084013e6118e3565b606091505b5050905080611927576040517f08c379a000000000000000000000000000000000000000000000000000000000815260040161191e906135b7565b60405180910390fd5b3373ffffffffffffffffffffffffffffffffffffffff167f884edad9ce6fa2440d8a54cc123490eb96d2768479d49ff9c7366125a94243648360405161196d9190612bf1565b60405180910390a25061197e612523565b50565b61198961252d565b60648111156119cd576040517f08c379a00000000000000000000000000000000000000000000000000000000081526004016119c490613cba565b60405180910390fd5b8060058190555050565b60006009600083815260200190815260200160002090506119f6611dd7565b73ffffffffffffffffffffffffffffffffffffffff163373ffffffffffffffffffffffffffffffffffffffff1614611a63576040517f08c379a0000000000000000000000000000000000000000000000000000000008152600401611a5a90613d26565b60405180910390fd5b6000816002015414611aaa576040517f08c379a0000000000000000000000000000000000000000000000000000000008152600401611aa190613d92565b60405180910390fd5b8060040160009054906101000a900460ff1615611afc576040517f08c379a0000000000000000000000000000000000000000000000000000000008152600401611af390613767565b60405180910390fd5b6001816003018054905011611b46576040517f08c379a0000000000000000000000000000000000000000000000000000000008152600401611b3d90613dfe565b60405180910390fd5b611b4f82612661565b5050565b60055481565b611b6161252d565b611b6961288a565b565b611b7361252d565b611b7b6124dd565b60006009600083815260200190815260200160002090506000816002015411611bd9576040517f08c379a0000000000000000000000000000000000000000000000000000000008152600401611bd090613e6a565b60405180910390fd5b8060060160019054906101000a900460ff1615611c2b576040517f08c379a0000000000000000000000000000000000000000000000000000000008152600401611c2290613ed6565b60405180910390fd5b8060060160009054906101000a900460ff1680611c59575062093a808160050154611c5691906139a3565b42115b611c98576040517f08c379a0000000000000000000000000000000000000000000000000000000008152600401611c8f90613f42565b60405180910390fd5b6000816003018054905011611ce2576040517f08c379a0000000000000000000000000000000000000000000000000000000008152600401611cd990613fae565b60405180910390fd5b60018160060160016101000a81548160ff021916908315150217905550600060646005546064611d129190613af6565b8360010154611d2191906139d7565b611d2b9190613a48565b905060005b8260030180549050811015611d9c57611d89836003018281548110611d5857611d57613fce565b5b9060005260206000200160009054906101000a900473ffffffffffffffffffffffffffffffffffffffff16836128ed565b8080611d9490613471565b915050611d30565b50827f2266501136f5645e558b3e4750659d308e503e7fca2693e3ab049e7dcde4ec0b60405160405180910390a25050611dd4612523565b50565b60008060009054906101000a900473ffffffffffffffffffffffffffffffffffffffff16905090565b611e08611dd7565b73ffffffffffffffffffffffffffffffffffffffff163373ffffffffffffffffffffffffffffffffffffffff1614158015611e915750600260009054906101000a900473ffffffffffffffffffffffffffffffffffffffff1673ffffffffffffffffffffffffffffffffffffffff163373ffffffffffffffffffffffffffffffffffffffff1614155b15611f005733611e9f611dd7565b600260009054906101000a900473ffffffffffffffffffffffffffffffffffffffff166040517f061db9c1000000000000000000000000000000000000000000000000000000008152600401611ef793929190613ffd565b60405180910390fd5b600073ffffffffffffffffffffffffffffffffffffffff168173ffffffffffffffffffffffffffffffffffffffff1603611f66576040517fd92e233d00000000000000000000000000000000000000000000000000000000815260040160405180910390fd5b80600260006101000a81548173ffffffffffffffffffffffffffffffffffffffff021916908373ffffffffffffffffffffffffffffffffffffffff1602179055507fd1a6a14209a385a964d036e404cb5cfb71f4000cdb03c9366292430787261be681604051611fd69190612fe7565b60405180910390a150565b600b8181548110611ff157600080fd5b906000526020600020016000915054906101000a900473ffffffffffffffffffffffffffffffffffffffff1681565b6000600854905090565b600260009054906101000a900473ffffffffffffffffffffffffffffffffffffffff1681565b6060600b8054806020026020016040519081016040528092919081815260200182805480156120d457602002820191906000526020600020905b8160009054906101000a900473ffffffffffffffffffffffffffffffffffffffff1673ffffffffffffffffffffffffffffffffffffffff168152602001906001019080831161208a575b5050505050905090565b6000600c60008373ffffffffffffffffffffffffffffffffffffffff1673ffffffffffffffffffffffffffffffffffffffff168152602001908152602001600020549050919050565b61212f61252d565b600073ffffffffffffffffffffffffffffffffffffffff168173ffffffffffffffffffffffffffffffffffffffff160361219e576040517f08c379a000000000000000000000000000000000000000000000000000000000815260040161219590614080565b60405180910390fd5b80600760006101000a81548173ffffffffffffffffffffffffffffffffffffffff021916908373ffffffffffffffffffffffffffffffffffffffff16021790555050565b6121ea61252d565b6121f381612947565b50565b600260009054906101000a900473ffffffffffffffffffffffffffffffffffffffff1673ffffffffffffffffffffffffffffffffffffffff163373ffffffffffffffffffffffffffffffffffffffff1614612286576040517f08c379a000000000000000000000000000000000000000000000000000000000815260040161227d906140ec565b60405180910390fd5b6000600a600085815260200190815260200160002054905060006009600083815260200190815260200160002090508060040160009054906101000a900460ff16612306576040517f08c379a00000000000000000000000000000000000000000000000000000000081526004016122fd90614158565b60405180910390fd5b600081600301805490508585600081811061232457612323613fce565b5b905060200201356123359190614178565b9050600082600301828154811061234f5761234e613fce565b5b9060005260206000200160009054906101000a900473ffffffffffffffffffffffffffffffffffffffff169050808360040160016101000a81548173ffffffffffffffffffffffffffffffffffffffff021916908373ffffffffffffffffffffffffffffffffffffffff16021790555060008360040160006101000a81548160ff0219169083151502179055506000836003018054905084600101546123f591906139d7565b905060006064600554606461240a9190613af6565b8361241591906139d7565b61241f9190613a48565b905061242b83826128ed565b600b839080600181540180825580915050600190039060005260206000200160009091909190916101000a81548173ffffffffffffffffffffffffffffffffffffffff021916908373ffffffffffffffffffffffffffffffffffffffff1602179055508273ffffffffffffffffffffffffffffffffffffffff16867f7286599a58b2822d6e330944038c6d3424134069b04156404050720b942d87ee60405160405180910390a3505050505050505050565b600260035403612519576040517f3ee5aeb500000000000000000000000000000000000000000000000000000000815260040160405180910390fd5b6002600381905550565b6001600381905550565b60008054906101000a900473ffffffffffffffffffffffffffffffffffffffff1673ffffffffffffffffffffffffffffffffffffffff163373ffffffffffffffffffffffffffffffffffffffff16146125bb576040517f08c379a00000000000000000000000000000000000000000000000000000000081526004016125b2906141f5565b60405180910390fd5b565b6125c5612a73565b6000600460006101000a81548160ff0219169083151502179055507f5db9ee0a495bf2e6ff9c91a7834c1ba4fdd244a5e8aa4e537bd38aeae4b073aa612609612ab3565b6040516126169190612fe7565b60405180910390a1565b612628610dc7565b1561265f576040517fd93c066500000000000000000000000000000000000000000000000000000000815260040160405180910390fd5b565b60006009600083815260200190815260200160002090508060040160009054906101000a900460ff16156126ca576040517f08c379a00000000000000000000000000000000000000000000000000000000081526004016126c190614261565b60405180910390fd5b6001816003018054905011612714576040517f08c379a000000000000000000000000000000000000000000000000000000000815260040161270b90613dfe565b60405180910390fd5b60018160040160006101000a81548160ff0219169083151502179055506000600260009054906101000a900473ffffffffffffffffffffffffffffffffffffffff1673ffffffffffffffffffffffffffffffffffffffff16639b1c385e6040518060c001604052807f0ffbbd0c1c18c0263dd778dadd1d64240d7bc338d95fec1cf0473928ca7eaf9e81526020017f54827d48d7559f12034aa3d9fdf14af39d4afe514eb8769d44932553cda575be8152602001600361ffff168152602001620186a063ffffffff168152602001600163ffffffff168152602001612809604051806020016040528060001515815250612abb565b8152506040518263ffffffff1660e01b815260040161282891906143ba565b6020604051808303816000875af1158015612847573d6000803e3d6000fd5b505050506040513d601f19601f8201168201806040525081019061286b91906143f1565b905082600a600083815260200190815260200160002081905550505050565b612892612620565b6001600460006101000a81548160ff0219169083151502179055507f62e78cea01bee320cd4e420270b5ea74000d11b0c9f74754ebdbfc544b05a2586128d6612ab3565b6040516128e39190612fe7565b60405180910390a1565b80600c60008473ffffffffffffffffffffffffffffffffffffffff1673ffffffffffffffffffffffffffffffffffffffff168152602001908152602001600020600082825461293c91906139a3565b925050819055505050565b3373ffffffffffffffffffffffffffffffffffffffff168173ffffffffffffffffffffffffffffffffffffffff16036129b5576040517f08c379a00000000000000000000000000000000000000000000000000000000081526004016129ac9061446a565b60405180910390fd5b80600160006101000a81548173ffffffffffffffffffffffffffffffffffffffff021916908373ffffffffffffffffffffffffffffffffffffffff1602179055508073ffffffffffffffffffffffffffffffffffffffff1660008054906101000a900473ffffffffffffffffffffffffffffffffffffffff1673ffffffffffffffffffffffffffffffffffffffff167fed8889f560326eb138920d842192f0eb3dd22b4f139c87a2c57538e05bae127860405160405180910390a350565b612a7b610dc7565b612ab1576040517f8dfc202b00000000000000000000000000000000000000000000000000000000815260040160405180910390fd5b565b600033905090565b60607f92fd13387c7fe7befbc38d303d6468778fb9731bc4583f17d92989c6fcfdeaaa82604051602401612aef91906144a6565b604051602081830303815290604052907bffffffffffffffffffffffffffffffffffffffffffffffffffffffff19166020820180517bffffffffffffffffffffffffffffffffffffffffffffffffffffffff83818316178352505050509050919050565b60405180610140016040528060008152602001600081526020016000815260200160608152602001600015158152602001600073ffffffffffffffffffffffffffffffffffffffff16815260200160008152602001600015158152602001600015158152602001600073ffffffffffffffffffffffffffffffffffffffff1681525090565b6000819050919050565b612beb81612bd8565b82525050565b6000602082019050612c066000830184612be2565b92915050565b600080fd5b600080fd5b612c1f81612bd8565b8114612c2a57600080fd5b50565b600081359050612c3c81612c16565b92915050565b600060208284031215612c5857612c57612c0c565b5b6000612c6684828501612c2d565b91505092915050565b60008115159050919050565b612c8481612c6f565b82525050565b600073ffffffffffffffffffffffffffffffffffffffff82169050919050565b6000612cb582612c8a565b9050919050565b612cc581612caa565b82525050565b600061012082019050612ce1600083018c612be2565b612cee602083018b612be2565b612cfb604083018a612be2565b612d086060830189612c7b565b612d156080830188612cbc565b612d2260a0830187612be2565b612d2f60c0830186612c7b565b612d3c60e0830185612c7b565b612d4a610100830184612cbc565b9a9950505050505050505050565b600080fd5b600080fd5b600080fd5b60008083601f840112612d7d57612d7c612d58565b5b8235905067ffffffffffffffff811115612d9a57612d99612d5d565b5b602083019150836020820283011115612db657612db5612d62565b5b9250929050565b600080600060408486031215612dd657612dd5612c0c565b5b6000612de486828701612c2d565b935050602084013567ffffffffffffffff811115612e0557612e04612c11565b5b612e1186828701612d67565b92509250509250925092565b612e2681612caa565b8114612e3157600080fd5b50565b600081359050612e4381612e1d565b92915050565b600080600060608486031215612e6257612e61612c0c565b5b6000612e7086828701612c2d565b9350506020612e8186828701612c2d565b9250506040612e9286828701612e34565b9150509250925092565b6000612ea782612c8a565b9050919050565b612eb781612e9c565b8114612ec257600080fd5b50565b600081359050612ed481612eae565b92915050565b600060208284031215612ef057612eef612c0c565b5b6000612efe84828501612ec5565b91505092915050565b600081519050919050565b600082825260208201905092915050565b6000819050602082019050919050565b612f3c81612caa565b82525050565b6000612f4e8383612f33565b60208301905092915050565b6000602082019050919050565b6000612f7282612f07565b612f7c8185612f12565b9350612f8783612f23565b8060005b83811015612fb8578151612f9f8882612f42565b9750612faa83612f5a565b925050600181019050612f8b565b5085935050505092915050565b60006020820190508181036000830152612fdf8184612f67565b905092915050565b6000602082019050612ffc6000830184612cbc565b92915050565b60006020820190506130176000830184612c7b565b92915050565b6000806040838503121561303457613033612c0c565b5b600061304285828601612c2d565b925050602061305385828601612e34565b9150509250929050565b61306681612bd8565b82525050565b600082825260208201905092915050565b600061308882612f07565b613092818561306c565b935061309d83612f23565b8060005b838110156130ce5781516130b58882612f42565b97506130c083612f5a565b9250506001810190506130a1565b5085935050505092915050565b6130e481612c6f565b82525050565b600061014083016000830151613103600086018261305d565b506020830151613116602086018261305d565b506040830151613129604086018261305d565b5060608301518482036060860152613141828261307d565b915050608083015161315660808601826130db565b5060a083015161316960a0860182612f33565b5060c083015161317c60c086018261305d565b5060e083015161318f60e08601826130db565b506101008301516131a46101008601826130db565b506101208301516131b9610120860182612f33565b508091505092915050565b600060208201905081810360008301526131de81846130ea565b905092915050565b6000602082840312156131fc576131fb612c0c565b5b600061320a84828501612e34565b91505092915050565b6000819050919050565b600061323861323361322e84612c8a565b613213565b612c8a565b9050919050565b600061324a8261321d565b9050919050565b600061325c8261323f565b9050919050565b61326c81613251565b82525050565b60006020820190506132876000830184613263565b92915050565b60006040820190506132a26000830185612cbc565b6132af6020830184612cbc565b9392505050565b600082825260208201905092915050565b7f4f6e6c79206f776e657200000000000000000000000000000000000000000000600082015250565b60006132fd600a836132b6565b9150613308826132c7565b602082019050919050565b6000602082019050818103600083015261332c816132f0565b9050919050565b7f496e76616c696420707269636500000000000000000000000000000000000000600082015250565b6000613369600d836132b6565b915061337482613333565b602082019050919050565b600060208201905081810360008301526133988161335c565b9050919050565b7f4d696e203220706c6179657273206f72203020666f7220676c6f62616c000000600082015250565b60006133d5601d836132b6565b91506133e08261339f565b602082019050919050565b60006020820190508181036000830152613404816133c8565b9050919050565b60006060820190506134206000830186612be2565b61342d6020830185612be2565b61343a6040830184612cbc565b949350505050565b7f4e487b7100000000000000000000000000000000000000000000000000000000600052601160045260246000fd5b600061347c82612bd8565b91507fffffffffffffffffffffffffffffffffffffffffffffffffffffffffffffffff82036134ae576134ad613442565b5b600182019050919050565b7f4e6f2066756e647320746f207769746864726177000000000000000000000000600082015250565b60006134ef6014836132b6565b91506134fa826134b9565b602082019050919050565b6000602082019050818103600083015261351e816134e2565b9050919050565b600081905092915050565b50565b6000613540600083613525565b915061354b82613530565b600082019050919050565b600061356182613533565b9150819050919050565b7f5769746864726177206661696c65640000000000000000000000000000000000600082015250565b60006135a1600f836132b6565b91506135ac8261356b565b602082019050919050565b600060208201905081810360008301526135d081613594565b9050919050565b7f526566657272616c2070657263656e7420746f6f206869676800000000000000600082015250565b600061360d6019836132b6565b9150613618826135d7565b602082019050919050565b6000602082019050818103600083015261363c81613600565b9050919050565b7f526f6f6d20646f6573206e6f7420657869737400000000000000000000000000600082015250565b60006136796013836132b6565b915061368482613643565b602082019050919050565b600060208201905081810360008301526136a88161366c565b9050919050565b7f4552433230206e6f7420737570706f7274656420796574000000000000000000600082015250565b60006136e56017836132b6565b91506136f0826136af565b602082019050919050565b60006020820190508181036000830152613714816136d8565b9050919050565b7f4472617720696e2070726f677265737300000000000000000000000000000000600082015250565b60006137516010836132b6565b915061375c8261371b565b602082019050919050565b6000602082019050818103600083015261378081613744565b9050919050565b7f526f6f6d20657870697265640000000000000000000000000000000000000000600082015250565b60006137bd600c836132b6565b91506137c882613787565b602082019050919050565b600060208201905081810360008301526137ec816137b0565b9050919050565b7f526f6f6d20616c726561647920726566756e6465640000000000000000000000600082015250565b60006138296015836132b6565b9150613834826137f3565b602082019050919050565b600060208201905081810360008301526138588161381c565b9050919050565b7f526f6f6d2066756c6c0000000000000000000000000000000000000000000000600082015250565b60006138956009836132b6565b91506138a08261385f565b602082019050919050565b600060208201905081810360008301526138c481613888565b9050919050565b7f496e636f7272656374204554482073656e740000000000000000000000000000600082015250565b60006139016012836132b6565b915061390c826138cb565b602082019050919050565b60006020820190508181036000830152613930816138f4565b9050919050565b7f43616e6e6f7420726566657220796f757273656c660000000000000000000000600082015250565b600061396d6015836132b6565b915061397882613937565b602082019050919050565b6000602082019050818103600083015261399c81613960565b9050919050565b60006139ae82612bd8565b91506139b983612bd8565b92508282019050808211156139d1576139d0613442565b5b92915050565b60006139e282612bd8565b91506139ed83612bd8565b92508282026139fb81612bd8565b91508282048414831517613a1257613a11613442565b5b5092915050565b7f4e487b7100000000000000000000000000000000000000000000000000000000600052601260045260246000fd5b6000613a5382612bd8565b9150613a5e83612bd8565b925082613a6e57613a6d613a19565b5b828204905092915050565b600081519050919050565b60005b83811015613aa2578082015181840152602081019050613a87565b60008484015250505050565b6000613ab982613a79565b613ac38185613525565b9350613ad3818560208601613a84565b80840191505092915050565b6000613aeb8284613aae565b915081905092915050565b6000613b0182612bd8565b9150613b0c83612bd8565b9250828203905081811115613b2457613b23613442565b5b92915050565b7f466565207472616e73666572206661696c656400000000000000000000000000600082015250565b6000613b606013836132b6565b9150613b6b82613b2a565b602082019050919050565b60006020820190508181036000830152613b8f81613b53565b9050919050565b7f4d7573742062652070726f706f736564206f776e657200000000000000000000600082015250565b6000613bcc6016836132b6565b9150613bd782613b96565b602082019050919050565b60006020820190508181036000830152613bfb81613bbf565b9050919050565b7f4e6f7420656e6f7567682062616c616e63650000000000000000000000000000600082015250565b6000613c386012836132b6565b9150613c4382613c02565b602082019050919050565b60006020820190508181036000830152613c6781613c2b565b9050919050565b7f50657263656e7420746f6f206869676800000000000000000000000000000000600082015250565b6000613ca46010836132b6565b9150613caf82613c6e565b602082019050919050565b60006020820190508181036000830152613cd381613c97565b9050919050565b7f4f6e6c79206f776e65722f63726f6e0000000000000000000000000000000000600082015250565b6000613d10600f836132b6565b9150613d1b82613cda565b602082019050919050565b60006020820190508181036000830152613d3f81613d03565b9050919050565b7f4e6f74206120676c6f62616c20726f6f6d000000000000000000000000000000600082015250565b6000613d7c6011836132b6565b9150613d8782613d46565b602082019050919050565b60006020820190508181036000830152613dab81613d6f565b9050919050565b7f4e6f7420656e6f75676820706c61796572730000000000000000000000000000600082015250565b6000613de86012836132b6565b9150613df382613db2565b602082019050919050565b60006020820190508181036000830152613e1781613ddb565b9050919050565b7f4e6f742061207374616e6461726420726f6f6d00000000000000000000000000600082015250565b6000613e546013836132b6565b9150613e5f82613e1e565b602082019050919050565b60006020820190508181036000830152613e8381613e47565b9050919050565b7f416c726561647920726566756e64656400000000000000000000000000000000600082015250565b6000613ec06010836132b6565b9150613ecb82613e8a565b602082019050919050565b60006020820190508181036000830152613eef81613eb3565b9050919050565b7f4e6f742065787069726564207965740000000000000000000000000000000000600082015250565b6000613f2c600f836132b6565b9150613f3782613ef6565b602082019050919050565b60006020820190508181036000830152613f5b81613f1f565b9050919050565b7f4e6f20706c617965727320746f20726566756e64000000000000000000000000600082015250565b6000613f986014836132b6565b9150613fa382613f62565b602082019050919050565b60006020820190508181036000830152613fc781613f8b565b9050919050565b7f4e487b7100000000000000000000000000000000000000000000000000000000600052603260045260246000fd5b60006060820190506140126000830186612cbc565b61401f6020830185612cbc565b61402c6040830184612cbc565b949350505050565b7f496e76616c696420726563697069656e74000000000000000000000000000000600082015250565b600061406a6011836132b6565b915061407582614034565b602082019050919050565b600060208201905081810360008301526140998161405d565b9050919050565b7f4f6e6c792056524620436f6f7264696e61746f72000000000000000000000000600082015250565b60006140d66014836132b6565b91506140e1826140a0565b602082019050919050565b60006020820190508181036000830152614105816140c9565b9050919050565b7f4e6f742064726177696e67000000000000000000000000000000000000000000600082015250565b6000614142600b836132b6565b915061414d8261410c565b602082019050919050565b6000602082019050818103600083015261417181614135565b9050919050565b600061418382612bd8565b915061418e83612bd8565b92508261419e5761419d613a19565b5b828206905092915050565b7f4f6e6c792063616c6c61626c65206279206f776e657200000000000000000000600082015250565b60006141df6016836132b6565b91506141ea826141a9565b602082019050919050565b6000602082019050818103600083015261420e816141d2565b9050919050565b7f416c72656164792064726177696e670000000000000000000000000000000000600082015250565b600061424b600f836132b6565b915061425682614215565b602082019050919050565b6000602082019050818103600083015261427a8161423e565b9050919050565b6000819050919050565b61429481614281565b82525050565b600061ffff82169050919050565b6142b18161429a565b82525050565b600063ffffffff82169050919050565b6142d0816142b7565b82525050565b600082825260208201905092915050565b6000601f19601f8301169050919050565b600061430382613a79565b61430d81856142d6565b935061431d818560208601613a84565b614326816142e7565b840191505092915050565b600060c083016000830151614349600086018261428b565b50602083015161435c602086018261305d565b50604083015161436f60408601826142a8565b50606083015161438260608601826142c7565b50608083015161439560808601826142c7565b5060a083015184820360a08601526143ad82826142f8565b9150508091505092915050565b600060208201905081810360008301526143d48184614331565b905092915050565b6000815190506143eb81612c16565b92915050565b60006020828403121561440757614406612c0c565b5b6000614415848285016143dc565b91505092915050565b7f43616e6e6f74207472616e7366657220746f2073656c66000000000000000000600082015250565b60006144546017836132b6565b915061445f8261441e565b602082019050919050565b6000602082019050818103600083015261448381614447565b9050919050565b6020820160008201516144a060008501826130db565b50505050565b60006020820190506144bb600083018461448a565b9291505056fea26469706673582212208c269de0045503816848e4af24a95c6a676efe4a0d592145f4dab291b4705c0464736f6c63430008140033",
  "linkReferences": {},
  "deployedLinkReferences": {}
}