{
  "_format": "hh-sol-artifact-1",
  "contractName": "Bittery",
  "sourceName": "contracts/Bittery.sol",
  "abi": [
    {
      "inputs": [
        {
          "internalType": "address",
          "name": "_coordinator",
          "type": "address"
        },
        {
          "internalType": "uint256",
          "name": "_subscriptionId",
          "type": "uint256"
        },
        {
          "internalType": "bytes32",
          "name": "_keyHash",
          "type": "bytes32"
        }
      ],
      "stateMutability": "nonpayable",
      "type": "constructor"
    },
    {
      "inputs": [],
      "name": "EnforcedPause",
      "type": "error"
    },
    {
      "inputs": [],
      "name": "ExpectedPause",
      "type": "error"
    },
    {
      "inputs": [
        {
          "internalType": "address",
          "name": "have",
          "type": "address"
        },
        {
          "internalType": "address",
          "name": "want",
          "type": "address"
        }
      ],
      "name": "OnlyCoordinatorCanFulfill",
      "type": "error"
    },
    {
      "inputs": [
        {
          "internalType": "address",
          "name": "have",
          "type": "address"
        },
        {
          "internalType": "address",
          "name": "owner",
          "type": "address"
        },
        {
          "internalType": "address",
          "name": "coordinator",
          "type": "address"
        }
      ],
      "name": "OnlyOwnerOrCoordinator",
      "type": "error"
    },
    {
      "inputs": [],
      "name": "ReentrancyGuardReentrantCall",
      "type": "error"
    },
    {
      "inputs": [],
      "name": "ZeroAddress",
      "type": "error"
    },
    {
      "anonymous": false,
      "inputs": [
        {
          "indexed": false,
          "internalType": "address",
          "name": "vrfCoordinator",
          "type": "address"
        }
      ],
      "name": "CoordinatorSet",
      "type": "event"
    },
    {
      "anonymous": false,
      "inputs": [
        {
          "indexed": true,
          "internalType": "address",
          "name": "from",
          "type": "address"
        },
        {
          "indexed": true,
          "internalType": "address",
          "name": "to",
          "type": "address"
        }
      ],
      "name": "OwnershipTransferRequested",
      "type": "event"
    },
    {
      "anonymous": false,
      "inputs": [
        {
          "indexed": true,
          "internalType": "address",
          "name": "from",
          "type": "address"
        },
        {
          "indexed": true,
          "internalType": "address",
          "name": "to",
          "type": "address"
        }
      ],
      "name": "OwnershipTransferred",
      "type": "event"
    },
    {
      "anonymous": false,
      "inputs": [
        {
          "indexed": false,
          "internalType": "address",
          "name": "account",
          "type": "address"
        }
      ],
      "name": "Paused",
      "type": "event"
    },
    {
      "anonymous": false,
      "inputs": [
        {
          "indexed": false,
          "internalType": "address",
          "name": "account",
          "type": "address"
        }
      ],
      "name": "Unpaused",
      "type": "event"
    },
    {
      "anonymous": false,
      "inputs": [
        {
          "indexed": true,
          "internalType": "address",
          "name": "winner",
          "type": "address"
        }
      ],
      "name": "WinnerPicked",
      "type": "event"
    },
    {
      "inputs": [],
      "name": "TICKET_PRICE",
      "outputs": [
        {
          "internalType": "uint256",
          "name": "",
          "type": "uint256"
        }
      ],
      "stateMutability": "view",
      "type": "function"
    },
    {
      "inputs": [],
      "name": "acceptOwnership",
      "outputs": [],
      "stateMutability": "nonpayable",
      "type": "function"
    },
    {
      "inputs": [
        {
          "internalType": "address",
          "name": "referrer",
          "type": "address"
        }
      ],
      "name": "buyTicket",
      "outputs": [],
      "stateMutability": "payable",
      "type": "function"
    },
    {
      "inputs": [],
      "name": "currentRound",
      "outputs": [
        {
          "internalType": "uint256",
          "name": "",
          "type": "uint256"
        }
      ],
      "stateMutability": "view",
      "type": "function"
    },
    {
      "inputs": [],
      "name": "drawing",
      "outputs": [
        {
          "internalType": "bool",
          "name": "",
          "type": "bool"
        }
      ],
      "stateMutability": "view",
      "type": "function"
    },
    {
      "inputs": [],
      "name": "feePercent",
      "outputs": [
        {
          "internalType": "uint256",
          "name": "",
          "type": "uint256"
        }
      ],
      "stateMutability": "view",
      "type": "function"
    },
    {
      "inputs": [],
      "name": "feeRecipient",
      "outputs": [
        {
          "internalType": "address",
          "name": "",
          "type": "address"
        }
      ],
      "stateMutability": "view",
      "type": "function"
    },
    {
      "inputs": [],
      "name": "getPlayers",
      "outputs": [
        {
          "internalType": "address[]",
          "name": "",
          "type": "address[]"
        }
      ],
      "stateMutability": "view",
      "type": "function"
    },
    {
      "inputs": [],
      "name": "getWinners",
      "outputs": [
        {
          "internalType": "address[]",
          "name": "",
          "type": "address[]"
        }
      ],
      "stateMutability": "view",
      "type": "function"
    },
    {
      "inputs": [],
      "name": "owner",
      "outputs": [
        {
          "internalType": "address",
          "name": "",
          "type": "address"
        }
      ],
      "stateMutability": "view",
      "type": "function"
    },
    {
      "inputs": [],
      "name": "pause",
      "outputs": [],
      "stateMutability": "nonpayable",
      "type": "function"
    },
    {
      "inputs": [],
      "name": "paused",
      "outputs": [
        {
          "internalType": "bool",
          "name": "",
          "type": "bool"
        }
      ],
      "stateMutability": "view",
      "type": "function"
    },
    {
      "inputs": [
        {
          "internalType": "uint256",
          "name": "requestId",
          "type": "uint256"
        },
        {
          "internalType": "uint256[]",
          "name": "randomWords",
          "type": "uint256[]"
        }
      ],
      "name": "rawFulfillRandomWords",
      "outputs": [],
      "stateMutability": "nonpayable",
      "type": "function"
    },
    {
      "inputs": [],
      "name": "recentWinner",
      "outputs": [
        {
          "internalType": "address",
          "name": "",
          "type": "address"
        }
      ],
      "stateMutability": "view",
      "type": "function"
    },
    {
      "inputs": [],
      "name": "referralPercent",
      "outputs": [
        {
          "internalType": "uint256",
          "name": "",
          "type": "uint256"
        }
      ],
      "stateMutability": "view",
      "type": "function"
    },
    {
      "inputs": [],
      "name": "requestRandomWinner",
      "outputs": [],
      "stateMutability": "nonpayable",
      "type": "function"
    },
    {
      "inputs": [],
      "name": "s_vrfCoordinator",
      "outputs": [
        {
          "internalType": "contract IVRFCoordinatorV2Plus",
          "name": "",
          "type": "address"
        }
      ],
      "stateMutability": "view",
      "type": "function"
    },
    {
      "inputs": [
        {
          "internalType": "address",
          "name": "_vrfCoordinator",
          "type": "address"
        }
      ],
      "name": "setCoordinator",
      "outputs": [],
      "stateMutability": "nonpayable",
      "type": "function"
    },
    {
      "inputs": [
        {
          "internalType": "uint256",
          "name": "_feePercent",
          "type": "uint256"
        }
      ],
      "name": "setFeePercent",
      "outputs": [],
      "stateMutability": "nonpayable",
      "type": "function"
    },
    {
      "inputs": [
        {
          "internalType": "address",
          "name": "_feeRecipient",
          "type": "address"
        }
      ],
      "name": "setFeeRecipient",
      "outputs": [],
      "stateMutability": "nonpayable",
      "type": "function"
    },
    {
      "inputs": [
        {
          "internalType": "uint256",
          "name": "_referralPercent",
          "type": "uint256"
        }
      ],
      "name": "setReferralPercent",
      "outputs": [],
      "stateMutability": "nonpayable",
      "type": "function"
    },
    {
      "inputs": [
        {
          "internalType": "address",
          "name": "to",
          "type": "address"
        }
      ],
      "name": "transferOwnership",
      "outputs": [],
      "stateMutability": "nonpayable",
      "type": "function"
    },
    {
      "inputs": [],
      "name": "unpause",
      "outputs": [],
      "stateMutability": "nonpayable",
      "type": "function"
    },
    {
      "inputs": [
        {
          "internalType": "uint256",
          "name": "",
          "type": "uint256"
        }
      ],
      "name": "winners",
      "outputs": [
        {
          "internalType": "address",
          "name": "",
          "type": "address"
        }
      ],
      "stateMutability": "view",
      "type": "function"
    },
    {
      "inputs": [],
      "name": "withdraw",
      "outputs": [],
      "stateMutability": "nonpayable",
      "type": "function"
    }
  ],
  "bytecode": "0x60c060405260058055739ea7ebeb25192b6d7e8e240a852e7ec56d4fb865600660006101000a81548173ffffffffffffffffffffffffffffffffffffffff021916908373ffffffffffffffffffffffffffffffffffffffff16021790555060326007553480156200006f57600080fd5b5060405162002ffb38038062002ffb833981810160405281019062000095919062000476565b82338060008073ffffffffffffffffffffffffffffffffffffffff168273ffffffffffffffffffffffffffffffffffffffff16036200010b576040517f08c379a0000000000000000000000000000000000000000000000000000000008152600401620001029062000533565b60405180910390fd5b816000806101000a81548173ffffffffffffffffffffffffffffffffffffffff021916908373ffffffffffffffffffffffffffffffffffffffff160217905550600073ffffffffffffffffffffffffffffffffffffffff168173ffffffffffffffffffffffffffffffffffffffff1614620001925762000191816200026760201b60201c565b5b505050600073ffffffffffffffffffffffffffffffffffffffff168173ffffffffffffffffffffffffffffffffffffffff1603620001fc576040517fd92e233d00000000000000000000000000000000000000000000000000000000815260040160405180910390fd5b80600260006101000a81548173ffffffffffffffffffffffffffffffffffffffff021916908373ffffffffffffffffffffffffffffffffffffffff16021790555050600160038190555081608081815250508060a081815250506001600b81905550505050620005c7565b3373ffffffffffffffffffffffffffffffffffffffff168173ffffffffffffffffffffffffffffffffffffffff1603620002d8576040517f08c379a0000000000000000000000000000000000000000000000000000000008152600401620002cf90620005a5565b60405180910390fd5b80600160006101000a81548173ffffffffffffffffffffffffffffffffffffffff021916908373ffffffffffffffffffffffffffffffffffffffff1602179055508073ffffffffffffffffffffffffffffffffffffffff1660008054906101000a900473ffffffffffffffffffffffffffffffffffffffff1673ffffffffffffffffffffffffffffffffffffffff167fed8889f560326eb138920d842192f0eb3dd22b4f139c87a2c57538e05bae127860405160405180910390a350565b600080fd5b600073ffffffffffffffffffffffffffffffffffffffff82169050919050565b6000620003c8826200039b565b9050919050565b620003da81620003bb565b8114620003e657600080fd5b50565b600081519050620003fa81620003cf565b92915050565b6000819050919050565b620004158162000400565b81146200042157600080fd5b50565b60008151905062000435816200040a565b92915050565b6000819050919050565b62000450816200043b565b81146200045c57600080fd5b50565b600081519050620004708162000445565b92915050565b60008060006060848603121562000492576200049162000396565b5b6000620004a286828701620003e9565b9350506020620004b58682870162000424565b9250506040620004c8868287016200045f565b9150509250925092565b600082825260208201905092915050565b7f43616e6e6f7420736574206f776e657220746f207a65726f0000000000000000600082015250565b60006200051b601883620004d2565b91506200052882620004e3565b602082019050919050565b600060208201905081810360008301526200054e816200050c565b9050919050565b7f43616e6e6f74207472616e7366657220746f2073656c66000000000000000000600082015250565b60006200058d601783620004d2565b91506200059a8262000555565b602082019050919050565b60006020820190508181036000830152620005c0816200057e565b9050919050565b60805160a051612a0e620005ed600039600061088b015260006108b10152612a0e6000f3fe6080604052600436106101665760003560e01c80637fd6f15c116100d15780639eccacf61161008a578063b77200b111610064578063b77200b114610489578063df15c37e146104b4578063e74b981b146104df578063f2fde38b1461050857610166565b80639eccacf614610405578063a2fb117514610430578063a5f8cdbb1461046d57610166565b80637fd6f15c146103195780638456cb59146103445780638a19c8bc1461035b5780638b5b9ccc146103865780638da5cb5b146103b15780638ea98117146103dc57610166565b80634f8c70cf116101235780634f8c70cf14610243578063522a1f0b1461026e5780635c975abb146102855780636129f25f146102b057806379ba5097146102d95780637ce3489b146102f057610166565b80631a95f15f1461016b5780631fe543e314610196578063343dfb7e146101bf5780633ccfd60b146101ea5780633f4ba83a146102015780634690484014610218575b600080fd5b34801561017757600080fd5b50610180610531565b60405161018d9190611b56565b60405180910390f35b3480156101a257600080fd5b506101bd60048036038101906101b89190611c0c565b61053c565b005b3480156101cb57600080fd5b506101d4610602565b6040516101e19190611b56565b60405180910390f35b3480156101f657600080fd5b506101ff610608565b005b34801561020d57600080fd5b5061021661071f565b005b34801561022457600080fd5b5061022d610731565b60405161023a9190611cad565b60405180910390f35b34801561024f57600080fd5b50610258610757565b6040516102659190611cad565b60405180910390f35b34801561027a57600080fd5b5061028361077d565b005b34801561029157600080fd5b5061029a610980565b6040516102a79190611ce3565b60405180910390f35b3480156102bc57600080fd5b506102d760048036038101906102d29190611cfe565b610997565b005b3480156102e557600080fd5b506102ee6109ed565b005b3480156102fc57600080fd5b5061031760048036038101906103129190611cfe565b610b82565b005b34801561032557600080fd5b5061032e610bd8565b60405161033b9190611b56565b60405180910390f35b34801561035057600080fd5b50610359610bde565b005b34801561036757600080fd5b50610370610bf0565b60405161037d9190611b56565b60405180910390f35b34801561039257600080fd5b5061039b610bf6565b6040516103a89190611de9565b60405180910390f35b3480156103bd57600080fd5b506103c6610c84565b6040516103d39190611cad565b60405180910390f35b3480156103e857600080fd5b5061040360048036038101906103fe9190611e37565b610cad565b005b34801561041157600080fd5b5061041a610e8e565b6040516104279190611ec3565b60405180910390f35b34801561043c57600080fd5b5061045760048036038101906104529190611cfe565b610eb4565b6040516104649190611cad565b60405180910390f35b61048760048036038101906104829190611e37565b610ef3565b005b34801561049557600080fd5b5061049e611231565b6040516104ab9190611ce3565b60405180910390f35b3480156104c057600080fd5b506104c9611244565b6040516104d69190611de9565b60405180910390f35b3480156104eb57600080fd5b5061050660048036038101906105019190611e37565b6112d2565b005b34801561051457600080fd5b5061052f600480360381019061052a9190611e37565b61138d565b005b662386f26fc1000081565b600260009054906101000a900473ffffffffffffffffffffffffffffffffffffffff1673ffffffffffffffffffffffffffffffffffffffff163373ffffffffffffffffffffffffffffffffffffffff16146105f25733600260009054906101000a900473ffffffffffffffffffffffffffffffffffffffff166040517f1cf993f40000000000000000000000000000000000000000000000000000000081526004016105e9929190611ede565b60405180910390fd5b6105fd8383836113a1565b505050565b60075481565b6106106116a3565b610618611733565b600047905060008111610660576040517f08c379a000000000000000000000000000000000000000000000000000000000815260040161065790611f64565b60405180910390fd5b600061066a610c84565b73ffffffffffffffffffffffffffffffffffffffff168260405161068d90611fb5565b60006040518083038185875af1925050503d80600081146106ca576040519150601f19603f3d011682016040523d82523d6000602084013e6106cf565b606091505b5050905080610713576040517f08c379a000000000000000000000000000000000000000000000000000000000815260040161070a90612016565b60405180910390fd5b505061071d611779565b565b6107276116a3565b61072f611783565b565b600660009054906101000a900473ffffffffffffffffffffffffffffffffffffffff1681565b600960009054906101000a900473ffffffffffffffffffffffffffffffffffffffff1681565b6107856116a3565b61078d6117e6565b6000600880549050116107d5576040517f08c379a00000000000000000000000000000000000000000000000000000000081526004016107cc90612082565b60405180910390fd5b600d60009054906101000a900460ff1615610825576040517f08c379a000000000000000000000000000000000000000000000000000000000815260040161081c906120ee565b60405180910390fd5b6001600d60006101000a81548160ff021916908315150217905550600260009054906101000a900473ffffffffffffffffffffffffffffffffffffffff1673ffffffffffffffffffffffffffffffffffffffff16639b1c385e6040518060c001604052807f000000000000000000000000000000000000000000000000000000000000000081526020017f00000000000000000000000000000000000000000000000000000000000000008152602001600361ffff168152602001620186a063ffffffff168152602001600163ffffffff168152602001610916604051806020016040528060001515815250611827565b8152506040518263ffffffff1660e01b8152600401610935919061228b565b6020604051808303816000875af1158015610954573d6000803e3d6000fd5b505050506040513d601f19601f8201168201806040525081019061097891906122c2565b600c81905550565b6000600460009054906101000a900460ff16905090565b61099f6116a3565b60648111156109e3576040517f08c379a00000000000000000000000000000000000000000000000000000000081526004016109da9061233b565b60405180910390fd5b8060078190555050565b600160009054906101000a900473ffffffffffffffffffffffffffffffffffffffff1673ffffffffffffffffffffffffffffffffffffffff163373ffffffffffffffffffffffffffffffffffffffff1614610a7d576040517f08c379a0000000000000000000000000000000000000000000000000000000008152600401610a74906123a7565b60405180910390fd5b60008060009054906101000a900473ffffffffffffffffffffffffffffffffffffffff169050336000806101000a81548173ffffffffffffffffffffffffffffffffffffffff021916908373ffffffffffffffffffffffffffffffffffffffff1602179055506000600160006101000a81548173ffffffffffffffffffffffffffffffffffffffff021916908373ffffffffffffffffffffffffffffffffffffffff1602179055503373ffffffffffffffffffffffffffffffffffffffff168173ffffffffffffffffffffffffffffffffffffffff167f8be0079c531659141344cd1fd0a4f28419497f9722a3daafe3b4186f6b6457e060405160405180910390a350565b610b8a6116a3565b6064811115610bce576040517f08c379a0000000000000000000000000000000000000000000000000000000008152600401610bc590612413565b60405180910390fd5b8060058190555050565b60055481565b610be66116a3565b610bee6118bf565b565b600b5481565b60606008805480602002602001604051908101604052809291908181526020018280548015610c7a57602002820191906000526020600020905b8160009054906101000a900473ffffffffffffffffffffffffffffffffffffffff1673ffffffffffffffffffffffffffffffffffffffff1681526020019060010190808311610c30575b5050505050905090565b60008060009054906101000a900473ffffffffffffffffffffffffffffffffffffffff16905090565b610cb5610c84565b73ffffffffffffffffffffffffffffffffffffffff163373ffffffffffffffffffffffffffffffffffffffff1614158015610d3e5750600260009054906101000a900473ffffffffffffffffffffffffffffffffffffffff1673ffffffffffffffffffffffffffffffffffffffff163373ffffffffffffffffffffffffffffffffffffffff1614155b15610dad5733610d4c610c84565b600260009054906101000a900473ffffffffffffffffffffffffffffffffffffffff166040517f061db9c1000000000000000000000000000000000000000000000000000000008152600401610da493929190612433565b60405180910390fd5b600073ffffffffffffffffffffffffffffffffffffffff168173ffffffffffffffffffffffffffffffffffffffff1603610e13576040517fd92e233d00000000000000000000000000000000000000000000000000000000815260040160405180910390fd5b80600260006101000a81548173ffffffffffffffffffffffffffffffffffffffff021916908373ffffffffffffffffffffffffffffffffffffffff1602179055507fd1a6a14209a385a964d036e404cb5cfb71f4000cdb03c9366292430787261be681604051610e839190611cad565b60405180910390a150565b600260009054906101000a900473ffffffffffffffffffffffffffffffffffffffff1681565b600a8181548110610ec457600080fd5b906000526020600020016000915054906101000a900473ffffffffffffffffffffffffffffffffffffffff1681565b610efb611733565b610f036117e6565b662386f26fc100003414610f4c576040517f08c379a0000000000000000000000000000000000000000000000000000000008152600401610f43906124b6565b60405180910390fd5b3373ffffffffffffffffffffffffffffffffffffffff168173ffffffffffffffffffffffffffffffffffffffff1603610fba576040517f08c379a0000000000000000000000000000000000000000000000000000000008152600401610fb190612522565b60405180910390fd5b6000606460055434610fcc9190612571565b610fd691906125e2565b905060008073ffffffffffffffffffffffffffffffffffffffff168373ffffffffffffffffffffffffffffffffffffffff16146110d75760646007548361101d9190612571565b61102791906125e2565b905060008373ffffffffffffffffffffffffffffffffffffffff168260405161104f90611fb5565b60006040518083038185875af1925050503d806000811461108c576040519150601f19603f3d011682016040523d82523d6000602084013e611091565b606091505b50509050806110d5576040517f08c379a00000000000000000000000000000000000000000000000000000000081526004016110cc9061265f565b60405180910390fd5b505b600081836110e5919061267f565b905060008111156111c0576000600660009054906101000a900473ffffffffffffffffffffffffffffffffffffffff1673ffffffffffffffffffffffffffffffffffffffff168260405161113890611fb5565b60006040518083038185875af1925050503d8060008114611175576040519150601f19603f3d011682016040523d82523d6000602084013e61117a565b606091505b50509050806111be576040517f08c379a00000000000000000000000000000000000000000000000000000000081526004016111b5906126ff565b60405180910390fd5b505b6008339080600181540180825580915050600190039060005260206000200160009091909190916101000a81548173ffffffffffffffffffffffffffffffffffffffff021916908373ffffffffffffffffffffffffffffffffffffffff16021790555050505061122e611779565b50565b600d60009054906101000a900460ff1681565b6060600a8054806020026020016040519081016040528092919081815260200182805480156112c857602002820191906000526020600020905b8160009054906101000a900473ffffffffffffffffffffffffffffffffffffffff1673ffffffffffffffffffffffffffffffffffffffff168152602001906001019080831161127e575b5050505050905090565b6112da6116a3565b600073ffffffffffffffffffffffffffffffffffffffff168173ffffffffffffffffffffffffffffffffffffffff1603611349576040517f08c379a00000000000000000000000000000000000000000000000000000000081526004016113409061276b565b60405180910390fd5b80600660006101000a81548173ffffffffffffffffffffffffffffffffffffffff021916908373ffffffffffffffffffffffffffffffffffffffff16021790555050565b6113956116a3565b61139e81611922565b50565b6000600880549050838360008181106113bd576113bc61278b565b5b905060200201356113ce91906127ba565b9050600881815481106113e4576113e361278b565b5b9060005260206000200160009054906101000a900473ffffffffffffffffffffffffffffffffffffffff16600960006101000a81548173ffffffffffffffffffffffffffffffffffffffff021916908373ffffffffffffffffffffffffffffffffffffffff160217905550600a600960009054906101000a900473ffffffffffffffffffffffffffffffffffffffff169080600181540180825580915050600190039060005260206000200160009091909190916101000a81548173ffffffffffffffffffffffffffffffffffffffff021916908373ffffffffffffffffffffffffffffffffffffffff160217905550600067ffffffffffffffff8111156114ef576114ee6127eb565b5b60405190808252806020026020018201604052801561151d5781602001602082028036833780820191505090505b5060089080519060200190611533929190611a96565b506000600d60006101000a81548160ff0219169083151502179055506000600960009054906101000a900473ffffffffffffffffffffffffffffffffffffffff1673ffffffffffffffffffffffffffffffffffffffff164760405161159790611fb5565b60006040518083038185875af1925050503d80600081146115d4576040519150601f19603f3d011682016040523d82523d6000602084013e6115d9565b606091505b505090508061161d576040517f08c379a000000000000000000000000000000000000000000000000000000000815260040161161490612866565b60405180910390fd5b600960009054906101000a900473ffffffffffffffffffffffffffffffffffffffff1673ffffffffffffffffffffffffffffffffffffffff167f5b690ec4a06fe979403046eaeea5b3ce38524683c3001f662c8b5a829632f7df60405160405180910390a26001600b60008282546116959190612886565b925050819055505050505050565b60008054906101000a900473ffffffffffffffffffffffffffffffffffffffff1673ffffffffffffffffffffffffffffffffffffffff163373ffffffffffffffffffffffffffffffffffffffff1614611731576040517f08c379a000000000000000000000000000000000000000000000000000000000815260040161172890612906565b60405180910390fd5b565b60026003540361176f576040517f3ee5aeb500000000000000000000000000000000000000000000000000000000815260040160405180910390fd5b6002600381905550565b6001600381905550565b61178b611a4e565b6000600460006101000a81548160ff0219169083151502179055507f5db9ee0a495bf2e6ff9c91a7834c1ba4fdd244a5e8aa4e537bd38aeae4b073aa6117cf611a8e565b6040516117dc9190611cad565b60405180910390a1565b6117ee610980565b15611825576040517fd93c066500000000000000000000000000000000000000000000000000000000815260040160405180910390fd5b565b60607f92fd13387c7fe7befbc38d303d6468778fb9731bc4583f17d92989c6fcfdeaaa8260405160240161185b9190612951565b604051602081830303815290604052907bffffffffffffffffffffffffffffffffffffffffffffffffffffffff19166020820180517bffffffffffffffffffffffffffffffffffffffffffffffffffffffff83818316178352505050509050919050565b6118c76117e6565b6001600460006101000a81548160ff0219169083151502179055507f62e78cea01bee320cd4e420270b5ea74000d11b0c9f74754ebdbfc544b05a25861190b611a8e565b6040516119189190611cad565b60405180910390a1565b3373ffffffffffffffffffffffffffffffffffffffff168173ffffffffffffffffffffffffffffffffffffffff1603611990576040517f08c379a0000000000000000000000000000000000000000000000000000000008152600401611987906129b8565b60405180910390fd5b80600160006101000a81548173ffffffffffffffffffffffffffffffffffffffff021916908373ffffffffffffffffffffffffffffffffffffffff1602179055508073ffffffffffffffffffffffffffffffffffffffff1660008054906101000a900473ffffffffffffffffffffffffffffffffffffffff1673ffffffffffffffffffffffffffffffffffffffff167fed8889f560326eb138920d842192f0eb3dd22b4f139c87a2c57538e05bae127860405160405180910390a350565b611a56610980565b611a8c576040517f8dfc202b00000000000000000000000000000000000000000000000000000000815260040160405180910390fd5b565b600033905090565b828054828255906000526020600020908101928215611b0f579160200282015b82811115611b0e5782518260006101000a81548173ffffffffffffffffffffffffffffffffffffffff021916908373ffffffffffffffffffffffffffffffffffffffff16021790555091602001919060010190611ab6565b5b509050611b1c9190611b20565b5090565b5b80821115611b39576000816000905550600101611b21565b5090565b6000819050919050565b611b5081611b3d565b82525050565b6000602082019050611b6b6000830184611b47565b92915050565b600080fd5b600080fd5b611b8481611b3d565b8114611b8f57600080fd5b50565b600081359050611ba181611b7b565b92915050565b600080fd5b600080fd5b600080fd5b60008083601f840112611bcc57611bcb611ba7565b5b8235905067ffffffffffffffff811115611be957611be8611bac565b5b602083019150836020820283011115611c0557611c04611bb1565b5b9250929050565b600080600060408486031215611c2557611c24611b71565b5b6000611c3386828701611b92565b935050602084013567ffffffffffffffff811115611c5457611c53611b76565b5b611c6086828701611bb6565b92509250509250925092565b600073ffffffffffffffffffffffffffffffffffffffff82169050919050565b6000611c9782611c6c565b9050919050565b611ca781611c8c565b82525050565b6000602082019050611cc26000830184611c9e565b92915050565b60008115159050919050565b611cdd81611cc8565b82525050565b6000602082019050611cf86000830184611cd4565b92915050565b600060208284031215611d1457611d13611b71565b5b6000611d2284828501611b92565b91505092915050565b600081519050919050565b600082825260208201905092915050565b6000819050602082019050919050565b611d6081611c8c565b82525050565b6000611d728383611d57565b60208301905092915050565b6000602082019050919050565b6000611d9682611d2b565b611da08185611d36565b9350611dab83611d47565b8060005b83811015611ddc578151611dc38882611d66565b9750611dce83611d7e565b925050600181019050611daf565b5085935050505092915050565b60006020820190508181036000830152611e038184611d8b565b905092915050565b611e1481611c8c565b8114611e1f57600080fd5b50565b600081359050611e3181611e0b565b92915050565b600060208284031215611e4d57611e4c611b71565b5b6000611e5b84828501611e22565b91505092915050565b6000819050919050565b6000611e89611e84611e7f84611c6c565b611e64565b611c6c565b9050919050565b6000611e9b82611e6e565b9050919050565b6000611ead82611e90565b9050919050565b611ebd81611ea2565b82525050565b6000602082019050611ed86000830184611eb4565b92915050565b6000604082019050611ef36000830185611c9e565b611f006020830184611c9e565b9392505050565b600082825260208201905092915050565b7f4e6f2066756e6473000000000000000000000000000000000000000000000000600082015250565b6000611f4e600883611f07565b9150611f5982611f18565b602082019050919050565b60006020820190508181036000830152611f7d81611f41565b9050919050565b600081905092915050565b50565b6000611f9f600083611f84565b9150611faa82611f8f565b600082019050919050565b6000611fc082611f92565b9150819050919050565b7f5769746864726177206661696c65640000000000000000000000000000000000600082015250565b6000612000600f83611f07565b915061200b82611fca565b602082019050919050565b6000602082019050818103600083015261202f81611ff3565b9050919050565b7f4e6f20706c617965727300000000000000000000000000000000000000000000600082015250565b600061206c600a83611f07565b915061207782612036565b602082019050919050565b6000602082019050818103600083015261209b8161205f565b9050919050565b7f416c72656164792064726177696e670000000000000000000000000000000000600082015250565b60006120d8600f83611f07565b91506120e3826120a2565b602082019050919050565b60006020820190508181036000830152612107816120cb565b9050919050565b6000819050919050565b6121218161210e565b82525050565b61213081611b3d565b82525050565b600061ffff82169050919050565b61214d81612136565b82525050565b600063ffffffff82169050919050565b61216c81612153565b82525050565b600081519050919050565b600082825260208201905092915050565b60005b838110156121ac578082015181840152602081019050612191565b60008484015250505050565b6000601f19601f8301169050919050565b60006121d482612172565b6121de818561217d565b93506121ee81856020860161218e565b6121f7816121b8565b840191505092915050565b600060c08301600083015161221a6000860182612118565b50602083015161222d6020860182612127565b5060408301516122406040860182612144565b5060608301516122536060860182612163565b5060808301516122666080860182612163565b5060a083015184820360a086015261227e82826121c9565b9150508091505092915050565b600060208201905081810360008301526122a58184612202565b905092915050565b6000815190506122bc81611b7b565b92915050565b6000602082840312156122d8576122d7611b71565b5b60006122e6848285016122ad565b91505092915050565b7f526566657272616c2070657263656e7420746f6f206869676800000000000000600082015250565b6000612325601983611f07565b9150612330826122ef565b602082019050919050565b6000602082019050818103600083015261235481612318565b9050919050565b7f4d7573742062652070726f706f736564206f776e657200000000000000000000600082015250565b6000612391601683611f07565b915061239c8261235b565b602082019050919050565b600060208201905081810360008301526123c081612384565b9050919050565b7f50657263656e7420746f6f206869676800000000000000000000000000000000600082015250565b60006123fd601083611f07565b9150612408826123c7565b602082019050919050565b6000602082019050818103600083015261242c816123f0565b9050919050565b60006060820190506124486000830186611c9e565b6124556020830185611c9e565b6124626040830184611c9e565b949350505050565b7f496e636f7272656374204554482073656e740000000000000000000000000000600082015250565b60006124a0601283611f07565b91506124ab8261246a565b602082019050919050565b600060208201905081810360008301526124cf81612493565b9050919050565b7f43616e277420726566657220796f757273656c66000000000000000000000000600082015250565b600061250c601483611f07565b9150612517826124d6565b602082019050919050565b6000602082019050818103600083015261253b816124ff565b9050919050565b7f4e487b7100000000000000000000000000000000000000000000000000000000600052601160045260246000fd5b600061257c82611b3d565b915061258783611b3d565b925082820261259581611b3d565b915082820484148315176125ac576125ab612542565b5b5092915050565b7f4e487b7100000000000000000000000000000000000000000000000000000000600052601260045260246000fd5b60006125ed82611b3d565b91506125f883611b3d565b925082612608576126076125b3565b5b828204905092915050565b7f526566657272616c207061796f7574206661696c656400000000000000000000600082015250565b6000612649601683611f07565b915061265482612613565b602082019050919050565b600060208201905081810360008301526126788161263c565b9050919050565b600061268a82611b3d565b915061269583611b3d565b92508282039050818111156126ad576126ac612542565b5b92915050565b7f466565207472616e73666572206661696c656400000000000000000000000000600082015250565b60006126e9601383611f07565b91506126f4826126b3565b602082019050919050565b60006020820190508181036000830152612718816126dc565b9050919050565b7f496e76616c696420726563697069656e74000000000000000000000000000000600082015250565b6000612755601183611f07565b91506127608261271f565b602082019050919050565b6000602082019050818103600083015261278481612748565b9050919050565b7f4e487b7100000000000000000000000000000000000000000000000000000000600052603260045260246000fd5b60006127c582611b3d565b91506127d083611b3d565b9250826127e0576127df6125b3565b5b828206905092915050565b7f4e487b7100000000000000000000000000000000000000000000000000000000600052604160045260246000fd5b7f57696e6e6572207061796f7574206661696c6564000000000000000000000000600082015250565b6000612850601483611f07565b915061285b8261281a565b602082019050919050565b6000602082019050818103600083015261287f81612843565b9050919050565b600061289182611b3d565b915061289c83611b3d565b92508282019050808211156128b4576128b3612542565b5b92915050565b7f4f6e6c792063616c6c61626c65206279206f776e657200000000000000000000600082015250565b60006128f0601683611f07565b91506128fb826128ba565b602082019050919050565b6000602082019050818103600083015261291f816128e3565b9050919050565b61292f81611cc8565b82525050565b60208201600082015161294b6000850182612926565b50505050565b60006020820190506129666000830184612935565b92915050565b7f43616e6e6f74207472616e7366657220746f2073656c66000000000000000000600082015250565b60006129a2601783611f07565b91506129ad8261296c565b602082019050919050565b600060208201905081810360008301526129d181612995565b905091905056fea2646970667358221220f2c2181a5f7fd0a098bd70f684cd69da199363333ad39f2ab7b58c38e0ca4b1664736f6c63430008140033",
  "linkReferences": {},
  "deployedLinkReferences": {}
}