{
  "_format": "hh-sol-artifact-1",
  "contractName": "Bittery",
  "sourceName": "contracts/Bittery.sol",
  "abi": [
    {
      "inputs": [
        {
          "internalType": "address",
          "name": "_coordinator",
          "type": "address"
        },
        {
          "internalType": "uint256",
          "name": "_subscriptionId",
          "type": "uint256"
        },
        {
          "internalType": "bytes32",
          "name": "_keyHash",
          "type": "bytes32"
        },
        {
          "internalType": "address",
          "name": "_feeRecipient",
          "type": "address"
        }
      ],
      "stateMutability": "nonpayable",
      "type": "constructor"
    },
    {
      "inputs": [],
      "name": "EnforcedPause",
      "type": "error"
    },
    {
      "inputs": [],
      "name": "ExpectedPause",
      "type": "error"
    },
    {
      "inputs": [
        {
          "internalType": "address",
          "name": "have",
          "type": "address"
        },
        {
          "internalType": "address",
          "name": "want",
          "type": "address"
        }
      ],
      "name": "OnlyCoordinatorCanFulfill",
      "type": "error"
    },
    {
      "inputs": [
        {
          "internalType": "address",
          "name": "have",
          "type": "address"
        },
        {
          "internalType": "address",
          "name": "owner",
          "type": "address"
        },
        {
          "internalType": "address",
          "name": "coordinator",
          "type": "address"
        }
      ],
      "name": "OnlyOwnerOrCoordinator",
      "type": "error"
    },
    {
      "inputs": [],
      "name": "ReentrancyGuardReentrantCall",
      "type": "error"
    },
    {
      "inputs": [],
      "name": "ZeroAddress",
      "type": "error"
    },
    {
      "anonymous": false,
      "inputs": [
        {
          "indexed": false,
          "internalType": "address",
          "name": "vrfCoordinator",
          "type": "address"
        }
      ],
      "name": "CoordinatorSet",
      "type": "event"
    },
    {
      "anonymous": false,
      "inputs": [
        {
          "indexed": true,
          "internalType": "address",
          "name": "from",
          "type": "address"
        },
        {
          "indexed": true,
          "internalType": "address",
          "name": "to",
          "type": "address"
        }
      ],
      "name": "OwnershipTransferRequested",
      "type": "event"
    },
    {
      "anonymous": false,
      "inputs": [
        {
          "indexed": true,
          "internalType": "address",
          "name": "from",
          "type": "address"
        },
        {
          "indexed": true,
          "internalType": "address",
          "name": "to",
          "type": "address"
        }
      ],
      "name": "OwnershipTransferred",
      "type": "event"
    },
    {
      "anonymous": false,
      "inputs": [
        {
          "indexed": false,
          "internalType": "address",
          "name": "account",
          "type": "address"
        }
      ],
      "name": "Paused",
      "type": "event"
    },
    {
      "anonymous": false,
      "inputs": [
        {
          "indexed": true,
          "internalType": "uint256",
          "name": "roomId",
          "type": "uint256"
        },
        {
          "indexed": false,
          "internalType": "uint256",
          "name": "price",
          "type": "uint256"
        },
        {
          "indexed": false,
          "internalType": "uint256",
          "name": "maxPlayers",
          "type": "uint256"
        },
        {
          "indexed": false,
          "internalType": "address",
          "name": "paymentToken",
          "type": "address"
        }
      ],
      "name": "RoomCreated",
      "type": "event"
    },
    {
      "anonymous": false,
      "inputs": [
        {
          "indexed": true,
          "internalType": "uint256",
          "name": "roomId",
          "type": "uint256"
        }
      ],
      "name": "RoomExpired",
      "type": "event"
    },
    {
      "anonymous": false,
      "inputs": [
        {
          "indexed": true,
          "internalType": "uint256",
          "name": "roomId",
          "type": "uint256"
        }
      ],
      "name": "RoomRefunded",
      "type": "event"
    },
    {
      "anonymous": false,
      "inputs": [
        {
          "indexed": true,
          "internalType": "uint256",
          "name": "roomId",
          "type": "uint256"
        },
        {
          "indexed": true,
          "internalType": "address",
          "name": "player",
          "type": "address"
        },
        {
          "indexed": false,
          "internalType": "address",
          "name": "referrer",
          "type": "address"
        }
      ],
      "name": "TicketBought",
      "type": "event"
    },
    {
      "anonymous": false,
      "inputs": [
        {
          "indexed": false,
          "internalType": "address",
          "name": "account",
          "type": "address"
        }
      ],
      "name": "Unpaused",
      "type": "event"
    },
    {
      "anonymous": false,
      "inputs": [
        {
          "indexed": true,
          "internalType": "uint256",
          "name": "roomId",
          "type": "uint256"
        },
        {
          "indexed": true,
          "internalType": "address",
          "name": "winner",
          "type": "address"
        }
      ],
      "name": "WinnerPicked",
      "type": "event"
    },
    {
      "anonymous": false,
      "inputs": [
        {
          "indexed": true,
          "internalType": "address",
          "name": "to",
          "type": "address"
        },
        {
          "indexed": false,
          "internalType": "uint256",
          "name": "amount",
          "type": "uint256"
        }
      ],
      "name": "Withdraw",
      "type": "event"
    },
    {
      "inputs": [],
      "name": "ROOM_EXPIRY",
      "outputs": [
        {
          "internalType": "uint256",
          "name": "",
          "type": "uint256"
        }
      ],
      "stateMutability": "view",
      "type": "function"
    },
    {
      "inputs": [],
      "name": "acceptOwnership",
      "outputs": [],
      "stateMutability": "nonpayable",
      "type": "function"
    },
    {
      "inputs": [
        {
          "internalType": "uint256",
          "name": "amount",
          "type": "uint256"
        }
      ],
      "name": "adminWithdraw",
      "outputs": [],
      "stateMutability": "nonpayable",
      "type": "function"
    },
    {
      "inputs": [
        {
          "internalType": "uint256",
          "name": "roomId",
          "type": "uint256"
        },
        {
          "internalType": "address",
          "name": "referrer",
          "type": "address"
        }
      ],
      "name": "buyTicket",
      "outputs": [],
      "stateMutability": "payable",
      "type": "function"
    },
    {
      "inputs": [
        {
          "internalType": "uint256",
          "name": "ticketPrice",
          "type": "uint256"
        },
        {
          "internalType": "uint256",
          "name": "maxPlayers",
          "type": "uint256"
        },
        {
          "internalType": "address",
          "name": "paymentToken",
          "type": "address"
        }
      ],
      "name": "createRoom",
      "outputs": [],
      "stateMutability": "nonpayable",
      "type": "function"
    },
    {
      "inputs": [],
      "name": "feePercent",
      "outputs": [
        {
          "internalType": "uint256",
          "name": "",
          "type": "uint256"
        }
      ],
      "stateMutability": "view",
      "type": "function"
    },
    {
      "inputs": [],
      "name": "feeRecipient",
      "outputs": [
        {
          "internalType": "address",
          "name": "",
          "type": "address"
        }
      ],
      "stateMutability": "view",
      "type": "function"
    },
    {
      "inputs": [
        {
          "internalType": "uint256",
          "name": "roomId",
          "type": "uint256"
        }
      ],
      "name": "getRoomPlayers",
      "outputs": [
        {
          "internalType": "address[]",
          "name": "",
          "type": "address[]"
        }
      ],
      "stateMutability": "view",
      "type": "function"
    },
    {
      "inputs": [],
      "name": "getWinners",
      "outputs": [
        {
          "internalType": "address[]",
          "name": "",
          "type": "address[]"
        }
      ],
      "stateMutability": "view",
      "type": "function"
    },
    {
      "inputs": [
        {
          "internalType": "uint256",
          "name": "",
          "type": "uint256"
        }
      ],
      "name": "globalWinners",
      "outputs": [
        {
          "internalType": "address",
          "name": "",
          "type": "address"
        }
      ],
      "stateMutability": "view",
      "type": "function"
    },
    {
      "inputs": [],
      "name": "nextRoomId",
      "outputs": [
        {
          "internalType": "uint256",
          "name": "",
          "type": "uint256"
        }
      ],
      "stateMutability": "view",
      "type": "function"
    },
    {
      "inputs": [],
      "name": "owner",
      "outputs": [
        {
          "internalType": "address",
          "name": "",
          "type": "address"
        }
      ],
      "stateMutability": "view",
      "type": "function"
    },
    {
      "inputs": [],
      "name": "pause",
      "outputs": [],
      "stateMutability": "nonpayable",
      "type": "function"
    },
    {
      "inputs": [],
      "name": "paused",
      "outputs": [
        {
          "internalType": "bool",
          "name": "",
          "type": "bool"
        }
      ],
      "stateMutability": "view",
      "type": "function"
    },
    {
      "inputs": [
        {
          "internalType": "address",
          "name": "dest",
          "type": "address"
        }
      ],
      "name": "payments",
      "outputs": [
        {
          "internalType": "uint256",
          "name": "",
          "type": "uint256"
        }
      ],
      "stateMutability": "view",
      "type": "function"
    },
    {
      "inputs": [
        {
          "internalType": "uint256",
          "name": "requestId",
          "type": "uint256"
        },
        {
          "internalType": "uint256[]",
          "name": "randomWords",
          "type": "uint256[]"
        }
      ],
      "name": "rawFulfillRandomWords",
      "outputs": [],
      "stateMutability": "nonpayable",
      "type": "function"
    },
    {
      "inputs": [],
      "name": "referralPercent",
      "outputs": [
        {
          "internalType": "uint256",
          "name": "",
          "type": "uint256"
        }
      ],
      "stateMutability": "view",
      "type": "function"
    },
    {
      "inputs": [
        {
          "internalType": "uint256",
          "name": "roomId",
          "type": "uint256"
        }
      ],
      "name": "refundExpiredRoom",
      "outputs": [],
      "stateMutability": "nonpayable",
      "type": "function"
    },
    {
      "inputs": [
        {
          "internalType": "uint256",
          "name": "",
          "type": "uint256"
        }
      ],
      "name": "requestToRoomId",
      "outputs": [
        {
          "internalType": "uint256",
          "name": "",
          "type": "uint256"
        }
      ],
      "stateMutability": "view",
      "type": "function"
    },
    {
      "inputs": [
        {
          "internalType": "uint256",
          "name": "",
          "type": "uint256"
        }
      ],
      "name": "rooms",
      "outputs": [
        {
          "internalType": "uint256",
          "name": "id",
          "type": "uint256"
        },
        {
          "internalType": "uint256",
          "name": "ticketPrice",
          "type": "uint256"
        },
        {
          "internalType": "uint256",
          "name": "maxPlayers",
          "type": "uint256"
        },
        {
          "internalType": "bool",
          "name": "drawing",
          "type": "bool"
        },
        {
          "internalType": "address",
          "name": "winner",
          "type": "address"
        },
        {
          "internalType": "uint256",
          "name": "createdAt",
          "type": "uint256"
        },
        {
          "internalType": "bool",
          "name": "expired",
          "type": "bool"
        },
        {
          "internalType": "bool",
          "name": "refunded",
          "type": "bool"
        },
        {
          "internalType": "address",
          "name": "paymentToken",
          "type": "address"
        }
      ],
      "stateMutability": "view",
      "type": "function"
    },
    {
      "inputs": [],
      "name": "s_vrfCoordinator",
      "outputs": [
        {
          "internalType": "contract IVRFCoordinatorV2Plus",
          "name": "",
          "type": "address"
        }
      ],
      "stateMutability": "view",
      "type": "function"
    },
    {
      "inputs": [
        {
          "internalType": "address",
          "name": "_vrfCoordinator",
          "type": "address"
        }
      ],
      "name": "setCoordinator",
      "outputs": [],
      "stateMutability": "nonpayable",
      "type": "function"
    },
    {
      "inputs": [
        {
          "internalType": "uint256",
          "name": "_feePercent",
          "type": "uint256"
        }
      ],
      "name": "setFeePercent",
      "outputs": [],
      "stateMutability": "nonpayable",
      "type": "function"
    },
    {
      "inputs": [
        {
          "internalType": "address",
          "name": "_feeRecipient",
          "type": "address"
        }
      ],
      "name": "setFeeRecipient",
      "outputs": [],
      "stateMutability": "nonpayable",
      "type": "function"
    },
    {
      "inputs": [
        {
          "internalType": "uint256",
          "name": "_referralPercent",
          "type": "uint256"
        }
      ],
      "name": "setReferralPercent",
      "outputs": [],
      "stateMutability": "nonpayable",
      "type": "function"
    },
    {
      "inputs": [
        {
          "internalType": "address",
          "name": "to",
          "type": "address"
        }
      ],
      "name": "transferOwnership",
      "outputs": [],
      "stateMutability": "nonpayable",
      "type": "function"
    },
    {
      "inputs": [
        {
          "internalType": "uint256",
          "name": "roomId",
          "type": "uint256"
        }
      ],
      "name": "triggerGlobalDraw",
      "outputs": [],
      "stateMutability": "nonpayable",
      "type": "function"
    },
    {
      "inputs": [],
      "name": "unpause",
      "outputs": [],
      "stateMutability": "nonpayable",
      "type": "function"
    },
    {
      "inputs": [
        {
          "internalType": "address payable",
          "name": "payee",
          "type": "address"
        }
      ],
      "name": "withdrawPayments",
      "outputs": [],
      "stateMutability": "nonpayable",
      "type": "function"
    }
  ],
  "bytecode": "60c06040526005805560326006553480156200001a57600080fd5b506040516200462e3803806200462e833981810160405281019062000040919062000463565b83338060008073ffffffffffffffffffffffffffffffffffffffff168273ffffffffffffffffffffffffffffffffffffffff1603620000b6576040517f08c379a0000000000000000000000000000000000000000000000000000000008152600401620000ad9062000536565b60405180910390fd5b816000806101000a81548173ffffffffffffffffffffffffffffffffffffffff021916908373ffffffffffffffffffffffffffffffffffffffff160217905550600073ffffffffffffffffffffffffffffffffffffffff168173ffffffffffffffffffffffffffffffffffffffff16146200013d576200013c816200025460201b60201c565b5b505050600073ffffffffffffffffffffffffffffffffffffffff168173ffffffffffffffffffffffffffffffffffffffff1603620001a7576040517fd92e233d00000000000000000000000000000000000000000000000000000000815260040160405180910390fd5b80600260006101000a81548173ffffffffffffffffffffffffffffffffffffffff021916908373ffffffffffffffffffffffffffffffffffffffff16021790555050600160038190555082608081815250508160a0818152505080600760006101000a81548173ffffffffffffffffffffffffffffffffffffffff021916908373ffffffffffffffffffffffffffffffffffffffff160217905550600060088190555050505050620005ca565b3373ffffffffffffffffffffffffffffffffffffffff168173ffffffffffffffffffffffffffffffffffffffff1603620002c5576040517f08c379a0000000000000000000000000000000000000000000000000000000008152600401620002bc90620005a8565b60405180910390fd5b80600160006101000a81548173ffffffffffffffffffffffffffffffffffffffff021916908373ffffffffffffffffffffffffffffffffffffffff1602179055508073ffffffffffffffffffffffffffffffffffffffff1660008054906101000a900473ffffffffffffffffffffffffffffffffffffffff1673ffffffffffffffffffffffffffffffffffffffff167fed8889f560326eb138920d842192f0eb3dd22b4f139c87a2c57538e05bae127860405160405180910390a350565b600080fd5b600073ffffffffffffffffffffffffffffffffffffffff82169050919050565b6000620003b58262000388565b9050919050565b620003c781620003a8565b8114620003d357600080fd5b50565b600081519050620003e781620003bc565b92915050565b6000819050919050565b6200040281620003ed565b81146200040e57600080fd5b50565b6000815190506200042281620003f7565b92915050565b6000819050919050565b6200043d8162000428565b81146200044957600080fd5b50565b6000815190506200045d8162000432565b92915050565b6000806000806080858703121562000480576200047f62000383565b5b60006200049087828801620003d6565b9450506020620004a38782880162000411565b9350506040620004b6878288016200044c565b9250506060620004c987828801620003d6565b91505092959194509250565b600082825260208201905092915050565b7f43616e6e6f7420736574206f776e657220746f207a65726f0000000000000000600082015250565b60006200051e601883620004d5565b91506200052b82620004e6565b602082019050919050565b6000602082019050818103600083015262000551816200050f565b9050919050565b7f43616e6e6f74207472616e7366657220746f2073656c66000000000000000000600082015250565b600062000590601783620004d5565b91506200059d8262000558565b602082019050919050565b60006020820190508181036000830152620005c38162000581565b9050919050565b60805160a05161403e620005f060003960006124b5015260006124db015261403e6000f3fe6080604052600436106101c25760003560e01c806379ba5097116100f75780638da5cb5b11610095578063df15c37e11610064578063df15c37e146105ed578063e2982c2114610618578063e74b981b14610655578063f2fde38b1461067e576101c2565b80638da5cb5b146105315780638ea981171461055c5780639381e639146105855780639eccacf6146105c2576101c2565b80637e394988116100d15780637e3949881461049d5780637fd6f15c146104c65780638456cb59146104f157806386d076ae14610508576101c2565b806379ba5097146104345780637c5b4a371461044b5780637ce3489b14610474576101c2565b8063343dfb7e11610164578063469048401161013e57806346904840146103995780635c975abb146103c45780636129f25f146103ef57806362a845ec14610418576101c2565b8063343dfb7e1461031a5780633f4ba83a1461034557806343925cc31461035c576101c2565b80631fe543e3116101a05780631fe543e3146102745780632db54eb81461029d57806330507fd1146102c657806331b3eb94146102f1576101c2565b806307a52cab146101c757806308aa0cd3146101f25780631bae0ac81461022f575b600080fd5b3480156101d357600080fd5b506101dc6106a7565b6040516101e991906128a3565b60405180910390f35b3480156101fe57600080fd5b50610219600480360381019061021491906128f4565b6106ad565b60405161022691906128a3565b60405180910390f35b34801561023b57600080fd5b50610256600480360381019061025191906128f4565b6106c5565b60405161026b9998979695949392919061297d565b60405180910390f35b34801561028057600080fd5b5061029b60048036038101906102969190612a6f565b61077a565b005b3480156102a957600080fd5b506102c460048036038101906102bf9190612afb565b610840565b005b3480156102d257600080fd5b506102db610a25565b6040516102e891906128a3565b60405180910390f35b3480156102fd57600080fd5b5061031860048036038101906103139190612b8c565b610a2c565b005b34801561032657600080fd5b5061032f610c07565b60405161033c91906128a3565b60405180910390f35b34801561035157600080fd5b5061035a610c0d565b005b34801561036857600080fd5b50610383600480360381019061037e91906128f4565b610c1f565b6040516103909190612c77565b60405180910390f35b3480156103a557600080fd5b506103ae610cc3565b6040516103bb9190612c99565b60405180910390f35b3480156103d057600080fd5b506103d9610ce9565b6040516103e69190612cb4565b60405180910390f35b3480156103fb57600080fd5b50610416600480360381019061041191906128f4565b610d00565b005b610432600480360381019061042d9190612ccf565b610d56565b005b34801561044057600080fd5b506104496113d4565b005b34801561045757600080fd5b50610472600480360381019061046d91906128f4565b611569565b005b34801561048057600080fd5b5061049b600480360381019061049691906128f4565b6116c2565b005b3480156104a957600080fd5b506104c460048036038101906104bf91906128f4565b611718565b005b3480156104d257600080fd5b506104db611894565b6040516104e891906128a3565b60405180910390f35b3480156104fd57600080fd5b5061050661189a565b005b34801561051457600080fd5b5061052f600480360381019061052a91906128f4565b6118ac565b005b34801561053d57600080fd5b50610546611b18565b6040516105539190612c99565b60405180910390f35b34801561056857600080fd5b50610583600480360381019061057e9190612d0f565b611b41565b005b34801561059157600080fd5b506105ac60048036038101906105a791906128f4565b611d22565b6040516105b99190612c99565b60405180910390f35b3480156105ce57600080fd5b506105d7611d61565b6040516105e49190612d9b565b60405180910390f35b3480156105f957600080fd5b50610602611d87565b60405161060f9190612c77565b60405180910390f35b34801561062457600080fd5b5061063f600480360381019061063a9190612d0f565b611e15565b60405161064c91906128a3565b60405180910390f35b34801561066157600080fd5b5061067c60048036038101906106779190612d0f565b611e5e565b005b34801561068a57600080fd5b506106a560048036038101906106a09190612d0f565b611f19565b005b60085481565b600a6020528060005260406000206000915090505481565b60096020528060005260406000206000915090508060000154908060010154908060020154908060040160009054906101000a900460ff16908060040160019054906101000a900473ffffffffffffffffffffffffffffffffffffffff16908060050154908060060160009054906101000a900460ff16908060060160019054906101000a900460ff16908060060160029054906101000a900473ffffffffffffffffffffffffffffffffffffffff16905089565b600260009054906101000a900473ffffffffffffffffffffffffffffffffffffffff1673ffffffffffffffffffffffffffffffffffffffff163373ffffffffffffffffffffffffffffffffffffffff16146108305733600260009054906101000a900473ffffffffffffffffffffffffffffffffffffffff166040517f1cf993f4000000000000000000000000000000000000000000000000000000008152600401610827929190612db6565b60405180910390fd5b61083b838383611f2d565b505050565b610848611b18565b73ffffffffffffffffffffffffffffffffffffffff163373ffffffffffffffffffffffffffffffffffffffff16146108b5576040517f08c379a00000000000000000000000000000000000000000000000000000000081526004016108ac90612e3c565b60405180910390fd5b600083116108f8576040517f08c379a00000000000000000000000000000000000000000000000000000000081526004016108ef90612ea8565b60405180910390fd5b6000821480610908575060028210155b610947576040517f08c379a000000000000000000000000000000000000000000000000000000000815260040161093e90612f14565b60405180910390fd5b600060096000600854815260200190815260200160002090506008548160000181905550838160010181905550828160020181905550818160060160026101000a81548173ffffffffffffffffffffffffffffffffffffffff021916908373ffffffffffffffffffffffffffffffffffffffff1602179055504281600501819055506008547f04f628c9a49ceb1c4d7a9b98e302b3b8643606c856a4d469cb4279c80440a2048585856040516109ff93929190612f34565b60405180910390a260086000815480929190610a1a90612f9a565b919050555050505050565b62093a8081565b610a34612214565b6000600c60008373ffffffffffffffffffffffffffffffffffffffff1673ffffffffffffffffffffffffffffffffffffffff16815260200190815260200160002054905060008103610abb576040517f08c379a0000000000000000000000000000000000000000000000000000000008152600401610ab29061302e565b60405180910390fd5b6000600c60008473ffffffffffffffffffffffffffffffffffffffff1673ffffffffffffffffffffffffffffffffffffffff1681526020019081526020016000208190555060008273ffffffffffffffffffffffffffffffffffffffff1682604051610b269061307f565b60006040518083038185875af1925050503d8060008114610b63576040519150601f19603f3d011682016040523d82523d6000602084013e610b68565b606091505b5050905080610bac576040517f08c379a0000000000000000000000000000000000000000000000000000000008152600401610ba3906130e0565b60405180910390fd5b8273ffffffffffffffffffffffffffffffffffffffff167f884edad9ce6fa2440d8a54cc123490eb96d2768479d49ff9c7366125a942436483604051610bf291906128a3565b60405180910390a25050610c0461225a565b50565b60065481565b610c15612264565b610c1d6122f4565b565b606060096000838152602001908152602001600020600301805480602002602001604051908101604052809291908181526020018280548015610cb757602002820191906000526020600020905b8160009054906101000a900473ffffffffffffffffffffffffffffffffffffffff1673ffffffffffffffffffffffffffffffffffffffff1681526020019060010190808311610c6d575b50505050509050919050565b600760009054906101000a900473ffffffffffffffffffffffffffffffffffffffff1681565b6000600460009054906101000a900460ff16905090565b610d08612264565b6064811115610d4c576040517f08c379a0000000000000000000000000000000000000000000000000000000008152600401610d439061314c565b60405180910390fd5b8060068190555050565b610d5e612214565b610d66612357565b60006009600084815260200190815260200160002090506000816001015411610dc4576040517f08c379a0000000000000000000000000000000000000000000000000000000008152600401610dbb906131b8565b60405180910390fd5b600073ffffffffffffffffffffffffffffffffffffffff168160060160029054906101000a900473ffffffffffffffffffffffffffffffffffffffff1673ffffffffffffffffffffffffffffffffffffffff1614610e57576040517f08c379a0000000000000000000000000000000000000000000000000000000008152600401610e4e90613224565b60405180910390fd5b8060040160009054906101000a900460ff1615610ea9576040517f08c379a0000000000000000000000000000000000000000000000000000000008152600401610ea090613290565b60405180910390fd5b8060060160009054906101000a900460ff1615610efb576040517f08c379a0000000000000000000000000000000000000000000000000000000008152600401610ef2906132fc565b60405180910390fd5b8060060160019054906101000a900460ff1615610f4d576040517f08c379a0000000000000000000000000000000000000000000000000000000008152600401610f4490613368565b60405180910390fd5b600081600201541480610f6a575080600201548160030180549050105b610fa9576040517f08c379a0000000000000000000000000000000000000000000000000000000008152600401610fa0906133d4565b60405180910390fd5b80600101543414610fef576040517f08c379a0000000000000000000000000000000000000000000000000000000008152600401610fe690613440565b60405180910390fd5b3373ffffffffffffffffffffffffffffffffffffffff168273ffffffffffffffffffffffffffffffffffffffff160361105d576040517f08c379a0000000000000000000000000000000000000000000000000000000008152600401611054906134ac565b60405180910390fd5b60008160020154118015611082575062093a80816005015461107f91906134cc565b42115b1561110c5760018160060160006101000a81548160ff021916908315150217905550827f83670f4ac13332750b2132bdc7fa621d7fd7aef650805839de1e84262216a3e160405160405180910390a26040517f08c379a0000000000000000000000000000000000000000000000000000000008152600401611103906132fc565b60405180910390fd5b600060646005543461111e9190613500565b6111289190613571565b905060008073ffffffffffffffffffffffffffffffffffffffff168473ffffffffffffffffffffffffffffffffffffffff16146111fa5760646006548361116f9190613500565b6111799190613571565b905060008473ffffffffffffffffffffffffffffffffffffffff1682604051806020016040528060008152506040516111b29190613608565b60006040518083038185875af1925050503d80600081146111ef576040519150601f19603f3d011682016040523d82523d6000602084013e6111f4565b606091505b50509050505b60008183611208919061361f565b905060008111156112e3576000600760009054906101000a900473ffffffffffffffffffffffffffffffffffffffff1673ffffffffffffffffffffffffffffffffffffffff168260405161125b9061307f565b60006040518083038185875af1925050503d8060008114611298576040519150601f19603f3d011682016040523d82523d6000602084013e61129d565b606091505b50509050806112e1576040517f08c379a00000000000000000000000000000000000000000000000000000000081526004016112d89061369f565b60405180910390fd5b505b83600301339080600181540180825580915050600190039060005260206000200160009091909190916101000a81548173ffffffffffffffffffffffffffffffffffffffff021916908373ffffffffffffffffffffffffffffffffffffffff1602179055503373ffffffffffffffffffffffffffffffffffffffff16867f5b58cf3bfce2101b6bac355684e4c9f42297d0f95987e29036c73c13f97da7278760405161138f9190612c99565b60405180910390a3600084600201541180156113b5575083600201548460030180549050145b156113c4576113c386612398565b5b505050506113d061225a565b5050565b600160009054906101000a900473ffffffffffffffffffffffffffffffffffffffff1673ffffffffffffffffffffffffffffffffffffffff163373ffffffffffffffffffffffffffffffffffffffff1614611464576040517f08c379a000000000000000000000000000000000000000000000000000000000815260040161145b9061370b565b60405180910390fd5b60008060009054906101000a900473ffffffffffffffffffffffffffffffffffffffff169050336000806101000a81548173ffffffffffffffffffffffffffffffffffffffff021916908373ffffffffffffffffffffffffffffffffffffffff1602179055506000600160006101000a81548173ffffffffffffffffffffffffffffffffffffffff021916908373ffffffffffffffffffffffffffffffffffffffff1602179055503373ffffffffffffffffffffffffffffffffffffffff168173ffffffffffffffffffffffffffffffffffffffff167f8be0079c531659141344cd1fd0a4f28419497f9722a3daafe3b4186f6b6457e060405160405180910390a350565b611571612264565b611579612214565b804710156115bc576040517f08c379a00000000000000000000000000000000000000000000000000000000081526004016115b390613777565b60405180910390fd5b60003373ffffffffffffffffffffffffffffffffffffffff16826040516115e29061307f565b60006040518083038185875af1925050503d806000811461161f576040519150601f19603f3d011682016040523d82523d6000602084013e611624565b606091505b5050905080611668576040517f08c379a000000000000000000000000000000000000000000000000000000000815260040161165f906130e0565b60405180910390fd5b3373ffffffffffffffffffffffffffffffffffffffff167f884edad9ce6fa2440d8a54cc123490eb96d2768479d49ff9c7366125a9424364836040516116ae91906128a3565b60405180910390a2506116bf61225a565b50565b6116ca612264565b606481111561170e576040517f08c379a0000000000000000000000000000000000000000000000000000000008152600401611705906137e3565b60405180910390fd5b8060058190555050565b6000600960008381526020019081526020016000209050611737611b18565b73ffffffffffffffffffffffffffffffffffffffff163373ffffffffffffffffffffffffffffffffffffffff16146117a4576040517f08c379a000000000000000000000000000000000000000000000000000000000815260040161179b9061384f565b60405180910390fd5b60008160020154146117eb576040517f08c379a00000000000000000000000000000000000000000000000000000000081526004016117e2906138bb565b60405180910390fd5b8060040160009054906101000a900460ff161561183d576040517f08c379a000000000000000000000000000000000000000000000000000000000815260040161183490613290565b60405180910390fd5b6001816003018054905011611887576040517f08c379a000000000000000000000000000000000000000000000000000000000815260040161187e90613927565b60405180910390fd5b61189082612398565b5050565b60055481565b6118a2612264565b6118aa6125c1565b565b6118b4612264565b6118bc612214565b6000600960008381526020019081526020016000209050600081600201541161191a576040517f08c379a000000000000000000000000000000000000000000000000000000000815260040161191190613993565b60405180910390fd5b8060060160019054906101000a900460ff161561196c576040517f08c379a0000000000000000000000000000000000000000000000000000000008152600401611963906139ff565b60405180910390fd5b8060060160009054906101000a900460ff168061199a575062093a80816005015461199791906134cc565b42115b6119d9576040517f08c379a00000000000000000000000000000000000000000000000000000000081526004016119d090613a6b565b60405180910390fd5b6000816003018054905011611a23576040517f08c379a0000000000000000000000000000000000000000000000000000000008152600401611a1a90613ad7565b60405180910390fd5b60018160060160016101000a81548160ff021916908315150217905550600060646005546064611a53919061361f565b8360010154611a629190613500565b611a6c9190613571565b905060005b8260030180549050811015611add57611aca836003018281548110611a9957611a98613af7565b5b9060005260206000200160009054906101000a900473ffffffffffffffffffffffffffffffffffffffff1683612624565b8080611ad590612f9a565b915050611a71565b50827f2266501136f5645e558b3e4750659d308e503e7fca2693e3ab049e7dcde4ec0b60405160405180910390a25050611b1561225a565b50565b60008060009054906101000a900473ffffffffffffffffffffffffffffffffffffffff16905090565b611b49611b18565b73ffffffffffffffffffffffffffffffffffffffff163373ffffffffffffffffffffffffffffffffffffffff1614158015611bd25750600260009054906101000a900473ffffffffffffffffffffffffffffffffffffffff1673ffffffffffffffffffffffffffffffffffffffff163373ffffffffffffffffffffffffffffffffffffffff1614155b15611c415733611be0611b18565b600260009054906101000a900473ffffffffffffffffffffffffffffffffffffffff166040517f061db9c1000000000000000000000000000000000000000000000000000000008152600401611c3893929190613b26565b60405180910390fd5b600073ffffffffffffffffffffffffffffffffffffffff168173ffffffffffffffffffffffffffffffffffffffff1603611ca7576040517fd92e233d00000000000000000000000000000000000000000000000000000000815260040160405180910390fd5b80600260006101000a81548173ffffffffffffffffffffffffffffffffffffffff021916908373ffffffffffffffffffffffffffffffffffffffff1602179055507fd1a6a14209a385a964d036e404cb5cfb71f4000cdb03c9366292430787261be681604051611d179190612c99565b60405180910390a150565b600b8181548110611d3257600080fd5b906000526020600020016000915054906101000a900473ffffffffffffffffffffffffffffffffffffffff1681565b600260009054906101000a900473ffffffffffffffffffffffffffffffffffffffff1681565b6060600b805480602002602001604051908101604052809291908181526020018280548015611e0b57602002820191906000526020600020905b8160009054906101000a900473ffffffffffffffffffffffffffffffffffffffff1673ffffffffffffffffffffffffffffffffffffffff1681526020019060010190808311611dc1575b5050505050905090565b6000600c60008373ffffffffffffffffffffffffffffffffffffffff1673ffffffffffffffffffffffffffffffffffffffff168152602001908152602001600020549050919050565b611e66612264565b600073ffffffffffffffffffffffffffffffffffffffff168173ffffffffffffffffffffffffffffffffffffffff1603611ed5576040517f08c379a0000000000000000000000000000000000000000000000000000000008152600401611ecc90613ba9565b60405180910390fd5b80600760006101000a81548173ffffffffffffffffffffffffffffffffffffffff021916908373ffffffffffffffffffffffffffffffffffffffff16021790555050565b611f21612264565b611f2a8161267e565b50565b600260009054906101000a900473ffffffffffffffffffffffffffffffffffffffff1673ffffffffffffffffffffffffffffffffffffffff163373ffffffffffffffffffffffffffffffffffffffff1614611fbd576040517f08c379a0000000000000000000000000000000000000000000000000000000008152600401611fb490613c15565b60405180910390fd5b6000600a600085815260200190815260200160002054905060006009600083815260200190815260200160002090508060040160009054906101000a900460ff1661203d576040517f08c379a000000000000000000000000000000000000000000000000000000000815260040161203490613c81565b60405180910390fd5b600081600301805490508585600081811061205b5761205a613af7565b5b9050602002013561206c9190613ca1565b9050600082600301828154811061208657612085613af7565b5b9060005260206000200160009054906101000a900473ffffffffffffffffffffffffffffffffffffffff169050808360040160016101000a81548173ffffffffffffffffffffffffffffffffffffffff021916908373ffffffffffffffffffffffffffffffffffffffff16021790555060008360040160006101000a81548160ff02191690831515021790555060008360030180549050846001015461212c9190613500565b9050600060646005546064612141919061361f565b8361214c9190613500565b6121569190613571565b90506121628382612624565b600b839080600181540180825580915050600190039060005260206000200160009091909190916101000a81548173ffffffffffffffffffffffffffffffffffffffff021916908373ffffffffffffffffffffffffffffffffffffffff1602179055508273ffffffffffffffffffffffffffffffffffffffff16867f7286599a58b2822d6e330944038c6d3424134069b04156404050720b942d87ee60405160405180910390a3505050505050505050565b600260035403612250576040517f3ee5aeb500000000000000000000000000000000000000000000000000000000815260040160405180910390fd5b6002600381905550565b6001600381905550565b60008054906101000a900473ffffffffffffffffffffffffffffffffffffffff1673ffffffffffffffffffffffffffffffffffffffff163373ffffffffffffffffffffffffffffffffffffffff16146122f2576040517f08c379a00000000000000000000000000000000000000000000000000000000081526004016122e990613d1e565b60405180910390fd5b565b6122fc6127aa565b6000600460006101000a81548160ff0219169083151502179055507f5db9ee0a495bf2e6ff9c91a7834c1ba4fdd244a5e8aa4e537bd38aeae4b073aa6123406127ea565b60405161234d9190612c99565b60405180910390a1565b61235f610ce9565b15612396576040517fd93c066500000000000000000000000000000000000000000000000000000000815260040160405180910390fd5b565b60006009600083815260200190815260200160002090508060040160009054906101000a900460ff1615612401576040517f08c379a00000000000000000000000000000000000000000000000000000000081526004016123f890613d8a565b60405180910390fd5b600181600301805490501161244b576040517f08c379a000000000000000000000000000000000000000000000000000000000815260040161244290613927565b60405180910390fd5b60018160040160006101000a81548160ff0219169083151502179055506000600260009054906101000a900473ffffffffffffffffffffffffffffffffffffffff1673ffffffffffffffffffffffffffffffffffffffff16639b1c385e6040518060c001604052807f000000000000000000000000000000000000000000000000000000000000000081526020017f00000000000000000000000000000000000000000000000000000000000000008152602001600361ffff168152602001620186a063ffffffff168152602001600163ffffffff1681526020016125406040518060200160405280600015158152506127f2565b8152506040518263ffffffff1660e01b815260040161255f9190613ef2565b6020604051808303816000875af115801561257e573d6000803e3d6000fd5b505050506040513d601f19601f820116820180604052508101906125a29190613f29565b905082600a600083815260200190815260200160002081905550505050565b6125c9612357565b6001600460006101000a81548160ff0219169083151502179055507f62e78cea01bee320cd4e420270b5ea74000d11b0c9f74754ebdbfc544b05a25861260d6127ea565b60405161261a9190612c99565b60405180910390a1565b80600c60008473ffffffffffffffffffffffffffffffffffffffff1673ffffffffffffffffffffffffffffffffffffffff168152602001908152602001600020600082825461267391906134cc565b925050819055505050565b3373ffffffffffffffffffffffffffffffffffffffff168173ffffffffffffffffffffffffffffffffffffffff16036126ec576040517f08c379a00000000000000000000000000000000000000000000000000000000081526004016126e390613fa2565b60405180910390fd5b80600160006101000a81548173ffffffffffffffffffffffffffffffffffffffff021916908373ffffffffffffffffffffffffffffffffffffffff1602179055508073ffffffffffffffffffffffffffffffffffffffff1660008054906101000a900473ffffffffffffffffffffffffffffffffffffffff1673ffffffffffffffffffffffffffffffffffffffff167fed8889f560326eb138920d842192f0eb3dd22b4f139c87a2c57538e05bae127860405160405180910390a350565b6127b2610ce9565b6127e8576040517f8dfc202b00000000000000000000000000000000000000000000000000000000815260040160405180910390fd5b565b600033905090565b60607f92fd13387c7fe7befbc38d303d6468778fb9731bc4583f17d92989c6fcfdeaaa826040516024016128269190613fed565b604051602081830303815290604052907bffffffffffffffffffffffffffffffffffffffffffffffffffffffff19166020820180517bffffffffffffffffffffffffffffffffffffffffffffffffffffffff83818316178352505050509050919050565b6000819050919050565b61289d8161288a565b82525050565b60006020820190506128b86000830184612894565b92915050565b600080fd5b600080fd5b6128d18161288a565b81146128dc57600080fd5b50565b6000813590506128ee816128c8565b92915050565b60006020828403121561290a576129096128be565b5b6000612918848285016128df565b91505092915050565b60008115159050919050565b61293681612921565b82525050565b600073ffffffffffffffffffffffffffffffffffffffff82169050919050565b60006129678261293c565b9050919050565b6129778161295c565b82525050565b600061012082019050612993600083018c612894565b6129a0602083018b612894565b6129ad604083018a612894565b6129ba606083018961292d565b6129c7608083018861296e565b6129d460a0830187612894565b6129e160c083018661292d565b6129ee60e083018561292d565b6129fc61010083018461296e565b9a9950505050505050505050565b600080fd5b600080fd5b600080fd5b60008083601f840112612a2f57612a2e612a0a565b5b8235905067ffffffffffffffff811115612a4c57612a4b612a0f565b5b602083019150836020820283011115612a6857612a67612a14565b5b9250929050565b600080600060408486031215612a8857612a876128be565b5b6000612a96868287016128df565b935050602084013567ffffffffffffffff811115612ab757612ab66128c3565b5b612ac386828701612a19565b92509250509250925092565b612ad88161295c565b8114612ae357600080fd5b50565b600081359050612af581612acf565b92915050565b600080600060608486031215612b1457612b136128be565b5b6000612b22868287016128df565b9350506020612b33868287016128df565b9250506040612b4486828701612ae6565b9150509250925092565b6000612b598261293c565b9050919050565b612b6981612b4e565b8114612b7457600080fd5b50565b600081359050612b8681612b60565b92915050565b600060208284031215612ba257612ba16128be565b5b6000612bb084828501612b77565b91505092915050565b600081519050919050565b600082825260208201905092915050565b6000819050602082019050919050565b612bee8161295c565b82525050565b6000612c008383612be5565b60208301905092915050565b6000602082019050919050565b6000612c2482612bb9565b612c2e8185612bc4565b9350612c3983612bd5565b8060005b83811015612c6a578151612c518882612bf4565b9750612c5c83612c0c565b925050600181019050612c3d565b5085935050505092915050565b60006020820190508181036000830152612c918184612c19565b905092915050565b6000602082019050612cae600083018461296e565b92915050565b6000602082019050612cc9600083018461292d565b92915050565b60008060408385031215612ce657612ce56128be565b5b6000612cf4858286016128df565b9250506020612d0585828601612ae6565b9150509250929050565b600060208284031215612d2557612d246128be565b5b6000612d3384828501612ae6565b91505092915050565b6000819050919050565b6000612d61612d5c612d578461293c565b612d3c565b61293c565b9050919050565b6000612d7382612d46565b9050919050565b6000612d8582612d68565b9050919050565b612d9581612d7a565b82525050565b6000602082019050612db06000830184612d8c565b92915050565b6000604082019050612dcb600083018561296e565b612dd8602083018461296e565b9392505050565b600082825260208201905092915050565b7f4f6e6c79206f776e657200000000000000000000000000000000000000000000600082015250565b6000612e26600a83612ddf565b9150612e3182612df0565b602082019050919050565b60006020820190508181036000830152612e5581612e19565b9050919050565b7f496e76616c696420707269636500000000000000000000000000000000000000600082015250565b6000612e92600d83612ddf565b9150612e9d82612e5c565b602082019050919050565b60006020820190508181036000830152612ec181612e85565b9050919050565b7f4d696e203220706c6179657273206f72203020666f7220676c6f62616c000000600082015250565b6000612efe601d83612ddf565b9150612f0982612ec8565b602082019050919050565b60006020820190508181036000830152612f2d81612ef1565b9050919050565b6000606082019050612f496000830186612894565b612f566020830185612894565b612f63604083018461296e565b949350505050565b7f4e487b7100000000000000000000000000000000000000000000000000000000600052601160045260246000fd5b6000612fa58261288a565b91507fffffffffffffffffffffffffffffffffffffffffffffffffffffffffffffffff8203612fd757612fd6612f6b565b5b600182019050919050565b7f4e6f2066756e647320746f207769746864726177000000000000000000000000600082015250565b6000613018601483612ddf565b915061302382612fe2565b602082019050919050565b600060208201905081810360008301526130478161300b565b9050919050565b600081905092915050565b50565b600061306960008361304e565b915061307482613059565b600082019050919050565b600061308a8261305c565b9150819050919050565b7f5769746864726177206661696c65640000000000000000000000000000000000600082015250565b60006130ca600f83612ddf565b91506130d582613094565b602082019050919050565b600060208201905081810360008301526130f9816130bd565b9050919050565b7f526566657272616c2070657263656e7420746f6f206869676800000000000000600082015250565b6000613136601983612ddf565b915061314182613100565b602082019050919050565b6000602082019050818103600083015261316581613129565b9050919050565b7f526f6f6d20646f6573206e6f7420657869737400000000000000000000000000600082015250565b60006131a2601383612ddf565b91506131ad8261316c565b602082019050919050565b600060208201905081810360008301526131d181613195565b9050919050565b7f4552433230206e6f7420737570706f7274656420796574000000000000000000600082015250565b600061320e601783612ddf565b9150613219826131d8565b602082019050919050565b6000602082019050818103600083015261323d81613201565b9050919050565b7f4472617720696e2070726f677265737300000000000000000000000000000000600082015250565b600061327a601083612ddf565b915061328582613244565b602082019050919050565b600060208201905081810360008301526132a98161326d565b9050919050565b7f526f6f6d20657870697265640000000000000000000000000000000000000000600082015250565b60006132e6600c83612ddf565b91506132f1826132b0565b602082019050919050565b60006020820190508181036000830152613315816132d9565b9050919050565b7f526f6f6d20616c726561647920726566756e6465640000000000000000000000600082015250565b6000613352601583612ddf565b915061335d8261331c565b602082019050919050565b6000602082019050818103600083015261338181613345565b9050919050565b7f526f6f6d2066756c6c0000000000000000000000000000000000000000000000600082015250565b60006133be600983612ddf565b91506133c982613388565b602082019050919050565b600060208201905081810360008301526133ed816133b1565b9050919050565b7f496e636f7272656374204554482073656e740000000000000000000000000000600082015250565b600061342a601283612ddf565b9150613435826133f4565b602082019050919050565b600060208201905081810360008301526134598161341d565b9050919050565b7f43616e6e6f7420726566657220796f757273656c660000000000000000000000600082015250565b6000613496601583612ddf565b91506134a182613460565b602082019050919050565b600060208201905081810360008301526134c581613489565b9050919050565b60006134d78261288a565b91506134e28361288a565b92508282019050808211156134fa576134f9612f6b565b5b92915050565b600061350b8261288a565b91506135168361288a565b92508282026135248161288a565b9150828204841483151761353b5761353a612f6b565b5b5092915050565b7f4e487b7100000000000000000000000000000000000000000000000000000000600052601260045260246000fd5b600061357c8261288a565b91506135878361288a565b92508261359757613596613542565b5b828204905092915050565b600081519050919050565b60005b838110156135cb5780820151818401526020810190506135b0565b60008484015250505050565b60006135e2826135a2565b6135ec818561304e565b93506135fc8185602086016135ad565b80840191505092915050565b600061361482846135d7565b915081905092915050565b600061362a8261288a565b91506136358361288a565b925082820390508181111561364d5761364c612f6b565b5b92915050565b7f466565207472616e73666572206661696c656400000000000000000000000000600082015250565b6000613689601383612ddf565b915061369482613653565b602082019050919050565b600060208201905081810360008301526136b88161367c565b9050919050565b7f4d7573742062652070726f706f736564206f776e657200000000000000000000600082015250565b60006136f5601683612ddf565b9150613700826136bf565b602082019050919050565b60006020820190508181036000830152613724816136e8565b9050919050565b7f4e6f7420656e6f7567682062616c616e63650000000000000000000000000000600082015250565b6000613761601283612ddf565b915061376c8261372b565b602082019050919050565b6000602082019050818103600083015261379081613754565b9050919050565b7f50657263656e7420746f6f206869676800000000000000000000000000000000600082015250565b60006137cd601083612ddf565b91506137d882613797565b602082019050919050565b600060208201905081810360008301526137fc816137c0565b9050919050565b7f4f6e6c79206f776e65722f63726f6e0000000000000000000000000000000000600082015250565b6000613839600f83612ddf565b915061384482613803565b602082019050919050565b600060208201905081810360008301526138688161382c565b9050919050565b7f4e6f74206120676c6f62616c20726f6f6d000000000000000000000000000000600082015250565b60006138a5601183612ddf565b91506138b08261386f565b602082019050919050565b600060208201905081810360008301526138d481613898565b9050919050565b7f4e6f7420656e6f75676820706c61796572730000000000000000000000000000600082015250565b6000613911601283612ddf565b915061391c826138db565b602082019050919050565b6000602082019050818103600083015261394081613904565b9050919050565b7f4e6f742061207374616e6461726420726f6f6d00000000000000000000000000600082015250565b600061397d601383612ddf565b915061398882613947565b602082019050919050565b600060208201905081810360008301526139ac81613970565b9050919050565b7f416c726561647920726566756e64656400000000000000000000000000000000600082015250565b60006139e9601083612ddf565b91506139f4826139b3565b602082019050919050565b60006020820190508181036000830152613a18816139dc565b9050919050565b7f4e6f742065787069726564207965740000000000000000000000000000000000600082015250565b6000613a55600f83612ddf565b9150613a6082613a1f565b602082019050919050565b60006020820190508181036000830152613a8481613a48565b9050919050565b7f4e6f20706c617965727320746f20726566756e64000000000000000000000000600082015250565b6000613ac1601483612ddf565b9150613acc82613a8b565b602082019050919050565b60006020820190508181036000830152613af081613ab4565b9050919050565b7f4e487b7100000000000000000000000000000000000000000000000000000000600052603260045260246000fd5b6000606082019050613b3b600083018661296e565b613b48602083018561296e565b613b55604083018461296e565b949350505050565b7f496e76616c696420726563697069656e74000000000000000000000000000000600082015250565b6000613b93601183612ddf565b9150613b9e82613b5d565b602082019050919050565b60006020820190508181036000830152613bc281613b86565b9050919050565b7f4f6e6c792056524620436f6f7264696e61746f72000000000000000000000000600082015250565b6000613bff601483612ddf565b9150613c0a82613bc9565b602082019050919050565b60006020820190508181036000830152613c2e81613bf2565b9050919050565b7f4e6f742064726177696e67000000000000000000000000000000000000000000600082015250565b6000613c6b600b83612ddf565b9150613c7682613c35565b602082019050919050565b60006020820190508181036000830152613c9a81613c5e565b9050919050565b6000613cac8261288a565b9150613cb78361288a565b925082613cc757613cc6613542565b5b828206905092915050565b7f4f6e6c792063616c6c61626c65206279206f776e657200000000000000000000600082015250565b6000613d08601683612ddf565b9150613d1382613cd2565b602082019050919050565b60006020820190508181036000830152613d3781613cfb565b9050919050565b7f416c72656164792064726177696e670000000000000000000000000000000000600082015250565b6000613d74600f83612ddf565b9150613d7f82613d3e565b602082019050919050565b60006020820190508181036000830152613da381613d67565b9050919050565b6000819050919050565b613dbd81613daa565b82525050565b613dcc8161288a565b82525050565b600061ffff82169050919050565b613de981613dd2565b82525050565b600063ffffffff82169050919050565b613e0881613def565b82525050565b600082825260208201905092915050565b6000601f19601f8301169050919050565b6000613e3b826135a2565b613e458185613e0e565b9350613e558185602086016135ad565b613e5e81613e1f565b840191505092915050565b600060c083016000830151613e816000860182613db4565b506020830151613e946020860182613dc3565b506040830151613ea76040860182613de0565b506060830151613eba6060860182613dff565b506080830151613ecd6080860182613dff565b5060a083015184820360a0860152613ee58282613e30565b9150508091505092915050565b60006020820190508181036000830152613f0c8184613e69565b905092915050565b600081519050613f23816128c8565b92915050565b600060208284031215613f3f57613f3e6128be565b5b6000613f4d84828501613f14565b91505092915050565b7f43616e6e6f74207472616e7366657220746f2073656c66000000000000000000600082015250565b6000613f8c601783612ddf565b9150613f9782613f56565b602082019050919050565b60006020820190508181036000830152613fbb81613f7f565b9050919050565b613fcb81612921565b82525050565b602082016000820151613fe76000850182613fc2565b50505050565b60006020820190506140026000830184613fd1565b9291505056fea264697066735822122071885a39791f98c87aee9f00909b8f390ea1bcaa05e41ac3cc3d46bc97c6c37464736f6c63430008140033000000000000000000000000ec0ed46f36576541c75739e915adbcb3de24bd7754827d48d7559f12034aa3d9fdf14af39d4afe514eb8769d44932553cda575be0ffbbd0c1c18c0263dd778dadd1d64240d7bc338d95fec1cf0473928ca7eaf9e0000000000000000000000009ea7ebeb25192b6d7e8e240a852e7ec56d4fb865",
  "deployedBytecode": "0x6080604052600436106101c25760003560e01c806379ba5097116100f75780638da5cb5b11610095578063df15c37e11610064578063df15c37e146105ed578063e2982c2114610618578063e74b981b14610655578063f2fde38b1461067e576101c2565b80638da5cb5b146105315780638ea981171461055c5780639381e639146105855780639eccacf6146105c2576101c2565b80637e394988116100d15780637e3949881461049d5780637fd6f15c146104c65780638456cb59146104f157806386d076ae14610508576101c2565b806379ba5097146104345780637c5b4a371461044b5780637ce3489b14610474576101c2565b8063343dfb7e11610164578063469048401161013e57806346904840146103995780635c975abb146103c45780636129f25f146103ef57806362a845ec14610418576101c2565b8063343dfb7e1461031a5780633f4ba83a1461034557806343925cc31461035c576101c2565b80631fe543e3116101a05780631fe543e3146102745780632db54eb81461029d57806330507fd1146102c657806331b3eb94146102f1576101c2565b806307a52cab146101c757806308aa0cd3146101f25780631bae0ac81461022f575b600080fd5b3480156101d357600080fd5b506101dc6106a7565b6040516101e991906128a3565b60405180910390f35b3480156101fe57600080fd5b50610219600480360381019061021491906128f4565b6106ad565b60405161022691906128a3565b60405180910390f35b34801561023b57600080fd5b50610256600480360381019061025191906128f4565b6106c5565b60405161026b9998979695949392919061297d565b60405180910390f35b34801561028057600080fd5b5061029b60048036038101906102969190612a6f565b61077a565b005b3480156102a957600080fd5b506102c460048036038101906102bf9190612afb565b610840565b005b3480156102d257600080fd5b506102db610a25565b6040516102e891906128a3565b60405180910390f35b3480156102fd57600080fd5b5061031860048036038101906103139190612b8c565b610a2c565b005b34801561032657600080fd5b5061032f610c07565b60405161033c91906128a3565b60405180910390f35b34801561035157600080fd5b5061035a610c0d565b005b34801561036857600080fd5b50610383600480360381019061037e91906128f4565b610c1f565b6040516103909190612c77565b60405180910390f35b3480156103a557600080fd5b506103ae610cc3565b6040516103bb9190612c99565b60405180910390f35b3480156103d057600080fd5b506103d9610ce9565b6040516103e69190612cb4565b60405180910390f35b3480156103fb57600080fd5b50610416600480360381019061041191906128f4565b610d00565b005b610432600480360381019061042d9190612ccf565b610d56565b005b34801561044057600080fd5b506104496113d4565b005b34801561045757600080fd5b50610472600480360381019061046d91906128f4565b611569565b005b34801561048057600080fd5b5061049b600480360381019061049691906128f4565b6116c2565b005b3480156104a957600080fd5b506104c460048036038101906104bf91906128f4565b611718565b005b3480156104d257600080fd5b506104db611894565b6040516104e891906128a3565b60405180910390f35b3480156104fd57600080fd5b5061050661189a565b005b34801561051457600080fd5b5061052f600480360381019061052a91906128f4565b6118ac565b005b34801561053d57600080fd5b50610546611b18565b6040516105539190612c99565b60405180910390f35b34801561056857600080fd5b50610583600480360381019061057e9190612d0f565b611b41565b005b34801561059157600080fd5b506105ac60048036038101906105a791906128f4565b611d22565b6040516105b99190612c99565b60405180910390f35b3480156105ce57600080fd5b506105d7611d61565b6040516105e49190612d9b565b60405180910390f35b3480156105f957600080fd5b50610602611d87565b60405161060f9190612c77565b60405180910390f35b34801561062457600080fd5b5061063f600480360381019061063a9190612d0f565b611e15565b60405161064c91906128a3565b60405180910390f35b34801561066157600080fd5b5061067c60048036038101906106779190612d0f565b611e5e565b005b34801561068a57600080fd5b506106a560048036038101906106a09190612d0f565b611f19565b005b60085481565b600a6020528060005260406000206000915090505481565b60096020528060005260406000206000915090508060000154908060010154908060020154908060040160009054906101000a900460ff16908060040160019054906101000a900473ffffffffffffffffffffffffffffffffffffffff16908060050154908060060160009054906101000a900460ff16908060060160019054906101000a900460ff16908060060160029054906101000a900473ffffffffffffffffffffffffffffffffffffffff16905089565b600260009054906101000a900473ffffffffffffffffffffffffffffffffffffffff1673ffffffffffffffffffffffffffffffffffffffff163373ffffffffffffffffffffffffffffffffffffffff16146108305733600260009054906101000a900473ffffffffffffffffffffffffffffffffffffffff166040517f1cf993f4000000000000000000000000000000000000000000000000000000008152600401610827929190612db6565b60405180910390fd5b61083b838383611f2d565b505050565b610848611b18565b73ffffffffffffffffffffffffffffffffffffffff163373ffffffffffffffffffffffffffffffffffffffff16146108b5576040517f08c379a00000000000000000000000000000000000000000000000000000000081526004016108ac90612e3c565b60405180910390fd5b600083116108f8576040517f08c379a00000000000000000000000000000000000000000000000000000000081526004016108ef90612ea8565b60405180910390fd5b6000821480610908575060028210155b610947576040517f08c379a000000000000000000000000000000000000000000000000000000000815260040161093e90612f14565b60405180910390fd5b600060096000600854815260200190815260200160002090506008548160000181905550838160010181905550828160020181905550818160060160026101000a81548173ffffffffffffffffffffffffffffffffffffffff021916908373ffffffffffffffffffffffffffffffffffffffff1602179055504281600501819055506008547f04f628c9a49ceb1c4d7a9b98e302b3b8643606c856a4d469cb4279c80440a2048585856040516109ff93929190612f34565b60405180910390a260086000815480929190610a1a90612f9a565b919050555050505050565b62093a8081565b610a34612214565b6000600c60008373ffffffffffffffffffffffffffffffffffffffff1673ffffffffffffffffffffffffffffffffffffffff16815260200190815260200160002054905060008103610abb576040517f08c379a0000000000000000000000000000000000000000000000000000000008152600401610ab29061302e565b60405180910390fd5b6000600c60008473ffffffffffffffffffffffffffffffffffffffff1673ffffffffffffffffffffffffffffffffffffffff1681526020019081526020016000208190555060008273ffffffffffffffffffffffffffffffffffffffff1682604051610b269061307f565b60006040518083038185875af1925050503d8060008114610b63576040519150601f19603f3d011682016040523d82523d6000602084013e610b68565b606091505b5050905080610bac576040517f08c379a0000000000000000000000000000000000000000000000000000000008152600401610ba3906130e0565b60405180910390fd5b8273ffffffffffffffffffffffffffffffffffffffff167f884edad9ce6fa2440d8a54cc123490eb96d2768479d49ff9c7366125a942436483604051610bf291906128a3565b60405180910390a25050610c0461225a565b50565b60065481565b610c15612264565b610c1d6122f4565b565b606060096000838152602001908152602001600020600301805480602002602001604051908101604052809291908181526020018280548015610cb757602002820191906000526020600020905b8160009054906101000a900473ffffffffffffffffffffffffffffffffffffffff1673ffffffffffffffffffffffffffffffffffffffff1681526020019060010190808311610c6d575b50505050509050919050565b600760009054906101000a900473ffffffffffffffffffffffffffffffffffffffff1681565b6000600460009054906101000a900460ff16905090565b610d08612264565b6064811115610d4c576040517f08c379a0000000000000000000000000000000000000000000000000000000008152600401610d439061314c565b60405180910390fd5b8060068190555050565b610d5e612214565b610d66612357565b60006009600084815260200190815260200160002090506000816001015411610dc4576040517f08c379a0000000000000000000000000000000000000000000000000000000008152600401610dbb906131b8565b60405180910390fd5b600073ffffffffffffffffffffffffffffffffffffffff168160060160029054906101000a900473ffffffffffffffffffffffffffffffffffffffff1673ffffffffffffffffffffffffffffffffffffffff1614610e57576040517f08c379a0000000000000000000000000000000000000000000000000000000008152600401610e4e90613224565b60405180910390fd5b8060040160009054906101000a900460ff1615610ea9576040517f08c379a0000000000000000000000000000000000000000000000000000000008152600401610ea090613290565b60405180910390fd5b8060060160009054906101000a900460ff1615610efb576040517f08c379a0000000000000000000000000000000000000000000000000000000008152600401610ef2906132fc565b60405180910390fd5b8060060160019054906101000a900460ff1615610f4d576040517f08c379a0000000000000000000000000000000000000000000000000000000008152600401610f4490613368565b60405180910390fd5b600081600201541480610f6a575080600201548160030180549050105b610fa9576040517f08c379a0000000000000000000000000000000000000000000000000000000008152600401610fa0906133d4565b60405180910390fd5b80600101543414610fef576040517f08c379a0000000000000000000000000000000000000000000000000000000008152600401610fe690613440565b60405180910390fd5b3373ffffffffffffffffffffffffffffffffffffffff168273ffffffffffffffffffffffffffffffffffffffff160361105d576040517f08c379a0000000000000000000000000000000000000000000000000000000008152600401611054906134ac565b60405180910390fd5b60008160020154118015611082575062093a80816005015461107f91906134cc565b42115b1561110c5760018160060160006101000a81548160ff021916908315150217905550827f83670f4ac13332750b2132bdc7fa621d7fd7aef650805839de1e84262216a3e160405160405180910390a26040517f08c379a0000000000000000000000000000000000000000000000000000000008152600401611103906132fc565b60405180910390fd5b600060646005543461111e9190613500565b6111289190613571565b905060008073ffffffffffffffffffffffffffffffffffffffff168473ffffffffffffffffffffffffffffffffffffffff16146111fa5760646006548361116f9190613500565b6111799190613571565b905060008473ffffffffffffffffffffffffffffffffffffffff1682604051806020016040528060008152506040516111b29190613608565b60006040518083038185875af1925050503d80600081146111ef576040519150601f19603f3d011682016040523d82523d6000602084013e6111f4565b606091505b50509050505b60008183611208919061361f565b905060008111156112e3576000600760009054906101000a900473ffffffffffffffffffffffffffffffffffffffff1673ffffffffffffffffffffffffffffffffffffffff168260405161125b9061307f565b60006040518083038185875af1925050503d8060008114611298576040519150601f19603f3d011682016040523d82523d6000602084013e61129d565b606091505b50509050806112e1576040517f08c379a00000000000000000000000000000000000000000000000000000000081526004016112d89061369f565b60405180910390fd5b505b83600301339080600181540180825580915050600190039060005260206000200160009091909190916101000a81548173ffffffffffffffffffffffffffffffffffffffff021916908373ffffffffffffffffffffffffffffffffffffffff1602179055503373ffffffffffffffffffffffffffffffffffffffff16867f5b58cf3bfce2101b6bac355684e4c9f42297d0f95987e29036c73c13f97da7278760405161138f9190612c99565b60405180910390a3600084600201541180156113b5575083600201548460030180549050145b156113c4576113c386612398565b5b505050506113d061225a565b5050565b600160009054906101000a900473ffffffffffffffffffffffffffffffffffffffff1673ffffffffffffffffffffffffffffffffffffffff163373ffffffffffffffffffffffffffffffffffffffff1614611464576040517f08c379a000000000000000000000000000000000000000000000000000000000815260040161145b9061370b565b60405180910390fd5b60008060009054906101000a900473ffffffffffffffffffffffffffffffffffffffff169050336000806101000a81548173ffffffffffffffffffffffffffffffffffffffff021916908373ffffffffffffffffffffffffffffffffffffffff1602179055506000600160006101000a81548173ffffffffffffffffffffffffffffffffffffffff021916908373ffffffffffffffffffffffffffffffffffffffff1602179055503373ffffffffffffffffffffffffffffffffffffffff168173ffffffffffffffffffffffffffffffffffffffff167f8be0079c531659141344cd1fd0a4f28419497f9722a3daafe3b4186f6b6457e060405160405180910390a350565b611571612264565b611579612214565b804710156115bc576040517f08c379a00000000000000000000000000000000000000000000000000000000081526004016115b390613777565b60405180910390fd5b60003373ffffffffffffffffffffffffffffffffffffffff16826040516115e29061307f565b60006040518083038185875af1925050503d806000811461161f576040519150601f19603f3d011682016040523d82523d6000602084013e611624565b606091505b5050905080611668576040517f08c379a000000000000000000000000000000000000000000000000000000000815260040161165f906130e0565b60405180910390fd5b3373ffffffffffffffffffffffffffffffffffffffff167f884edad9ce6fa2440d8a54cc123490eb96d2768479d49ff9c7366125a9424364836040516116ae91906128a3565b60405180910390a2506116bf61225a565b50565b6116ca612264565b606481111561170e576040517f08c379a0000000000000000000000000000000000000000000000000000000008152600401611705906137e3565b60405180910390fd5b8060058190555050565b6000600960008381526020019081526020016000209050611737611b18565b73ffffffffffffffffffffffffffffffffffffffff163373ffffffffffffffffffffffffffffffffffffffff16146117a4576040517f08c379a000000000000000000000000000000000000000000000000000000000815260040161179b9061384f565b60405180910390fd5b60008160020154146117eb576040517f08c379a00000000000000000000000000000000000000000000000000000000081526004016117e2906138bb565b60405180910390fd5b8060040160009054906101000a900460ff161561183d576040517f08c379a000000000000000000000000000000000000000000000000000000000815260040161183490613290565b60405180910390fd5b6001816003018054905011611887576040517f08c379a000000000000000000000000000000000000000000000000000000000815260040161187e90613927565b60405180910390fd5b61189082612398565b5050565b60055481565b6118a2612264565b6118aa6125c1565b565b6118b4612264565b6118bc612214565b6000600960008381526020019081526020016000209050600081600201541161191a576040517f08c379a000000000000000000000000000000000000000000000000000000000815260040161191190613993565b60405180910390fd5b8060060160019054906101000a900460ff161561196c576040517f08c379a0000000000000000000000000000000000000000000000000000000008152600401611963906139ff565b60405180910390fd5b8060060160009054906101000a900460ff168061199a575062093a80816005015461199791906134cc565b42115b6119d9576040517f08c379a00000000000000000000000000000000000000000000000000000000081526004016119d090613a6b565b60405180910390fd5b6000816003018054905011611a23576040517f08c379a0000000000000000000000000000000000000000000000000000000008152600401611a1a90613ad7565b60405180910390fd5b60018160060160016101000a81548160ff021916908315150217905550600060646005546064611a53919061361f565b8360010154611a629190613500565b611a6c9190613571565b905060005b8260030180549050811015611add57611aca836003018281548110611a9957611a98613af7565b5b9060005260206000200160009054906101000a900473ffffffffffffffffffffffffffffffffffffffff1683612624565b8080611ad590612f9a565b915050611a71565b50827f2266501136f5645e558b3e4750659d308e503e7fca2693e3ab049e7dcde4ec0b60405160405180910390a25050611b1561225a565b50565b60008060009054906101000a900473ffffffffffffffffffffffffffffffffffffffff16905090565b611b49611b18565b73ffffffffffffffffffffffffffffffffffffffff163373ffffffffffffffffffffffffffffffffffffffff1614158015611bd25750600260009054906101000a900473ffffffffffffffffffffffffffffffffffffffff1673ffffffffffffffffffffffffffffffffffffffff163373ffffffffffffffffffffffffffffffffffffffff1614155b15611c415733611be0611b18565b600260009054906101000a900473ffffffffffffffffffffffffffffffffffffffff166040517f061db9c1000000000000000000000000000000000000000000000000000000008152600401611c3893929190613b26565b60405180910390fd5b600073ffffffffffffffffffffffffffffffffffffffff168173ffffffffffffffffffffffffffffffffffffffff1603611ca7576040517fd92e233d00000000000000000000000000000000000000000000000000000000815260040160405180910390fd5b80600260006101000a81548173ffffffffffffffffffffffffffffffffffffffff021916908373ffffffffffffffffffffffffffffffffffffffff1602179055507fd1a6a14209a385a964d036e404cb5cfb71f4000cdb03c9366292430787261be681604051611d179190612c99565b60405180910390a150565b600b8181548110611d3257600080fd5b906000526020600020016000915054906101000a900473ffffffffffffffffffffffffffffffffffffffff1681565b600260009054906101000a900473ffffffffffffffffffffffffffffffffffffffff1681565b6060600b805480602002602001604051908101604052809291908181526020018280548015611e0b57602002820191906000526020600020905b8160009054906101000a900473ffffffffffffffffffffffffffffffffffffffff1673ffffffffffffffffffffffffffffffffffffffff1681526020019060010190808311611dc1575b5050505050905090565b6000600c60008373ffffffffffffffffffffffffffffffffffffffff1673ffffffffffffffffffffffffffffffffffffffff168152602001908152602001600020549050919050565b611e66612264565b600073ffffffffffffffffffffffffffffffffffffffff168173ffffffffffffffffffffffffffffffffffffffff1603611ed5576040517f08c379a0000000000000000000000000000000000000000000000000000000008152600401611ecc90613ba9565b60405180910390fd5b80600760006101000a81548173ffffffffffffffffffffffffffffffffffffffff021916908373ffffffffffffffffffffffffffffffffffffffff16021790555050565b611f21612264565b611f2a8161267e565b50565b600260009054906101000a900473ffffffffffffffffffffffffffffffffffffffff1673ffffffffffffffffffffffffffffffffffffffff163373ffffffffffffffffffffffffffffffffffffffff1614611fbd576040517f08c379a0000000000000000000000000000000000000000000000000000000008152600401611fb490613c15565b60405180910390fd5b6000600a600085815260200190815260200160002054905060006009600083815260200190815260200160002090508060040160009054906101000a900460ff1661203d576040517f08c379a000000000000000000000000000000000000000000000000000000000815260040161203490613c81565b60405180910390fd5b600081600301805490508585600081811061205b5761205a613af7565b5b9050602002013561206c9190613ca1565b9050600082600301828154811061208657612085613af7565b5b9060005260206000200160009054906101000a900473ffffffffffffffffffffffffffffffffffffffff169050808360040160016101000a81548173ffffffffffffffffffffffffffffffffffffffff021916908373ffffffffffffffffffffffffffffffffffffffff16021790555060008360040160006101000a81548160ff02191690831515021790555060008360030180549050846001015461212c9190613500565b9050600060646005546064612141919061361f565b8361214c9190613500565b6121569190613571565b90506121628382612624565b600b839080600181540180825580915050600190039060005260206000200160009091909190916101000a81548173ffffffffffffffffffffffffffffffffffffffff021916908373ffffffffffffffffffffffffffffffffffffffff1602179055508273ffffffffffffffffffffffffffffffffffffffff16867f7286599a58b2822d6e330944038c6d3424134069b04156404050720b942d87ee60405160405180910390a3505050505050505050565b600260035403612250576040517f3ee5aeb500000000000000000000000000000000000000000000000000000000815260040160405180910390fd5b6002600381905550565b6001600381905550565b60008054906101000a900473ffffffffffffffffffffffffffffffffffffffff1673ffffffffffffffffffffffffffffffffffffffff163373ffffffffffffffffffffffffffffffffffffffff16146122f2576040517f08c379a00000000000000000000000000000000000000000000000000000000081526004016122e990613d1e565b60405180910390fd5b565b6122fc6127aa565b6000600460006101000a81548160ff0219169083151502179055507f5db9ee0a495bf2e6ff9c91a7834c1ba4fdd244a5e8aa4e537bd38aeae4b073aa6123406127ea565b60405161234d9190612c99565b60405180910390a1565b61235f610ce9565b15612396576040517fd93c066500000000000000000000000000000000000000000000000000000000815260040160405180910390fd5b565b60006009600083815260200190815260200160002090508060040160009054906101000a900460ff1615612401576040517f08c379a00000000000000000000000000000000000000000000000000000000081526004016123f890613d8a565b60405180910390fd5b600181600301805490501161244b576040517f08c379a000000000000000000000000000000000000000000000000000000000815260040161244290613927565b60405180910390fd5b60018160040160006101000a81548160ff0219169083151502179055506000600260009054906101000a900473ffffffffffffffffffffffffffffffffffffffff1673ffffffffffffffffffffffffffffffffffffffff16639b1c385e6040518060c001604052807f0ffbbd0c1c18c0263dd778dadd1d64240d7bc338d95fec1cf0473928ca7eaf9e81526020017f54827d48d7559f12034aa3d9fdf14af39d4afe514eb8769d44932553cda575be8152602001600361ffff168152602001620186a063ffffffff168152602001600163ffffffff1681526020016125406040518060200160405280600015158152506127f2565b8152506040518263ffffffff1660e01b815260040161255f9190613ef2565b6020604051808303816000875af115801561257e573d6000803e3d6000fd5b505050506040513d601f19601f820116820180604052508101906125a29190613f29565b905082600a600083815260200190815260200160002081905550505050565b6125c9612357565b6001600460006101000a81548160ff0219169083151502179055507f62e78cea01bee320cd4e420270b5ea74000d11b0c9f74754ebdbfc544b05a25861260d6127ea565b60405161261a9190612c99565b60405180910390a1565b80600c60008473ffffffffffffffffffffffffffffffffffffffff1673ffffffffffffffffffffffffffffffffffffffff168152602001908152602001600020600082825461267391906134cc565b925050819055505050565b3373ffffffffffffffffffffffffffffffffffffffff168173ffffffffffffffffffffffffffffffffffffffff16036126ec576040517f08c379a00000000000000000000000000000000000000000000000000000000081526004016126e390613fa2565b60405180910390fd5b80600160006101000a81548173ffffffffffffffffffffffffffffffffffffffff021916908373ffffffffffffffffffffffffffffffffffffffff1602179055508073ffffffffffffffffffffffffffffffffffffffff1660008054906101000a900473ffffffffffffffffffffffffffffffffffffffff1673ffffffffffffffffffffffffffffffffffffffff167fed8889f560326eb138920d842192f0eb3dd22b4f139c87a2c57538e05bae127860405160405180910390a350565b6127b2610ce9565b6127e8576040517f8dfc202b00000000000000000000000000000000000000000000000000000000815260040160405180910390fd5b565b600033905090565b60607f92fd13387c7fe7befbc38d303d6468778fb9731bc4583f17d92989c6fcfdeaaa826040516024016128269190613fed565b604051602081830303815290604052907bffffffffffffffffffffffffffffffffffffffffffffffffffffffff19166020820180517bffffffffffffffffffffffffffffffffffffffffffffffffffffffff83818316178352505050509050919050565b6000819050919050565b61289d8161288a565b82525050565b60006020820190506128b86000830184612894565b92915050565b600080fd5b600080fd5b6128d18161288a565b81146128dc57600080fd5b50565b6000813590506128ee816128c8565b92915050565b60006020828403121561290a576129096128be565b5b6000612918848285016128df565b91505092915050565b60008115159050919050565b61293681612921565b82525050565b600073ffffffffffffffffffffffffffffffffffffffff82169050919050565b60006129678261293c565b9050919050565b6129778161295c565b82525050565b600061012082019050612993600083018c612894565b6129a0602083018b612894565b6129ad604083018a612894565b6129ba606083018961292d565b6129c7608083018861296e565b6129d460a0830187612894565b6129e160c083018661292d565b6129ee60e083018561292d565b6129fc61010083018461296e565b9a9950505050505050505050565b600080fd5b600080fd5b600080fd5b60008083601f840112612a2f57612a2e612a0a565b5b8235905067ffffffffffffffff811115612a4c57612a4b612a0f565b5b602083019150836020820283011115612a6857612a67612a14565b5b9250929050565b600080600060408486031215612a8857612a876128be565b5b6000612a96868287016128df565b935050602084013567ffffffffffffffff811115612ab757612ab66128c3565b5b612ac386828701612a19565b92509250509250925092565b612ad88161295c565b8114612ae357600080fd5b50565b600081359050612af581612acf565b92915050565b600080600060608486031215612b1457612b136128be565b5b6000612b22868287016128df565b9350506020612b33868287016128df565b9250506040612b4486828701612ae6565b9150509250925092565b6000612b598261293c565b9050919050565b612b6981612b4e565b8114612b7457600080fd5b50565b600081359050612b8681612b60565b92915050565b600060208284031215612ba257612ba16128be565b5b6000612bb084828501612b77565b91505092915050565b600081519050919050565b600082825260208201905092915050565b6000819050602082019050919050565b612bee8161295c565b82525050565b6000612c008383612be5565b60208301905092915050565b6000602082019050919050565b6000612c2482612bb9565b612c2e8185612bc4565b9350612c3983612bd5565b8060005b83811015612c6a578151612c518882612bf4565b9750612c5c83612c0c565b925050600181019050612c3d565b5085935050505092915050565b60006020820190508181036000830152612c918184612c19565b905092915050565b6000602082019050612cae600083018461296e565b92915050565b6000602082019050612cc9600083018461292d565b92915050565b60008060408385031215612ce657612ce56128be565b5b6000612cf4858286016128df565b9250506020612d0585828601612ae6565b9150509250929050565b600060208284031215612d2557612d246128be565b5b6000612d3384828501612ae6565b91505092915050565b6000819050919050565b6000612d61612d5c612d578461293c565b612d3c565b61293c565b9050919050565b6000612d7382612d46565b9050919050565b6000612d8582612d68565b9050919050565b612d9581612d7a565b82525050565b6000602082019050612db06000830184612d8c565b92915050565b6000604082019050612dcb600083018561296e565b612dd8602083018461296e565b9392505050565b600082825260208201905092915050565b7f4f6e6c79206f776e657200000000000000000000000000000000000000000000600082015250565b6000612e26600a83612ddf565b9150612e3182612df0565b602082019050919050565b60006020820190508181036000830152612e5581612e19565b9050919050565b7f496e76616c696420707269636500000000000000000000000000000000000000600082015250565b6000612e92600d83612ddf565b9150612e9d82612e5c565b602082019050919050565b60006020820190508181036000830152612ec181612e85565b9050919050565b7f4d696e203220706c6179657273206f72203020666f7220676c6f62616c000000600082015250565b6000612efe601d83612ddf565b9150612f0982612ec8565b602082019050919050565b60006020820190508181036000830152612f2d81612ef1565b9050919050565b6000606082019050612f496000830186612894565b612f566020830185612894565b612f63604083018461296e565b949350505050565b7f4e487b7100000000000000000000000000000000000000000000000000000000600052601160045260246000fd5b6000612fa58261288a565b91507fffffffffffffffffffffffffffffffffffffffffffffffffffffffffffffffff8203612fd757612fd6612f6b565b5b600182019050919050565b7f4e6f2066756e647320746f207769746864726177000000000000000000000000600082015250565b6000613018601483612ddf565b915061302382612fe2565b602082019050919050565b600060208201905081810360008301526130478161300b565b9050919050565b600081905092915050565b50565b600061306960008361304e565b915061307482613059565b600082019050919050565b600061308a8261305c565b9150819050919050565b7f5769746864726177206661696c65640000000000000000000000000000000000600082015250565b60006130ca600f83612ddf565b91506130d582613094565b602082019050919050565b600060208201905081810360008301526130f9816130bd565b9050919050565b7f526566657272616c2070657263656e7420746f6f206869676800000000000000600082015250565b6000613136601983612ddf565b915061314182613100565b602082019050919050565b6000602082019050818103600083015261316581613129565b9050919050565b7f526f6f6d20646f6573206e6f7420657869737400000000000000000000000000600082015250565b60006131a2601383612ddf565b91506131ad8261316c565b602082019050919050565b600060208201905081810360008301526131d181613195565b9050919050565b7f4552433230206e6f7420737570706f7274656420796574000000000000000000600082015250565b600061320e601783612ddf565b9150613219826131d8565b602082019050919050565b6000602082019050818103600083015261323d81613201565b9050919050565b7f4472617720696e2070726f677265737300000000000000000000000000000000600082015250565b600061327a601083612ddf565b915061328582613244565b602082019050919050565b600060208201905081810360008301526132a98161326d565b9050919050565b7f526f6f6d20657870697265640000000000000000000000000000000000000000600082015250565b60006132e6600c83612ddf565b91506132f1826132b0565b602082019050919050565b60006020820190508181036000830152613315816132d9565b9050919050565b7f526f6f6d20616c726561647920726566756e6465640000000000000000000000600082015250565b6000613352601583612ddf565b915061335d8261331c565b602082019050919050565b6000602082019050818103600083015261338181613345565b9050919050565b7f526f6f6d2066756c6c0000000000000000000000000000000000000000000000600082015250565b60006133be600983612ddf565b91506133c982613388565b602082019050919050565b600060208201905081810360008301526133ed816133b1565b9050919050565b7f496e636f7272656374204554482073656e740000000000000000000000000000600082015250565b600061342a601283612ddf565b9150613435826133f4565b602082019050919050565b600060208201905081810360008301526134598161341d565b9050919050565b7f43616e6e6f7420726566657220796f757273656c660000000000000000000000600082015250565b6000613496601583612ddf565b91506134a182613460565b602082019050919050565b600060208201905081810360008301526134c581613489565b9050919050565b60006134d78261288a565b91506134e28361288a565b92508282019050808211156134fa576134f9612f6b565b5b92915050565b600061350b8261288a565b91506135168361288a565b92508282026135248161288a565b9150828204841483151761353b5761353a612f6b565b5b5092915050565b7f4e487b7100000000000000000000000000000000000000000000000000000000600052601260045260246000fd5b600061357c8261288a565b91506135878361288a565b92508261359757613596613542565b5b828204905092915050565b600081519050919050565b60005b838110156135cb5780820151818401526020810190506135b0565b60008484015250505050565b60006135e2826135a2565b6135ec818561304e565b93506135fc8185602086016135ad565b80840191505092915050565b600061361482846135d7565b915081905092915050565b600061362a8261288a565b91506136358361288a565b925082820390508181111561364d5761364c612f6b565b5b92915050565b7f466565207472616e73666572206661696c656400000000000000000000000000600082015250565b6000613689601383612ddf565b915061369482613653565b602082019050919050565b600060208201905081810360008301526136b88161367c565b9050919050565b7f4d7573742062652070726f706f736564206f776e657200000000000000000000600082015250565b60006136f5601683612ddf565b9150613700826136bf565b602082019050919050565b60006020820190508181036000830152613724816136e8565b9050919050565b7f4e6f7420656e6f7567682062616c616e63650000000000000000000000000000600082015250565b6000613761601283612ddf565b915061376c8261372b565b602082019050919050565b6000602082019050818103600083015261379081613754565b9050919050565b7f50657263656e7420746f6f206869676800000000000000000000000000000000600082015250565b60006137cd601083612ddf565b91506137d882613797565b602082019050919050565b600060208201905081810360008301526137fc816137c0565b9050919050565b7f4f6e6c79206f776e65722f63726f6e0000000000000000000000000000000000600082015250565b6000613839600f83612ddf565b915061384482613803565b602082019050919050565b600060208201905081810360008301526138688161382c565b9050919050565b7f4e6f74206120676c6f62616c20726f6f6d000000000000000000000000000000600082015250565b60006138a5601183612ddf565b91506138b08261386f565b602082019050919050565b600060208201905081810360008301526138d481613898565b9050919050565b7f4e6f7420656e6f75676820706c61796572730000000000000000000000000000600082015250565b6000613911601283612ddf565b915061391c826138db565b602082019050919050565b6000602082019050818103600083015261394081613904565b9050919050565b7f4e6f742061207374616e6461726420726f6f6d00000000000000000000000000600082015250565b600061397d601383612ddf565b915061398882613947565b602082019050919050565b600060208201905081810360008301526139ac81613970565b9050919050565b7f416c726561647920726566756e64656400000000000000000000000000000000600082015250565b60006139e9601083612ddf565b91506139f4826139b3565b602082019050919050565b60006020820190508181036000830152613a18816139dc565b9050919050565b7f4e6f742065787069726564207965740000000000000000000000000000000000600082015250565b6000613a55600f83612ddf565b9150613a6082613a1f565b602082019050919050565b60006020820190508181036000830152613a8481613a48565b9050919050565b7f4e6f20706c617965727320746f20726566756e64000000000000000000000000600082015250565b6000613ac1601483612ddf565b9150613acc82613a8b565b602082019050919050565b60006020820190508181036000830152613af081613ab4565b9050919050565b7f4e487b7100000000000000000000000000000000000000000000000000000000600052603260045260246000fd5b6000606082019050613b3b600083018661296e565b613b48602083018561296e565b613b55604083018461296e565b949350505050565b7f496e76616c696420726563697069656e74000000000000000000000000000000600082015250565b6000613b93601183612ddf565b9150613b9e82613b5d565b602082019050919050565b60006020820190508181036000830152613bc281613b86565b9050919050565b7f4f6e6c792056524620436f6f7264696e61746f72000000000000000000000000600082015250565b6000613bff601483612ddf565b9150613c0a82613bc9565b602082019050919050565b60006020820190508181036000830152613c2e81613bf2565b9050919050565b7f4e6f742064726177696e67000000000000000000000000000000000000000000600082015250565b6000613c6b600b83612ddf565b9150613c7682613c35565b602082019050919050565b60006020820190508181036000830152613c9a81613c5e565b9050919050565b6000613cac8261288a565b9150613cb78361288a565b925082613cc757613cc6613542565b5b828206905092915050565b7f4f6e6c792063616c6c61626c65206279206f776e657200000000000000000000600082015250565b6000613d08601683612ddf565b9150613d1382613cd2565b602082019050919050565b60006020820190508181036000830152613d3781613cfb565b9050919050565b7f416c72656164792064726177696e670000000000000000000000000000000000600082015250565b6000613d74600f83612ddf565b9150613d7f82613d3e565b602082019050919050565b60006020820190508181036000830152613da381613d67565b9050919050565b6000819050919050565b613dbd81613daa565b82525050565b613dcc8161288a565b82525050565b600061ffff82169050919050565b613de981613dd2565b82525050565b600063ffffffff82169050919050565b613e0881613def565b82525050565b600082825260208201905092915050565b6000601f19601f8301169050919050565b6000613e3b826135a2565b613e458185613e0e565b9350613e558185602086016135ad565b613e5e81613e1f565b840191505092915050565b600060c083016000830151613e816000860182613db4565b506020830151613e946020860182613dc3565b506040830151613ea76040860182613de0565b506060830151613eba6060860182613dff565b506080830151613ecd6080860182613dff565b5060a083015184820360a0860152613ee58282613e30565b9150508091505092915050565b60006020820190508181036000830152613f0c8184613e69565b905092915050565b600081519050613f23816128c8565b92915050565b600060208284031215613f3f57613f3e6128be565b5b6000613f4d84828501613f14565b91505092915050565b7f43616e6e6f74207472616e7366657220746f2073656c66000000000000000000600082015250565b6000613f8c601783612ddf565b9150613f9782613f56565b602082019050919050565b60006020820190508181036000830152613fbb81613f7f565b9050919050565b613fcb81612921565b82525050565b602082016000820151613fe76000850182613fc2565b50505050565b60006020820190506140026000830184613fd1565b9291505056fea264697066735822122071885a39791f98c87aee9f00909b8f390ea1bcaa05e41ac3cc3d46bc97c6c37464736f6c63430008140033",
  "linkReferences": {},
  "deployedLinkReferences": {}
}