{
  "_format": "hh-sol-artifact-1",
  "contractName": "Bittery",
  "sourceName": "contracts/Bittery.sol",
  "abi": [
    {
      "inputs": [
        {
          "internalType": "address",
          "name": "_coordinator",
          "type": "address"
        },
        {
          "internalType": "uint256",
          "name": "_subscriptionId",
          "type": "uint256"
        },
        {
          "internalType": "bytes32",
          "name": "_keyHash",
          "type": "bytes32"
        },
        {
          "internalType": "address",
          "name": "_feeRecipient",
          "type": "address"
        }
      ],
      "stateMutability": "nonpayable",
      "type": "constructor"
    },
    {
      "inputs": [],
      "name": "EnforcedPause",
      "type": "error"
    },
    {
      "inputs": [],
      "name": "ExpectedPause",
      "type": "error"
    },
    {
      "inputs": [
        {
          "internalType": "address",
          "name": "have",
          "type": "address"
        },
        {
          "internalType": "address",
          "name": "want",
          "type": "address"
        }
      ],
      "name": "OnlyCoordinatorCanFulfill",
      "type": "error"
    },
    {
      "inputs": [
        {
          "internalType": "address",
          "name": "have",
          "type": "address"
        },
        {
          "internalType": "address",
          "name": "owner",
          "type": "address"
        },
        {
          "internalType": "address",
          "name": "coordinator",
          "type": "address"
        }
      ],
      "name": "OnlyOwnerOrCoordinator",
      "type": "error"
    },
    {
      "inputs": [],
      "name": "ReentrancyGuardReentrantCall",
      "type": "error"
    },
    {
      "inputs": [],
      "name": "ZeroAddress",
      "type": "error"
    },
    {
      "anonymous": false,
      "inputs": [
        {
          "indexed": false,
          "internalType": "address",
          "name": "vrfCoordinator",
          "type": "address"
        }
      ],
      "name": "CoordinatorSet",
      "type": "event"
    },
    {
      "anonymous": false,
      "inputs": [
        {
          "indexed": true,
          "internalType": "address",
          "name": "from",
          "type": "address"
        },
        {
          "indexed": true,
          "internalType": "address",
          "name": "to",
          "type": "address"
        }
      ],
      "name": "OwnershipTransferRequested",
      "type": "event"
    },
    {
      "anonymous": false,
      "inputs": [
        {
          "indexed": true,
          "internalType": "address",
          "name": "from",
          "type": "address"
        },
        {
          "indexed": true,
          "internalType": "address",
          "name": "to",
          "type": "address"
        }
      ],
      "name": "OwnershipTransferred",
      "type": "event"
    },
    {
      "anonymous": false,
      "inputs": [
        {
          "indexed": false,
          "internalType": "address",
          "name": "account",
          "type": "address"
        }
      ],
      "name": "Paused",
      "type": "event"
    },
    {
      "anonymous": false,
      "inputs": [
        {
          "indexed": true,
          "internalType": "uint256",
          "name": "roomId",
          "type": "uint256"
        },
        {
          "indexed": false,
          "internalType": "uint256",
          "name": "price",
          "type": "uint256"
        },
        {
          "indexed": false,
          "internalType": "uint256",
          "name": "maxPlayers",
          "type": "uint256"
        }
      ],
      "name": "RoomCreated",
      "type": "event"
    },
    {
      "anonymous": false,
      "inputs": [
        {
          "indexed": true,
          "internalType": "uint256",
          "name": "roomId",
          "type": "uint256"
        },
        {
          "indexed": true,
          "internalType": "address",
          "name": "player",
          "type": "address"
        }
      ],
      "name": "TicketBought",
      "type": "event"
    },
    {
      "anonymous": false,
      "inputs": [
        {
          "indexed": false,
          "internalType": "address",
          "name": "account",
          "type": "address"
        }
      ],
      "name": "Unpaused",
      "type": "event"
    },
    {
      "anonymous": false,
      "inputs": [
        {
          "indexed": true,
          "internalType": "uint256",
          "name": "roomId",
          "type": "uint256"
        },
        {
          "indexed": true,
          "internalType": "address",
          "name": "winner",
          "type": "address"
        }
      ],
      "name": "WinnerPicked",
      "type": "event"
    },
    {
      "inputs": [],
      "name": "acceptOwnership",
      "outputs": [],
      "stateMutability": "nonpayable",
      "type": "function"
    },
    {
      "inputs": [
        {
          "internalType": "uint256",
          "name": "roomId",
          "type": "uint256"
        },
        {
          "internalType": "address",
          "name": "referrer",
          "type": "address"
        }
      ],
      "name": "buyTicket",
      "outputs": [],
      "stateMutability": "payable",
      "type": "function"
    },
    {
      "inputs": [
        {
          "internalType": "uint256",
          "name": "ticketPrice",
          "type": "uint256"
        },
        {
          "internalType": "uint256",
          "name": "maxPlayers",
          "type": "uint256"
        }
      ],
      "name": "createRoom",
      "outputs": [],
      "stateMutability": "nonpayable",
      "type": "function"
    },
    {
      "inputs": [],
      "name": "feePercent",
      "outputs": [
        {
          "internalType": "uint256",
          "name": "",
          "type": "uint256"
        }
      ],
      "stateMutability": "view",
      "type": "function"
    },
    {
      "inputs": [],
      "name": "feeRecipient",
      "outputs": [
        {
          "internalType": "address",
          "name": "",
          "type": "address"
        }
      ],
      "stateMutability": "view",
      "type": "function"
    },
    {
      "inputs": [
        {
          "internalType": "uint256",
          "name": "roomId",
          "type": "uint256"
        }
      ],
      "name": "getRoomPlayers",
      "outputs": [
        {
          "internalType": "address[]",
          "name": "",
          "type": "address[]"
        }
      ],
      "stateMutability": "view",
      "type": "function"
    },
    {
      "inputs": [],
      "name": "getWinners",
      "outputs": [
        {
          "internalType": "address[]",
          "name": "",
          "type": "address[]"
        }
      ],
      "stateMutability": "view",
      "type": "function"
    },
    {
      "inputs": [
        {
          "internalType": "uint256",
          "name": "",
          "type": "uint256"
        }
      ],
      "name": "globalWinners",
      "outputs": [
        {
          "internalType": "address",
          "name": "",
          "type": "address"
        }
      ],
      "stateMutability": "view",
      "type": "function"
    },
    {
      "inputs": [],
      "name": "nextRoomId",
      "outputs": [
        {
          "internalType": "uint256",
          "name": "",
          "type": "uint256"
        }
      ],
      "stateMutability": "view",
      "type": "function"
    },
    {
      "inputs": [],
      "name": "owner",
      "outputs": [
        {
          "internalType": "address",
          "name": "",
          "type": "address"
        }
      ],
      "stateMutability": "view",
      "type": "function"
    },
    {
      "inputs": [],
      "name": "pause",
      "outputs": [],
      "stateMutability": "nonpayable",
      "type": "function"
    },
    {
      "inputs": [],
      "name": "paused",
      "outputs": [
        {
          "internalType": "bool",
          "name": "",
          "type": "bool"
        }
      ],
      "stateMutability": "view",
      "type": "function"
    },
    {
      "inputs": [
        {
          "internalType": "uint256",
          "name": "requestId",
          "type": "uint256"
        },
        {
          "internalType": "uint256[]",
          "name": "randomWords",
          "type": "uint256[]"
        }
      ],
      "name": "rawFulfillRandomWords",
      "outputs": [],
      "stateMutability": "nonpayable",
      "type": "function"
    },
    {
      "inputs": [],
      "name": "referralPercent",
      "outputs": [
        {
          "internalType": "uint256",
          "name": "",
          "type": "uint256"
        }
      ],
      "stateMutability": "view",
      "type": "function"
    },
    {
      "inputs": [
        {
          "internalType": "uint256",
          "name": "",
          "type": "uint256"
        }
      ],
      "name": "requestToRoomId",
      "outputs": [
        {
          "internalType": "uint256",
          "name": "",
          "type": "uint256"
        }
      ],
      "stateMutability": "view",
      "type": "function"
    },
    {
      "inputs": [
        {
          "internalType": "uint256",
          "name": "",
          "type": "uint256"
        }
      ],
      "name": "rooms",
      "outputs": [
        {
          "internalType": "uint256",
          "name": "id",
          "type": "uint256"
        },
        {
          "internalType": "uint256",
          "name": "ticketPrice",
          "type": "uint256"
        },
        {
          "internalType": "uint256",
          "name": "maxPlayers",
          "type": "uint256"
        },
        {
          "internalType": "bool",
          "name": "drawing",
          "type": "bool"
        },
        {
          "internalType": "address",
          "name": "winner",
          "type": "address"
        }
      ],
      "stateMutability": "view",
      "type": "function"
    },
    {
      "inputs": [],
      "name": "s_vrfCoordinator",
      "outputs": [
        {
          "internalType": "contract IVRFCoordinatorV2Plus",
          "name": "",
          "type": "address"
        }
      ],
      "stateMutability": "view",
      "type": "function"
    },
    {
      "inputs": [
        {
          "internalType": "address",
          "name": "_vrfCoordinator",
          "type": "address"
        }
      ],
      "name": "setCoordinator",
      "outputs": [],
      "stateMutability": "nonpayable",
      "type": "function"
    },
    {
      "inputs": [
        {
          "internalType": "uint256",
          "name": "_feePercent",
          "type": "uint256"
        }
      ],
      "name": "setFeePercent",
      "outputs": [],
      "stateMutability": "nonpayable",
      "type": "function"
    },
    {
      "inputs": [
        {
          "internalType": "address",
          "name": "_feeRecipient",
          "type": "address"
        }
      ],
      "name": "setFeeRecipient",
      "outputs": [],
      "stateMutability": "nonpayable",
      "type": "function"
    },
    {
      "inputs": [
        {
          "internalType": "uint256",
          "name": "_referralPercent",
          "type": "uint256"
        }
      ],
      "name": "setReferralPercent",
      "outputs": [],
      "stateMutability": "nonpayable",
      "type": "function"
    },
    {
      "inputs": [
        {
          "internalType": "address",
          "name": "to",
          "type": "address"
        }
      ],
      "name": "transferOwnership",
      "outputs": [],
      "stateMutability": "nonpayable",
      "type": "function"
    },
    {
      "inputs": [],
      "name": "unpause",
      "outputs": [],
      "stateMutability": "nonpayable",
      "type": "function"
    }
  ],
  "bytecode": "0x60c06040526005805560326006553480156200001a57600080fd5b50604051620033863803806200338683398181016040528101906200004091906200045b565b83338060008073ffffffffffffffffffffffffffffffffffffffff168273ffffffffffffffffffffffffffffffffffffffff1603620000b6576040517f08c379a0000000000000000000000000000000000000000000000000000000008152600401620000ad906200052e565b60405180910390fd5b816000806101000a81548173ffffffffffffffffffffffffffffffffffffffff021916908373ffffffffffffffffffffffffffffffffffffffff160217905550600073ffffffffffffffffffffffffffffffffffffffff168173ffffffffffffffffffffffffffffffffffffffff16146200013d576200013c816200024c60201b60201c565b5b505050600073ffffffffffffffffffffffffffffffffffffffff168173ffffffffffffffffffffffffffffffffffffffff1603620001a7576040517fd92e233d00000000000000000000000000000000000000000000000000000000815260040160405180910390fd5b80600260006101000a81548173ffffffffffffffffffffffffffffffffffffffff021916908373ffffffffffffffffffffffffffffffffffffffff16021790555050600160038190555082608081815250508160a0818152505080600760006101000a81548173ffffffffffffffffffffffffffffffffffffffff021916908373ffffffffffffffffffffffffffffffffffffffff16021790555050505050620005c2565b3373ffffffffffffffffffffffffffffffffffffffff168173ffffffffffffffffffffffffffffffffffffffff1603620002bd576040517f08c379a0000000000000000000000000000000000000000000000000000000008152600401620002b490620005a0565b60405180910390fd5b80600160006101000a81548173ffffffffffffffffffffffffffffffffffffffff021916908373ffffffffffffffffffffffffffffffffffffffff1602179055508073ffffffffffffffffffffffffffffffffffffffff1660008054906101000a900473ffffffffffffffffffffffffffffffffffffffff1673ffffffffffffffffffffffffffffffffffffffff167fed8889f560326eb138920d842192f0eb3dd22b4f139c87a2c57538e05bae127860405160405180910390a350565b600080fd5b600073ffffffffffffffffffffffffffffffffffffffff82169050919050565b6000620003ad8262000380565b9050919050565b620003bf81620003a0565b8114620003cb57600080fd5b50565b600081519050620003df81620003b4565b92915050565b6000819050919050565b620003fa81620003e5565b81146200040657600080fd5b50565b6000815190506200041a81620003ef565b92915050565b6000819050919050565b620004358162000420565b81146200044157600080fd5b50565b60008151905062000455816200042a565b92915050565b600080600080608085870312156200047857620004776200037b565b5b60006200048887828801620003ce565b94505060206200049b8782880162000409565b9350506040620004ae8782880162000444565b9250506060620004c187828801620003ce565b91505092959194509250565b600082825260208201905092915050565b7f43616e6e6f7420736574206f776e657220746f207a65726f0000000000000000600082015250565b600062000516601883620004cd565b91506200052382620004de565b602082019050919050565b60006020820190508181036000830152620005498162000507565b9050919050565b7f43616e6e6f74207472616e7366657220746f2073656c66000000000000000000600082015250565b600062000588601783620004cd565b9150620005958262000550565b602082019050919050565b60006020820190508181036000830152620005bb8162000579565b9050919050565b60805160a051612d9e620005e8600039600061196b015260006119910152612d9e6000f3fe6080604052600436106101405760003560e01c806379ba5097116100b65780639381e6391161006f5780639381e639146104075780639eccacf614610444578063ab196acd1461046f578063df15c37e14610498578063e74b981b146104c3578063f2fde38b146104ec57610140565b806379ba5097146103315780637ce3489b146103485780637fd6f15c146103715780638456cb591461039c5780638da5cb5b146103b35780638ea98117146103de57610140565b80633f4ba83a116101085780633f4ba83a1461024257806343925cc31461025957806346904840146102965780635c975abb146102c15780636129f25f146102ec57806362a845ec1461031557610140565b806307a52cab1461014557806308aa0cd3146101705780631bae0ac8146101ad5780631fe543e3146101ee578063343dfb7e14610217575b600080fd5b34801561015157600080fd5b5061015a610515565b6040516101679190611d99565b60405180910390f35b34801561017c57600080fd5b5061019760048036038101906101929190611dea565b61051b565b6040516101a49190611d99565b60405180910390f35b3480156101b957600080fd5b506101d460048036038101906101cf9190611dea565b610533565b6040516101e5959493929190611e73565b60405180910390f35b3480156101fa57600080fd5b5061021560048036038101906102109190611f2b565b610596565b005b34801561022357600080fd5b5061022c61065c565b6040516102399190611d99565b60405180910390f35b34801561024e57600080fd5b50610257610662565b005b34801561026557600080fd5b50610280600480360381019061027b9190611dea565b6106e1565b60405161028d9190612049565b60405180910390f35b3480156102a257600080fd5b506102ab610785565b6040516102b8919061206b565b60405180910390f35b3480156102cd57600080fd5b506102d66107ab565b6040516102e39190612086565b60405180910390f35b3480156102f857600080fd5b50610313600480360381019061030e9190611dea565b6107c2565b005b61032f600480360381019061032a91906120cd565b610885565b005b34801561033d57600080fd5b50610346610c8d565b005b34801561035457600080fd5b5061036f600480360381019061036a9190611dea565b610e22565b005b34801561037d57600080fd5b50610386610ee5565b6040516103939190611d99565b60405180910390f35b3480156103a857600080fd5b506103b1610eeb565b005b3480156103bf57600080fd5b506103c8610f6a565b6040516103d5919061206b565b60405180910390f35b3480156103ea57600080fd5b506104056004803603810190610400919061210d565b610f93565b005b34801561041357600080fd5b5061042e60048036038101906104299190611dea565b611174565b60405161043b919061206b565b60405180910390f35b34801561045057600080fd5b506104596111b3565b6040516104669190612199565b60405180910390f35b34801561047b57600080fd5b50610496600480360381019061049191906121b4565b6111d9565b005b3480156104a457600080fd5b506104ad611364565b6040516104ba9190612049565b60405180910390f35b3480156104cf57600080fd5b506104ea60048036038101906104e5919061210d565b6113f2565b005b3480156104f857600080fd5b50610513600480360381019061050e919061210d565b61151a565b005b60085481565b600a6020528060005260406000206000915090505481565b60096020528060005260406000206000915090508060000154908060010154908060020154908060040160009054906101000a900460ff16908060040160019054906101000a900473ffffffffffffffffffffffffffffffffffffffff16905085565b600260009054906101000a900473ffffffffffffffffffffffffffffffffffffffff1673ffffffffffffffffffffffffffffffffffffffff163373ffffffffffffffffffffffffffffffffffffffff161461064c5733600260009054906101000a900473ffffffffffffffffffffffffffffffffffffffff166040517f1cf993f40000000000000000000000000000000000000000000000000000000081526004016106439291906121f4565b60405180910390fd5b61065783838361152e565b505050565b60065481565b61066a610f6a565b73ffffffffffffffffffffffffffffffffffffffff163373ffffffffffffffffffffffffffffffffffffffff16146106d7576040517f08c379a00000000000000000000000000000000000000000000000000000000081526004016106ce9061227a565b60405180910390fd5b6106df6117ae565b565b60606009600083815260200190815260200160002060030180548060200260200160405190810160405280929190818152602001828054801561077957602002820191906000526020600020905b8160009054906101000a900473ffffffffffffffffffffffffffffffffffffffff1673ffffffffffffffffffffffffffffffffffffffff168152602001906001019080831161072f575b50505050509050919050565b600760009054906101000a900473ffffffffffffffffffffffffffffffffffffffff1681565b6000600460009054906101000a900460ff16905090565b6107ca610f6a565b73ffffffffffffffffffffffffffffffffffffffff163373ffffffffffffffffffffffffffffffffffffffff1614610837576040517f08c379a000000000000000000000000000000000000000000000000000000000815260040161082e9061227a565b60405180910390fd5b606481111561087b576040517f08c379a0000000000000000000000000000000000000000000000000000000008152600401610872906122e6565b60405180910390fd5b8060068190555050565b61088d611811565b610895611857565b60006009600084815260200190815260200160002090508060040160009054906101000a900460ff16156108fe576040517f08c379a00000000000000000000000000000000000000000000000000000000081526004016108f590612352565b60405180910390fd5b80600101543414610944576040517f08c379a000000000000000000000000000000000000000000000000000000000815260040161093b906123be565b60405180910390fd5b3373ffffffffffffffffffffffffffffffffffffffff168273ffffffffffffffffffffffffffffffffffffffff16036109b2576040517f08c379a00000000000000000000000000000000000000000000000000000000081526004016109a99061242a565b60405180910390fd5b60006064600554346109c49190612479565b6109ce91906124ea565b905060008073ffffffffffffffffffffffffffffffffffffffff168473ffffffffffffffffffffffffffffffffffffffff1614610acf57606460065483610a159190612479565b610a1f91906124ea565b905060008473ffffffffffffffffffffffffffffffffffffffff1682604051610a479061254c565b60006040518083038185875af1925050503d8060008114610a84576040519150601f19603f3d011682016040523d82523d6000602084013e610a89565b606091505b5050905080610acd576040517f08c379a0000000000000000000000000000000000000000000000000000000008152600401610ac4906125ad565b60405180910390fd5b505b60008183610add91906125cd565b90506000811115610bb8576000600760009054906101000a900473ffffffffffffffffffffffffffffffffffffffff1673ffffffffffffffffffffffffffffffffffffffff1682604051610b309061254c565b60006040518083038185875af1925050503d8060008114610b6d576040519150601f19603f3d011682016040523d82523d6000602084013e610b72565b606091505b5050905080610bb6576040517f08c379a0000000000000000000000000000000000000000000000000000000008152600401610bad9061264d565b60405180910390fd5b505b83600301339080600181540180825580915050600190039060005260206000200160009091909190916101000a81548173ffffffffffffffffffffffffffffffffffffffff021916908373ffffffffffffffffffffffffffffffffffffffff1602179055503373ffffffffffffffffffffffffffffffffffffffff16867f6606e4c8a88792ed4fd5159f9be235ca78e87fc1cbdc6158ea92d3ed3be9bf7260405160405180910390a38360020154846003018054905003610c7d57610c7c86611898565b5b50505050610c89611a77565b5050565b600160009054906101000a900473ffffffffffffffffffffffffffffffffffffffff1673ffffffffffffffffffffffffffffffffffffffff163373ffffffffffffffffffffffffffffffffffffffff1614610d1d576040517f08c379a0000000000000000000000000000000000000000000000000000000008152600401610d14906126b9565b60405180910390fd5b60008060009054906101000a900473ffffffffffffffffffffffffffffffffffffffff169050336000806101000a81548173ffffffffffffffffffffffffffffffffffffffff021916908373ffffffffffffffffffffffffffffffffffffffff1602179055506000600160006101000a81548173ffffffffffffffffffffffffffffffffffffffff021916908373ffffffffffffffffffffffffffffffffffffffff1602179055503373ffffffffffffffffffffffffffffffffffffffff168173ffffffffffffffffffffffffffffffffffffffff167f8be0079c531659141344cd1fd0a4f28419497f9722a3daafe3b4186f6b6457e060405160405180910390a350565b610e2a610f6a565b73ffffffffffffffffffffffffffffffffffffffff163373ffffffffffffffffffffffffffffffffffffffff1614610e97576040517f08c379a0000000000000000000000000000000000000000000000000000000008152600401610e8e9061227a565b60405180910390fd5b6064811115610edb576040517f08c379a0000000000000000000000000000000000000000000000000000000008152600401610ed290612725565b60405180910390fd5b8060058190555050565b60055481565b610ef3610f6a565b73ffffffffffffffffffffffffffffffffffffffff163373ffffffffffffffffffffffffffffffffffffffff1614610f60576040517f08c379a0000000000000000000000000000000000000000000000000000000008152600401610f579061227a565b60405180910390fd5b610f68611a81565b565b60008060009054906101000a900473ffffffffffffffffffffffffffffffffffffffff16905090565b610f9b610f6a565b73ffffffffffffffffffffffffffffffffffffffff163373ffffffffffffffffffffffffffffffffffffffff16141580156110245750600260009054906101000a900473ffffffffffffffffffffffffffffffffffffffff1673ffffffffffffffffffffffffffffffffffffffff163373ffffffffffffffffffffffffffffffffffffffff1614155b156110935733611032610f6a565b600260009054906101000a900473ffffffffffffffffffffffffffffffffffffffff166040517f061db9c100000000000000000000000000000000000000000000000000000000815260040161108a93929190612745565b60405180910390fd5b600073ffffffffffffffffffffffffffffffffffffffff168173ffffffffffffffffffffffffffffffffffffffff16036110f9576040517fd92e233d00000000000000000000000000000000000000000000000000000000815260040160405180910390fd5b80600260006101000a81548173ffffffffffffffffffffffffffffffffffffffff021916908373ffffffffffffffffffffffffffffffffffffffff1602179055507fd1a6a14209a385a964d036e404cb5cfb71f4000cdb03c9366292430787261be681604051611169919061206b565b60405180910390a150565b600b818154811061118457600080fd5b906000526020600020016000915054906101000a900473ffffffffffffffffffffffffffffffffffffffff1681565b600260009054906101000a900473ffffffffffffffffffffffffffffffffffffffff1681565b6111e1610f6a565b73ffffffffffffffffffffffffffffffffffffffff163373ffffffffffffffffffffffffffffffffffffffff161461124e576040517f08c379a00000000000000000000000000000000000000000000000000000000081526004016112459061227a565b60405180910390fd5b60008211611291576040517f08c379a0000000000000000000000000000000000000000000000000000000008152600401611288906127c8565b60405180910390fd5b60028110156112d5576040517f08c379a00000000000000000000000000000000000000000000000000000000081526004016112cc90612834565b60405180910390fd5b6000600960006008548152602001908152602001600020905060085481600001819055508281600101819055508181600201819055506008547f2fc59e144dddfd59e85aa5c3f16b8ad0d5a8eb85887eaae5c63bc3b5898cebc2848460405161133f929190612854565b60405180910390a26008600081548092919061135a9061287d565b9190505550505050565b6060600b8054806020026020016040519081016040528092919081815260200182805480156113e857602002820191906000526020600020905b8160009054906101000a900473ffffffffffffffffffffffffffffffffffffffff1673ffffffffffffffffffffffffffffffffffffffff168152602001906001019080831161139e575b5050505050905090565b6113fa610f6a565b73ffffffffffffffffffffffffffffffffffffffff163373ffffffffffffffffffffffffffffffffffffffff1614611467576040517f08c379a000000000000000000000000000000000000000000000000000000000815260040161145e9061227a565b60405180910390fd5b600073ffffffffffffffffffffffffffffffffffffffff168173ffffffffffffffffffffffffffffffffffffffff16036114d6576040517f08c379a00000000000000000000000000000000000000000000000000000000081526004016114cd90612911565b60405180910390fd5b80600760006101000a81548173ffffffffffffffffffffffffffffffffffffffff021916908373ffffffffffffffffffffffffffffffffffffffff16021790555050565b611522611ae4565b61152b81611b74565b50565b6000600a60008581526020019081526020016000205490506000600960008381526020019081526020016000209050600081600301805490508585600081811061157b5761157a612931565b5b9050602002013561158c9190612960565b905060008260030182815481106115a6576115a5612931565b5b9060005260206000200160009054906101000a900473ffffffffffffffffffffffffffffffffffffffff169050808360040160016101000a81548173ffffffffffffffffffffffffffffffffffffffff021916908373ffffffffffffffffffffffffffffffffffffffff16021790555060008173ffffffffffffffffffffffffffffffffffffffff166064600554606461164091906125cd565b866003018054905087600101546116579190612479565b6116619190612479565b61166b91906124ea565b6040516116779061254c565b60006040518083038185875af1925050503d80600081146116b4576040519150601f19603f3d011682016040523d82523d6000602084013e6116b9565b606091505b50509050806116fd576040517f08c379a00000000000000000000000000000000000000000000000000000000081526004016116f4906129dd565b60405180910390fd5b600b829080600181540180825580915050600190039060005260206000200160009091909190916101000a81548173ffffffffffffffffffffffffffffffffffffffff021916908373ffffffffffffffffffffffffffffffffffffffff1602179055508173ffffffffffffffffffffffffffffffffffffffff16857f7286599a58b2822d6e330944038c6d3424134069b04156404050720b942d87ee60405160405180910390a35050505050505050565b6117b6611ca0565b6000600460006101000a81548160ff0219169083151502179055507f5db9ee0a495bf2e6ff9c91a7834c1ba4fdd244a5e8aa4e537bd38aeae4b073aa6117fa611ce0565b604051611807919061206b565b60405180910390a1565b60026003540361184d576040517f3ee5aeb500000000000000000000000000000000000000000000000000000000815260040160405180910390fd5b6002600381905550565b61185f6107ab565b15611896576040517fd93c066500000000000000000000000000000000000000000000000000000000815260040160405180910390fd5b565b60006009600083815260200190815260200160002090508060040160009054906101000a900460ff1615611901576040517f08c379a00000000000000000000000000000000000000000000000000000000081526004016118f890612a49565b60405180910390fd5b60018160040160006101000a81548160ff0219169083151502179055506000600260009054906101000a900473ffffffffffffffffffffffffffffffffffffffff1673ffffffffffffffffffffffffffffffffffffffff16639b1c385e6040518060c001604052807f000000000000000000000000000000000000000000000000000000000000000081526020017f00000000000000000000000000000000000000000000000000000000000000008152602001600361ffff168152602001620186a063ffffffff168152602001600163ffffffff1681526020016119f6604051806020016040528060001515815250611ce8565b8152506040518263ffffffff1660e01b8152600401611a159190612be6565b6020604051808303816000875af1158015611a34573d6000803e3d6000fd5b505050506040513d601f19601f82011682018060405250810190611a589190612c1d565b905082600a600083815260200190815260200160002081905550505050565b6001600381905550565b611a89611857565b6001600460006101000a81548160ff0219169083151502179055507f62e78cea01bee320cd4e420270b5ea74000d11b0c9f74754ebdbfc544b05a258611acd611ce0565b604051611ada919061206b565b60405180910390a1565b60008054906101000a900473ffffffffffffffffffffffffffffffffffffffff1673ffffffffffffffffffffffffffffffffffffffff163373ffffffffffffffffffffffffffffffffffffffff1614611b72576040517f08c379a0000000000000000000000000000000000000000000000000000000008152600401611b6990612c96565b60405180910390fd5b565b3373ffffffffffffffffffffffffffffffffffffffff168173ffffffffffffffffffffffffffffffffffffffff1603611be2576040517f08c379a0000000000000000000000000000000000000000000000000000000008152600401611bd990612d02565b60405180910390fd5b80600160006101000a81548173ffffffffffffffffffffffffffffffffffffffff021916908373ffffffffffffffffffffffffffffffffffffffff1602179055508073ffffffffffffffffffffffffffffffffffffffff1660008054906101000a900473ffffffffffffffffffffffffffffffffffffffff1673ffffffffffffffffffffffffffffffffffffffff167fed8889f560326eb138920d842192f0eb3dd22b4f139c87a2c57538e05bae127860405160405180910390a350565b611ca86107ab565b611cde576040517f8dfc202b00000000000000000000000000000000000000000000000000000000815260040160405180910390fd5b565b600033905090565b60607f92fd13387c7fe7befbc38d303d6468778fb9731bc4583f17d92989c6fcfdeaaa82604051602401611d1c9190612d4d565b604051602081830303815290604052907bffffffffffffffffffffffffffffffffffffffffffffffffffffffff19166020820180517bffffffffffffffffffffffffffffffffffffffffffffffffffffffff83818316178352505050509050919050565b6000819050919050565b611d9381611d80565b82525050565b6000602082019050611dae6000830184611d8a565b92915050565b600080fd5b600080fd5b611dc781611d80565b8114611dd257600080fd5b50565b600081359050611de481611dbe565b92915050565b600060208284031215611e0057611dff611db4565b5b6000611e0e84828501611dd5565b91505092915050565b60008115159050919050565b611e2c81611e17565b82525050565b600073ffffffffffffffffffffffffffffffffffffffff82169050919050565b6000611e5d82611e32565b9050919050565b611e6d81611e52565b82525050565b600060a082019050611e886000830188611d8a565b611e956020830187611d8a565b611ea26040830186611d8a565b611eaf6060830185611e23565b611ebc6080830184611e64565b9695505050505050565b600080fd5b600080fd5b600080fd5b60008083601f840112611eeb57611eea611ec6565b5b8235905067ffffffffffffffff811115611f0857611f07611ecb565b5b602083019150836020820283011115611f2457611f23611ed0565b5b9250929050565b600080600060408486031215611f4457611f43611db4565b5b6000611f5286828701611dd5565b935050602084013567ffffffffffffffff811115611f7357611f72611db9565b5b611f7f86828701611ed5565b92509250509250925092565b600081519050919050565b600082825260208201905092915050565b6000819050602082019050919050565b611fc081611e52565b82525050565b6000611fd28383611fb7565b60208301905092915050565b6000602082019050919050565b6000611ff682611f8b565b6120008185611f96565b935061200b83611fa7565b8060005b8381101561203c5781516120238882611fc6565b975061202e83611fde565b92505060018101905061200f565b5085935050505092915050565b600060208201905081810360008301526120638184611feb565b905092915050565b60006020820190506120806000830184611e64565b92915050565b600060208201905061209b6000830184611e23565b92915050565b6120aa81611e52565b81146120b557600080fd5b50565b6000813590506120c7816120a1565b92915050565b600080604083850312156120e4576120e3611db4565b5b60006120f285828601611dd5565b9250506020612103858286016120b8565b9150509250929050565b60006020828403121561212357612122611db4565b5b6000612131848285016120b8565b91505092915050565b6000819050919050565b600061215f61215a61215584611e32565b61213a565b611e32565b9050919050565b600061217182612144565b9050919050565b600061218382612166565b9050919050565b61219381612178565b82525050565b60006020820190506121ae600083018461218a565b92915050565b600080604083850312156121cb576121ca611db4565b5b60006121d985828601611dd5565b92505060206121ea85828601611dd5565b9150509250929050565b60006040820190506122096000830185611e64565b6122166020830184611e64565b9392505050565b600082825260208201905092915050565b7f4f776e61626c653a2063616c6c6572206973206e6f7420746865206f776e6572600082015250565b600061226460208361221d565b915061226f8261222e565b602082019050919050565b6000602082019050818103600083015261229381612257565b9050919050565b7f526566657272616c2070657263656e7420746f6f206869676800000000000000600082015250565b60006122d060198361221d565b91506122db8261229a565b602082019050919050565b600060208201905081810360008301526122ff816122c3565b9050919050565b7f4472617720696e2070726f677265737300000000000000000000000000000000600082015250565b600061233c60108361221d565b915061234782612306565b602082019050919050565b6000602082019050818103600083015261236b8161232f565b9050919050565b7f496e636f7272656374204554482073656e740000000000000000000000000000600082015250565b60006123a860128361221d565b91506123b382612372565b602082019050919050565b600060208201905081810360008301526123d78161239b565b9050919050565b7f43616e277420726566657220796f757273656c66000000000000000000000000600082015250565b600061241460148361221d565b915061241f826123de565b602082019050919050565b6000602082019050818103600083015261244381612407565b9050919050565b7f4e487b7100000000000000000000000000000000000000000000000000000000600052601160045260246000fd5b600061248482611d80565b915061248f83611d80565b925082820261249d81611d80565b915082820484148315176124b4576124b361244a565b5b5092915050565b7f4e487b7100000000000000000000000000000000000000000000000000000000600052601260045260246000fd5b60006124f582611d80565b915061250083611d80565b9250826125105761250f6124bb565b5b828204905092915050565b600081905092915050565b50565b600061253660008361251b565b915061254182612526565b600082019050919050565b600061255782612529565b9150819050919050565b7f526566657272616c207061796f7574206661696c656400000000000000000000600082015250565b600061259760168361221d565b91506125a282612561565b602082019050919050565b600060208201905081810360008301526125c68161258a565b9050919050565b60006125d882611d80565b91506125e383611d80565b92508282039050818111156125fb576125fa61244a565b5b92915050565b7f466565207472616e73666572206661696c656400000000000000000000000000600082015250565b600061263760138361221d565b915061264282612601565b602082019050919050565b600060208201905081810360008301526126668161262a565b9050919050565b7f4d7573742062652070726f706f736564206f776e657200000000000000000000600082015250565b60006126a360168361221d565b91506126ae8261266d565b602082019050919050565b600060208201905081810360008301526126d281612696565b9050919050565b7f50657263656e7420746f6f206869676800000000000000000000000000000000600082015250565b600061270f60108361221d565b915061271a826126d9565b602082019050919050565b6000602082019050818103600083015261273e81612702565b9050919050565b600060608201905061275a6000830186611e64565b6127676020830185611e64565b6127746040830184611e64565b949350505050565b7f496e76616c696420707269636500000000000000000000000000000000000000600082015250565b60006127b2600d8361221d565b91506127bd8261277c565b602082019050919050565b600060208201905081810360008301526127e1816127a5565b9050919050565b7f4d696e696d756d203220706c6179657273000000000000000000000000000000600082015250565b600061281e60118361221d565b9150612829826127e8565b602082019050919050565b6000602082019050818103600083015261284d81612811565b9050919050565b60006040820190506128696000830185611d8a565b6128766020830184611d8a565b9392505050565b600061288882611d80565b91507fffffffffffffffffffffffffffffffffffffffffffffffffffffffffffffffff82036128ba576128b961244a565b5b600182019050919050565b7f496e76616c696420726563697069656e74000000000000000000000000000000600082015250565b60006128fb60118361221d565b9150612906826128c5565b602082019050919050565b6000602082019050818103600083015261292a816128ee565b9050919050565b7f4e487b7100000000000000000000000000000000000000000000000000000000600052603260045260246000fd5b600061296b82611d80565b915061297683611d80565b925082612986576129856124bb565b5b828206905092915050565b7f57696e6e6572207061796f7574206661696c6564000000000000000000000000600082015250565b60006129c760148361221d565b91506129d282612991565b602082019050919050565b600060208201905081810360008301526129f6816129ba565b9050919050565b7f416c72656164792064726177696e670000000000000000000000000000000000600082015250565b6000612a33600f8361221d565b9150612a3e826129fd565b602082019050919050565b60006020820190508181036000830152612a6281612a26565b9050919050565b6000819050919050565b612a7c81612a69565b82525050565b612a8b81611d80565b82525050565b600061ffff82169050919050565b612aa881612a91565b82525050565b600063ffffffff82169050919050565b612ac781612aae565b82525050565b600081519050919050565b600082825260208201905092915050565b60005b83811015612b07578082015181840152602081019050612aec565b60008484015250505050565b6000601f19601f8301169050919050565b6000612b2f82612acd565b612b398185612ad8565b9350612b49818560208601612ae9565b612b5281612b13565b840191505092915050565b600060c083016000830151612b756000860182612a73565b506020830151612b886020860182612a82565b506040830151612b9b6040860182612a9f565b506060830151612bae6060860182612abe565b506080830151612bc16080860182612abe565b5060a083015184820360a0860152612bd98282612b24565b9150508091505092915050565b60006020820190508181036000830152612c008184612b5d565b905092915050565b600081519050612c1781611dbe565b92915050565b600060208284031215612c3357612c32611db4565b5b6000612c4184828501612c08565b91505092915050565b7f4f6e6c792063616c6c61626c65206279206f776e657200000000000000000000600082015250565b6000612c8060168361221d565b9150612c8b82612c4a565b602082019050919050565b60006020820190508181036000830152612caf81612c73565b9050919050565b7f43616e6e6f74207472616e7366657220746f2073656c66000000000000000000600082015250565b6000612cec60178361221d565b9150612cf782612cb6565b602082019050919050565b60006020820190508181036000830152612d1b81612cdf565b9050919050565b612d2b81611e17565b82525050565b602082016000820151612d476000850182612d22565b50505050565b6000602082019050612d626000830184612d31565b9291505056fea2646970667358221220705aca8d7605358a3a5e8b8b2e0845d9935ec41cb3548eeefa6ccfa9d4a53d9d64736f6c63430008140033",
  "linkReferences": {},
  "deployedLinkReferences": {}
}