{
  "_format": "hh-sol-artifact-1",
  "contractName": "Bittery",
  "sourceName": "contracts/Bittery.sol",
  "abi": [
    {
      "inputs": [
        {
          "internalType": "address",
          "name": "_coordinator",
          "type": "address"
        },
        {
          "internalType": "uint256",
          "name": "_subscriptionId",
          "type": "uint256"
        },
        {
          "internalType": "bytes32",
          "name": "_keyHash",
          "type": "bytes32"
        },
        {
          "internalType": "address",
          "name": "_feeRecipient",
          "type": "address"
        }
      ],
      "stateMutability": "nonpayable",
      "type": "constructor"
    },
    {
      "inputs": [],
      "name": "EnforcedPause",
      "type": "error"
    },
    {
      "inputs": [],
      "name": "ExpectedPause",
      "type": "error"
    },
    {
      "inputs": [
        {
          "internalType": "address",
          "name": "have",
          "type": "address"
        },
        {
          "internalType": "address",
          "name": "want",
          "type": "address"
        }
      ],
      "name": "OnlyCoordinatorCanFulfill",
      "type": "error"
    },
    {
      "inputs": [
        {
          "internalType": "address",
          "name": "have",
          "type": "address"
        },
        {
          "internalType": "address",
          "name": "owner",
          "type": "address"
        },
        {
          "internalType": "address",
          "name": "coordinator",
          "type": "address"
        }
      ],
      "name": "OnlyOwnerOrCoordinator",
      "type": "error"
    },
    {
      "inputs": [],
      "name": "ReentrancyGuardReentrantCall",
      "type": "error"
    },
    {
      "inputs": [],
      "name": "ZeroAddress",
      "type": "error"
    },
    {
      "anonymous": false,
      "inputs": [
        {
          "indexed": false,
          "internalType": "address",
          "name": "vrfCoordinator",
          "type": "address"
        }
      ],
      "name": "CoordinatorSet",
      "type": "event"
    },
    {
      "anonymous": false,
      "inputs": [
        {
          "indexed": true,
          "internalType": "address",
          "name": "from",
          "type": "address"
        },
        {
          "indexed": true,
          "internalType": "address",
          "name": "to",
          "type": "address"
        }
      ],
      "name": "OwnershipTransferRequested",
      "type": "event"
    },
    {
      "anonymous": false,
      "inputs": [
        {
          "indexed": true,
          "internalType": "address",
          "name": "from",
          "type": "address"
        },
        {
          "indexed": true,
          "internalType": "address",
          "name": "to",
          "type": "address"
        }
      ],
      "name": "OwnershipTransferred",
      "type": "event"
    },
    {
      "anonymous": false,
      "inputs": [
        {
          "indexed": false,
          "internalType": "address",
          "name": "account",
          "type": "address"
        }
      ],
      "name": "Paused",
      "type": "event"
    },
    {
      "anonymous": false,
      "inputs": [
        {
          "indexed": true,
          "internalType": "uint256",
          "name": "roomId",
          "type": "uint256"
        },
        {
          "indexed": false,
          "internalType": "uint256",
          "name": "price",
          "type": "uint256"
        },
        {
          "indexed": false,
          "internalType": "uint256",
          "name": "maxPlayers",
          "type": "uint256"
        },
        {
          "indexed": false,
          "internalType": "address",
          "name": "paymentToken",
          "type": "address"
        }
      ],
      "name": "RoomCreated",
      "type": "event"
    },
    {
      "anonymous": false,
      "inputs": [
        {
          "indexed": true,
          "internalType": "uint256",
          "name": "roomId",
          "type": "uint256"
        }
      ],
      "name": "RoomExpired",
      "type": "event"
    },
    {
      "anonymous": false,
      "inputs": [
        {
          "indexed": true,
          "internalType": "uint256",
          "name": "roomId",
          "type": "uint256"
        }
      ],
      "name": "RoomRefunded",
      "type": "event"
    },
    {
      "anonymous": false,
      "inputs": [
        {
          "indexed": true,
          "internalType": "uint256",
          "name": "roomId",
          "type": "uint256"
        },
        {
          "indexed": true,
          "internalType": "address",
          "name": "player",
          "type": "address"
        },
        {
          "indexed": false,
          "internalType": "address",
          "name": "referrer",
          "type": "address"
        }
      ],
      "name": "TicketBought",
      "type": "event"
    },
    {
      "anonymous": false,
      "inputs": [
        {
          "indexed": false,
          "internalType": "address",
          "name": "account",
          "type": "address"
        }
      ],
      "name": "Unpaused",
      "type": "event"
    },
    {
      "anonymous": false,
      "inputs": [
        {
          "indexed": true,
          "internalType": "uint256",
          "name": "roomId",
          "type": "uint256"
        },
        {
          "indexed": true,
          "internalType": "address",
          "name": "winner",
          "type": "address"
        }
      ],
      "name": "WinnerPicked",
      "type": "event"
    },
    {
      "anonymous": false,
      "inputs": [
        {
          "indexed": true,
          "internalType": "address",
          "name": "to",
          "type": "address"
        },
        {
          "indexed": false,
          "internalType": "uint256",
          "name": "amount",
          "type": "uint256"
        }
      ],
      "name": "Withdraw",
      "type": "event"
    },
    {
      "inputs": [],
      "name": "ROOM_EXPIRY",
      "outputs": [
        {
          "internalType": "uint256",
          "name": "",
          "type": "uint256"
        }
      ],
      "stateMutability": "view",
      "type": "function"
    },
    {
      "inputs": [],
      "name": "acceptOwnership",
      "outputs": [],
      "stateMutability": "nonpayable",
      "type": "function"
    },
    {
      "inputs": [
        {
          "internalType": "uint256",
          "name": "amount",
          "type": "uint256"
        }
      ],
      "name": "adminWithdraw",
      "outputs": [],
      "stateMutability": "nonpayable",
      "type": "function"
    },
    {
      "inputs": [
        {
          "internalType": "uint256",
          "name": "roomId",
          "type": "uint256"
        },
        {
          "internalType": "address",
          "name": "referrer",
          "type": "address"
        }
      ],
      "name": "buyTicket",
      "outputs": [],
      "stateMutability": "payable",
      "type": "function"
    },
    {
      "inputs": [
        {
          "internalType": "uint256",
          "name": "ticketPrice",
          "type": "uint256"
        },
        {
          "internalType": "uint256",
          "name": "maxPlayers",
          "type": "uint256"
        },
        {
          "internalType": "address",
          "name": "paymentToken",
          "type": "address"
        }
      ],
      "name": "createRoom",
      "outputs": [],
      "stateMutability": "nonpayable",
      "type": "function"
    },
    {
      "inputs": [],
      "name": "feePercent",
      "outputs": [
        {
          "internalType": "uint256",
          "name": "",
          "type": "uint256"
        }
      ],
      "stateMutability": "view",
      "type": "function"
    },
    {
      "inputs": [],
      "name": "feeRecipient",
      "outputs": [
        {
          "internalType": "address",
          "name": "",
          "type": "address"
        }
      ],
      "stateMutability": "view",
      "type": "function"
    },
    {
      "inputs": [],
      "name": "getFeePercent",
      "outputs": [
        {
          "internalType": "uint256",
          "name": "",
          "type": "uint256"
        }
      ],
      "stateMutability": "view",
      "type": "function"
    },
    {
      "inputs": [],
      "name": "getFeeRecipient",
      "outputs": [
        {
          "internalType": "address",
          "name": "",
          "type": "address"
        }
      ],
      "stateMutability": "view",
      "type": "function"
    },
    {
      "inputs": [],
      "name": "getNextRoomId",
      "outputs": [
        {
          "internalType": "uint256",
          "name": "",
          "type": "uint256"
        }
      ],
      "stateMutability": "view",
      "type": "function"
    },
    {
      "inputs": [],
      "name": "getReferralPercent",
      "outputs": [
        {
          "internalType": "uint256",
          "name": "",
          "type": "uint256"
        }
      ],
      "stateMutability": "view",
      "type": "function"
    },
    {
      "inputs": [
        {
          "internalType": "uint256",
          "name": "roomId",
          "type": "uint256"
        }
      ],
      "name": "getRoom",
      "outputs": [
        {
          "components": [
            {
              "internalType": "uint256",
              "name": "id",
              "type": "uint256"
            },
            {
              "internalType": "uint256",
              "name": "ticketPrice",
              "type": "uint256"
            },
            {
              "internalType": "uint256",
              "name": "maxPlayers",
              "type": "uint256"
            },
            {
              "internalType": "address[]",
              "name": "players",
              "type": "address[]"
            },
            {
              "internalType": "bool",
              "name": "drawing",
              "type": "bool"
            },
            {
              "internalType": "address",
              "name": "winner",
              "type": "address"
            },
            {
              "internalType": "uint256",
              "name": "createdAt",
              "type": "uint256"
            },
            {
              "internalType": "bool",
              "name": "expired",
              "type": "bool"
            },
            {
              "internalType": "bool",
              "name": "refunded",
              "type": "bool"
            },
            {
              "internalType": "address",
              "name": "paymentToken",
              "type": "address"
            }
          ],
          "internalType": "struct Bittery.Room",
          "name": "",
          "type": "tuple"
        }
      ],
      "stateMutability": "view",
      "type": "function"
    },
    {
      "inputs": [
        {
          "internalType": "uint256",
          "name": "roomId",
          "type": "uint256"
        }
      ],
      "name": "getRoomPlayers",
      "outputs": [
        {
          "internalType": "address[]",
          "name": "",
          "type": "address[]"
        }
      ],
      "stateMutability": "view",
      "type": "function"
    },
    {
      "inputs": [],
      "name": "getWinners",
      "outputs": [
        {
          "internalType": "address[]",
          "name": "",
          "type": "address[]"
        }
      ],
      "stateMutability": "view",
      "type": "function"
    },
    {
      "inputs": [
        {
          "internalType": "uint256",
          "name": "",
          "type": "uint256"
        }
      ],
      "name": "globalWinners",
      "outputs": [
        {
          "internalType": "address",
          "name": "",
          "type": "address"
        }
      ],
      "stateMutability": "view",
      "type": "function"
    },
    {
      "inputs": [],
      "name": "nextRoomId",
      "outputs": [
        {
          "internalType": "uint256",
          "name": "",
          "type": "uint256"
        }
      ],
      "stateMutability": "view",
      "type": "function"
    },
    {
      "inputs": [],
      "name": "owner",
      "outputs": [
        {
          "internalType": "address",
          "name": "",
          "type": "address"
        }
      ],
      "stateMutability": "view",
      "type": "function"
    },
    {
      "inputs": [],
      "name": "pause",
      "outputs": [],
      "stateMutability": "nonpayable",
      "type": "function"
    },
    {
      "inputs": [],
      "name": "paused",
      "outputs": [
        {
          "internalType": "bool",
          "name": "",
          "type": "bool"
        }
      ],
      "stateMutability": "view",
      "type": "function"
    },
    {
      "inputs": [
        {
          "internalType": "address",
          "name": "dest",
          "type": "address"
        }
      ],
      "name": "payments",
      "outputs": [
        {
          "internalType": "uint256",
          "name": "",
          "type": "uint256"
        }
      ],
      "stateMutability": "view",
      "type": "function"
    },
    {
      "inputs": [
        {
          "internalType": "uint256",
          "name": "requestId",
          "type": "uint256"
        },
        {
          "internalType": "uint256[]",
          "name": "randomWords",
          "type": "uint256[]"
        }
      ],
      "name": "rawFulfillRandomWords",
      "outputs": [],
      "stateMutability": "nonpayable",
      "type": "function"
    },
    {
      "inputs": [],
      "name": "referralPercent",
      "outputs": [
        {
          "internalType": "uint256",
          "name": "",
          "type": "uint256"
        }
      ],
      "stateMutability": "view",
      "type": "function"
    },
    {
      "inputs": [
        {
          "internalType": "uint256",
          "name": "roomId",
          "type": "uint256"
        }
      ],
      "name": "refundExpiredRoom",
      "outputs": [],
      "stateMutability": "nonpayable",
      "type": "function"
    },
    {
      "inputs": [
        {
          "internalType": "uint256",
          "name": "",
          "type": "uint256"
        }
      ],
      "name": "requestToRoomId",
      "outputs": [
        {
          "internalType": "uint256",
          "name": "",
          "type": "uint256"
        }
      ],
      "stateMutability": "view",
      "type": "function"
    },
    {
      "inputs": [
        {
          "internalType": "uint256",
          "name": "",
          "type": "uint256"
        }
      ],
      "name": "rooms",
      "outputs": [
        {
          "internalType": "uint256",
          "name": "id",
          "type": "uint256"
        },
        {
          "internalType": "uint256",
          "name": "ticketPrice",
          "type": "uint256"
        },
        {
          "internalType": "uint256",
          "name": "maxPlayers",
          "type": "uint256"
        },
        {
          "internalType": "bool",
          "name": "drawing",
          "type": "bool"
        },
        {
          "internalType": "address",
          "name": "winner",
          "type": "address"
        },
        {
          "internalType": "uint256",
          "name": "createdAt",
          "type": "uint256"
        },
        {
          "internalType": "bool",
          "name": "expired",
          "type": "bool"
        },
        {
          "internalType": "bool",
          "name": "refunded",
          "type": "bool"
        },
        {
          "internalType": "address",
          "name": "paymentToken",
          "type": "address"
        }
      ],
      "stateMutability": "view",
      "type": "function"
    },
    {
      "inputs": [],
      "name": "s_vrfCoordinator",
      "outputs": [
        {
          "internalType": "contract IVRFCoordinatorV2Plus",
          "name": "",
          "type": "address"
        }
      ],
      "stateMutability": "view",
      "type": "function"
    },
    {
      "inputs": [
        {
          "internalType": "address",
          "name": "_vrfCoordinator",
          "type": "address"
        }
      ],
      "name": "setCoordinator",
      "outputs": [],
      "stateMutability": "nonpayable",
      "type": "function"
    },
    {
      "inputs": [
        {
          "internalType": "uint256",
          "name": "_feePercent",
          "type": "uint256"
        }
      ],
      "name": "setFeePercent",
      "outputs": [],
      "stateMutability": "nonpayable",
      "type": "function"
    },
    {
      "inputs": [
        {
          "internalType": "address",
          "name": "_feeRecipient",
          "type": "address"
        }
      ],
      "name": "setFeeRecipient",
      "outputs": [],
      "stateMutability": "nonpayable",
      "type": "function"
    },
    {
      "inputs": [
        {
          "internalType": "uint256",
          "name": "_referralPercent",
          "type": "uint256"
        }
      ],
      "name": "setReferralPercent",
      "outputs": [],
      "stateMutability": "nonpayable",
      "type": "function"
    },
    {
      "inputs": [
        {
          "internalType": "address",
          "name": "to",
          "type": "address"
        }
      ],
      "name": "transferOwnership",
      "outputs": [],
      "stateMutability": "nonpayable",
      "type": "function"
    },
    {
      "inputs": [
        {
          "internalType": "uint256",
          "name": "roomId",
          "type": "uint256"
        }
      ],
      "name": "triggerGlobalDraw",
      "outputs": [],
      "stateMutability": "nonpayable",
      "type": "function"
    },
    {
      "inputs": [],
      "name": "unpause",
      "outputs": [],
      "stateMutability": "nonpayable",
      "type": "function"
    },
    {
      "inputs": [
        {
          "internalType": "address payable",
          "name": "payee",
          "type": "address"
        }
      ],
      "name": "withdrawPayments",
      "outputs": [],
      "stateMutability": "nonpayable",
      "type": "function"
    }
  ],
  "bytecode": "60c06040526005805560326006553480156200001a57600080fd5b5060405162004b6738038062004b67833981810160405281019062000040919062000463565b83338060008073ffffffffffffffffffffffffffffffffffffffff168273ffffffffffffffffffffffffffffffffffffffff1603620000b6576040517f08c379a0000000000000000000000000000000000000000000000000000000008152600401620000ad9062000536565b60405180910390fd5b816000806101000a81548173ffffffffffffffffffffffffffffffffffffffff021916908373ffffffffffffffffffffffffffffffffffffffff160217905550600073ffffffffffffffffffffffffffffffffffffffff168173ffffffffffffffffffffffffffffffffffffffff16146200013d576200013c816200025460201b60201c565b5b505050600073ffffffffffffffffffffffffffffffffffffffff168173ffffffffffffffffffffffffffffffffffffffff1603620001a7576040517fd92e233d00000000000000000000000000000000000000000000000000000000815260040160405180910390fd5b80600260006101000a81548173ffffffffffffffffffffffffffffffffffffffff021916908373ffffffffffffffffffffffffffffffffffffffff16021790555050600160038190555082608081815250508160a0818152505080600760006101000a81548173ffffffffffffffffffffffffffffffffffffffff021916908373ffffffffffffffffffffffffffffffffffffffff160217905550600060088190555050505050620005ca565b3373ffffffffffffffffffffffffffffffffffffffff168173ffffffffffffffffffffffffffffffffffffffff1603620002c5576040517f08c379a0000000000000000000000000000000000000000000000000000000008152600401620002bc90620005a8565b60405180910390fd5b80600160006101000a81548173ffffffffffffffffffffffffffffffffffffffff021916908373ffffffffffffffffffffffffffffffffffffffff1602179055508073ffffffffffffffffffffffffffffffffffffffff1660008054906101000a900473ffffffffffffffffffffffffffffffffffffffff1673ffffffffffffffffffffffffffffffffffffffff167fed8889f560326eb138920d842192f0eb3dd22b4f139c87a2c57538e05bae127860405160405180910390a350565b600080fd5b600073ffffffffffffffffffffffffffffffffffffffff82169050919050565b6000620003b58262000388565b9050919050565b620003c781620003a8565b8114620003d357600080fd5b50565b600081519050620003e781620003bc565b92915050565b6000819050919050565b6200040281620003ed565b81146200040e57600080fd5b50565b6000815190506200042281620003f7565b92915050565b6000819050919050565b6200043d8162000428565b81146200044957600080fd5b50565b6000815190506200045d8162000432565b92915050565b6000806000806080858703121562000480576200047f62000383565b5b60006200049087828801620003d6565b9450506020620004a38782880162000411565b9350506040620004b6878288016200044c565b9250506060620004c987828801620003d6565b91505092959194509250565b600082825260208201905092915050565b7f43616e6e6f7420736574206f776e657220746f207a65726f0000000000000000600082015250565b60006200051e601883620004d5565b91506200052b82620004e6565b602082019050919050565b6000602082019050818103600083015262000551816200050f565b9050919050565b7f43616e6e6f74207472616e7366657220746f2073656c66000000000000000000600082015250565b600062000590601783620004d5565b91506200059d8262000558565b602082019050919050565b60006020820190508181036000830152620005c38162000581565b9050919050565b60805160a051614577620005f060003960006127fe0152600061282401526145776000f3fe6080604052600436106101f95760003560e01c80637c5b4a371161010d5780638ea98117116100a0578063be74264d1161006f578063be74264d146106e2578063df15c37e1461070d578063e2982c2114610738578063e74b981b14610775578063f2fde38b1461079e576101f9565b80638ea98117146106265780639381e6391461064f5780639ce438e41461068c5780639eccacf6146106b7576101f9565b80637fd6f15c116100dc5780637fd6f15c146105905780638456cb59146105bb57806386d076ae146105d25780638da5cb5b146105fb576101f9565b80637c5b4a37146104ea5780637ce3489b146105135780637e3949881461053c5780637f93f93214610565576101f9565b80633f4ba83a116101905780635c975abb1161015f5780635c975abb146104265780636129f25f1461045157806362a845ec1461047a5780636d8a74cb1461049657806379ba5097146104d3576101f9565b80633f4ba83a1461037c57806343925cc31461039357806346904840146103d05780634ccb20c0146103fb576101f9565b80632db54eb8116101cc5780632db54eb8146102d457806330507fd1146102fd57806331b3eb9414610328578063343dfb7e14610351576101f9565b806307a52cab146101fe57806308aa0cd3146102295780631bae0ac8146102665780631fe543e3146102ab575b600080fd5b34801561020a57600080fd5b506102136107c7565b6040516102209190612c71565b60405180910390f35b34801561023557600080fd5b50610250600480360381019061024b9190612cc2565b6107cd565b60405161025d9190612c71565b60405180910390f35b34801561027257600080fd5b5061028d60048036038101906102889190612cc2565b6107e5565b6040516102a299989796959493929190612d4b565b60405180910390f35b3480156102b757600080fd5b506102d260048036038101906102cd9190612e3d565b61089a565b005b3480156102e057600080fd5b506102fb60048036038101906102f69190612ec9565b610960565b005b34801561030957600080fd5b50610312610b45565b60405161031f9190612c71565b60405180910390f35b34801561033457600080fd5b5061034f600480360381019061034a9190612f5a565b610b4c565b005b34801561035d57600080fd5b50610366610d27565b6040516103739190612c71565b60405180910390f35b34801561038857600080fd5b50610391610d2d565b005b34801561039f57600080fd5b506103ba60048036038101906103b59190612cc2565b610d3f565b6040516103c79190613045565b60405180910390f35b3480156103dc57600080fd5b506103e5610de3565b6040516103f29190613067565b60405180910390f35b34801561040757600080fd5b50610410610e09565b60405161041d9190613067565b60405180910390f35b34801561043257600080fd5b5061043b610e33565b6040516104489190613082565b60405180910390f35b34801561045d57600080fd5b5061047860048036038101906104739190612cc2565b610e4a565b005b610494600480360381019061048f919061309d565b610ea0565b005b3480156104a257600080fd5b506104bd60048036038101906104b89190612cc2565b61151e565b6040516104ca9190613244565b60405180910390f35b3480156104df57600080fd5b506104e86116ff565b005b3480156104f657600080fd5b50610511600480360381019061050c9190612cc2565b611894565b005b34801561051f57600080fd5b5061053a60048036038101906105359190612cc2565b6119ed565b005b34801561054857600080fd5b50610563600480360381019061055e9190612cc2565b611a43565b005b34801561057157600080fd5b5061057a611bbf565b6040516105879190612c71565b60405180910390f35b34801561059c57600080fd5b506105a5611bc9565b6040516105b29190612c71565b60405180910390f35b3480156105c757600080fd5b506105d0611bcf565b005b3480156105de57600080fd5b506105f960048036038101906105f49190612cc2565b611be1565b005b34801561060757600080fd5b50610610611e4d565b60405161061d9190613067565b60405180910390f35b34801561063257600080fd5b5061064d60048036038101906106489190613266565b611e76565b005b34801561065b57600080fd5b5061067660048036038101906106719190612cc2565b612057565b6040516106839190613067565b60405180910390f35b34801561069857600080fd5b506106a1612096565b6040516106ae9190612c71565b60405180910390f35b3480156106c357600080fd5b506106cc6120a0565b6040516106d991906132f2565b60405180910390f35b3480156106ee57600080fd5b506106f76120c6565b6040516107049190612c71565b60405180910390f35b34801561071957600080fd5b506107226120d0565b60405161072f9190613045565b60405180910390f35b34801561074457600080fd5b5061075f600480360381019061075a9190613266565b61215e565b60405161076c9190612c71565b60405180910390f35b34801561078157600080fd5b5061079c60048036038101906107979190613266565b6121a7565b005b3480156107aa57600080fd5b506107c560048036038101906107c09190613266565b612262565b005b60085481565b600a6020528060005260406000206000915090505481565b60096020528060005260406000206000915090508060000154908060010154908060020154908060040160009054906101000a900460ff16908060040160019054906101000a900473ffffffffffffffffffffffffffffffffffffffff16908060050154908060060160009054906101000a900460ff16908060060160019054906101000a900460ff16908060060160029054906101000a900473ffffffffffffffffffffffffffffffffffffffff16905089565b600260009054906101000a900473ffffffffffffffffffffffffffffffffffffffff1673ffffffffffffffffffffffffffffffffffffffff163373ffffffffffffffffffffffffffffffffffffffff16146109505733600260009054906101000a900473ffffffffffffffffffffffffffffffffffffffff166040517f1cf993f400000000000000000000000000000000000000000000000000000000815260040161094792919061330d565b60405180910390fd5b61095b838383612276565b505050565b610968611e4d565b73ffffffffffffffffffffffffffffffffffffffff163373ffffffffffffffffffffffffffffffffffffffff16146109d5576040517f08c379a00000000000000000000000000000000000000000000000000000000081526004016109cc90613393565b60405180910390fd5b60008311610a18576040517f08c379a0000000000000000000000000000000000000000000000000000000008152600401610a0f906133ff565b60405180910390fd5b6000821480610a28575060028210155b610a67576040517f08c379a0000000000000000000000000000000000000000000000000000000008152600401610a5e9061346b565b60405180910390fd5b600060096000600854815260200190815260200160002090506008548160000181905550838160010181905550828160020181905550818160060160026101000a81548173ffffffffffffffffffffffffffffffffffffffff021916908373ffffffffffffffffffffffffffffffffffffffff1602179055504281600501819055506008547f04f628c9a49ceb1c4d7a9b98e302b3b8643606c856a4d469cb4279c80440a204858585604051610b1f9392919061348b565b60405180910390a260086000815480929190610b3a906134f1565b919050555050505050565b62093a8081565b610b5461255d565b6000600c60008373ffffffffffffffffffffffffffffffffffffffff1673ffffffffffffffffffffffffffffffffffffffff16815260200190815260200160002054905060008103610bdb576040517f08c379a0000000000000000000000000000000000000000000000000000000008152600401610bd290613585565b60405180910390fd5b6000600c60008473ffffffffffffffffffffffffffffffffffffffff1673ffffffffffffffffffffffffffffffffffffffff1681526020019081526020016000208190555060008273ffffffffffffffffffffffffffffffffffffffff1682604051610c46906135d6565b60006040518083038185875af1925050503d8060008114610c83576040519150601f19603f3d011682016040523d82523d6000602084013e610c88565b606091505b5050905080610ccc576040517f08c379a0000000000000000000000000000000000000000000000000000000008152600401610cc390613637565b60405180910390fd5b8273ffffffffffffffffffffffffffffffffffffffff167f884edad9ce6fa2440d8a54cc123490eb96d2768479d49ff9c7366125a942436483604051610d129190612c71565b60405180910390a25050610d246125a3565b50565b60065481565b610d356125ad565b610d3d61263d565b565b606060096000838152602001908152602001600020600301805480602002602001604051908101604052809291908181526020018280548015610dd757602002820191906000526020600020905b8160009054906101000a900473ffffffffffffffffffffffffffffffffffffffff1673ffffffffffffffffffffffffffffffffffffffff1681526020019060010190808311610d8d575b50505050509050919050565b600760009054906101000a900473ffffffffffffffffffffffffffffffffffffffff1681565b6000600760009054906101000a900473ffffffffffffffffffffffffffffffffffffffff16905090565b6000600460009054906101000a900460ff16905090565b610e526125ad565b6064811115610e96576040517f08c379a0000000000000000000000000000000000000000000000000000000008152600401610e8d906136a3565b60405180910390fd5b8060068190555050565b610ea861255d565b610eb06126a0565b60006009600084815260200190815260200160002090506000816001015411610f0e576040517f08c379a0000000000000000000000000000000000000000000000000000000008152600401610f059061370f565b60405180910390fd5b600073ffffffffffffffffffffffffffffffffffffffff168160060160029054906101000a900473ffffffffffffffffffffffffffffffffffffffff1673ffffffffffffffffffffffffffffffffffffffff1614610fa1576040517f08c379a0000000000000000000000000000000000000000000000000000000008152600401610f989061377b565b60405180910390fd5b8060040160009054906101000a900460ff1615610ff3576040517f08c379a0000000000000000000000000000000000000000000000000000000008152600401610fea906137e7565b60405180910390fd5b8060060160009054906101000a900460ff1615611045576040517f08c379a000000000000000000000000000000000000000000000000000000000815260040161103c90613853565b60405180910390fd5b8060060160019054906101000a900460ff1615611097576040517f08c379a000000000000000000000000000000000000000000000000000000000815260040161108e906138bf565b60405180910390fd5b6000816002015414806110b4575080600201548160030180549050105b6110f3576040517f08c379a00000000000000000000000000000000000000000000000000000000081526004016110ea9061392b565b60405180910390fd5b80600101543414611139576040517f08c379a000000000000000000000000000000000000000000000000000000000815260040161113090613997565b60405180910390fd5b3373ffffffffffffffffffffffffffffffffffffffff168273ffffffffffffffffffffffffffffffffffffffff16036111a7576040517f08c379a000000000000000000000000000000000000000000000000000000000815260040161119e90613a03565b60405180910390fd5b600081600201541180156111cc575062093a8081600501546111c99190613a23565b42115b156112565760018160060160006101000a81548160ff021916908315150217905550827f83670f4ac13332750b2132bdc7fa621d7fd7aef650805839de1e84262216a3e160405160405180910390a26040517f08c379a000000000000000000000000000000000000000000000000000000000815260040161124d90613853565b60405180910390fd5b60006064600554346112689190613a57565b6112729190613ac8565b905060008073ffffffffffffffffffffffffffffffffffffffff168473ffffffffffffffffffffffffffffffffffffffff1614611344576064600654836112b99190613a57565b6112c39190613ac8565b905060008473ffffffffffffffffffffffffffffffffffffffff1682604051806020016040528060008152506040516112fc9190613b5f565b60006040518083038185875af1925050503d8060008114611339576040519150601f19603f3d011682016040523d82523d6000602084013e61133e565b606091505b50509050505b600081836113529190613b76565b9050600081111561142d576000600760009054906101000a900473ffffffffffffffffffffffffffffffffffffffff1673ffffffffffffffffffffffffffffffffffffffff16826040516113a5906135d6565b60006040518083038185875af1925050503d80600081146113e2576040519150601f19603f3d011682016040523d82523d6000602084013e6113e7565b606091505b505090508061142b576040517f08c379a000000000000000000000000000000000000000000000000000000000815260040161142290613bf6565b60405180910390fd5b505b83600301339080600181540180825580915050600190039060005260206000200160009091909190916101000a81548173ffffffffffffffffffffffffffffffffffffffff021916908373ffffffffffffffffffffffffffffffffffffffff1602179055503373ffffffffffffffffffffffffffffffffffffffff16867f5b58cf3bfce2101b6bac355684e4c9f42297d0f95987e29036c73c13f97da727876040516114d99190613067565b60405180910390a3600084600201541180156114ff575083600201548460030180549050145b1561150e5761150d866126e1565b5b5050505061151a6125a3565b5050565b611526612bd3565b6009600083815260200190815260200160002060405180610140016040529081600082015481526020016001820154815260200160028201548152602001600382018054806020026020016040519081016040528092919081815260200182805480156115e857602002820191906000526020600020905b8160009054906101000a900473ffffffffffffffffffffffffffffffffffffffff1673ffffffffffffffffffffffffffffffffffffffff168152602001906001019080831161159e575b505050505081526020016004820160009054906101000a900460ff161515151581526020016004820160019054906101000a900473ffffffffffffffffffffffffffffffffffffffff1673ffffffffffffffffffffffffffffffffffffffff1673ffffffffffffffffffffffffffffffffffffffff168152602001600582015481526020016006820160009054906101000a900460ff161515151581526020016006820160019054906101000a900460ff161515151581526020016006820160029054906101000a900473ffffffffffffffffffffffffffffffffffffffff1673ffffffffffffffffffffffffffffffffffffffff1673ffffffffffffffffffffffffffffffffffffffff16815250509050919050565b600160009054906101000a900473ffffffffffffffffffffffffffffffffffffffff1673ffffffffffffffffffffffffffffffffffffffff163373ffffffffffffffffffffffffffffffffffffffff161461178f576040517f08c379a000000000000000000000000000000000000000000000000000000000815260040161178690613c62565b60405180910390fd5b60008060009054906101000a900473ffffffffffffffffffffffffffffffffffffffff169050336000806101000a81548173ffffffffffffffffffffffffffffffffffffffff021916908373ffffffffffffffffffffffffffffffffffffffff1602179055506000600160006101000a81548173ffffffffffffffffffffffffffffffffffffffff021916908373ffffffffffffffffffffffffffffffffffffffff1602179055503373ffffffffffffffffffffffffffffffffffffffff168173ffffffffffffffffffffffffffffffffffffffff167f8be0079c531659141344cd1fd0a4f28419497f9722a3daafe3b4186f6b6457e060405160405180910390a350565b61189c6125ad565b6118a461255d565b804710156118e7576040517f08c379a00000000000000000000000000000000000000000000000000000000081526004016118de90613cce565b60405180910390fd5b60003373ffffffffffffffffffffffffffffffffffffffff168260405161190d906135d6565b60006040518083038185875af1925050503d806000811461194a576040519150601f19603f3d011682016040523d82523d6000602084013e61194f565b606091505b5050905080611993576040517f08c379a000000000000000000000000000000000000000000000000000000000815260040161198a90613637565b60405180910390fd5b3373ffffffffffffffffffffffffffffffffffffffff167f884edad9ce6fa2440d8a54cc123490eb96d2768479d49ff9c7366125a9424364836040516119d99190612c71565b60405180910390a2506119ea6125a3565b50565b6119f56125ad565b6064811115611a39576040517f08c379a0000000000000000000000000000000000000000000000000000000008152600401611a3090613d3a565b60405180910390fd5b8060058190555050565b6000600960008381526020019081526020016000209050611a62611e4d565b73ffffffffffffffffffffffffffffffffffffffff163373ffffffffffffffffffffffffffffffffffffffff1614611acf576040517f08c379a0000000000000000000000000000000000000000000000000000000008152600401611ac690613da6565b60405180910390fd5b6000816002015414611b16576040517f08c379a0000000000000000000000000000000000000000000000000000000008152600401611b0d90613e12565b60405180910390fd5b8060040160009054906101000a900460ff1615611b68576040517f08c379a0000000000000000000000000000000000000000000000000000000008152600401611b5f906137e7565b60405180910390fd5b6001816003018054905011611bb2576040517f08c379a0000000000000000000000000000000000000000000000000000000008152600401611ba990613e7e565b60405180910390fd5b611bbb826126e1565b5050565b6000600654905090565b60055481565b611bd76125ad565b611bdf61290a565b565b611be96125ad565b611bf161255d565b60006009600083815260200190815260200160002090506000816002015411611c4f576040517f08c379a0000000000000000000000000000000000000000000000000000000008152600401611c4690613eea565b60405180910390fd5b8060060160019054906101000a900460ff1615611ca1576040517f08c379a0000000000000000000000000000000000000000000000000000000008152600401611c9890613f56565b60405180910390fd5b8060060160009054906101000a900460ff1680611ccf575062093a808160050154611ccc9190613a23565b42115b611d0e576040517f08c379a0000000000000000000000000000000000000000000000000000000008152600401611d0590613fc2565b60405180910390fd5b6000816003018054905011611d58576040517f08c379a0000000000000000000000000000000000000000000000000000000008152600401611d4f9061402e565b60405180910390fd5b60018160060160016101000a81548160ff021916908315150217905550600060646005546064611d889190613b76565b8360010154611d979190613a57565b611da19190613ac8565b905060005b8260030180549050811015611e1257611dff836003018281548110611dce57611dcd61404e565b5b9060005260206000200160009054906101000a900473ffffffffffffffffffffffffffffffffffffffff168361296d565b8080611e0a906134f1565b915050611da6565b50827f2266501136f5645e558b3e4750659d308e503e7fca2693e3ab049e7dcde4ec0b60405160405180910390a25050611e4a6125a3565b50565b60008060009054906101000a900473ffffffffffffffffffffffffffffffffffffffff16905090565b611e7e611e4d565b73ffffffffffffffffffffffffffffffffffffffff163373ffffffffffffffffffffffffffffffffffffffff1614158015611f075750600260009054906101000a900473ffffffffffffffffffffffffffffffffffffffff1673ffffffffffffffffffffffffffffffffffffffff163373ffffffffffffffffffffffffffffffffffffffff1614155b15611f765733611f15611e4d565b600260009054906101000a900473ffffffffffffffffffffffffffffffffffffffff166040517f061db9c1000000000000000000000000000000000000000000000000000000008152600401611f6d9392919061407d565b60405180910390fd5b600073ffffffffffffffffffffffffffffffffffffffff168173ffffffffffffffffffffffffffffffffffffffff1603611fdc576040517fd92e233d00000000000000000000000000000000000000000000000000000000815260040160405180910390fd5b80600260006101000a81548173ffffffffffffffffffffffffffffffffffffffff021916908373ffffffffffffffffffffffffffffffffffffffff1602179055507fd1a6a14209a385a964d036e404cb5cfb71f4000cdb03c9366292430787261be68160405161204c9190613067565b60405180910390a150565b600b818154811061206757600080fd5b906000526020600020016000915054906101000a900473ffffffffffffffffffffffffffffffffffffffff1681565b6000600854905090565b600260009054906101000a900473ffffffffffffffffffffffffffffffffffffffff1681565b6000600554905090565b6060600b80548060200260200160405190810160405280929190818152602001828054801561215457602002820191906000526020600020905b8160009054906101000a900473ffffffffffffffffffffffffffffffffffffffff1673ffffffffffffffffffffffffffffffffffffffff168152602001906001019080831161210a575b5050505050905090565b6000600c60008373ffffffffffffffffffffffffffffffffffffffff1673ffffffffffffffffffffffffffffffffffffffff168152602001908152602001600020549050919050565b6121af6125ad565b600073ffffffffffffffffffffffffffffffffffffffff168173ffffffffffffffffffffffffffffffffffffffff160361221e576040517f08c379a000000000000000000000000000000000000000000000000000000000815260040161221590614100565b60405180910390fd5b80600760006101000a81548173ffffffffffffffffffffffffffffffffffffffff021916908373ffffffffffffffffffffffffffffffffffffffff16021790555050565b61226a6125ad565b612273816129c7565b50565b600260009054906101000a900473ffffffffffffffffffffffffffffffffffffffff1673ffffffffffffffffffffffffffffffffffffffff163373ffffffffffffffffffffffffffffffffffffffff1614612306576040517f08c379a00000000000000000000000000000000000000000000000000000000081526004016122fd9061416c565b60405180910390fd5b6000600a600085815260200190815260200160002054905060006009600083815260200190815260200160002090508060040160009054906101000a900460ff16612386576040517f08c379a000000000000000000000000000000000000000000000000000000000815260040161237d906141d8565b60405180910390fd5b60008160030180549050858560008181106123a4576123a361404e565b5b905060200201356123b591906141f8565b905060008260030182815481106123cf576123ce61404e565b5b9060005260206000200160009054906101000a900473ffffffffffffffffffffffffffffffffffffffff169050808360040160016101000a81548173ffffffffffffffffffffffffffffffffffffffff021916908373ffffffffffffffffffffffffffffffffffffffff16021790555060008360040160006101000a81548160ff0219169083151502179055506000836003018054905084600101546124759190613a57565b905060006064600554606461248a9190613b76565b836124959190613a57565b61249f9190613ac8565b90506124ab838261296d565b600b839080600181540180825580915050600190039060005260206000200160009091909190916101000a81548173ffffffffffffffffffffffffffffffffffffffff021916908373ffffffffffffffffffffffffffffffffffffffff1602179055508273ffffffffffffffffffffffffffffffffffffffff16867f7286599a58b2822d6e330944038c6d3424134069b04156404050720b942d87ee60405160405180910390a3505050505050505050565b600260035403612599576040517f3ee5aeb500000000000000000000000000000000000000000000000000000000815260040160405180910390fd5b6002600381905550565b6001600381905550565b60008054906101000a900473ffffffffffffffffffffffffffffffffffffffff1673ffffffffffffffffffffffffffffffffffffffff163373ffffffffffffffffffffffffffffffffffffffff161461263b576040517f08c379a000000000000000000000000000000000000000000000000000000000815260040161263290614275565b60405180910390fd5b565b612645612af3565b6000600460006101000a81548160ff0219169083151502179055507f5db9ee0a495bf2e6ff9c91a7834c1ba4fdd244a5e8aa4e537bd38aeae4b073aa612689612b33565b6040516126969190613067565b60405180910390a1565b6126a8610e33565b156126df576040517fd93c066500000000000000000000000000000000000000000000000000000000815260040160405180910390fd5b565b60006009600083815260200190815260200160002090508060040160009054906101000a900460ff161561274a576040517f08c379a0000000000000000000000000000000000000000000000000000000008152600401612741906142e1565b60405180910390fd5b6001816003018054905011612794576040517f08c379a000000000000000000000000000000000000000000000000000000000815260040161278b90613e7e565b60405180910390fd5b60018160040160006101000a81548160ff0219169083151502179055506000600260009054906101000a900473ffffffffffffffffffffffffffffffffffffffff1673ffffffffffffffffffffffffffffffffffffffff16639b1c385e6040518060c001604052807f000000000000000000000000000000000000000000000000000000000000000081526020017f00000000000000000000000000000000000000000000000000000000000000008152602001600361ffff168152602001620186a063ffffffff168152602001600163ffffffff168152602001612889604051806020016040528060001515815250612b3b565b8152506040518263ffffffff1660e01b81526004016128a8919061443a565b6020604051808303816000875af11580156128c7573d6000803e3d6000fd5b505050506040513d601f19601f820116820180604052508101906128eb9190614471565b905082600a600083815260200190815260200160002081905550505050565b6129126126a0565b6001600460006101000a81548160ff0219169083151502179055507f62e78cea01bee320cd4e420270b5ea74000d11b0c9f74754ebdbfc544b05a258612956612b33565b6040516129639190613067565b60405180910390a1565b80600c60008473ffffffffffffffffffffffffffffffffffffffff1673ffffffffffffffffffffffffffffffffffffffff16815260200190815260200160002060008282546129bc9190613a23565b925050819055505050565b3373ffffffffffffffffffffffffffffffffffffffff168173ffffffffffffffffffffffffffffffffffffffff1603612a35576040517f08c379a0000000000000000000000000000000000000000000000000000000008152600401612a2c906144ea565b60405180910390fd5b80600160006101000a81548173ffffffffffffffffffffffffffffffffffffffff021916908373ffffffffffffffffffffffffffffffffffffffff1602179055508073ffffffffffffffffffffffffffffffffffffffff1660008054906101000a900473ffffffffffffffffffffffffffffffffffffffff1673ffffffffffffffffffffffffffffffffffffffff167fed8889f560326eb138920d842192f0eb3dd22b4f139c87a2c57538e05bae127860405160405180910390a350565b612afb610e33565b612b31576040517f8dfc202b00000000000000000000000000000000000000000000000000000000815260040160405180910390fd5b565b600033905090565b60607f92fd13387c7fe7befbc38d303d6468778fb9731bc4583f17d92989c6fcfdeaaa82604051602401612b6f9190614526565b604051602081830303815290604052907bffffffffffffffffffffffffffffffffffffffffffffffffffffffff19166020820180517bffffffffffffffffffffffffffffffffffffffffffffffffffffffff83818316178352505050509050919050565b60405180610140016040528060008152602001600081526020016000815260200160608152602001600015158152602001600073ffffffffffffffffffffffffffffffffffffffff16815260200160008152602001600015158152602001600015158152602001600073ffffffffffffffffffffffffffffffffffffffff1681525090565b6000819050919050565b612c6b81612c58565b82525050565b6000602082019050612c866000830184612c62565b92915050565b600080fd5b600080fd5b612c9f81612c58565b8114612caa57600080fd5b50565b600081359050612cbc81612c96565b92915050565b600060208284031215612cd857612cd7612c8c565b5b6000612ce684828501612cad565b91505092915050565b60008115159050919050565b612d0481612cef565b82525050565b600073ffffffffffffffffffffffffffffffffffffffff82169050919050565b6000612d3582612d0a565b9050919050565b612d4581612d2a565b82525050565b600061012082019050612d61600083018c612c62565b612d6e602083018b612c62565b612d7b604083018a612c62565b612d886060830189612cfb565b612d956080830188612d3c565b612da260a0830187612c62565b612daf60c0830186612cfb565b612dbc60e0830185612cfb565b612dca610100830184612d3c565b9a9950505050505050505050565b600080fd5b600080fd5b600080fd5b60008083601f840112612dfd57612dfc612dd8565b5b8235905067ffffffffffffffff811115612e1a57612e19612ddd565b5b602083019150836020820283011115612e3657612e35612de2565b5b9250929050565b600080600060408486031215612e5657612e55612c8c565b5b6000612e6486828701612cad565b935050602084013567ffffffffffffffff811115612e8557612e84612c91565b5b612e9186828701612de7565b92509250509250925092565b612ea681612d2a565b8114612eb157600080fd5b50565b600081359050612ec381612e9d565b92915050565b600080600060608486031215612ee257612ee1612c8c565b5b6000612ef086828701612cad565b9350506020612f0186828701612cad565b9250506040612f1286828701612eb4565b9150509250925092565b6000612f2782612d0a565b9050919050565b612f3781612f1c565b8114612f4257600080fd5b50565b600081359050612f5481612f2e565b92915050565b600060208284031215612f7057612f6f612c8c565b5b6000612f7e84828501612f45565b91505092915050565b600081519050919050565b600082825260208201905092915050565b6000819050602082019050919050565b612fbc81612d2a565b82525050565b6000612fce8383612fb3565b60208301905092915050565b6000602082019050919050565b6000612ff282612f87565b612ffc8185612f92565b935061300783612fa3565b8060005b8381101561303857815161301f8882612fc2565b975061302a83612fda565b92505060018101905061300b565b5085935050505092915050565b6000602082019050818103600083015261305f8184612fe7565b905092915050565b600060208201905061307c6000830184612d3c565b92915050565b60006020820190506130976000830184612cfb565b92915050565b600080604083850312156130b4576130b3612c8c565b5b60006130c285828601612cad565b92505060206130d385828601612eb4565b9150509250929050565b6130e681612c58565b82525050565b600082825260208201905092915050565b600061310882612f87565b61311281856130ec565b935061311d83612fa3565b8060005b8381101561314e5781516131358882612fc2565b975061314083612fda565b925050600181019050613121565b5085935050505092915050565b61316481612cef565b82525050565b60006101408301600083015161318360008601826130dd565b50602083015161319660208601826130dd565b5060408301516131a960408601826130dd565b50606083015184820360608601526131c182826130fd565b91505060808301516131d6608086018261315b565b5060a08301516131e960a0860182612fb3565b5060c08301516131fc60c08601826130dd565b5060e083015161320f60e086018261315b565b5061010083015161322461010086018261315b565b50610120830151613239610120860182612fb3565b508091505092915050565b6000602082019050818103600083015261325e818461316a565b905092915050565b60006020828403121561327c5761327b612c8c565b5b600061328a84828501612eb4565b91505092915050565b6000819050919050565b60006132b86132b36132ae84612d0a565b613293565b612d0a565b9050919050565b60006132ca8261329d565b9050919050565b60006132dc826132bf565b9050919050565b6132ec816132d1565b82525050565b600060208201905061330760008301846132e3565b92915050565b60006040820190506133226000830185612d3c565b61332f6020830184612d3c565b9392505050565b600082825260208201905092915050565b7f4f6e6c79206f776e657200000000000000000000000000000000000000000000600082015250565b600061337d600a83613336565b915061338882613347565b602082019050919050565b600060208201905081810360008301526133ac81613370565b9050919050565b7f496e76616c696420707269636500000000000000000000000000000000000000600082015250565b60006133e9600d83613336565b91506133f4826133b3565b602082019050919050565b60006020820190508181036000830152613418816133dc565b9050919050565b7f4d696e203220706c6179657273206f72203020666f7220676c6f62616c000000600082015250565b6000613455601d83613336565b91506134608261341f565b602082019050919050565b6000602082019050818103600083015261348481613448565b9050919050565b60006060820190506134a06000830186612c62565b6134ad6020830185612c62565b6134ba6040830184612d3c565b949350505050565b7f4e487b7100000000000000000000000000000000000000000000000000000000600052601160045260246000fd5b60006134fc82612c58565b91507fffffffffffffffffffffffffffffffffffffffffffffffffffffffffffffffff820361352e5761352d6134c2565b5b600182019050919050565b7f4e6f2066756e647320746f207769746864726177000000000000000000000000600082015250565b600061356f601483613336565b915061357a82613539565b602082019050919050565b6000602082019050818103600083015261359e81613562565b9050919050565b600081905092915050565b50565b60006135c06000836135a5565b91506135cb826135b0565b600082019050919050565b60006135e1826135b3565b9150819050919050565b7f5769746864726177206661696c65640000000000000000000000000000000000600082015250565b6000613621600f83613336565b915061362c826135eb565b602082019050919050565b6000602082019050818103600083015261365081613614565b9050919050565b7f526566657272616c2070657263656e7420746f6f206869676800000000000000600082015250565b600061368d601983613336565b915061369882613657565b602082019050919050565b600060208201905081810360008301526136bc81613680565b9050919050565b7f526f6f6d20646f6573206e6f7420657869737400000000000000000000000000600082015250565b60006136f9601383613336565b9150613704826136c3565b602082019050919050565b60006020820190508181036000830152613728816136ec565b9050919050565b7f4552433230206e6f7420737570706f7274656420796574000000000000000000600082015250565b6000613765601783613336565b91506137708261372f565b602082019050919050565b6000602082019050818103600083015261379481613758565b9050919050565b7f4472617720696e2070726f677265737300000000000000000000000000000000600082015250565b60006137d1601083613336565b91506137dc8261379b565b602082019050919050565b60006020820190508181036000830152613800816137c4565b9050919050565b7f526f6f6d20657870697265640000000000000000000000000000000000000000600082015250565b600061383d600c83613336565b915061384882613807565b602082019050919050565b6000602082019050818103600083015261386c81613830565b9050919050565b7f526f6f6d20616c726561647920726566756e6465640000000000000000000000600082015250565b60006138a9601583613336565b91506138b482613873565b602082019050919050565b600060208201905081810360008301526138d88161389c565b9050919050565b7f526f6f6d2066756c6c0000000000000000000000000000000000000000000000600082015250565b6000613915600983613336565b9150613920826138df565b602082019050919050565b6000602082019050818103600083015261394481613908565b9050919050565b7f496e636f7272656374204554482073656e740000000000000000000000000000600082015250565b6000613981601283613336565b915061398c8261394b565b602082019050919050565b600060208201905081810360008301526139b081613974565b9050919050565b7f43616e6e6f7420726566657220796f757273656c660000000000000000000000600082015250565b60006139ed601583613336565b91506139f8826139b7565b602082019050919050565b60006020820190508181036000830152613a1c816139e0565b9050919050565b6000613a2e82612c58565b9150613a3983612c58565b9250828201905080821115613a5157613a506134c2565b5b92915050565b6000613a6282612c58565b9150613a6d83612c58565b9250828202613a7b81612c58565b91508282048414831517613a9257613a916134c2565b5b5092915050565b7f4e487b7100000000000000000000000000000000000000000000000000000000600052601260045260246000fd5b6000613ad382612c58565b9150613ade83612c58565b925082613aee57613aed613a99565b5b828204905092915050565b600081519050919050565b60005b83811015613b22578082015181840152602081019050613b07565b60008484015250505050565b6000613b3982613af9565b613b4381856135a5565b9350613b53818560208601613b04565b80840191505092915050565b6000613b6b8284613b2e565b915081905092915050565b6000613b8182612c58565b9150613b8c83612c58565b9250828203905081811115613ba457613ba36134c2565b5b92915050565b7f466565207472616e73666572206661696c656400000000000000000000000000600082015250565b6000613be0601383613336565b9150613beb82613baa565b602082019050919050565b60006020820190508181036000830152613c0f81613bd3565b9050919050565b7f4d7573742062652070726f706f736564206f776e657200000000000000000000600082015250565b6000613c4c601683613336565b9150613c5782613c16565b602082019050919050565b60006020820190508181036000830152613c7b81613c3f565b9050919050565b7f4e6f7420656e6f7567682062616c616e63650000000000000000000000000000600082015250565b6000613cb8601283613336565b9150613cc382613c82565b602082019050919050565b60006020820190508181036000830152613ce781613cab565b9050919050565b7f50657263656e7420746f6f206869676800000000000000000000000000000000600082015250565b6000613d24601083613336565b9150613d2f82613cee565b602082019050919050565b60006020820190508181036000830152613d5381613d17565b9050919050565b7f4f6e6c79206f776e65722f63726f6e0000000000000000000000000000000000600082015250565b6000613d90600f83613336565b9150613d9b82613d5a565b602082019050919050565b60006020820190508181036000830152613dbf81613d83565b9050919050565b7f4e6f74206120676c6f62616c20726f6f6d000000000000000000000000000000600082015250565b6000613dfc601183613336565b9150613e0782613dc6565b602082019050919050565b60006020820190508181036000830152613e2b81613def565b9050919050565b7f4e6f7420656e6f75676820706c61796572730000000000000000000000000000600082015250565b6000613e68601283613336565b9150613e7382613e32565b602082019050919050565b60006020820190508181036000830152613e9781613e5b565b9050919050565b7f4e6f742061207374616e6461726420726f6f6d00000000000000000000000000600082015250565b6000613ed4601383613336565b9150613edf82613e9e565b602082019050919050565b60006020820190508181036000830152613f0381613ec7565b9050919050565b7f416c726561647920726566756e64656400000000000000000000000000000000600082015250565b6000613f40601083613336565b9150613f4b82613f0a565b602082019050919050565b60006020820190508181036000830152613f6f81613f33565b9050919050565b7f4e6f742065787069726564207965740000000000000000000000000000000000600082015250565b6000613fac600f83613336565b9150613fb782613f76565b602082019050919050565b60006020820190508181036000830152613fdb81613f9f565b9050919050565b7f4e6f20706c617965727320746f20726566756e64000000000000000000000000600082015250565b6000614018601483613336565b915061402382613fe2565b602082019050919050565b600060208201905081810360008301526140478161400b565b9050919050565b7f4e487b7100000000000000000000000000000000000000000000000000000000600052603260045260246000fd5b60006060820190506140926000830186612d3c565b61409f6020830185612d3c565b6140ac6040830184612d3c565b949350505050565b7f496e76616c696420726563697069656e74000000000000000000000000000000600082015250565b60006140ea601183613336565b91506140f5826140b4565b602082019050919050565b60006020820190508181036000830152614119816140dd565b9050919050565b7f4f6e6c792056524620436f6f7264696e61746f72000000000000000000000000600082015250565b6000614156601483613336565b915061416182614120565b602082019050919050565b6000602082019050818103600083015261418581614149565b9050919050565b7f4e6f742064726177696e67000000000000000000000000000000000000000000600082015250565b60006141c2600b83613336565b91506141cd8261418c565b602082019050919050565b600060208201905081810360008301526141f1816141b5565b9050919050565b600061420382612c58565b915061420e83612c58565b92508261421e5761421d613a99565b5b828206905092915050565b7f4f6e6c792063616c6c61626c65206279206f776e657200000000000000000000600082015250565b600061425f601683613336565b915061426a82614229565b602082019050919050565b6000602082019050818103600083015261428e81614252565b9050919050565b7f416c72656164792064726177696e670000000000000000000000000000000000600082015250565b60006142cb600f83613336565b91506142d682614295565b602082019050919050565b600060208201905081810360008301526142fa816142be565b9050919050565b6000819050919050565b61431481614301565b82525050565b600061ffff82169050919050565b6143318161431a565b82525050565b600063ffffffff82169050919050565b61435081614337565b82525050565b600082825260208201905092915050565b6000601f19601f8301169050919050565b600061438382613af9565b61438d8185614356565b935061439d818560208601613b04565b6143a681614367565b840191505092915050565b600060c0830160008301516143c9600086018261430b565b5060208301516143dc60208601826130dd565b5060408301516143ef6040860182614328565b5060608301516144026060860182614347565b5060808301516144156080860182614347565b5060a083015184820360a086015261442d8282614378565b9150508091505092915050565b6000602082019050818103600083015261445481846143b1565b905092915050565b60008151905061446b81612c96565b92915050565b60006020828403121561448757614486612c8c565b5b60006144958482850161445c565b91505092915050565b7f43616e6e6f74207472616e7366657220746f2073656c66000000000000000000600082015250565b60006144d4601783613336565b91506144df8261449e565b602082019050919050565b60006020820190508181036000830152614503816144c7565b9050919050565b602082016000820151614520600085018261315b565b50505050565b600060208201905061453b600083018461450a565b9291505056fea264697066735822122091f13f01dd52895a2b7a2f2b97b8b749bb5d3bbb5950620a3c11baec2d2439f864736f6c63430008140033000000000000000000000000ec0ed46f36576541c75739e915adbcb3de24bd7754827d48d7559f12034aa3d9fdf14af39d4afe514eb8769d44932553cda575be0ffbbd0c1c18c0263dd778dadd1d64240d7bc338d95fec1cf0473928ca7eaf9e0000000000000000000000009ea7ebeb25192b6d7e8e240a852e7ec56d4fb865",
  "deployedBytecode": "0x6080604052600436106101f95760003560e01c80637c5b4a371161010d5780638ea98117116100a0578063be74264d1161006f578063be74264d146106e2578063df15c37e1461070d578063e2982c2114610738578063e74b981b14610775578063f2fde38b1461079e576101f9565b80638ea98117146106265780639381e6391461064f5780639ce438e41461068c5780639eccacf6146106b7576101f9565b80637fd6f15c116100dc5780637fd6f15c146105905780638456cb59146105bb57806386d076ae146105d25780638da5cb5b146105fb576101f9565b80637c5b4a37146104ea5780637ce3489b146105135780637e3949881461053c5780637f93f93214610565576101f9565b80633f4ba83a116101905780635c975abb1161015f5780635c975abb146104265780636129f25f1461045157806362a845ec1461047a5780636d8a74cb1461049657806379ba5097146104d3576101f9565b80633f4ba83a1461037c57806343925cc31461039357806346904840146103d05780634ccb20c0146103fb576101f9565b80632db54eb8116101cc5780632db54eb8146102d457806330507fd1146102fd57806331b3eb9414610328578063343dfb7e14610351576101f9565b806307a52cab146101fe57806308aa0cd3146102295780631bae0ac8146102665780631fe543e3146102ab575b600080fd5b34801561020a57600080fd5b506102136107c7565b6040516102209190612c71565b60405180910390f35b34801561023557600080fd5b50610250600480360381019061024b9190612cc2565b6107cd565b60405161025d9190612c71565b60405180910390f35b34801561027257600080fd5b5061028d60048036038101906102889190612cc2565b6107e5565b6040516102a299989796959493929190612d4b565b60405180910390f35b3480156102b757600080fd5b506102d260048036038101906102cd9190612e3d565b61089a565b005b3480156102e057600080fd5b506102fb60048036038101906102f69190612ec9565b610960565b005b34801561030957600080fd5b50610312610b45565b60405161031f9190612c71565b60405180910390f35b34801561033457600080fd5b5061034f600480360381019061034a9190612f5a565b610b4c565b005b34801561035d57600080fd5b50610366610d27565b6040516103739190612c71565b60405180910390f35b34801561038857600080fd5b50610391610d2d565b005b34801561039f57600080fd5b506103ba60048036038101906103b59190612cc2565b610d3f565b6040516103c79190613045565b60405180910390f35b3480156103dc57600080fd5b506103e5610de3565b6040516103f29190613067565b60405180910390f35b34801561040757600080fd5b50610410610e09565b60405161041d9190613067565b60405180910390f35b34801561043257600080fd5b5061043b610e33565b6040516104489190613082565b60405180910390f35b34801561045d57600080fd5b5061047860048036038101906104739190612cc2565b610e4a565b005b610494600480360381019061048f919061309d565b610ea0565b005b3480156104a257600080fd5b506104bd60048036038101906104b89190612cc2565b61151e565b6040516104ca9190613244565b60405180910390f35b3480156104df57600080fd5b506104e86116ff565b005b3480156104f657600080fd5b50610511600480360381019061050c9190612cc2565b611894565b005b34801561051f57600080fd5b5061053a60048036038101906105359190612cc2565b6119ed565b005b34801561054857600080fd5b50610563600480360381019061055e9190612cc2565b611a43565b005b34801561057157600080fd5b5061057a611bbf565b6040516105879190612c71565b60405180910390f35b34801561059c57600080fd5b506105a5611bc9565b6040516105b29190612c71565b60405180910390f35b3480156105c757600080fd5b506105d0611bcf565b005b3480156105de57600080fd5b506105f960048036038101906105f49190612cc2565b611be1565b005b34801561060757600080fd5b50610610611e4d565b60405161061d9190613067565b60405180910390f35b34801561063257600080fd5b5061064d60048036038101906106489190613266565b611e76565b005b34801561065b57600080fd5b5061067660048036038101906106719190612cc2565b612057565b6040516106839190613067565b60405180910390f35b34801561069857600080fd5b506106a1612096565b6040516106ae9190612c71565b60405180910390f35b3480156106c357600080fd5b506106cc6120a0565b6040516106d991906132f2565b60405180910390f35b3480156106ee57600080fd5b506106f76120c6565b6040516107049190612c71565b60405180910390f35b34801561071957600080fd5b506107226120d0565b60405161072f9190613045565b60405180910390f35b34801561074457600080fd5b5061075f600480360381019061075a9190613266565b61215e565b60405161076c9190612c71565b60405180910390f35b34801561078157600080fd5b5061079c60048036038101906107979190613266565b6121a7565b005b3480156107aa57600080fd5b506107c560048036038101906107c09190613266565b612262565b005b60085481565b600a6020528060005260406000206000915090505481565b60096020528060005260406000206000915090508060000154908060010154908060020154908060040160009054906101000a900460ff16908060040160019054906101000a900473ffffffffffffffffffffffffffffffffffffffff16908060050154908060060160009054906101000a900460ff16908060060160019054906101000a900460ff16908060060160029054906101000a900473ffffffffffffffffffffffffffffffffffffffff16905089565b600260009054906101000a900473ffffffffffffffffffffffffffffffffffffffff1673ffffffffffffffffffffffffffffffffffffffff163373ffffffffffffffffffffffffffffffffffffffff16146109505733600260009054906101000a900473ffffffffffffffffffffffffffffffffffffffff166040517f1cf993f400000000000000000000000000000000000000000000000000000000815260040161094792919061330d565b60405180910390fd5b61095b838383612276565b505050565b610968611e4d565b73ffffffffffffffffffffffffffffffffffffffff163373ffffffffffffffffffffffffffffffffffffffff16146109d5576040517f08c379a00000000000000000000000000000000000000000000000000000000081526004016109cc90613393565b60405180910390fd5b60008311610a18576040517f08c379a0000000000000000000000000000000000000000000000000000000008152600401610a0f906133ff565b60405180910390fd5b6000821480610a28575060028210155b610a67576040517f08c379a0000000000000000000000000000000000000000000000000000000008152600401610a5e9061346b565b60405180910390fd5b600060096000600854815260200190815260200160002090506008548160000181905550838160010181905550828160020181905550818160060160026101000a81548173ffffffffffffffffffffffffffffffffffffffff021916908373ffffffffffffffffffffffffffffffffffffffff1602179055504281600501819055506008547f04f628c9a49ceb1c4d7a9b98e302b3b8643606c856a4d469cb4279c80440a204858585604051610b1f9392919061348b565b60405180910390a260086000815480929190610b3a906134f1565b919050555050505050565b62093a8081565b610b5461255d565b6000600c60008373ffffffffffffffffffffffffffffffffffffffff1673ffffffffffffffffffffffffffffffffffffffff16815260200190815260200160002054905060008103610bdb576040517f08c379a0000000000000000000000000000000000000000000000000000000008152600401610bd290613585565b60405180910390fd5b6000600c60008473ffffffffffffffffffffffffffffffffffffffff1673ffffffffffffffffffffffffffffffffffffffff1681526020019081526020016000208190555060008273ffffffffffffffffffffffffffffffffffffffff1682604051610c46906135d6565b60006040518083038185875af1925050503d8060008114610c83576040519150601f19603f3d011682016040523d82523d6000602084013e610c88565b606091505b5050905080610ccc576040517f08c379a0000000000000000000000000000000000000000000000000000000008152600401610cc390613637565b60405180910390fd5b8273ffffffffffffffffffffffffffffffffffffffff167f884edad9ce6fa2440d8a54cc123490eb96d2768479d49ff9c7366125a942436483604051610d129190612c71565b60405180910390a25050610d246125a3565b50565b60065481565b610d356125ad565b610d3d61263d565b565b606060096000838152602001908152602001600020600301805480602002602001604051908101604052809291908181526020018280548015610dd757602002820191906000526020600020905b8160009054906101000a900473ffffffffffffffffffffffffffffffffffffffff1673ffffffffffffffffffffffffffffffffffffffff1681526020019060010190808311610d8d575b50505050509050919050565b600760009054906101000a900473ffffffffffffffffffffffffffffffffffffffff1681565b6000600760009054906101000a900473ffffffffffffffffffffffffffffffffffffffff16905090565b6000600460009054906101000a900460ff16905090565b610e526125ad565b6064811115610e96576040517f08c379a0000000000000000000000000000000000000000000000000000000008152600401610e8d906136a3565b60405180910390fd5b8060068190555050565b610ea861255d565b610eb06126a0565b60006009600084815260200190815260200160002090506000816001015411610f0e576040517f08c379a0000000000000000000000000000000000000000000000000000000008152600401610f059061370f565b60405180910390fd5b600073ffffffffffffffffffffffffffffffffffffffff168160060160029054906101000a900473ffffffffffffffffffffffffffffffffffffffff1673ffffffffffffffffffffffffffffffffffffffff1614610fa1576040517f08c379a0000000000000000000000000000000000000000000000000000000008152600401610f989061377b565b60405180910390fd5b8060040160009054906101000a900460ff1615610ff3576040517f08c379a0000000000000000000000000000000000000000000000000000000008152600401610fea906137e7565b60405180910390fd5b8060060160009054906101000a900460ff1615611045576040517f08c379a000000000000000000000000000000000000000000000000000000000815260040161103c90613853565b60405180910390fd5b8060060160019054906101000a900460ff1615611097576040517f08c379a000000000000000000000000000000000000000000000000000000000815260040161108e906138bf565b60405180910390fd5b6000816002015414806110b4575080600201548160030180549050105b6110f3576040517f08c379a00000000000000000000000000000000000000000000000000000000081526004016110ea9061392b565b60405180910390fd5b80600101543414611139576040517f08c379a000000000000000000000000000000000000000000000000000000000815260040161113090613997565b60405180910390fd5b3373ffffffffffffffffffffffffffffffffffffffff168273ffffffffffffffffffffffffffffffffffffffff16036111a7576040517f08c379a000000000000000000000000000000000000000000000000000000000815260040161119e90613a03565b60405180910390fd5b600081600201541180156111cc575062093a8081600501546111c99190613a23565b42115b156112565760018160060160006101000a81548160ff021916908315150217905550827f83670f4ac13332750b2132bdc7fa621d7fd7aef650805839de1e84262216a3e160405160405180910390a26040517f08c379a000000000000000000000000000000000000000000000000000000000815260040161124d90613853565b60405180910390fd5b60006064600554346112689190613a57565b6112729190613ac8565b905060008073ffffffffffffffffffffffffffffffffffffffff168473ffffffffffffffffffffffffffffffffffffffff1614611344576064600654836112b99190613a57565b6112c39190613ac8565b905060008473ffffffffffffffffffffffffffffffffffffffff1682604051806020016040528060008152506040516112fc9190613b5f565b60006040518083038185875af1925050503d8060008114611339576040519150601f19603f3d011682016040523d82523d6000602084013e61133e565b606091505b50509050505b600081836113529190613b76565b9050600081111561142d576000600760009054906101000a900473ffffffffffffffffffffffffffffffffffffffff1673ffffffffffffffffffffffffffffffffffffffff16826040516113a5906135d6565b60006040518083038185875af1925050503d80600081146113e2576040519150601f19603f3d011682016040523d82523d6000602084013e6113e7565b606091505b505090508061142b576040517f08c379a000000000000000000000000000000000000000000000000000000000815260040161142290613bf6565b60405180910390fd5b505b83600301339080600181540180825580915050600190039060005260206000200160009091909190916101000a81548173ffffffffffffffffffffffffffffffffffffffff021916908373ffffffffffffffffffffffffffffffffffffffff1602179055503373ffffffffffffffffffffffffffffffffffffffff16867f5b58cf3bfce2101b6bac355684e4c9f42297d0f95987e29036c73c13f97da727876040516114d99190613067565b60405180910390a3600084600201541180156114ff575083600201548460030180549050145b1561150e5761150d866126e1565b5b5050505061151a6125a3565b5050565b611526612bd3565b6009600083815260200190815260200160002060405180610140016040529081600082015481526020016001820154815260200160028201548152602001600382018054806020026020016040519081016040528092919081815260200182805480156115e857602002820191906000526020600020905b8160009054906101000a900473ffffffffffffffffffffffffffffffffffffffff1673ffffffffffffffffffffffffffffffffffffffff168152602001906001019080831161159e575b505050505081526020016004820160009054906101000a900460ff161515151581526020016004820160019054906101000a900473ffffffffffffffffffffffffffffffffffffffff1673ffffffffffffffffffffffffffffffffffffffff1673ffffffffffffffffffffffffffffffffffffffff168152602001600582015481526020016006820160009054906101000a900460ff161515151581526020016006820160019054906101000a900460ff161515151581526020016006820160029054906101000a900473ffffffffffffffffffffffffffffffffffffffff1673ffffffffffffffffffffffffffffffffffffffff1673ffffffffffffffffffffffffffffffffffffffff16815250509050919050565b600160009054906101000a900473ffffffffffffffffffffffffffffffffffffffff1673ffffffffffffffffffffffffffffffffffffffff163373ffffffffffffffffffffffffffffffffffffffff161461178f576040517f08c379a000000000000000000000000000000000000000000000000000000000815260040161178690613c62565b60405180910390fd5b60008060009054906101000a900473ffffffffffffffffffffffffffffffffffffffff169050336000806101000a81548173ffffffffffffffffffffffffffffffffffffffff021916908373ffffffffffffffffffffffffffffffffffffffff1602179055506000600160006101000a81548173ffffffffffffffffffffffffffffffffffffffff021916908373ffffffffffffffffffffffffffffffffffffffff1602179055503373ffffffffffffffffffffffffffffffffffffffff168173ffffffffffffffffffffffffffffffffffffffff167f8be0079c531659141344cd1fd0a4f28419497f9722a3daafe3b4186f6b6457e060405160405180910390a350565b61189c6125ad565b6118a461255d565b804710156118e7576040517f08c379a00000000000000000000000000000000000000000000000000000000081526004016118de90613cce565b60405180910390fd5b60003373ffffffffffffffffffffffffffffffffffffffff168260405161190d906135d6565b60006040518083038185875af1925050503d806000811461194a576040519150601f19603f3d011682016040523d82523d6000602084013e61194f565b606091505b5050905080611993576040517f08c379a000000000000000000000000000000000000000000000000000000000815260040161198a90613637565b60405180910390fd5b3373ffffffffffffffffffffffffffffffffffffffff167f884edad9ce6fa2440d8a54cc123490eb96d2768479d49ff9c7366125a9424364836040516119d99190612c71565b60405180910390a2506119ea6125a3565b50565b6119f56125ad565b6064811115611a39576040517f08c379a0000000000000000000000000000000000000000000000000000000008152600401611a3090613d3a565b60405180910390fd5b8060058190555050565b6000600960008381526020019081526020016000209050611a62611e4d565b73ffffffffffffffffffffffffffffffffffffffff163373ffffffffffffffffffffffffffffffffffffffff1614611acf576040517f08c379a0000000000000000000000000000000000000000000000000000000008152600401611ac690613da6565b60405180910390fd5b6000816002015414611b16576040517f08c379a0000000000000000000000000000000000000000000000000000000008152600401611b0d90613e12565b60405180910390fd5b8060040160009054906101000a900460ff1615611b68576040517f08c379a0000000000000000000000000000000000000000000000000000000008152600401611b5f906137e7565b60405180910390fd5b6001816003018054905011611bb2576040517f08c379a0000000000000000000000000000000000000000000000000000000008152600401611ba990613e7e565b60405180910390fd5b611bbb826126e1565b5050565b6000600654905090565b60055481565b611bd76125ad565b611bdf61290a565b565b611be96125ad565b611bf161255d565b60006009600083815260200190815260200160002090506000816002015411611c4f576040517f08c379a0000000000000000000000000000000000000000000000000000000008152600401611c4690613eea565b60405180910390fd5b8060060160019054906101000a900460ff1615611ca1576040517f08c379a0000000000000000000000000000000000000000000000000000000008152600401611c9890613f56565b60405180910390fd5b8060060160009054906101000a900460ff1680611ccf575062093a808160050154611ccc9190613a23565b42115b611d0e576040517f08c379a0000000000000000000000000000000000000000000000000000000008152600401611d0590613fc2565b60405180910390fd5b6000816003018054905011611d58576040517f08c379a0000000000000000000000000000000000000000000000000000000008152600401611d4f9061402e565b60405180910390fd5b60018160060160016101000a81548160ff021916908315150217905550600060646005546064611d889190613b76565b8360010154611d979190613a57565b611da19190613ac8565b905060005b8260030180549050811015611e1257611dff836003018281548110611dce57611dcd61404e565b5b9060005260206000200160009054906101000a900473ffffffffffffffffffffffffffffffffffffffff168361296d565b8080611e0a906134f1565b915050611da6565b50827f2266501136f5645e558b3e4750659d308e503e7fca2693e3ab049e7dcde4ec0b60405160405180910390a25050611e4a6125a3565b50565b60008060009054906101000a900473ffffffffffffffffffffffffffffffffffffffff16905090565b611e7e611e4d565b73ffffffffffffffffffffffffffffffffffffffff163373ffffffffffffffffffffffffffffffffffffffff1614158015611f075750600260009054906101000a900473ffffffffffffffffffffffffffffffffffffffff1673ffffffffffffffffffffffffffffffffffffffff163373ffffffffffffffffffffffffffffffffffffffff1614155b15611f765733611f15611e4d565b600260009054906101000a900473ffffffffffffffffffffffffffffffffffffffff166040517f061db9c1000000000000000000000000000000000000000000000000000000008152600401611f6d9392919061407d565b60405180910390fd5b600073ffffffffffffffffffffffffffffffffffffffff168173ffffffffffffffffffffffffffffffffffffffff1603611fdc576040517fd92e233d00000000000000000000000000000000000000000000000000000000815260040160405180910390fd5b80600260006101000a81548173ffffffffffffffffffffffffffffffffffffffff021916908373ffffffffffffffffffffffffffffffffffffffff1602179055507fd1a6a14209a385a964d036e404cb5cfb71f4000cdb03c9366292430787261be68160405161204c9190613067565b60405180910390a150565b600b818154811061206757600080fd5b906000526020600020016000915054906101000a900473ffffffffffffffffffffffffffffffffffffffff1681565b6000600854905090565b600260009054906101000a900473ffffffffffffffffffffffffffffffffffffffff1681565b6000600554905090565b6060600b80548060200260200160405190810160405280929190818152602001828054801561215457602002820191906000526020600020905b8160009054906101000a900473ffffffffffffffffffffffffffffffffffffffff1673ffffffffffffffffffffffffffffffffffffffff168152602001906001019080831161210a575b5050505050905090565b6000600c60008373ffffffffffffffffffffffffffffffffffffffff1673ffffffffffffffffffffffffffffffffffffffff168152602001908152602001600020549050919050565b6121af6125ad565b600073ffffffffffffffffffffffffffffffffffffffff168173ffffffffffffffffffffffffffffffffffffffff160361221e576040517f08c379a000000000000000000000000000000000000000000000000000000000815260040161221590614100565b60405180910390fd5b80600760006101000a81548173ffffffffffffffffffffffffffffffffffffffff021916908373ffffffffffffffffffffffffffffffffffffffff16021790555050565b61226a6125ad565b612273816129c7565b50565b600260009054906101000a900473ffffffffffffffffffffffffffffffffffffffff1673ffffffffffffffffffffffffffffffffffffffff163373ffffffffffffffffffffffffffffffffffffffff1614612306576040517f08c379a00000000000000000000000000000000000000000000000000000000081526004016122fd9061416c565b60405180910390fd5b6000600a600085815260200190815260200160002054905060006009600083815260200190815260200160002090508060040160009054906101000a900460ff16612386576040517f08c379a000000000000000000000000000000000000000000000000000000000815260040161237d906141d8565b60405180910390fd5b60008160030180549050858560008181106123a4576123a361404e565b5b905060200201356123b591906141f8565b905060008260030182815481106123cf576123ce61404e565b5b9060005260206000200160009054906101000a900473ffffffffffffffffffffffffffffffffffffffff169050808360040160016101000a81548173ffffffffffffffffffffffffffffffffffffffff021916908373ffffffffffffffffffffffffffffffffffffffff16021790555060008360040160006101000a81548160ff0219169083151502179055506000836003018054905084600101546124759190613a57565b905060006064600554606461248a9190613b76565b836124959190613a57565b61249f9190613ac8565b90506124ab838261296d565b600b839080600181540180825580915050600190039060005260206000200160009091909190916101000a81548173ffffffffffffffffffffffffffffffffffffffff021916908373ffffffffffffffffffffffffffffffffffffffff1602179055508273ffffffffffffffffffffffffffffffffffffffff16867f7286599a58b2822d6e330944038c6d3424134069b04156404050720b942d87ee60405160405180910390a3505050505050505050565b600260035403612599576040517f3ee5aeb500000000000000000000000000000000000000000000000000000000815260040160405180910390fd5b6002600381905550565b6001600381905550565b60008054906101000a900473ffffffffffffffffffffffffffffffffffffffff1673ffffffffffffffffffffffffffffffffffffffff163373ffffffffffffffffffffffffffffffffffffffff161461263b576040517f08c379a000000000000000000000000000000000000000000000000000000000815260040161263290614275565b60405180910390fd5b565b612645612af3565b6000600460006101000a81548160ff0219169083151502179055507f5db9ee0a495bf2e6ff9c91a7834c1ba4fdd244a5e8aa4e537bd38aeae4b073aa612689612b33565b6040516126969190613067565b60405180910390a1565b6126a8610e33565b156126df576040517fd93c066500000000000000000000000000000000000000000000000000000000815260040160405180910390fd5b565b60006009600083815260200190815260200160002090508060040160009054906101000a900460ff161561274a576040517f08c379a0000000000000000000000000000000000000000000000000000000008152600401612741906142e1565b60405180910390fd5b6001816003018054905011612794576040517f08c379a000000000000000000000000000000000000000000000000000000000815260040161278b90613e7e565b60405180910390fd5b60018160040160006101000a81548160ff0219169083151502179055506000600260009054906101000a900473ffffffffffffffffffffffffffffffffffffffff1673ffffffffffffffffffffffffffffffffffffffff16639b1c385e6040518060c001604052807f0ffbbd0c1c18c0263dd778dadd1d64240d7bc338d95fec1cf0473928ca7eaf9e81526020017f54827d48d7559f12034aa3d9fdf14af39d4afe514eb8769d44932553cda575be8152602001600361ffff168152602001620186a063ffffffff168152602001600163ffffffff168152602001612889604051806020016040528060001515815250612b3b565b8152506040518263ffffffff1660e01b81526004016128a8919061443a565b6020604051808303816000875af11580156128c7573d6000803e3d6000fd5b505050506040513d601f19601f820116820180604052508101906128eb9190614471565b905082600a600083815260200190815260200160002081905550505050565b6129126126a0565b6001600460006101000a81548160ff0219169083151502179055507f62e78cea01bee320cd4e420270b5ea74000d11b0c9f74754ebdbfc544b05a258612956612b33565b6040516129639190613067565b60405180910390a1565b80600c60008473ffffffffffffffffffffffffffffffffffffffff1673ffffffffffffffffffffffffffffffffffffffff16815260200190815260200160002060008282546129bc9190613a23565b925050819055505050565b3373ffffffffffffffffffffffffffffffffffffffff168173ffffffffffffffffffffffffffffffffffffffff1603612a35576040517f08c379a0000000000000000000000000000000000000000000000000000000008152600401612a2c906144ea565b60405180910390fd5b80600160006101000a81548173ffffffffffffffffffffffffffffffffffffffff021916908373ffffffffffffffffffffffffffffffffffffffff1602179055508073ffffffffffffffffffffffffffffffffffffffff1660008054906101000a900473ffffffffffffffffffffffffffffffffffffffff1673ffffffffffffffffffffffffffffffffffffffff167fed8889f560326eb138920d842192f0eb3dd22b4f139c87a2c57538e05bae127860405160405180910390a350565b612afb610e33565b612b31576040517f8dfc202b00000000000000000000000000000000000000000000000000000000815260040160405180910390fd5b565b600033905090565b60607f92fd13387c7fe7befbc38d303d6468778fb9731bc4583f17d92989c6fcfdeaaa82604051602401612b6f9190614526565b604051602081830303815290604052907bffffffffffffffffffffffffffffffffffffffffffffffffffffffff19166020820180517bffffffffffffffffffffffffffffffffffffffffffffffffffffffff83818316178352505050509050919050565b60405180610140016040528060008152602001600081526020016000815260200160608152602001600015158152602001600073ffffffffffffffffffffffffffffffffffffffff16815260200160008152602001600015158152602001600015158152602001600073ffffffffffffffffffffffffffffffffffffffff1681525090565b6000819050919050565b612c6b81612c58565b82525050565b6000602082019050612c866000830184612c62565b92915050565b600080fd5b600080fd5b612c9f81612c58565b8114612caa57600080fd5b50565b600081359050612cbc81612c96565b92915050565b600060208284031215612cd857612cd7612c8c565b5b6000612ce684828501612cad565b91505092915050565b60008115159050919050565b612d0481612cef565b82525050565b600073ffffffffffffffffffffffffffffffffffffffff82169050919050565b6000612d3582612d0a565b9050919050565b612d4581612d2a565b82525050565b600061012082019050612d61600083018c612c62565b612d6e602083018b612c62565b612d7b604083018a612c62565b612d886060830189612cfb565b612d956080830188612d3c565b612da260a0830187612c62565b612daf60c0830186612cfb565b612dbc60e0830185612cfb565b612dca610100830184612d3c565b9a9950505050505050505050565b600080fd5b600080fd5b600080fd5b60008083601f840112612dfd57612dfc612dd8565b5b8235905067ffffffffffffffff811115612e1a57612e19612ddd565b5b602083019150836020820283011115612e3657612e35612de2565b5b9250929050565b600080600060408486031215612e5657612e55612c8c565b5b6000612e6486828701612cad565b935050602084013567ffffffffffffffff811115612e8557612e84612c91565b5b612e9186828701612de7565b92509250509250925092565b612ea681612d2a565b8114612eb157600080fd5b50565b600081359050612ec381612e9d565b92915050565b600080600060608486031215612ee257612ee1612c8c565b5b6000612ef086828701612cad565b9350506020612f0186828701612cad565b9250506040612f1286828701612eb4565b9150509250925092565b6000612f2782612d0a565b9050919050565b612f3781612f1c565b8114612f4257600080fd5b50565b600081359050612f5481612f2e565b92915050565b600060208284031215612f7057612f6f612c8c565b5b6000612f7e84828501612f45565b91505092915050565b600081519050919050565b600082825260208201905092915050565b6000819050602082019050919050565b612fbc81612d2a565b82525050565b6000612fce8383612fb3565b60208301905092915050565b6000602082019050919050565b6000612ff282612f87565b612ffc8185612f92565b935061300783612fa3565b8060005b8381101561303857815161301f8882612fc2565b975061302a83612fda565b92505060018101905061300b565b5085935050505092915050565b6000602082019050818103600083015261305f8184612fe7565b905092915050565b600060208201905061307c6000830184612d3c565b92915050565b60006020820190506130976000830184612cfb565b92915050565b600080604083850312156130b4576130b3612c8c565b5b60006130c285828601612cad565b92505060206130d385828601612eb4565b9150509250929050565b6130e681612c58565b82525050565b600082825260208201905092915050565b600061310882612f87565b61311281856130ec565b935061311d83612fa3565b8060005b8381101561314e5781516131358882612fc2565b975061314083612fda565b925050600181019050613121565b5085935050505092915050565b61316481612cef565b82525050565b60006101408301600083015161318360008601826130dd565b50602083015161319660208601826130dd565b5060408301516131a960408601826130dd565b50606083015184820360608601526131c182826130fd565b91505060808301516131d6608086018261315b565b5060a08301516131e960a0860182612fb3565b5060c08301516131fc60c08601826130dd565b5060e083015161320f60e086018261315b565b5061010083015161322461010086018261315b565b50610120830151613239610120860182612fb3565b508091505092915050565b6000602082019050818103600083015261325e818461316a565b905092915050565b60006020828403121561327c5761327b612c8c565b5b600061328a84828501612eb4565b91505092915050565b6000819050919050565b60006132b86132b36132ae84612d0a565b613293565b612d0a565b9050919050565b60006132ca8261329d565b9050919050565b60006132dc826132bf565b9050919050565b6132ec816132d1565b82525050565b600060208201905061330760008301846132e3565b92915050565b60006040820190506133226000830185612d3c565b61332f6020830184612d3c565b9392505050565b600082825260208201905092915050565b7f4f6e6c79206f776e657200000000000000000000000000000000000000000000600082015250565b600061337d600a83613336565b915061338882613347565b602082019050919050565b600060208201905081810360008301526133ac81613370565b9050919050565b7f496e76616c696420707269636500000000000000000000000000000000000000600082015250565b60006133e9600d83613336565b91506133f4826133b3565b602082019050919050565b60006020820190508181036000830152613418816133dc565b9050919050565b7f4d696e203220706c6179657273206f72203020666f7220676c6f62616c000000600082015250565b6000613455601d83613336565b91506134608261341f565b602082019050919050565b6000602082019050818103600083015261348481613448565b9050919050565b60006060820190506134a06000830186612c62565b6134ad6020830185612c62565b6134ba6040830184612d3c565b949350505050565b7f4e487b7100000000000000000000000000000000000000000000000000000000600052601160045260246000fd5b60006134fc82612c58565b91507fffffffffffffffffffffffffffffffffffffffffffffffffffffffffffffffff820361352e5761352d6134c2565b5b600182019050919050565b7f4e6f2066756e647320746f207769746864726177000000000000000000000000600082015250565b600061356f601483613336565b915061357a82613539565b602082019050919050565b6000602082019050818103600083015261359e81613562565b9050919050565b600081905092915050565b50565b60006135c06000836135a5565b91506135cb826135b0565b600082019050919050565b60006135e1826135b3565b9150819050919050565b7f5769746864726177206661696c65640000000000000000000000000000000000600082015250565b6000613621600f83613336565b915061362c826135eb565b602082019050919050565b6000602082019050818103600083015261365081613614565b9050919050565b7f526566657272616c2070657263656e7420746f6f206869676800000000000000600082015250565b600061368d601983613336565b915061369882613657565b602082019050919050565b600060208201905081810360008301526136bc81613680565b9050919050565b7f526f6f6d20646f6573206e6f7420657869737400000000000000000000000000600082015250565b60006136f9601383613336565b9150613704826136c3565b602082019050919050565b60006020820190508181036000830152613728816136ec565b9050919050565b7f4552433230206e6f7420737570706f7274656420796574000000000000000000600082015250565b6000613765601783613336565b91506137708261372f565b602082019050919050565b6000602082019050818103600083015261379481613758565b9050919050565b7f4472617720696e2070726f677265737300000000000000000000000000000000600082015250565b60006137d1601083613336565b91506137dc8261379b565b602082019050919050565b60006020820190508181036000830152613800816137c4565b9050919050565b7f526f6f6d20657870697265640000000000000000000000000000000000000000600082015250565b600061383d600c83613336565b915061384882613807565b602082019050919050565b6000602082019050818103600083015261386c81613830565b9050919050565b7f526f6f6d20616c726561647920726566756e6465640000000000000000000000600082015250565b60006138a9601583613336565b91506138b482613873565b602082019050919050565b600060208201905081810360008301526138d88161389c565b9050919050565b7f526f6f6d2066756c6c0000000000000000000000000000000000000000000000600082015250565b6000613915600983613336565b9150613920826138df565b602082019050919050565b6000602082019050818103600083015261394481613908565b9050919050565b7f496e636f7272656374204554482073656e740000000000000000000000000000600082015250565b6000613981601283613336565b915061398c8261394b565b602082019050919050565b600060208201905081810360008301526139b081613974565b9050919050565b7f43616e6e6f7420726566657220796f757273656c660000000000000000000000600082015250565b60006139ed601583613336565b91506139f8826139b7565b602082019050919050565b60006020820190508181036000830152613a1c816139e0565b9050919050565b6000613a2e82612c58565b9150613a3983612c58565b9250828201905080821115613a5157613a506134c2565b5b92915050565b6000613a6282612c58565b9150613a6d83612c58565b9250828202613a7b81612c58565b91508282048414831517613a9257613a916134c2565b5b5092915050565b7f4e487b7100000000000000000000000000000000000000000000000000000000600052601260045260246000fd5b6000613ad382612c58565b9150613ade83612c58565b925082613aee57613aed613a99565b5b828204905092915050565b600081519050919050565b60005b83811015613b22578082015181840152602081019050613b07565b60008484015250505050565b6000613b3982613af9565b613b4381856135a5565b9350613b53818560208601613b04565b80840191505092915050565b6000613b6b8284613b2e565b915081905092915050565b6000613b8182612c58565b9150613b8c83612c58565b9250828203905081811115613ba457613ba36134c2565b5b92915050565b7f466565207472616e73666572206661696c656400000000000000000000000000600082015250565b6000613be0601383613336565b9150613beb82613baa565b602082019050919050565b60006020820190508181036000830152613c0f81613bd3565b9050919050565b7f4d7573742062652070726f706f736564206f776e657200000000000000000000600082015250565b6000613c4c601683613336565b9150613c5782613c16565b602082019050919050565b60006020820190508181036000830152613c7b81613c3f565b9050919050565b7f4e6f7420656e6f7567682062616c616e63650000000000000000000000000000600082015250565b6000613cb8601283613336565b9150613cc382613c82565b602082019050919050565b60006020820190508181036000830152613ce781613cab565b9050919050565b7f50657263656e7420746f6f206869676800000000000000000000000000000000600082015250565b6000613d24601083613336565b9150613d2f82613cee565b602082019050919050565b60006020820190508181036000830152613d5381613d17565b9050919050565b7f4f6e6c79206f776e65722f63726f6e0000000000000000000000000000000000600082015250565b6000613d90600f83613336565b9150613d9b82613d5a565b602082019050919050565b60006020820190508181036000830152613dbf81613d83565b9050919050565b7f4e6f74206120676c6f62616c20726f6f6d000000000000000000000000000000600082015250565b6000613dfc601183613336565b9150613e0782613dc6565b602082019050919050565b60006020820190508181036000830152613e2b81613def565b9050919050565b7f4e6f7420656e6f75676820706c61796572730000000000000000000000000000600082015250565b6000613e68601283613336565b9150613e7382613e32565b602082019050919050565b60006020820190508181036000830152613e9781613e5b565b9050919050565b7f4e6f742061207374616e6461726420726f6f6d00000000000000000000000000600082015250565b6000613ed4601383613336565b9150613edf82613e9e565b602082019050919050565b60006020820190508181036000830152613f0381613ec7565b9050919050565b7f416c726561647920726566756e64656400000000000000000000000000000000600082015250565b6000613f40601083613336565b9150613f4b82613f0a565b602082019050919050565b60006020820190508181036000830152613f6f81613f33565b9050919050565b7f4e6f742065787069726564207965740000000000000000000000000000000000600082015250565b6000613fac600f83613336565b9150613fb782613f76565b602082019050919050565b60006020820190508181036000830152613fdb81613f9f565b9050919050565b7f4e6f20706c617965727320746f20726566756e64000000000000000000000000600082015250565b6000614018601483613336565b915061402382613fe2565b602082019050919050565b600060208201905081810360008301526140478161400b565b9050919050565b7f4e487b7100000000000000000000000000000000000000000000000000000000600052603260045260246000fd5b60006060820190506140926000830186612d3c565b61409f6020830185612d3c565b6140ac6040830184612d3c565b949350505050565b7f496e76616c696420726563697069656e74000000000000000000000000000000600082015250565b60006140ea601183613336565b91506140f5826140b4565b602082019050919050565b60006020820190508181036000830152614119816140dd565b9050919050565b7f4f6e6c792056524620436f6f7264696e61746f72000000000000000000000000600082015250565b6000614156601483613336565b915061416182614120565b602082019050919050565b6000602082019050818103600083015261418581614149565b9050919050565b7f4e6f742064726177696e67000000000000000000000000000000000000000000600082015250565b60006141c2600b83613336565b91506141cd8261418c565b602082019050919050565b600060208201905081810360008301526141f1816141b5565b9050919050565b600061420382612c58565b915061420e83612c58565b92508261421e5761421d613a99565b5b828206905092915050565b7f4f6e6c792063616c6c61626c65206279206f776e657200000000000000000000600082015250565b600061425f601683613336565b915061426a82614229565b602082019050919050565b6000602082019050818103600083015261428e81614252565b9050919050565b7f416c72656164792064726177696e670000000000000000000000000000000000600082015250565b60006142cb600f83613336565b91506142d682614295565b602082019050919050565b600060208201905081810360008301526142fa816142be565b9050919050565b6000819050919050565b61431481614301565b82525050565b600061ffff82169050919050565b6143318161431a565b82525050565b600063ffffffff82169050919050565b61435081614337565b82525050565b600082825260208201905092915050565b6000601f19601f8301169050919050565b600061438382613af9565b61438d8185614356565b935061439d818560208601613b04565b6143a681614367565b840191505092915050565b600060c0830160008301516143c9600086018261430b565b5060208301516143dc60208601826130dd565b5060408301516143ef6040860182614328565b5060608301516144026060860182614347565b5060808301516144156080860182614347565b5060a083015184820360a086015261442d8282614378565b9150508091505092915050565b6000602082019050818103600083015261445481846143b1565b905092915050565b60008151905061446b81612c96565b92915050565b60006020828403121561448757614486612c8c565b5b60006144958482850161445c565b91505092915050565b7f43616e6e6f74207472616e7366657220746f2073656c66000000000000000000600082015250565b60006144d4601783613336565b91506144df8261449e565b602082019050919050565b60006020820190508181036000830152614503816144c7565b9050919050565b602082016000820151614520600085018261315b565b50505050565b600060208201905061453b600083018461450a565b9291505056fea264697066735822122091f13f01dd52895a2b7a2f2b97b8b749bb5d3bbb5950620a3c11baec2d2439f864736f6c63430008140033",
  "linkReferences": {},
  "deployedLinkReferences": {}
}